:100000000C9463000C948B000C948B000C94110ADC
:100010000C94110A0C94110A0C948B000C948B0014
:100020000C948B000C948B000C948B000C948B0024
:100030000C948B000C948B000C948B000C948B0014
:100040000C9461070C948B000C94AF080C94AB07D4
:100050000C948B000C948B000C948B000C948B00F4
:100060000C948B000C948B000000000024002700EF
:100070002A0000000008000201000003040700003D
:1000800000000000000000000000250028002B00F8
:1000900000000000230026002900040404040404D6
:1000A0000404020202020202030303030303010227
:1000B00004081020408001020408102001020408F6
:1000C0001020EE0AFF0E11241FBECFEFD8E0DEBFD6
:1000D000CDBF12E0A0E0B1E0E8E0F3E202C005909D
:1000E0000D92A633B107D9F724E0A6E3B2E001C030
:1000F0001D92AC38B207E1F710E0C2E6D0E004C0D0
:100100002197FE010E94940FC136D107C9F70E94C2
:10011000D10B0C9477110C94000080E991E00895C4
:10012000569A0895AC014150510924E530E0429FB0
:10013000C001439F900D529F900D1124855C9D4FEF
:1001400040E050E020E030E0FC01E20FF31F1082BD
:10015000118212822D5F3F4F2C303105A9F74F5F7E
:100160005F4F0C964730510569F7089580E090E0A5
:100170000895FC01858596850895CF93DF9300D07F
:1001800000D000D0CDB7DEB7AB011C821D821E822D
:10019000DC01ED91FC910190F081E02D19821A8231
:1001A0001B829E012F5F3F4FBE016C5F7F4F099501
:1001B00026960FB6F894DEBF0FBECDBFDF91CF916C
:1001C00008954F925F926F927F928F92AF92BF92FB
:1001D000CF92EF92FF920F931F93CF93DF933C0147
:1001E000EB010E942006F30127853089621B730B07
:1001F0006A307105B0F3F894E881F9815BB150641D
:100200008BB18F7B8BB96A859F81262F291B922FFB
:100210002F83BF844A805B807D85FC84EE847F5F72
:10022000F394E3943E814885A984CB841181D20163
:1002300020E0C32F022F322F3181112788943111F2
:10024000390F08F43FEF9195889470FD130F1795BF
:10025000889471FD130F1795889472FD130F1795ED
:10026000889473FD130F1795889474FD130F1795D9
:10027000889475FD130F1795889476FD130F1795C5
:10028000889477FD130F17958894232F7111212FD0
:10029000960F122F002C5BB900C017FF8BB930816D
:1002A0002227889400C000C0002C8BB931113C0F6C
:1002B00000C0002C5BB900C016FF8BB908F43FEFFB
:1002C000C195889400C000C0002C8BB9F0FC230FAE
:1002D00000C0002C5BB900C015FF8BB9279588942E
:1002E000F1FC230F00C000C0002C8BB92795889427
:1002F00000C0002C5BB900C014FF8BB9F2FC230FC7
:100300002795889400C000C0002C8BB9F3FC230F04
:1003100000C0002C5BB900C013FF8BB927958894EF
:10032000F4FC230F00C000C0002C8BB927958894E3
:1003300000C0002C5BB900C012FF8BB9F5FC230F85
:100340002795889400C000C0002C8BB9F6FC230FC1
:1003500000C0002C5BB900C011FF8BB927958894B1
:10036000F7FC230F00C000C0002C8BB927958894A0
:1003700000C0002C5BB900C010FF8BB9132FF11027
:10038000122FCA0D00C000C0002C8BB900C000C0E5
:10039000002C5BB900C017FF8BB9328122278894EB
:1003A00000C000C0002C8BB93111340F00C0002CEC
:1003B0005BB900C016FF8BB908F43FEFEB0DF11DE0
:1003C00000C000C0002C8BB9E0FC230F00C0002C43
:1003D0005BB900C015FF8BB927958894E1FC230F0A
:1003E00000C000C0002C8BB92795889400C0002C59
:1003F0005BB900C014FF8BB9E2FC230F27958894EA
:1004000000C000C0002C8BB9E3FC230F00C0002CFF
:100410005BB900C013FF8BB927958894E4FC230FC8
:1004200000C000C0002C8BB92795889400C0002C18
:100430005BB900C012FF8BB9E5FC230F27958894A8
:1004400000C000C0002C8BB9E6FC230F00C0002CBC
:100450005BB900C011FF8BB927958894E7FC230F87
:1004600000C000C0002C8BB92795889400C0002CD8
:100470005BB900C010FF8BB9132FE110122F41950B
:1004800000C000C0002C8BB94C0D00C000C05BB98F
:1004900000C017FF8BB931812227889400C000C0AB
:1004A000002C8BB93111390F00C0002C5BB900C092
:1004B00016FF8BB908F43FEF9195889400C000C0F7
:1004C000002C8BB970FD230F00C0002C5BB900C05D
:1004D00015FF8BB92795889471FD230F00C000C0CC
:1004E000002C8BB92795889400C0002C5BB900C004
:1004F00014FF8BB972FD230F2795889400C000C0AC
:10050000002C8BB973FD230F00C0002C5BB900C019
:1005100013FF8BB92795889474FD230F00C000C08A
:10052000002C8BB92795889400C0002C5BB900C0C3
:1005300012FF8BB975FD230F2795889400C000C06A
:10054000002C8BB976FD230F00C0002C5BB900C0D6
:1005500011FF8BB92795889477FD230F00C000C049
:10056000002C8BB92795889400C0002C5BB900C083
:1005700010FF8BB9132F7111122F960F00C000C0FE
:10058000002C8BB9119709F086CE20EE31E0D20114
:100590000E946E0FDC01CB01F4E0B695A79597950C
:1005A0008795FA95D1F720E030E0A9016AE9469EE7
:1005B000412D569E400D511D1124840F951FA11DE4
:1005C000B11D893E43E09407A105B10588F1885E1D
:1005D0009340A109B10942E0B695A79597958795F3
:1005E0004A95D1F747E0849F212D949F200D311D1E
:1005F00011246091360270E0860F971F820F931FBF
:1006000040913C0350913D0360913E0370913F0344
:10061000292F3327420F531F611D711D40933C0347
:1006200050933D0360933E0370933F0380933602E3
:1006300078940E942006F301708B6787DF91CF9139
:100640001F910F91FF90EF90CF90BF90AF908F9040
:100650007F906F905F904F9008950F931F93CF936B
:10066000DF93CDB7DEB762970FB6F894DEBF0FBE4B
:10067000CDBF8C01F901DC011C968C917A836983D2
:100680005C834B835E834D8390819D8791819E87A0
:1006900092819F87813029F4CE0101960E94A10AA0
:1006A00006C01C861B861A86198618861F82188A21
:1006B0001A8A198AD801ED91FC910484F585E02D00
:1006C000BE016F5F7F4FC801099562960FB6F8941F
:1006D000DEBF0FBECDBFDF91CF911F910F91089567
:1006E0000F931F93CF93DF93CDB7DEB762970FB60B
:1006F000F894DEBF0FBECDBF8C01F901DC011C9662
:100700008C917A8369835C834B835E834D83908174
:100710009D8791819E8792819F87813029F4CE01A8
:1007200001960E94A10A06C01C861B861A8619869D
:1007300018861F8283E0888B1A8A198AD801ED9166
:10074000FC910484F585E02DBE016F5F7F4FC801E9
:10075000099562960FB6F894DEBF0FBECDBFDF914C
:10076000CF911F910F9108955F926F927F928F9218
:100770009F92AF92BF92CF92DF92EF92FF920F9330
:100780001F93CF93DF9300D01F92CDB7DEB727E042
:10079000269F5001279FB00C1124019724E530E0DB
:1007A000829F4001839F900C929F900C1124C12C3A
:1007B000D12C00E010E0F801EA0DFB1DE050FF4FE6
:1007C00050803601680C791CE12CF12C80911D04BD
:1007D000589E802D112490911B0420911904298387
:1007E0009A838B83B701660D771D655C7D4FCE01C3
:1007F00001960E946B0983E0E80EF11C8CE0E8167C
:10080000F10421F70F5F1F4F8CE0C80ED11C073099
:10081000110589F60F900F900F90DF91CF911F91E6
:100820000F91FF90EF90DF90CF90BF90AF909F908F
:100830008F907F906F905F9008950F931F93CF9349
:10084000DF93EC0187EC91E00E941206CE010E943A
:1008500090052AE030E0CE01B9010E94190F8C0109
:10086000C436D1057CF0CE0164E670E00E94190F19
:10087000CB01B9010E94190FBC0181E090E00E94F8
:10088000B40307C081E090E00E949200CA30D10515
:1008900084F02AE030E0CE01B9010E94190FCB01AB
:1008A000B9010E94190FBC0182E090E00E94B403DC
:1008B00004C082E090E00E949200B80183E090E0E2
:1008C000DF91CF911F910F910C94B4038091370366
:1008D00090913803181619067CF48FED91E00E9470
:1008E000120680913703909138030E941D04809175
:1008F0003703909138030EC08FEE91E00E941206EC
:100900008091390390913A030E941D04809139032C
:1009100090913A030E94900580E092E00E941206B6
:100920008091DD030C9445068FEF90E090931C04BA
:1009300080931B0480913B03811105C010921A041F
:100940001092190408958091390390913A034F97BA
:100950001CF085E590E002C08AE290E090931A04D2
:1009600080931904089590E0FC01EE58FF4F3491F4
:10097000FC01E255FF4F2491FC01E656FF4FE49144
:10098000EE2309F43BC0332339F1333091F038F4CE
:100990003130A9F0323001F584B58F7D12C0373087
:1009A00091F03830A1F03430B9F4809180008F7D1F
:1009B00003C0809180008F77809380000DC084B544
:1009C0008F7784BD09C08091B0008F7703C080917C
:1009D000B0008F7D8093B000F0E0EE0FFF1FEA576C
:1009E000FF4FA591B4918FB7F894EC91611103C0BA
:1009F00020952E2301C02E2B2C938FBF0895CF93CB
:100A0000DF9390E0FC01E255FF4F2491FC01E65694
:100A1000FF4F8491882361F190E0880F991FFC01BA
:100A2000E859FF4FC591D491FC01EA57FF4FA591BA
:100A3000B491611109C09FB7F894888120958223F1
:100A40008883EC912E230BC0623061F49FB7F89439
:100A50003881822F809583238883EC912E2B2C93D1
:100A60009FBF06C08FB7F894E8812E2B28838FBFD5
:100A7000DF91CF9108952FB7F89460913C03709166
:100A80003D0380913E0390913F032FBF0895CF9285
:100A9000DF92EF92FF920F931F93CF93DF936C013E
:100AA0007A018B01C0E0D0E0CE15DF0589F0D801D6
:100AB0006D918D01D601ED91FC910190F081E02DB9
:100AC000C6010995892B11F47E0102C02196ECCF55
:100AD000C701DF91CF911F910F91FF90EF90DF90B1
:100AE000CF90089580E493E00E94F30721E0892BE2
:100AF00009F420E0822F0895009769F0FC0101902D
:100B00000020E9F73197AF01481B590BBC0180E485
:100B100093E00C94470580E090E008950E944C110A
:100B20008F929F92AF92BF92CF92DF92EF92FF92FD
:100B30000F931F93CF93DF93CDB7DEB7A1970FB677
:100B4000F894DEBF0FBECDBF6C01990FEE08FF0811
:100B5000F7FE31C0E0914003F09141030190F08134
:100B6000E02D6DE280E493E009958C012227332784
:100B7000A9012C193D094E095F0919A2CE018196E0
:100B80007C019AE0892E912CA12CB12CCA01B901CB
:100B9000A50194010E942D0F605DF70162937F0112
:100BA000211531054105510589F7CF010E947C05CA
:100BB000080F191F1EC0A701960119A28E010F5D13
:100BC0001F4F8AE0C82ED12CE12CF12CCA01B901AB
:100BD000A70196010E942D0F605DF80162938F01BD
:100BE000211531054105510589F7CF010E947C058A
:100BF0008C018FE092E00E947C05800F911FA196EE
:100C00000FB6F894DEBF0FBECDBFDF91CF911F911D
:100C10000F91FF90EF90DF90CF90BF90AF909F909B
:100C20008F900895CF93DF930E947C05EC018FE0B5
:100C300092E00E947C058C0F9D1FDF91CF9108955B
:100C40003FB7F89480913B0490913C04A0913D04FF
:100C5000B0913E0426B5A89B05C02F3F19F0019620
:100C6000A11DB11D3FBFBA2FA92F982F8827820F32
:100C7000911DA11DB11DBC01CD0142E0660F771F82
:100C8000881F991F4A95D1F708953F924F925F921E
:100C90006F927F928F929F92AF92BF92CF92DF928C
:100CA000EF92FF920F931F93CF93DF9300D01F9289
:100CB000CDB7DEB7F82E8091E0039091E103A091CB
:100CC000E203B091E303892B8A2B8B2BE9F00E947E
:100CD0002006009147041091480420914904309166
:100CE0004A04DC01CB01801B910BA20BB30B0091DA
:100CF000E0031091E1032091E2033091E3038017B8
:100D00009107A207B307B8F20E9420066093470438
:100D1000709348048093490490934A04E091E80357
:100D2000F091E903309759F04091E4035091E503C5
:100D30006091E6037091E7038F2D0995F82E0091DD
:100D40004504109146044F2C512C612C712C011537
:100D5000110509F461C0D8011C96EC901C97809194
:100D6000DE039091DF038436910510F41C961C92EB
:100D7000D801ED91FC91A280B38019821A821B8266
:100D8000F11014C0F80145855685628173819E017A
:100D90002F5F3F4FC801F5010995D8011C96EC92D1
:100DA0001C9714960D911C911597D1CFF801399687
:100DB000CE0101966C0148019CE0890E911CDF0177
:100DC00013973C902191332001F12223F1F0822FDF
:100DD00090E0A0E0B0E09C01AD012F5F3F4F4F4F8E
:100DE0005F4FC301B2010E94090F9B01AC01832D2B
:100DF00090E0A0E0B0E0BC01CD016F5F7F4F8F4F6E
:100E00009F4F0E94090FD6018C93BFEFCB1ADB0ACC
:100E1000E815F905A1F6B6CF8091430490914404FA
:100E20008C010F5F1F4F10934404009343044997B4
:100E30009CF10E943B054B015C0188EE93E0089F0A
:100E4000B001099F700D189F700D1124072E000C22
:100E5000880B990BC0903F04D0904004E09041046F
:100E6000F0904204A50194012C193D094E095F0937
:100E70000E942D0F3093DF032093DE031092440471
:100E8000109243040E943B0560933F04709340041A
:100E900080934104909342040F900F900F90DF9144
:100EA000CF911F910F91FF90EF90DF90CF90BF9067
:100EB000AF909F908F907F906F905F904F903F90FA
:100EC00008951F920F920FB60F9211242F933F9304
:100ED0008F939F93AF93BF9380913C0390913D0379
:100EE000A0913E03B0913F0330913A0423E0230FD9
:100EF0002D3720F40196A11DB11D05C026E8230F52
:100F00000296A11DB11D20933A0480933C03909357
:100F10003D03A0933E03B0933F0380913B04909127
:100F20003C04A0913D04B0913E040196A11DB11D69
:100F300080933B0490933C04A0933D04B0933E0403
:100F4000BF91AF919F918F913F912F910F900FBEC5
:100F50000F901F9018951F920F920FB60F921124A9
:100F60002F933F934F935F936F937F938F939F93B1
:100F7000AF93BF93EF93FF9380E493E00E94E10867
:100F8000FF91EF91BF91AF919F918F917F916F9161
:100F90005F914F913F912F910F900FBE0F901F9037
:100FA0001895FC01918D828D981761F0828DDF017B
:100FB000A80FB11D5D968C91928D9F5F9F73928F4C
:100FC00090E008958FEF9FEF0895FC01918D828D41
:100FD000981731F0828DE80FF11D858D90E008950E
:100FE0008FEF9FEF0895FC01918D228D892F90E066
:100FF000805C9F4F821B91098F739927089580E031
:1010000090E0892B29F00E94720581110C94000058
:1010100008952091390230913A022817390771F466
:101020009091370280913802981741F0E091370291
:10103000F0E0E45BFB4F808190E008958FEF9FEF3D
:10104000089508951F93CF93DF93DC015C962D9153
:101050003C915D972115310539F481E090E01396BC
:101060009C938E9312973DC05196ED91FC915297AF
:1010700050969C915097892F80951FB75E964C9102
:101080005E9741FB772770F941FD6095F8944081A8
:10109000772311F0492B01C048234083E9012197B0
:1010A000F1F748E0508160FF02C0592B01C058237E
:1010B0005083E9012197F1F76695415099F777231D
:1010C00021F090818923808303C08081982B9083B5
:1010D0001FBF5C968D919C915D970197F1F721E080
:1010E00030E0C901DF91CF911F910895209139021D
:1010F00030913A022817390771F480913802209113
:10110000370290E0805C9F4F821B910960E470E0A1
:101110000E94190F089580E090E00895209139020F
:1011200030913A0228173907B9F49091370280912B
:101130003802981789F0E0913702F0E0E45BFB4F4A
:1011400080812091370230E02F5F3F4F2F7333278C
:101150002093370290E008958FEF9FEF08951F923C
:101160000F920FB60F9211242F938F939F93EF93AB
:10117000FF93E0915003F09151038081E091560379
:10118000F091570382FD12C09081809159038F5FC7
:101190008F7320915A03821751F0E0915903F0E0C8
:1011A000E05CFC4F958F8093590301C08081FF91D3
:1011B000EF919F918F912F910F900FBE0F901F90E5
:1011C0001895FC01848DDF01A80FB11DA35ABF4FF4
:1011D0002C91848D90E001968F739927848FA68936
:1011E000B7892C93A089B1898C9180648C93938D5D
:1011F000848D981306C00288F389E02D80818F7D4D
:1012000080830895EF92FF920F931F93CF93DF9304
:10121000EC0181E0888F9B8D8C8D981305C0E88947
:10122000F989808185FD24C0F62E0B8D10E00F5FBB
:101230001F4F0F731127E02E8C8DE8120CC00FB6D4
:1012400007FCFACFE889F989808185FFF5CFCE01C7
:101250000E94E108F1CF8B8DFE01E80FF11DE35AEA
:10126000FF4FF0820B8FEA89FB898081806207C083
:10127000EE89FF896083E889F989808180648083B1
:1012800081E090E0DF91CF911F910F91FF90EF905F
:101290000895CF93DF93EC01888D8823C9F0EA8904
:1012A000FB89808185FD05C0A889B9898C9186FD5F
:1012B0000FC00FB607FCF5CF808185FFF2CFA8895C
:1012C000B9898C9185FFEDCFCE010E94E108E7CF6F
:1012D000DF91CF910895DC01FB014C9111965C9157
:1012E000119712967C91342F3F71330F330F832F58
:1012F000880F35E5282F239F020E20E0211D1124A1
:10130000642F6074942F907247FD21C061110BC04F
:10131000911104C0822F8095422F11C045E5420FE4
:1013200030E02BEA33C091110DC0382F4AEA349FC8
:10133000030E30E0311D11248BEA831B420F282F4E
:1013400030E024C080E0422F4095322F0EC0611162
:1013500011C091110CC0382F2AEA329F030E30E0E1
:10136000311D11244BEA431B3B5A20E00FC0322FA2
:1013700030950BC0911104C085E5820F3BEA03C094
:101380008AEA820F90E0321B282F40E05F3F11F184
:101390005523E9F0222321F0259F020E20E0211D94
:1013A000442321F0459F040E40E0411D332321F0EA
:1013B000359F030E30E0311D11245095559F050EC9
:1013C00050E0511D1124250F450F350F03C03FEF8D
:1013D0004FEF2FEF7F3F09F420C050E0772321F03B
:1013E000779F512D09F05F5F5523A1F0222321F053
:1013F000259F020E20E0211D442321F0459F040E6D
:1014000040E0411D332321F0359F030E30E0311DB4
:10141000112403C030E040E020E020834183328388
:1014200008951F920F920FB60F9211242F933F939E
:101430004F935F936F937F938F939F93AF93BF93DC
:10144000EF93FF93E0913902F0913A02309709F45B
:1014500051C0968DA685B785858591FF04C09C9166
:10146000892329F447C09C91892309F043C0A389AB
:10147000B4899C918589809589238C9386899789E5
:101480000197F1F7608D718DA685B785558538E098
:1014900020E0CB010197F1F7822F90E09595879599
:1014A000282F4C91452309F02068315091F7868D03
:1014B00081FD20958091380290E001968F739927E5
:1014C00030913702381749F0A0913802B0E0A45BA0
:1014D000BB4F2C938093380203C0868D8160868F2A
:1014E000828D938D0197F1F7A389B4899C918589A9
:1014F000892B8C93FF91EF91BF91AF919F918F9129
:101500007F916F915F914F913F912F910F900FBEFF
:101510000F901F901895E0913902F0913A02E81768
:10152000F90769F4A389B4899C91858980958923F9
:101530008C9310923A021092390281E0089580E073
:101540000895EF92FF920F931F93CF93DF93EC01D7
:1015500090914B049F5F292F277020934B0490FF9D
:1015600002C090E801C090E021FD9064247009F071
:10157000906220E1290FFE013C967E018FE0E80E8B
:10158000F11C00E011E06191662331F070E0C801C8
:101590000E94190F6F5F01C060E0DF0114976C9328
:1015A000322F369F030E30E0311D1124CF010797F3
:1015B000311103C0EC01188203C03150EC013883B3
:1015C000662311F061506C93EE15FF05E1F6DF9193
:1015D000CF911F910F91FF90EF90089510924303C8
:1015E0001092420388EE93E0A0E0B0E080934403C1
:1015F00090934503A0934603B09347032BEA31E051
:10160000309341032093400325EC30E030934D03A9
:1016100020934C0324EC30E030934F0320934E038F
:1016200020EC30E0309351032093500321EC30E064
:10163000309353032093520322EC30E03093550350
:101640002093540326EC30E0309357032093560345
:101650001092590310925A0310925B0310925C038C
:101660002FEF2093DD031092DF031092DE03109220
:10167000E9031092E8034FEF5FEFBA014093E403F0
:101680005093E5036093E6037093E7032FEF30E098
:1016900030931C0420931B0430931E0420931D04DC
:1016A0001092FD031092FC038093FE039093FF03BE
:1016B000A0930004B09301048BEB91E09093FB03A3
:1016C0008093FA03109211041092100410921304E4
:1016D0001092120410921504109214041092170420
:1016E00010921604609118046E7F6D7F6093180449
:1016F0006695617081E068278BE00E94B30461E029
:101700008BE00E94FF04E9EBF0E0E491E0930A042F
:10171000E5EAF0E0E491F0E0EE0FFF1FEA57FF4F3B
:101720008591949190930C0480930B0460E08AE07F
:101730000E94FF048091180481FD04C061E08AE0EA
:101740000E94B3048AE080930604E8EBF0E0E491A1
:10175000E0930704E4EAF0E0E491F0E0EE0FFF1F0D
:10176000E057FF4F8591949190930904809308046A
:101770001092EB031092EA031092ED031092EC0327
:101780001092EE031092EF031092F0031092F10307
:101790001092F2031092F3031092F4031092F503E7
:1017A0000895CF93DF9300D000D01F92CDB7DEB75E
:1017B000789484B5826084BD84B5816084BD85B52C
:1017C000826085BD85B5816085BD80916E00816038
:1017D00080936E00109281008091810082608093DE
:1017E00081008091810081608093810080918000E0
:1017F0008160809380008091B10084608093B1000B
:101800008091B00081608093B00080917A00846004
:1018100080937A0080917A00826080937A00809130
:101820007A00816080937A0080917A00806880934A
:101830007A001092C10080913204811145C010924B
:101840002404109223048FEF8093270480932804AC
:101850008093290480932A0480932B0480932C0482
:1018600081E080932D0410922F0410922E04109288
:101870002604109225048091450490914604892BFA
:1018800031F481E294E09093460480934504E09122
:101890001F04F0912004309721F081E294E09583B9
:1018A000848381E294E09093200480931F0410923B
:1018B00031041092300489E991E0909322048093DE
:1018C000210481E080933204E0912104F09122040C
:1018D0000480F581E02D81E294E009958BE392E0AC
:1018E000909324048093230484E590E090932F0444
:1018F00080932E04E0912104F09122040284F38568
:10190000E02D81E294E00995009729F19C0140E0E7
:1019100050E060E472E48FE090E00E944F0F722F7D
:10192000632F0091E0031091E1032091E2033091D5
:10193000E303872F962FDA0180179107A207B307D9
:1019400010F4D901C8018093E0039093E103A093C0
:10195000E203B093E303E0915003F091510382E07E
:101960008083E0914C03F0914D031082E0914E038F
:10197000F0914F038FEC808310925803E091540351
:10198000F091550386E08083E0915203F091530378
:10199000808180618083E0915203F09153038081C4
:1019A00088608083E0915203F091530380818068C6
:1019B0008083E0915203F091530380818F7D808377
:1019C00082E192E00E94120661E089E00E94FF0439
:1019D00060E089E00E94B304109215041092140490
:1019E0001092130410921204109211041092100419
:1019F0008EE393E09093170480931604909106046D
:101A0000963108F057C02DE831E03093110420934F
:101A100010042CE333E0309313042093120424E6E3
:101A200032E030931504209314042091680098301C
:101A300050F031E09E3008F430E081E001C0880FC2
:101A40003A95EAF701C084E0822B809368009830D1
:101A500038F09E3040F0963148F020E030E008C089
:101A60002DE630E005C02BE630E002C02CE630E089
:101A700030930E0420930D04983030F481E001C0BF
:101A8000880F9A95EAF70EC0292F30E09E3018F49F
:101A90002850310902C02E50310981E001C0880F61
:101AA0002A95EAF780930F04809116049091170409
:101AB0000197F1F78091140490911504892B21F17D
:101AC0008091390290913A0223E08A3F9207E1F037
:101AD000009711F00E948B0A809118048E7F8093EA
:101AE000180410923802109237028AEF93E0909314
:101AF0003A0280933902E0910D04F0910E04908136
:101B000080910F04892B808310921A04109219047B
:101B100010921C0410921B048FEF90E090931E040F
:101B200080931D0488E790E090933A0380933903F3
:101B3000109238031092370310923B038BE392E02C
:101B40009D838C83A12CB12C00E010E033243A94C7
:101B5000B801012E000C880B990B0E94531020E055
:101B600030E04FE753E40E94DF1020E030E048EA25
:101B700052E40E94A90F0E941B10262E0435110565
:101B80004CF469833A823B826C817D81CE0101965F
:101B90000E946B092BE3822E22E0922E412C512CC5
:101BA000E12CF12C35019FEF690E711CE016F10656
:101BB000E9F024E5E216F1047CF429823A82C301BB
:101BC000840D951D97FF02C080E090E08B83B401E7
:101BD000CE0101960E946B098FEFE81AF80A98E08F
:101BE000490E511C23E0820E911CE0CF0E943B0560
:101BF0002B013C010E9420066B017C010E94200603
:101C0000DC01CB018C199D09AE09BF09883E9340C8
:101C1000A105B10598F38091DD030E9445060E945D
:101C20003B05DC01CB0184199509A609B709C297C8
:101C3000A105B105F8F28091DD030E9445060F5F12
:101C40001F4F88E0A81AB1088C819D8103969D835F
:101C50008C83083A110509F07BCF80E090E00E9468
:101C60001D040E9494040E94660482E0E82EF12C78
:101C7000CC24C394D12C0E943B050091F603109113
:101C8000F7032091F8033091F903DC01CB01801BAD
:101C9000910BA20BB30B81399140A105B10540F026
:101CA0001092ED031092EC031092EB031092EA03F2
:101CB0008AEF93E00E947608892B71F18AEF93E016
:101CC0000E948E08182F2091EC033091ED032F5FB6
:101CD0003F4F3093ED032093EC032130310551F455
:101CE0000E943B056093F6037093F7038093F8031B
:101CF0009093F9032091EC033091ED03112321F02F
:101D00002830310509F06DC0F901E651FC4F13820E
:101D1000F092EB03E092EA038091EA039091EB03E7
:101D2000029709F05BC084E292E00E9412068EEEF8
:101D300093E00E94120610913B03EEEEF3E0019057
:101D40000020E9F7E15FF34071F48091EE03833501
:101D500051F48FEE93E00E94511121E0019709F0B8
:101D600020E020933B03B0903B0380903903909098
:101D70003A030091EE03043541F48FEE93E00E94A4
:101D8000511190933A0380933903809139039091D4
:101D90003A038815990511F41B2501C011E0A090A4
:101DA0003703B0903803073541F48FEE93E00E947B
:101DB00051119093380380933703809137039091AA
:101DC00038038A159B05B1F4111114C01092ED036C
:101DD0001092EC031092EB031092EA030E94FF07AB
:101DE0004ACFF901E651FC4F1383D092EB03C09226
:101DF000EA0392CF0E9494040E946604E7CF8BEB23
:101E000091E09093FB038093FA038AEF93E00C94A4
:101E10008B0ADB018F939F930E94750FBF91AF9147
:101E2000A29F800D911DA39F900DB29F900D112434
:101E3000089597FB072E16F4009407D077FD09D07C
:101E40000E94800F07FC05D03EF4909581959F4F2E
:101E50000895709561957F4F0895A1E21A2EAA1BEF
:101E6000BB1BFD010DC0AA1FBB1FEE1FFF1FA2174A
:101E7000B307E407F50720F0A21BB30BE40BF50B47
:101E8000661F771F881F991F1A9469F760957095D0
:101E9000809590959B01AC01BD01CF010895052E61
:101EA00097FB1EF400940E94660F57FD07D00E9416
:101EB0002D0F07FC03D04EF40C94660F50954095FF
:101EC000309521953F4F4F4F5F4F089590958095E6
:101ED000709561957F4F8F4F9F4F08950E949A0F85
:101EE000B7FF0895821B930B08950E949A0FA59F38
:101EF000900DB49F900DA49F800D911D1124089505
:101F0000AA1BBB1B51E107C0AA1FBB1FA617B7071F
:101F100010F0A61BB70B881F991F5A95A9F780953B
:101F20009095BC01CD010895EE0FFF1F0590F4912F
:101F3000E02D0994A29FB001B39FC001A39F700D33
:101F4000811D1124911DB29F700D811D1124911DC1
:101F500008950E94BD0F0C94A5100E949E1058F089
:101F60000E94971040F029F45F3F29F00C948E10E6
:101F700051110C94D9100C9494100E94B61068F36F
:101F80009923B1F3552391F3951B550BBB27AA2732
:101F900062177307840738F09F5F5F4F220F331F6C
:101FA000441FAA1FA9F335D00E2E3AF0E0E832D034
:101FB00091505040E695001CCAF72BD0FE2F29D037
:101FC000660F771F881FBB1F261737074807AB0709
:101FD000B0E809F0BB0B802DBF01FF2793585F4F7E
:101FE0003AF09E3F510578F00C948E100C94D91065
:101FF0005F3FE4F3983ED4F3869577956795B79560
:10200000F7959F5FC9F7880F911D9695879597F96A
:102010000895E1E0660F771F881FBB1F62177307E3
:102020008407BA0720F0621B730B840BBA0BEE1FF8
:1020300088F7E09508950E9422106894B1110C94DD
:10204000D91008950E94BE1088F09F5798F0B92FBC
:102050009927B751B0F0E1F0660F771F881F991FDD
:102060001AF0BA95C9F714C0B13091F00E94D81097
:10207000B1E008950C94D810672F782F8827B85FA7
:1020800039F0B93FCCF3869577956795B395D9F735
:102090003EF490958095709561957F4F8F4F9F4F3F
:1020A0000895E89409C097FB3EF49095809570954B
:1020B00061957F4F8F4F9F4F9923A9F0F92F96E994
:1020C000BB279395F695879577956795B795F11109
:1020D000F8CFFAF4BB0F11F460FF1BC06F5F7F4FA6
:1020E0008F4F9F4F16C0882311F096E911C07723B8
:1020F00021F09EE8872F762F05C0662371F096E8C1
:10210000862F70E060E02AF09A95660F771F881F8F
:10211000DAF7880F9695879597F9089597F99F674D
:1021200080E870E060E008959FEF80EC089500245F
:102130000A941616170618060906089500240A942C
:1021400012161306140605060895092E0394000CB2
:1021500011F4882352F0BB0F40F4BF2B11F460FF41
:1021600004C06F5F7F4F8F4F9F4F089557FD90586A
:10217000440F551F59F05F3F71F04795880F97FB4B
:10218000991F61F09F3F79F0879508951216130605
:102190001406551FF2CF4695F1DF08C01616170634
:1021A0001806991FF1CF8695710561050894089569
:1021B000E894BB2766277727CB0197F908950E94FB
:1021C000F2100C94A5100E94971038F00E949E10F7
:1021D00020F0952311F00C948E100C94941011247F
:1021E0000C94D9100E94B61070F3959FC1F3950F0F
:1021F00050E0551F629FF001729FBB27F00DB11D8B
:10220000639FAA27F00DB11DAA1F649F6627B00D1A
:10221000A11D661F829F2227B00DA11D621F739F03
:10222000B00DA11D621F839FA00D611D221F749F11
:102230003327A00D611D231F849F600D211D822F58
:10224000762F6A2F11249F5750409AF0F1F088237F
:102250004AF0EE0FFF1FBB1F661F771F881F9150AC
:102260005040A9F79E3F510580F00C948E100C94BD
:10227000D9105F3FE4F3983ED4F386957795679540
:10228000B795F795E7959F5FC1F7FE2B880F911DD6
:102290009695879597F9089581E090E0F8940C94CD
:1022A0007711FC0188279927E89421912032E9F3DE
:1022B000293010F02E30C8F32B3241F02D3239F492
:1022C000689404C00E946F11820F911D21912053C8
:1022D0002A30C0F31EF4909581959F4F08957AE0BF
:1022E000979F902D879F802D910D1124089510E0C8
:1022F000C2E6D0E004C0FE010E94940F2196C336CE
:08230000D107C9F7F894FFCFE3
:1023080000010101010101000100000000010101BB
:1023180001000101000101010000010101010001AA
:10232800000001010001010001010100010101019A
:102338000100010100000001010101010101010189
:10234800010101000101000000000000000101017D
:10235800010000000100000001010101010101016B
:10236800000101000001010101010000000101005C
:10237800000001010101000101000001010101004B
:102388000101010100000000008E058E058E05BDCB
:1023980000B900B600000000002D0370039000BDD6
:1023A80000B9008D00E1000000000002094705F3B4
:1023B80007D107E50749090000000022084705760C
:1023C800088E080908210873686F77546872656574
:1023D80044696769744E756D626572202D200053DB
:1023E800686F7720776169742074696D657200532E
:1023F800686F772073686F6F742074696D657200F9
:1024080075706461746520646973706C6179000D1E
:102418000A005374617274204C45442064697370D7
:102428006C617900436F6D6D616E642072656365E0
:06243800697665640000F6
:00000001FF
