:100000000C9463000C948B000C948B000C94110ADC
:100010000C94110A0C94110A0C948B000C948B0014
:100020000C948B000C948B000C948B000C948B0024
:100030000C948B000C948B000C948B000C948B0014
:100040000C9461070C948B000C94AF080C94AB07D4
:100050000C948B000C948B000C948B000C948B00F4
:100060000C948B000C948B000000000024002700EF
:100070002A0000000008000201000003040700003D
:1000800000000000000000000000250028002B00F8
:1000900000000000230026002900040404040404D6
:1000A0000404020202020202030303030303010227
:1000B00004081020408001020408102001020408F6
:1000C0001020EE0AFC0E11241FBECFEFD8E0DEBFD9
:1000D000CDBF12E0A0E0B1E0E2E0F3E202C00590A3
:1000E0000D92A432B107D9F724E0A4E2B2E001C036
:1000F0001D92AA37B207E1F710E0C2E6D0E004C0D3
:100100002197FE010E94910FC136D107C9F70E94C5
:10011000D10B0C9474110C94000080E991E00895C7
:10012000569A0895AC014150510924E530E0429FB0
:10013000C001439F900D529F900D1124875D9D4FEC
:1001400040E050E020E030E0FC01E20FF31F1082BD
:10015000118212822D5F3F4F2C303105A9F74F5F7E
:100160005F4F0C964730510569F7089580E090E0A5
:100170000895FC01858596850895CF93DF9300D07F
:1001800000D000D0CDB7DEB7AB011C821D821E822D
:10019000DC01ED91FC910190F081E02D19821A8231
:1001A0001B829E012F5F3F4FBE016C5F7F4F099501
:1001B00026960FB6F894DEBF0FBECDBFDF91CF916C
:1001C00008954F925F926F927F928F92AF92BF92FB
:1001D000CF92EF92FF920F931F93CF93DF933C0147
:1001E000EB010E942006F30127853089621B730B07
:1001F0006A307105B0F3F894E881F9815BB150641D
:100200008BB18F7B8BB96A859F81262F291B922FFB
:100210002F83BF844A805B807D85FC84EE847F5F72
:10022000F394E3943E814885A984CB841181D20163
:1002300020E0C32F022F322F3181112788943111F2
:10024000390F08F43FEF9195889470FD130F1795BF
:10025000889471FD130F1795889472FD130F1795ED
:10026000889473FD130F1795889474FD130F1795D9
:10027000889475FD130F1795889476FD130F1795C5
:10028000889477FD130F17958894232F7111212FD0
:10029000960F122F002C5BB900C017FF8BB930816D
:1002A0002227889400C000C0002C8BB931113C0F6C
:1002B00000C0002C5BB900C016FF8BB908F43FEFFB
:1002C000C195889400C000C0002C8BB9F0FC230FAE
:1002D00000C0002C5BB900C015FF8BB9279588942E
:1002E000F1FC230F00C000C0002C8BB92795889427
:1002F00000C0002C5BB900C014FF8BB9F2FC230FC7
:100300002795889400C000C0002C8BB9F3FC230F04
:1003100000C0002C5BB900C013FF8BB927958894EF
:10032000F4FC230F00C000C0002C8BB927958894E3
:1003300000C0002C5BB900C012FF8BB9F5FC230F85
:100340002795889400C000C0002C8BB9F6FC230FC1
:1003500000C0002C5BB900C011FF8BB927958894B1
:10036000F7FC230F00C000C0002C8BB927958894A0
:1003700000C0002C5BB900C010FF8BB9132FF11027
:10038000122FCA0D00C000C0002C8BB900C000C0E5
:10039000002C5BB900C017FF8BB9328122278894EB
:1003A00000C000C0002C8BB93111340F00C0002CEC
:1003B0005BB900C016FF8BB908F43FEFEB0DF11DE0
:1003C00000C000C0002C8BB9E0FC230F00C0002C43
:1003D0005BB900C015FF8BB927958894E1FC230F0A
:1003E00000C000C0002C8BB92795889400C0002C59
:1003F0005BB900C014FF8BB9E2FC230F27958894EA
:1004000000C000C0002C8BB9E3FC230F00C0002CFF
:100410005BB900C013FF8BB927958894E4FC230FC8
:1004200000C000C0002C8BB92795889400C0002C18
:100430005BB900C012FF8BB9E5FC230F27958894A8
:1004400000C000C0002C8BB9E6FC230F00C0002CBC
:100450005BB900C011FF8BB927958894E7FC230F87
:1004600000C000C0002C8BB92795889400C0002CD8
:100470005BB900C010FF8BB9132FE110122F41950B
:1004800000C000C0002C8BB94C0D00C000C05BB98F
:1004900000C017FF8BB931812227889400C000C0AB
:1004A000002C8BB93111390F00C0002C5BB900C092
:1004B00016FF8BB908F43FEF9195889400C000C0F7
:1004C000002C8BB970FD230F00C0002C5BB900C05D
:1004D00015FF8BB92795889471FD230F00C000C0CC
:1004E000002C8BB92795889400C0002C5BB900C004
:1004F00014FF8BB972FD230F2795889400C000C0AC
:10050000002C8BB973FD230F00C0002C5BB900C019
:1005100013FF8BB92795889474FD230F00C000C08A
:10052000002C8BB92795889400C0002C5BB900C0C3
:1005300012FF8BB975FD230F2795889400C000C06A
:10054000002C8BB976FD230F00C0002C5BB900C0D6
:1005500011FF8BB92795889477FD230F00C000C049
:10056000002C8BB92795889400C0002C5BB900C083
:1005700010FF8BB9132F7111122F960F00C000C0FE
:10058000002C8BB9119709F086CE20EE31E0D20114
:100590000E946B0FDC01CB01F4E0B695A79597950F
:1005A0008795FA95D1F720E030E0A9016AE9469EE7
:1005B000412D569E400D511D1124840F951FA11DE4
:1005C000B11D893E43E09407A105B10588F1885E1D
:1005D0009340A109B10942E0B695A79597958795F3
:1005E0004A95D1F747E0849F212D949F200D311D1E
:1005F00011246091240270E0860F971F820F931FD1
:1006000040912A0350912B0360912C0370912D038C
:10061000292F3327420F531F611D711D40932A0359
:1006200050932B0360932C0370932D03809324022B
:1006300078940E942006F301708B6787DF91CF9139
:100640001F910F91FF90EF90CF90BF90AF908F9040
:100650007F906F905F904F9008950F931F93CF936B
:10066000DF93CDB7DEB762970FB6F894DEBF0FBE4B
:10067000CDBF8C01F901DC011C968C917A836983D2
:100680005C834B835E834D8390819D8791819E87A0
:1006900092819F87813029F4CE0101960E94A10AA0
:1006A00006C01C861B861A86198618861F82188A21
:1006B0001A8A198AD801ED91FC910484F585E02D00
:1006C000BE016F5F7F4FC801099562960FB6F8941F
:1006D000DEBF0FBECDBFDF91CF911F910F91089567
:1006E0000F931F93CF93DF93CDB7DEB762970FB60B
:1006F000F894DEBF0FBECDBF8C01F901DC011C9662
:100700008C917A8369835C834B835E834D83908174
:100710009D8791819E8792819F87813029F4CE01A8
:1007200001960E94A10A06C01C861B861A8619869D
:1007300018861F8283E0888B1A8A198AD801ED9166
:10074000FC910484F585E02DBE016F5F7F4FC801E9
:10075000099562960FB6F894DEBF0FBECDBFDF914C
:10076000CF911F910F9108955F926F927F928F9218
:100770009F92AF92BF92CF92DF92EF92FF920F9330
:100780001F93CF93DF9300D01F92CDB7DEB727E042
:10079000269F5001279FB00C1124019724E530E0DB
:1007A000829F4001839F900C929F900C1124C12C3A
:1007B000D12C00E010E0F801EA0DFB1DE050FF4FE6
:1007C00050803601680C791CE12CF12C80910B04CF
:1007D000589E802D112490910904209107042983AB
:1007E0009A838B83B701660D771D675D7D4FCE01C0
:1007F00001960E946B0983E0E80EF11C8CE0E8167C
:10080000F10421F70F5F1F4F8CE0C80ED11C073099
:10081000110589F60F900F900F90DF91CF911F91E6
:100820000F91FF90EF90DF90CF90BF90AF909F908F
:100830008F907F906F905F9008950F931F93CF9349
:10084000DF93EC0187EC91E00E941206CE010E943A
:1008500090052AE030E0CE01B9010E94160F8C010C
:10086000C436D1057CF0CE0164E670E00E94160F1C
:10087000CB01B9010E94160FBC0181E090E00E94FB
:10088000B40307C081E090E00E949200CA30D10515
:1008900084F02AE030E0CE01B9010E94160FCB01AE
:1008A000B9010E94160FBC0182E090E00E94B403DF
:1008B00004C082E090E00E949200B80183E090E0E2
:1008C000DF91CF911F910F910C94B4038091250378
:1008D00090912603181619067CF48FED91E00E9482
:1008E000120680912503909126030E941D04809199
:1008F0002503909126030EC08FEE91E00E94120610
:1009000080912703909128030E941D048091270362
:10091000909128030E94900580E092E00E941206C8
:100920008091CB030C9445068FEF90E090930A04DE
:100930008093090480912903811105C01092080455
:1009400010920704089580912703909128034F97F0
:100950001CF085E590E002C08AE290E090930804E4
:1009600080930704089590E0FC01EE58FF4F349106
:10097000FC01E255FF4F2491FC01E656FF4FE49144
:10098000EE2309F43BC0332339F1333091F038F4CE
:100990003130A9F0323001F584B58F7D12C0373087
:1009A00091F03830A1F03430B9F4809180008F7D1F
:1009B00003C0809180008F77809380000DC084B544
:1009C0008F7784BD09C08091B0008F7703C080917C
:1009D000B0008F7D8093B000F0E0EE0FFF1FEA576C
:1009E000FF4FA591B4918FB7F894EC91611103C0BA
:1009F00020952E2301C02E2B2C938FBF0895CF93CB
:100A0000DF9390E0FC01E255FF4F2491FC01E65694
:100A1000FF4F8491882361F190E0880F991FFC01BA
:100A2000E859FF4FC591D491FC01EA57FF4FA591BA
:100A3000B491611109C09FB7F894888120958223F1
:100A40008883EC912E230BC0623061F49FB7F89439
:100A50003881822F809583238883EC912E2B2C93D1
:100A60009FBF06C08FB7F894E8812E2B28838FBFD5
:100A7000DF91CF9108952FB7F89460912A03709178
:100A80002B0380912C0390912D032FBF0895CF92BB
:100A9000DF92EF92FF920F931F93CF93DF936C013E
:100AA0007A018B01C0E0D0E0CE15DF0589F0D801D6
:100AB0006D918D01D601ED91FC910190F081E02DB9
:100AC000C6010995892B11F47E0102C02196ECCF55
:100AD000C701DF91CF911F910F91FF90EF90DF90B1
:100AE000CF9008958EE293E00E94F30721E0892BD6
:100AF00009F420E0822F0895009769F0FC0101902D
:100B00000020E9F73197AF01481B590BBC018EE279
:100B100093E00C94470580E090E008950E9449110D
:100B20008F929F92AF92BF92CF92DF92EF92FF92FD
:100B30000F931F93CF93DF93CDB7DEB7A1970FB677
:100B4000F894DEBF0FBECDBF6C01990FEE08FF0811
:100B5000F7FE31C0E0912E03F0912F030190F08158
:100B6000E02D6DE28EE293E009958C012227332778
:100B7000A9012C193D094E095F0919A2CE018196E0
:100B80007C019AE0892E912CA12CB12CCA01B901CB
:100B9000A50194010E942A0F605DF70162937F0115
:100BA000211531054105510589F7CF010E947C05CA
:100BB000080F191F1EC0A701960119A28E010F5D13
:100BC0001F4F8AE0C82ED12CE12CF12CCA01B901AB
:100BD000A70196010E942A0F605DF80162938F01C0
:100BE000211531054105510589F7CF010E947C058A
:100BF0008C018FE092E00E947C05800F911FA196EE
:100C00000FB6F894DEBF0FBECDBFDF91CF911F911D
:100C10000F91FF90EF90DF90CF90BF90AF909F909B
:100C20008F900895CF93DF930E947C05EC018FE0B5
:100C300092E00E947C058C0F9D1FDF91CF9108955B
:100C40003FB7F8948091290490912A04A0912B0435
:100C5000B0912C0426B5A89B05C02F3F19F0019632
:100C6000A11DB11D3FBFBA2FA92F982F8827820F32
:100C7000911DA11DB11DBC01CD0142E0660F771F82
:100C8000881F991F4A95D1F708953F924F925F921E
:100C90006F927F928F929F92AF92BF92CF92DF928C
:100CA000EF92FF920F931F93CF93DF9300D01F9289
:100CB000CDB7DEB7F82E8091CE039091CF03A091EF
:100CC000D003B091D103892B8A2B8B2BE9F00E94A2
:100CD000200600913504109136042091370430919C
:100CE0003804DC01CB01801B910BA20BB30B0091EC
:100CF000CE031091CF032091D0033091D103801700
:100D00009107A207B307B8F20E942006609335044A
:100D1000709336048093370490933804E091D6039F
:100D2000F091D703309759F04091D2035091D303FB
:100D30006091D4037091D5038F2D0995F82E009101
:100D40003304109134044F2C512C612C712C01155B
:100D5000110509F461C0D8011C96EC901C97809194
:100D6000CC039091CD038436910510F41C961C920F
:100D7000D801ED91FC91A280B38019821A821B8266
:100D8000F11014C0F80145855685628173819E017A
:100D90002F5F3F4FC801F5010995D8011C96EC92D1
:100DA0001C9714960D911C911597D1CFF801399687
:100DB000CE0101966C0148019CE0890E911CDF0177
:100DC00013973C902191332001F12223F1F0822FDF
:100DD00090E0A0E0B0E09C01AD012F5F3F4F4F4F8E
:100DE0005F4FC301B2010E94060F9B01AC01832D2E
:100DF00090E0A0E0B0E0BC01CD016F5F7F4F8F4F6E
:100E00009F4F0E94060FD6018C93BFEFCB1ADB0ACF
:100E1000E815F905A1F6B6CF80913104909132041E
:100E20008C010F5F1F4F10933204009331044997D8
:100E30009CF10E943B054B015C0188EE93E0089F0A
:100E4000B001099F700D189F700D1124072E000C22
:100E5000880B990BC0902D04D0902E04E0902F04A5
:100E6000F0903004A50194012C193D094E095F0949
:100E70000E942A0F3093CD032093CC0310923204AA
:100E8000109231040E943B0560932D0470932E0450
:100E900080932F04909330040F900F900F90DF9168
:100EA000CF911F910F91FF90EF90DF90CF90BF9067
:100EB000AF909F908F907F906F905F904F903F90FA
:100EC00008951F920F920FB60F9211242F933F9304
:100ED0008F939F93AF93BF9380912A0390912B039D
:100EE000A0912C03B0912D033091280423E0230F0F
:100EF0002D3720F40196A11DB11D05C026E8230F52
:100F00000296A11DB11D2093280480932A0390937B
:100F10002B03A0932C03B0932D038091290490916F
:100F20002A04A0912B04B0912C040196A11DB11D9F
:100F30008093290490932A04A0932B04B0932C044B
:100F4000BF91AF919F918F913F912F910F900FBEC5
:100F50000F901F9018951F920F920FB60F921124A9
:100F60002F933F934F935F936F937F938F939F93B1
:100F7000AF93BF93EF93FF938EE293E00E94E1085B
:100F8000FF91EF91BF91AF919F918F917F916F9161
:100F90005F914F913F912F910F900FBE0F901F9037
:100FA0001895FC01918D828D981761F0828DDF017B
:100FB000A80FB11D5D968C91928D9F5F9F73928F4C
:100FC00090E008958FEF9FEF0895FC01918D828D41
:100FD000981731F0828DE80FF11D858D90E008950E
:100FE0008FEF9FEF0895FC01918D228D892F90E066
:100FF000805C9F4F821B91098F739927089580E031
:1010000090E0892B29F00E94720581110C94000058
:10101000089520912702309128022817390771F48A
:101020009091250280912602981741F0E0912502C7
:10103000F0E0E65CFB4F808190E008958FEF9FEF3A
:10104000089508951F93CF93DF93DC015C962D9153
:101050003C915D972115310539F481E090E01396BC
:101060009C938E9312973DC05196ED91FC915297AF
:1010700050969C915097892F80951FB75E964C9102
:101080005E9741FB772770F941FD6095F8944081A8
:10109000772311F0492B01C048234083E9012197B0
:1010A000F1F748E0508160FF02C0592B01C058237E
:1010B0005083E9012197F1F76695415099F777231D
:1010C00021F090818923808303C08081982B9083B5
:1010D0001FBF5C968D919C915D970197F1F721E080
:1010E00030E0C901DF91CF911F910895209127022F
:1010F000309128022817390771F480912602209137
:10110000250290E0805C9F4F821B910960E470E0B3
:101110000E94160F089580E090E008952091270224
:101120003091280228173907B9F49091250280914F
:101130002602981789F0E0912502F0E0E65CFB4F6B
:1011400080812091250230E02F5F3F4F2F7333279E
:101150002093250290E008958FEF9FEF08951F924E
:101160000F920FB60F9211242F938F939F93EF93AB
:10117000FF93E0913E03F0913F038081E0914403AF
:10118000F091450382FD12C09081809147038F5FEB
:101190008F7320914803821751F0E0914703F0E0EC
:1011A000E25DFC4F958F8093470301C08081FF91E2
:1011B000EF919F918F912F910F900FBE0F901F90E5
:1011C0001895FC01848DDF01A80FB11DA35ABF4FF4
:1011D0002C91848D90E001968F739927848FA68936
:1011E000B7892C93A089B1898C9180648C93938D5D
:1011F000848D981306C00288F389E02D80818F7D4D
:1012000080830895EF92FF920F931F93CF93DF9304
:10121000EC0181E0888F9B8D8C8D981305C0E88947
:10122000F989808185FD24C0F62E0B8D10E00F5FBB
:101230001F4F0F731127E02E8C8DE8120CC00FB6D4
:1012400007FCFACFE889F989808185FFF5CFCE01C7
:101250000E94E108F1CF8B8DFE01E80FF11DE35AEA
:10126000FF4FF0820B8FEA89FB898081806207C083
:10127000EE89FF896083E889F989808180648083B1
:1012800081E090E0DF91CF911F910F91FF90EF905F
:101290000895CF93DF93EC01888D8823C9F0EA8904
:1012A000FB89808185FD05C0A889B9898C9186FD5F
:1012B0000FC00FB607FCF5CF808185FFF2CFA8895C
:1012C000B9898C9185FFEDCFCE010E94E108E7CF6F
:1012D000DF91CF910895DC01FB014C9111965C9157
:1012E000119712967C91342F3F71330F330F832F58
:1012F000880F35E5282F239F020E20E0211D1124A1
:10130000642F6074942F907247FD21C061110BC04F
:10131000911104C0822F8095422F11C045E5420FE4
:1013200030E02BEA33C091110DC0382F4AEA349FC8
:10133000030E30E0311D11248BEA831B420F282F4E
:1013400030E024C080E0422F4095322F0EC0611162
:1013500011C091110CC0382F2AEA329F030E30E0E1
:10136000311D11244BEA431B3B5A20E00FC0322FA2
:1013700030950BC0911104C085E5820F3BEA03C094
:101380008AEA820F90E0321B282F40E05F3F11F184
:101390005523E9F0222321F0259F020E20E0211D94
:1013A000442321F0459F040E40E0411D332321F0EA
:1013B000359F030E30E0311D11245095559F050EC9
:1013C00050E0511D1124250F450F350F03C03FEF8D
:1013D0004FEF2FEF7F3F09F420C050E0772321F03B
:1013E000779F512D09F05F5F5523A1F0222321F053
:1013F000259F020E20E0211D442321F0459F040E6D
:1014000040E0411D332321F0359F030E30E0311DB4
:10141000112403C030E040E020E020834183328388
:1014200008951F920F920FB60F9211242F933F939E
:101430004F935F936F937F938F939F93AF93BF93DC
:10144000EF93FF93E0912702F0912802309709F47F
:1014500051C0968DA685B785858591FF04C09C9166
:10146000892329F447C09C91892309F043C0A389AB
:10147000B4899C918589809589238C9386899789E5
:101480000197F1F7608D718DA685B785558538E098
:1014900020E0CB010197F1F7822F90E09595879599
:1014A000282F4C91452309F02068315091F7868D03
:1014B00081FD20958091260290E001968F739927F7
:1014C00030912502381749F0A0912602B0E0A65CC1
:1014D000BB4F2C938093260203C0868D8160868F3C
:1014E000828D938D0197F1F7A389B4899C918589A9
:1014F000892B8C93FF91EF91BF91AF919F918F9129
:101500007F916F915F914F913F912F910F900FBEFF
:101510000F901F901895E0912702F0912802E8178C
:10152000F90769F4A389B4899C91858980958923F9
:101530008C93109228021092270281E0089580E097
:101540000895EF92FF920F931F93CF93DF93EC01D7
:10155000909139049F5F292F27702093390490FFC1
:1015600002C090E801C090E021FD9064247009F071
:10157000906220E1290FFE013C967E018FE0E80E8B
:10158000F11C00E011E06191662331F070E0C801C8
:101590000E94160F6F5F01C060E0DF0114976C932B
:1015A000322F369F030E30E0311D1124CF010797F3
:1015B000311103C0EC01188203C03150EC013883B3
:1015C000662311F061506C93EE15FF05E1F6DF9193
:1015D000CF911F910F91FF90EF90089510923103DA
:1015E0001092300388EE93E0A0E0B0E080933203E5
:1015F00090933303A0933403B09335032BEA31E087
:1016000030932F0320932E0325EC30E030933B03DF
:1016100020933A0324EC30E030933D0320933C03C5
:1016200020EC30E030933F0320933E0321EC30E088
:10163000309341032093400322EC30E03093430386
:101640002093420326EC30E030934503209344037B
:1016500010924703109248031092490310924A03D4
:101660002FEF2093CB031092CD031092CC03109256
:10167000D7031092D6034FEF5FEFBA014093D20326
:101680005093D3036093D4037093D5032FEF30E0CE
:1016900030930A042093090430930C0420930B0424
:1016A0001092EB031092EA038093EC039093ED0306
:1016B000A093EE03B093EF038BEB91E09093E903DB
:1016C0008093E8031092FF031092FE03109201042E
:1016D0001092000410920304109202041092050468
:1016E00010920404609106046E7F6D7F609306047F
:1016F0006695617081E068278BE00E94B30461E029
:101700008BE00E94FF04E9EBF0E0E491E093F80342
:10171000E5EAF0E0E491F0E0EE0FFF1FEA57FF4F3B
:10172000859194919093FA038093F90360E08AE0A5
:101730000E94FF048091060481FD04C061E08AE0FC
:101740000E94B3048AE08093F403E8EBF0E0E491B4
:10175000E093F503E4EAF0E0E491F0E0EE0FFF1F20
:10176000E057FF4F859194919093F7038093F60390
:101770001092D9031092D8031092DB031092DA036F
:101780001092DC031092DD031092DE031092DF034F
:101790001092E0031092E1031092E2031092E3032F
:1017A0000895CF93DF9300D000D000D0CDB7DEB73F
:1017B000789484B5826084BD84B5816084BD85B52C
:1017C000826085BD85B5816085BD80916E00816038
:1017D00080936E00109281008091810082608093DE
:1017E00081008091810081608093810080918000E0
:1017F0008160809380008091B10084608093B1000B
:101800008091B00081608093B00080917A00846004
:1018100080937A0080917A00826080937A00809130
:101820007A00816080937A0080917A00806880934A
:101830007A001092C10080912004811145C010925D
:101840001204109211048FEF8093150480931604F4
:1018500080931704809318048093190480931A04CA
:1018600081E080931B0410921D0410921C041092BE
:101870001404109213048091330490913404892B42
:1018800031F48FE094E09093340480933304E0913A
:101890000D04F0910E04309721F08FE094E09583D1
:1018A00084838FE094E090930E0480930D04109253
:1018B0001F0410921E0489E991E090931004809314
:1018C0000F0481E080932004E0910F04F091100454
:1018D0000480F581E02D8FE094E0099589E292E0A3
:1018E000909312048093110484E590E090931D047A
:1018F00080931C04E0910F04F09110040284F3859E
:10190000E02D8FE094E00995009729F19C0140E0DB
:1019100050E060E472E48FE090E00E944C0F722F80
:10192000632F0091CE031091CF032091D00330910B
:10193000D103872F962FDA0180179107A207B307EB
:1019400010F4D901C8018093CE039093CF03A093E4
:10195000D003B093D103E0913E03F0913F0382E0C6
:101960008083E0913A03F0913B031082E0913C03C5
:10197000F0913D038FEC808310924603E091420387
:10198000F091430386E08083E0914003F0914103AE
:10199000808180618083E0914003F09141038081E8
:1019A00088608083E0914003F091410380818068EA
:1019B0008083E0914003F091410380818F7D80839B
:1019C00082E192E00E94120661E089E00E94FF0439
:1019D00060E089E00E94B3041092030410920204B4
:1019E00010920104109200041092FF031092FE0363
:1019F0008EE393E090930504809304049091F403A4
:101A0000963108F057C02DE831E03093FF03209362
:101A1000FE032CE333E0309301042093000424E61A
:101A200032E0309303042093020420916800983040
:101A300050F031E09E3008F430E081E001C0880FC2
:101A40003A95EAF701C084E0822B809368009830D1
:101A500038F09E3040F0963148F020E030E008C089
:101A60002DE630E005C02BE630E002C02CE630E089
:101A70003093FC032093FB03983030F481E001C0E5
:101A8000880F9A95EAF70EC0292F30E09E3018F49F
:101A90002850310902C02E50310981E001C0880F61
:101AA0002A95EAF78093FD03809104049091050440
:101AB0000197F1F78091020490910304892B21F1A1
:101AC000809127029091280223E0883E9207E1F05E
:101AD000009711F00E948B0A809106048E7F8093FC
:101AE0000604109226021092250288EE93E090934D
:101AF000280280932702E091FB03F091FC03908180
:101B00008091FD03892B80831092080410920704B2
:101B100010920A04109209048FEF90E090930C0445
:101B200080930B0488E790E0909328038093270329
:101B300010922603109225031092290389E292E065
:101B40009D838C83A12CB12C00E010E033243A94C7
:101B5000B801012E000C880B990B0E94501020E058
:101B600030E04FE753E40E94DC1020E030E048EA28
:101B700052E40E94A60F0E941810262E043511056B
:101B80004CF469833A823B826C817D81CE0101965F
:101B90000E946B0929E2822E22E0922E412C512CC8
:101BA000E12CF12C35019FEF690E711CE016F10656
:101BB000E9F024E5E216F1047CF429823A82C301BB
:101BC000840D951D97FF02C080E090E08B83B401E7
:101BD000CE0101960E946B098FEFE81AF80A98E08F
:101BE000490E511C23E0820E911CE0CF0E943B0560
:101BF0002B013C010E9420066B017C010E94200603
:101C0000DC01CB018C199D09AE09BF09883E9340C8
:101C1000A105B10598F38091CB030E9445060E946F
:101C20003B05DC01CB0184199509A609B709C297C8
:101C3000A105B105F8F28091CB030E9445060F5F24
:101C40001F4F88E0A81AB1088C819D8103969D835F
:101C50008C83083A110509F07BCF80E090E00E9468
:101C60001D040E9494040E94660402E010E0EE2429
:101C7000E394F12C9CEDC92E93E0D92E0E943B05F4
:101C80008090E4039090E503A090E603B090E70312
:101C9000DC01CB0188199909AA09BB098139914056
:101CA000A105B10540F01092DB031092DA03109207
:101CB000D9031092D80388EE93E00E947608892B0E
:101CC00071F188EE93E00E948E08B82E2091DA031D
:101CD0003091DB032F5F3F4F3093DB032093DA0318
:101CE0002130310551F40E943B056093E403709369
:101CF000E5038093E6039093E7032091DA033091A4
:101D0000DB03BB2021F02830310509F067C0F90161
:101D1000E852FC4F13821093D9030093D8038091AB
:101D2000D8039091D903029709F055C0B0902903C8
:101D3000F60101900020E9F7EF5DF34071F4809126
:101D4000DC03833551F48DED93E00E944E1121E0C8
:101D5000019709F020E020932903A09029038090A7
:101D60002703909028032091DC03243551F48DED56
:101D700093E02E830E944E119093280380932703B3
:101D80002E8180912703909128038815990511F4DD
:101D9000BA2402C0BB24B3948090250390902603FC
:101DA000273541F48DED93E00E944E119093260368
:101DB000809325038091250390912603881599052A
:101DC000B1F4B11014C01092DB031092DA03109238
:101DD000D9031092D8030E94FF0750CFF901E852AF
:101DE000FC4FB382F092D903E092D80398CF0E94BF
:101DF00094040E946604E7CF8BEB91E09093E90393
:101E00008093E80388EE93E00C948B0ADB018F93B8
:101E10009F930E94720FBF91AF91A29F800D911D61
:101E2000A39F900DB29F900D1124089597FB072E4C
:101E300016F4009407D077FD09D00E947D0F07FCAF
:101E400005D03EF4909581959F4F089570956195CA
:101E50007F4F0895A1E21A2EAA1BBB1BFD010DC0E6
:101E6000AA1FBB1FEE1FFF1FA217B307E407F5074A
:101E700020F0A21BB30BE40BF50B661F771F881F26
:101E8000991F1A9469F760957095809590959B01BC
:101E9000AC01BD01CF010895052E97FB1EF40094FF
:101EA0000E94630F57FD07D00E942A0F07FC03D042
:101EB0004EF40C94630F50954095309521953F4F0B
:101EC0004F4F5F4F089590958095709561957F4F26
:101ED0008F4F9F4F08950E94970FB7FF0895821B61
:101EE000930B08950E94970FA59F900DB49F900D9E
:101EF000A49F800D911D11240895AA1BBB1B51E1C5
:101F000007C0AA1FBB1FA617B70710F0A61BB70B69
:101F1000881F991F5A95A9F780959095BC01CD010E
:101F20000895EE0FFF1F0590F491E02D0994A29FF4
:101F3000B001B39FC001A39F700D811D1124911D9D
:101F4000B29F700D811D1124911D08950E94BA0F3A
:101F50000C94A2100E949B1058F00E94941040F024
:101F600029F45F3F29F00C948B1051110C94D6107A
:101F70000C9491100E94B31068F39923B1F3552388
:101F800091F3951B550BBB27AA276217730784078C
:101F900038F09F5F5F4F220F331F441FAA1FA9F322
:101FA00035D00E2E3AF0E0E832D091505040E69510
:101FB000001CCAF72BD0FE2F29D0660F771F881F71
:101FC000BB1F261737074807AB07B0E809F0BB0B64
:101FD000802DBF01FF2793585F4F3AF09E3F510578
:101FE00078F00C948B100C94D6105F3FE4F3983E7D
:101FF000D4F3869577956795B795F7959F5FC9F761
:10200000880F911D9695879597F90895E1E0660FE1
:10201000771F881FBB1F621773078407BA0720F05A
:10202000621B730B840BBA0BEE1F88F7E0950895C3
:102030000E941F106894B1110C94D61008950E944C
:10204000BB1088F09F5798F0B92F9927B751B0F07F
:10205000E1F0660F771F881F991F1AF0BA95C9F72C
:1020600014C0B13091F00E94D510B1E008950C94E5
:10207000D510672F782F8827B85F39F0B93FCCF398
:10208000869577956795B395D9F73EF490958095A9
:10209000709561957F4F8F4F9F4F0895E89409C0C9
:1020A00097FB3EF490958095709561957F4F8F4F8B
:1020B0009F4F9923A9F0F92F96E9BB279395F695A1
:1020C000879577956795B795F111F8CFFAF4BB0F1F
:1020D00011F460FF1BC06F5F7F4F8F4F9F4F16C083
:1020E000882311F096E911C0772321F09EE8872F0D
:1020F000762F05C0662371F096E8862F70E060E0C9
:102100002AF09A95660F771F881FDAF7880F969541
:10211000879597F9089597F99F6780E870E060E0E8
:1021200008959FEF80EC089500240A941616170670
:1021300018060906089500240A94121613061406B8
:1021400005060895092E0394000C11F4882352F01B
:10215000BB0F40F4BF2B11F460FF04C06F5F7F4FD3
:102160008F4F9F4F089557FD9058440F551F59F0BA
:102170005F3F71F04795880F97FB991F61F09F3F74
:1021800079F087950895121613061406551FF2CF9D
:102190004695F1DF08C0161617061806991FF1CFED
:1021A00086957105610508940895E894BB27662714
:1021B0007727CB0197F908950E94EF100C94A21095
:1021C0000E94941038F00E949B1020F0952311F08B
:1021D0000C948B100C94911011240C94D6100E9426
:1021E000B31070F3959FC1F3950F50E0551F629F98
:1021F000F001729FBB27F00DB11D639FAA27F00D60
:10220000B11DAA1F649F6627B00DA11D661F829F86
:102210002227B00DA11D621F739FB00DA11D621F6B
:10222000839FA00D611D221F749F3327A00D611D88
:10223000231F849F600D211D822F762F6A2F11246A
:102240009F5750409AF0F1F088234AF0EE0FFF1F9D
:10225000BB1F661F771F881F91505040A9F79E3FF4
:10226000510580F00C948B100C94D6105F3FE4F372
:10227000983ED4F3869577956795B795F795E7954A
:102280009F5FC1F7FE2B880F911D9695879597F953
:10229000089581E090E0F8940C947411FC01882773
:1022A0009927E89421912032E9F3293010F02E305B
:1022B000C8F32B3241F02D3239F4689404C00E94E7
:1022C0006C11820F911D219120532A30C0F31EF40E
:1022D000909581959F4F08957AE0979F902D879FC5
:1022E000802D910D1124089510E0C2E6D0E004C0C5
:1022F000FE010E94910F2196C336D107C9F7F894C9
:02230000FFCF0D
:1023020000010101010101000100000000010101C1
:1023120001000101000101010000010101010001B0
:1023220000000101000101000101010001010101A0
:10233200010001010000000101010101010101018F
:102342000101010001010000000000000001010183
:102352000100000001000000010101010101010171
:102362000001010000010101010100000001010062
:102372000000010101010001010000010101010051
:102382000101010100000000008E058E058E05BDD1
:1023920000B900B600000000002D0370039000BDDC
:1023A20000B9008D00E1000000000002094705F3BA
:1023B20007D107E507490900000000220847057612
:1023C200088E080908210873686F7754687265657A
:1023D20044696769744E756D626572202D200053E1
:1023E200686F7720776169742074696D6572005334
:1023F200686F772073686F6F742074696D657200FF
:1024020075706461746520646973706C6179000D24
:102412000A005374617274204C45442064697370DD
:042422006C61790070
:00000001FF
