:100000000C9462000C948A000C948A000C944705AE
:100010000C9447050C9447050C948A000C948A00B4
:100020000C948A000C948A000C948A000C948A0028
:100030000C948A000C948A000C948A000C948A0018
:100040000C94A5040C948A000C9415050C94EF04F0
:100050000C948A000C948A000C948A000C948A00F8
:100060000C948A000C948A000000000023002600F3
:10007000290000000000240027002A0000000000E2
:10008000250028002B0004040404040404040202D4
:100090000202020203030303030301020408102007
:1000A0004080010204081020010204081020000012
:1000B0000008000201000003040700000000000027
:1000C0000000510511241FBECFEFD8E0DEBFCDBF29
:1000D00022E0A0EFB1E001C01D92A13CB207E1F720
:1000E00011E0A0E0B1E0E2ECF8E102C005900D9271
:1000F000A03FB107D9F710E0C2E6D0E004C02197D5
:10010000FE010E949E08C136D107C9F70E949F05D3
:100110000C945F0C0C940000833081F028F4813043
:1001200099F08230A1F008958730A9F08830B9F0B5
:100130008430D1F4809180008F7D03C08091800055
:100140008F7780938000089584B58F7702C084B53F
:100150008F7D84BD08958091B0008F7703C080911A
:10016000B0008F7D8093B00008951F93CF93DF93ED
:10017000282F30E0F901E255FF4F8491F901E6564E
:10018000FF4FD491F901EA57FF4FC491CC23C9F036
:10019000162F81110E948C00EC2FF0E0EE0FFF1F54
:1001A000E458FF4FA591B4918FB7F894111105C091
:1001B0009C91ED2FE095E92302C0EC91ED2BEC939F
:1001C0008FBFDF91CF911F910895CF93DF9390E080
:1001D000FC01E656FF4F2491FC01EA57FF4F849142
:1001E000882361F190E0880F991FFC01EE58FF4FC2
:1001F000C591D491FC01E458FF4FA591B4916111D0
:1002000009C09FB7F8948881209582238883EC9158
:100210002E230BC0623061F49FB7F8943881822F8F
:10022000809583238883EC912E2B2C939FBF06C04F
:100230008FB7F894E8812E2B28838FBFDF91CF9161
:1002400008958230910538F0880F991F880F991F03
:1002500005970197F1F7089561E08091AB02811154
:1002600060E08091A5020E94B5008091A602909165
:10027000A7020E9421016091AB028091A5020E9419
:10028000B5008091A6029091A7020C942101CF9312
:10029000DF93D82FC4E08D2F83708230D9F0833064
:1002A00079F18130A1F061E08091AB02811160E0D1
:1002B0006093AB028091A5020E94B5008091A602D6
:1002C0009091A702880F991F0E94210110C00E94DF
:1002D0002C010DC00E942C0161E08091AB028111C4
:1002E00060E06093AB028091A5020E94B50080910E
:1002F000A6029091A702880F991F0E94210104C0B5
:100300000E942C010E942C01D695D695C15009F06F
:10031000C2CFDF91CF910895CF93C82F0E9447019C
:100320008C2F0E9447018C2FCF910C9447013FB72F
:10033000F8948091020290910302A0910402B0917E
:10034000050226B5A89B05C02F3F19F00196A11DF7
:10035000B11D3FBFBA2FA92F982F8827820F911D5B
:10036000A11DB11DBC01CD0142E0660F771F881FA2
:10037000991F4A95D1F70895CF92DF92EF92FF929D
:100380000F931F93CF93DF936C017A018B01C0E031
:10039000D0E0CE15DF0589F0D8016D918D01D60131
:1003A000ED91FC910190F081E02DC6010995892B1A
:1003B00011F47E0102C02196ECCFC701DF91CF91ED
:1003C0001F910F91FF90EF90DF90CF900895FC0167
:1003D000918D828D981761F0828DDF01A80FB11D7C
:1003E0005D968C91928D9F5F9F73928F90E00895A0
:1003F0008FEF9FEF0895FC01918D828D981731F05A
:10040000828DE80FF11D858D90E008958FEF9FEFAD
:100410000895FC01918D228D892F90E0805C9F4F83
:10042000821B91098F739927089586E092E00E94BC
:10043000090221E0892B09F420E0822F0895FC01B4
:10044000848DDF01A80FB11DA35ABF4F2C91848D5D
:1004500090E001968F739927848FA689B7892C9392
:10046000A089B1898C9180648C93938D848D98132D
:1004700006C00288F389E02D80818F7D80830895F6
:10048000EF92FF920F931F93CF93DF93EC0181E0E4
:10049000888F9B8D8C8D981305C0E889F9898081A0
:1004A00085FD24C0F62E0B8D10E00F5F1F4F0F73DC
:1004B0001127E02E8C8DE8120CC00FB607FCFACF86
:1004C000E889F989808185FFF5CFCE010E941F025E
:1004D000F1CF8B8DFE01E80FF11DE35AFF4FF08243
:1004E0000B8FEA89FB898081806207C0EE89FF89D2
:1004F0006083E889F98980818064808381E090E06D
:10050000DF91CF911F910F91FF90EF900895CF93BE
:10051000DF93EC01888D8823C9F0EA89FB8980810B
:1005200085FD05C0A889B9898C9186FD0FC00FB6DD
:1005300007FCF5CF808185FFF2CFA889B9898C911E
:1005400085FFEDCFCE010E941F02E7CFDF91CF9153
:10055000089580E090E0892B29F00E941502811116
:100560000C94000008958627082E8295807F8025B0
:10057000092E982F82958F700826869598278927AF
:10058000880F880F880F802508958F929F92AF92D1
:10059000BF92DF92EF92FF920F931F93CF93DF935F
:1005A0001F92CDB7DEB7E82EB92EF62E80E00E945E
:1005B000470180E00E94470180EE0E94470164E00D
:1005C0006F0D862F69830E948C0169818FEF9FEFE9
:1005D0000E94B3028C01DE2C8E2C9B2C882D8D1951
:1005E0008F1568F45401F40181914F010E948C0130
:1005F000F5016081C8010E94B3028C01EFCF8091A8
:10060000A4020E948C016091A402C8010E94B3025E
:100610008C018091A3020E948C016091A302C80109
:100620000E94B30299830E948C019981892F0E94B4
:100630008C0160E08091A5020E94B5001092AB028F
:100640000F90DF91CF911F910F91FF90EF90DF906E
:10065000BF90AF909F908F900895009769F0FC0134
:1006600001900020E9F73197AF01481B590BBC01FD
:1006700086E092E00C94BC0180E090E00895CF9376
:10068000DF930E942D03EC018CE291E00E942D0388
:100690008C0F9D1FDF91CF9108958F929F92AF9203
:1006A000BF92CF92DF92EF92FF920F931F93CF935F
:1006B000DF93CDB7DEB7A1970FB6F894DEBF0FBEBC
:1006C000CDBF6C01990FEE08FF08F7FE31C0E09135
:1006D0000602F09107020190F081E02D6DE286E0C4
:1006E00092E009958C0122273327A9012C193D0995
:1006F0004E095F0919A2CE0181967C019AE0892EEC
:10070000912CA12CB12CCA01B901A50194010E9420
:10071000F70B605DF70162937F01211531054105FB
:10072000510589F7CF010E942D03080F191F1EC024
:10073000A701960119A28E010F5D1F4F8AE0C82EF6
:10074000D12CE12CF12CCA01B901A70196010E941C
:10075000F70B605DF80162938F01211531054105AA
:10076000510589F7CF010E942D038C018CE291E0A5
:100770000E942D03800F911FA1960FB6F894DEBF43
:100780000FBECDBFDF91CF911F910F91FF90EF90E2
:10079000DF90CF90BF90AF909F908F9008956F9211
:1007A0007F928F929F92AF92BF92CF92DF92EF9201
:1007B000FF920F931F93CF93DF9300D000D0CDB75C
:1007C000DEB73C01162F613508F010E5612FC3013B
:1007D0000E94C50200E08091AA02081708F059C0E3
:1007E000C090A802D090A9029601220F331FC90120
:1007F000A0E0B0E0E12CF12CC816D906EA06FB0611
:10080000DCF49C01AD012C193D094E095F0969F02A
:1008100029833A834B835C830E94A10B29813A810F
:100820004B815C810E94C50B03C060E070E0CB018E
:10083000C60ED71EE81EF91E0E9497014B015C01EF
:10084000C114D104E104F104F1F00E949701DC012C
:10085000CB0188199909AA09BB09883E9340A105D3
:10086000B10570F321E0C21AD108E108F10888EE61
:10087000880E83E0981EA11CB11CC114D104E104B0
:10088000F10419F7DDCF612FC3010E94C5020F5F8C
:10089000A2CF0F900F900F900F90DF91CF911F91EB
:1008A0000F91FF90EF90DF90CF90BF90AF909F900F
:1008B0008F907F906F900895CF93DF93EC018FE23C
:1008C00091E00E942D03CE010E942D0381E491E06E
:1008D0000E943F03FE0101900020E9F7A3EAB2E085
:1008E0008C918F5F8C936E2F6C1BCE010E94CF0377
:1008F000FE0101900020E9F76E2F6C1BCE01DF9105
:10090000CF910C94CF030E94A408EF92FF920F9313
:100910001F93CF93DF931F92CDB7DEB77C01FC010D
:1009200000811181C80169830E94AF0B698168173A
:1009300019F0C8010E94B70BC7010F90DF91CF914A
:100940001F910F91FF90EF9008951F920F920FB695
:100950000F9211242F933F938F939F93AF93BF9345
:100960008091FE019091FF01A0910002B0910102DF
:100970003091FD0123E0230F2D3720F40196A11DB6
:10098000B11D05C026E8230F0296A11DB11D2093BD
:10099000FD018093FE019093FF01A0930002B093AC
:1009A00001028091020290910302A0910402B09191
:1009B00005020196A11DB11D8093020290930302CE
:1009C000A0930402B0930502BF91AF919F918F91C4
:1009D0003F912F910F900FBE0F901F9018951F926F
:1009E0000F920FB60F9211242F933F934F935F9363
:1009F0006F937F938F939F93AF93BF93EF93FF93E7
:100A000086E092E00E941F02FF91EF91BF91AF91AB
:100A10009F918F917F916F915F914F913F912F9116
:100A20000F900FBE0F901F9018951F920F920FB648
:100A30000F9211242F938F939F93EF93FF93E09145
:100A40001602F09117028081E0911C02F0911D02C4
:100A500082FD12C0908180911F028F5F8F73209161
:100A60002002821751F0E0911F02F0E0EA5FFD4F93
:100A7000958F80931F0201C08081FF91EF919F911C
:100A80008F912F910F900FBE0F901F9018951F926E
:100A90000F920FB60F9211240F900FBE0F901F9060
:100AA0001895CF93DF93E6E0F2E01382128288EE8E
:100AB00093E0A0E0B0E084839583A683B78380E2CF
:100AC00091E09183808385EC90E09587848784EC26
:100AD00090E09787868780EC90E0918B808B81EC0B
:100AE00090E0938B828B82EC90E0958B848B86ECEC
:100AF00090E0978B868B118E128E138E148EECEAFB
:100B0000F2E011821082148A138AC3EAD2E01882BA
:100B100081E089839CE09A8324E630E03C832B8348
:100B20003E832D838F8361E08CE00E94E50060E0CE
:100B30008CE00E94B5001886DF91CF910895CF9385
:100B4000DF93CDB7DEB72A970FB6F894DEBF0FBE9E
:100B5000CDBF789484B5826084BD84B5816084BD46
:100B600085B5826085BD85B5816085BD80916E004B
:100B7000816080936E00109281008091810082607C
:100B800080938100809181008160809381008091B9
:100B900080008160809380008091B10084608093A8
:100BA000B1008091B00081608093B00080917A00A4
:100BB000846080937A0080917A00826080937A00CA
:100BC00080917A00816080937A0080917A008068B9
:100BD00080937A001092C100E0911602F091170202
:100BE00082E08083E0911202F09113021082E09182
:100BF0001402F09115028FEC808310921E02E09196
:100C00001A02F0911B0286E08083E0911802F091B5
:100C10001902808180618083E0911802F0911902AD
:100C2000808188608083E0911802F09119028081B0
:100C300080688083E0911802F091190280818F7D95
:100C4000808383E491E00E943F0361E08AE00E9498
:100C5000E50061E08AE00E94B50080E090E00E943B
:100C6000AF0B863049F083E090E09093F5018093DC
:100C7000F40188E790E008C086E090E09093F501E9
:100C80008093F40180EF90E09093F7018093F60158
:100C900089E491E00E942D038091F4019091F50187
:100CA0000E944D0381E090E00E94AF0B811105C0CE
:100CB0001092F3011092F2010DC0813019F481E01D
:100CC00090E004C08230A1F782E090E09093F301BD
:100CD0008093F20154E1E52E51E0F52E08E111E098
:100CE00064E0C62EC00E60E0D8018D918D010E9497
:100CF000E50062E0F70181917F010E94E500C012EA
:100D0000F2CFCE0104969987888742E0842E912CF9
:100D100001E010E024E0A22E21E0B22E38E1E32E23
:100D200031E0F32ED12C3701D7015D907D0161E0D8
:100D3000852D0E94E50060E0F30180810E94B500EE
:100D400094E1692E91E0792E212C312CD3012D9143
:100D50003D0130E0F901E255FF4F8491F901E6567B
:100D6000FF4F9491F901EA57FF4F4490442009F452
:100D70007AC1882321F09A870E948C009A85E42DFD
:100D8000F0E0EE0FFF1FE859FF4FA591B491EC91F1
:100D90009E2309F468C1BFEF2B1A3B0AE4E02E162C
:100DA0003104A1F660E0852D0E94E500F4E0AF0E6D
:100DB000B11CCE10B8CF1D142CF48091FC018823F7
:100DC00009F456C1F12C2FB7F8948091FE0190914F
:100DD000FF01A0910002B09101022FBF4091F801E4
:100DE0005091F9016091FA017091FB01841B950B00
:100DF000A60BB70B61E08D329140A105B10508F457
:100E000060E08AE00E94B500D092FC01FF2009F466
:100E100088C08CE591E00E942D03E0910602F091DC
:100E200007020190F081E02D6091FC0186E092E0E4
:100E300009958CE291E00E942D038091FC018A3299
:100E400049F41093AD020093AC021092C0021092CC
:100E5000BF020DC0833259F49092AD028092AC0271
:100E6000E091BF02F091C002E455FD4F1282209143
:100E7000AC023091AD022130310599F42091BF02CE
:100E80003091C002203131050CF04BC0F901E4551E
:100E9000FD4F82832F5F3F4F3093C0022093BF02EC
:100EA00040C0232BF1F5813409F001C187E0E8EE61
:100EB000F1E0DE01119601900D928A95E1F78091A3
:100EC000F2019091F3018130910509F0E7C082E3CE
:100ED0008A838091F7018F938091F6018F93A1E629
:100EE000B1E0BF93AF93F985FF9328852F930E94BC
:100EF000B2081F82CE0101960E945C040F900F90F1
:100F00000F900F900F900F908091F4019091F50148
:100F1000039709F4C9C080EF90E09093F7018093A4
:100F2000F6018091AC029091AD02029709F098C051
:100F300084E891E00E942D038EEA92E00E943F0334
:100F400063E971E08EEA92E00E94A908892BA1F47E
:100F500086E991E00E943F0383E090E09093F501E1
:100F60008093F401A8E7B0E0B093F701A093F601F5
:100F70001A82198263E01BC063EA71E08EEA92E094
:100F80000E94A908892BB9F486EA91E00E943F03E8
:100F9000E6E0F0E0F093F501E093F40180EF90E0FB
:100FA0009093F7018093F6011A82198266E0CE01D0
:100FB00001960E94850461EB71E08EEA92E00E9446
:100FC000A908892B61F486EB91E00E943F031092FF
:100FD000F3011092F2011A83098360E027C063ECE9
:100FE00071E08EEA92E00E94A908892B61F489ECF5
:100FF00091E00E943F031093F3010093F2011A83E2
:10100000098361E013C063ED71E08EEA92E00E9413
:10101000A908892B79F489ED91E00E943F03909211
:10102000F3018092F2011A83098362E0CE010196F6
:101030000E94850463EE71E08EEA92E00E94A908A6
:10104000892B21F486EE91E00E945C041092AD029F
:101050001092AC021092C0021092BF021092AE0227
:101060000E94A90257CEF501E20DF31DD08093CE68
:101070002FB7F8948091FE019091FF01A09100029A
:10108000B09101022FBF8093F8019093F901A093D2
:10109000FA01B093FB01FF24F39495CE029711F46B
:1010A00083E316CF81E314CF88E790E036CF823414
:1010B00019F486E691E03FC0833419F484EB91E0A3
:1010C0003AC0843419F488E691E035C0803319F4CD
:1010D0008AE691E030C0813351F48091F60190911D
:1010E000F701893291050CF41CCF88970BC082332D
:1010F000C1F48091F6019091F701893C91050CF0C3
:1011000010CF88969093F7018093F6018DE691E0D9
:101110000E942D038091F6019091F7010E944D03EA
:1011200000CF873319F48EE791E005C0883309F0CA
:10113000F8CE81E891E00E945C04F3CEEE0FFF1F31
:101140000590F491E02D099481E090E0F8940C94DE
:101150005F0CFB01DC018D91019080190110D9F326
:10116000990B0895AEE0B0E0E8EBF8E00C94360C93
:101170000D891E8986E08C831A8309838FEF9FE790
:101180009E838D83AE01475E5F4F6F89788DCE0160
:1011900001960E94D5082F813885F801E20FF31FD0
:1011A00010822E96E4E00C94520CACE0B0E0EBED33
:1011B000F8E00C94280C7C016B018A01FC01178279
:1011C0001682838181FFBDC1CE0101964C01F701DA
:1011D0009381F60193FD859193FF81916F0188239F
:1011E00009F4ABC1853239F493FD859193FF819168
:1011F0006F01853229F4B70190E00E94BD0AE7CF64
:10120000512C312C20E02032A0F48B3269F030F4E4
:10121000803259F0833269F420612CC08D3239F06C
:10122000803339F4216026C02260246023C0286006
:1012300021C027FD27C030ED380F3A3078F426FF63
:1012400006C0FAE05F9E300D1124532E13C08AE0D1
:10125000389E300D1124332E20620CC08E3221F4C2
:1012600026FD6BC1206406C08C3611F4206802C0D4
:10127000883641F4F60193FD859193FF81916F01CA
:101280008111C1CF982F9F7D9554933028F40C5F26
:101290001F4FFFE3F9830DC0833631F0833771F0C0
:1012A000833509F05BC022C0F801808189830E5F1D
:1012B0001F4F44244394512C540115C03801F2E0CF
:1012C0006F0E711CF801A080B18026FF03C0652D50
:1012D00070E002C06FEF7FEFC5012C870E94B20A59
:1012E0002C0183012C852F77222E17C03801F2E0C4
:1012F0006F0E711CF801A080B18026FF03C0652D20
:1013000070E002C06FEF7FEFC5012C870E94A70A33
:101310002C012C852068222E830123FC1BC0832DE9
:1013200090E048165906B0F4B70180E290E00E94C0
:10133000BD0A3A94F4CFF50127FC859127FE8191EF
:101340005F01B70190E00E94BD0A31103A94F1E0CC
:101350004F1A51084114510471F7E5C0843611F059
:10136000893639F5F80127FF07C0608171818281D4
:1013700093810C5F1F4F08C060817181072E000CA4
:10138000880B990B0E5F1F4F2F76722E97FF09C0A7
:1013900090958095709561957F4F8F4F9F4F2068F6
:1013A000722E2AE030E0A4010E94F50AA82EA818A7
:1013B00044C0853729F42F7EB22E2AE030E025C0C4
:1013C000F22FF97FBF2E8F36C1F018F4883579F0EF
:1013D000B4C0803719F0883721F0AFC02F2F2061BB
:1013E000B22EB4FE0DC08B2D8460B82E09C024FF30
:1013F0000AC09F2F9660B92E06C028E030E005C0D5
:1014000020E130E002C020E132E0F801B7FE07C081
:1014100060817181828193810C5F1F4F06C0608162
:10142000718180E090E00E5F1F4FA4010E94F50AD9
:10143000A82EA818FB2DFF777F2E76FE0BC0372D28
:101440003E7FA51450F474FE0AC072FC08C0372D0C
:101450003E7E05C0BA2C372D03C0BA2C01C0B52C76
:1014600034FF0DC0FE01EA0DF11D8081803311F4BF
:10147000397E09C032FF06C0B394B39404C0832FF1
:10148000867809F0B39433FD13C030FF06C05A2CA0
:10149000B31418F4530C5B18B32CB31468F4B701ED
:1014A00080E290E03C870E94BD0AB3943C85F5CF72
:1014B000B31410F43B1801C0312C34FF12C0B70133
:1014C00080E390E03C870E94BD0A3C8532FF17C054
:1014D00031FD03C088E790E002C088E590E0B701E5
:1014E0000CC0832F867859F031FF02C08BE201C017
:1014F00080E237FD8DE2B70190E00E94BD0AA5149D
:1015000038F4B70180E390E00E94BD0A5A94F7CF07
:10151000AA94F401EA0DF11D8081B70190E00E94C8
:10152000BD0AA110F5CF332009F451CEB70180E2F6
:1015300090E00E94BD0A3A94F6CFF7018681978128
:1015400002C08FEF9FEF2C96E2E10C94440CFC015B
:101550000590615070400110D8F7809590958E0FDE
:101560009F1F0895FC016150704001900110D8F751
:10157000809590958E0F9F1F08950F931F93CF9383
:10158000DF93FB01238121FD03C08FEF9FEF28C074
:1015900022FF16C0468157812481358142175307A7
:1015A00044F4A081B1819D012F5F3F4F318320839F
:1015B0008C93268137812F5F3F4F3783268310C05E
:1015C000EB01092F182F0084F185E02D0995892B57
:1015D000E1F68E819F8101969F838E83812F902FCC
:1015E000DF91CF911F910F910895FA01AA2728301A
:1015F00051F1203181F1E8946F936E7F6E5F7F4FE0
:101600008F4F9F4FAF4FB1E03ED0B4E03CD0670F5B
:10161000781F891F9A1FA11D680F791F8A1F911DAE
:10162000A11D6A0F711D811D911DA11D20D009F4FE
:1016300068943F912AE0269F11243019305D319340
:10164000DEF6CF010895462F4770405D4193B3E029
:101650000FD0C9F7F6CF462F4F70405D4A3318F0D0
:10166000495D31FD4052419302D0A9F7EACFB4E081
:10167000A6959795879577956795BA95C9F7009739
:101680006105710508959B01AC010A2E06945795DA
:10169000479537952795BA95C9F7620F731F841F31
:1016A000951FA01D08958F929F92AF92BF92CF92E7
:1016B000DF92EF92FF92CF93DF93EC016881798103
:1016C0008A819B81611571058105910521F464E290
:1016D00079ED8BE597E02DE133EF41E050E00E949A
:1016E000C50B49015A019B01AC01A7EAB1E40E9474
:1016F000E40B6B017C01ACEEB4EFA50194010E94F8
:10170000F20BDC01CB018C0D9D1DAE1DBF1DB7FF83
:1017100003C00197A109B04888839983AA83BB833A
:10172000BC01CD019F77DF91CF91FF90EF90DF90CB
:10173000CF90BF90AF909F908F9008950E94530BD1
:10174000089580E091E00E94530B0895609300019A
:101750007093010180930201909303010895F99918
:10176000FECF92BD81BDF89A992780B50895262FA6
:10177000F999FECF1FBA92BD81BD20BD0FB6F89476
:10178000FA9AF99A0FBE01960895052E97FB1EF45A
:1017900000940E94DC0B57FD07D00E94F70B07FC5A
:1017A00003D04EF40C94DC0B509540953095219568
:1017B0003F4F4F4F5F4F089590958095709561957D
:1017C0007F4F8F4F9F4F08950E94190CA59F900D3A
:1017D000B49F900DA49F800D911D11240895B7FF13
:1017E0000C94E40B0E94E40B821B930B0895A1E27E
:1017F0001A2EAA1BBB1BFD010DC0AA1FBB1FEE1F8B
:10180000FF1FA217B307E407F50720F0A21BB30BD5
:10181000E40BF50B661F771F881F991F1A9469F751
:1018200060957095809590959B01AC01BD01CF01AD
:101830000895A29FB001B39FC001A39F700D811DA9
:101840001124911DB29F700D811D1124911D0895C9
:101850002F923F924F925F926F927F928F929F92C0
:10186000AF92BF92CF92DF92EF92FF920F931F93AE
:10187000CF93DF93CDB7DEB7CA1BDB0B0FB6F8945F
:10188000DEBF0FBECDBF09942A88398848885F849F
:101890006E847D848C849B84AA84B984C884DF8010
:1018A000EE80FD800C811B81AA81B981CE0FD11DF4
:1018B0000FB6F894DEBF0FBECDBFED010895F894CA
:0218C000FFCF58
:1018C2000100000044434241233936333038353277
:1018D2002A37343106070809020304050000000014
:1018E2004002BC010902E701FB0187020D0A005315
:1018F200656E64696E67206D657373616765205BF1
:10190200005D005374617274004E756D62657220E1
:101912006F66206172726F77733A20004B6579208F
:10192200002530336400500049005A310054696D7B
:1019320065206E65787420726F756E642000413187
:10194200004132004B65792073657175656E636580
:101952003A20002A33005468726565206172726F02
:101962007773002A3600536978206172726F777339
:10197200002A4142430053696E676C6520726F759D
:101982006E64002A4142434400414243442043449E
:101992004142002A414241420041424344204142E5
:1019A2004344002A3000520053582058585800002F
:00000001FF
