:100000000C9463000C948B000C948B000C940703ED
:100010000C9407030C9407030C948B000C948B0036
:100020000C948B000C948B000C948B000C948B0024
:100030000C948B000C948B000C948B000C948B0014
:100040000C94BF040C948B000C94D5020C94AF025A
:100050000C948B000C948B000C948B000C948B00F4
:100060000C948B000C948B000000000024002700EF
:100070002A0000000008000201000003040700003D
:1000800000000000000000000000250028002B00F8
:1000900000000000230026002900040404040404D6
:1000A0000404020202020202030303030303010227
:1000B00004081020408001020408102001020408F6
:1000C0001020540C4A0C11241FBECFEFD8E0DEBF25
:1000D000CDBF14E0A0E0B1E0E0EAF5E202C0059097
:1000E0000D92AE30B107D9F726E0AEE0B4E001C022
:1000F0001D92AF35B207E1F710E0C2E6D0E004C0D0
:100100002197FE010E949B0DC136D107C9F70E94BD
:1001100009050C94C3120C940000CF92DF92EF9269
:10012000FF920F931F93CF93DF936C017A018B01A2
:10013000C0E0D0E0CE15DF0589F0D8016D918D01CA
:10014000D601ED91FC910190F081E02DC601099559
:10015000892B11F47E0102C02196ECCFC701DF91FB
:10016000CF911F910F91FF90EF90DF90CF90089566
:10017000FC01918D828D981761F0828DDF01A80FAF
:10018000B11D5D968C91928D9F5F9F73928F90E0D1
:1001900008958FEF9FEF0895FC01918D828D981740
:1001A00031F0828DE80FF11D858D90E008958FEF7D
:1001B0009FEF0895FC01918D228D892F90E0805C46
:1001C0009F4F821B91098F73992708958EE694E0C3
:1001D0000E94DA0021E0892B09F420E0822F0895A3
:1001E000FC01848DDF01A80FB11DA35ABF4F2C91D4
:1001F000848D90E001968F739927848FA689B789A3
:100200002C93A089B1898C9180648C93938D848D7B
:10021000981306C00288F389E02D80818F7D80834A
:100220000895EF92FF920F931F93CF93DF93EC010A
:1002300081E0888F9B8D8C8D981305C0E889F989A2
:10024000808185FD24C0F62E0B8D10E00F5F1F4FBF
:100250000F731127E02E8C8DE8120CC00FB607FC2F
:10026000FACFE889F989808185FFF5CFCE010E9418
:10027000F000F1CF8B8DFE01E80FF11DE35AFF4F27
:10028000F0820B8FEA89FB898081806207C0EE894A
:10029000FF896083E889F98980818064808381E0B7
:1002A00090E0DF91CF911F910F91FF90EF90089513
:1002B000CF93DF93EC01888D8823C9F0EA89FB890D
:1002C000808185FD05C0A889B9898C9186FD0FC004
:1002D0000FB607FCF5CF808185FFF2CFA889B989D9
:1002E0008C9185FFEDCFCE010E94F000E7CFDF912A
:1002F000CF91089580E090E0892B29F00E94E600DC
:1003000081110C9400000895209150043091510403
:100310002817390771F490914E0480914F04981773
:1003200041F0E0914E04F0E0E25FFB4F808190E00D
:1003300008958FEF9FEF089508951F93CF93DF9354
:10034000DC015C962D913C915D972115310539F4C6
:1003500081E090E013969C938E9312973DC0519646
:10036000ED91FC91529750969C915097892F8095D2
:100370001FB75E964C915E9741FB772770F941FD60
:100380006095F8944081772311F0492B01C04823F0
:100390004083E9012197F1F748E0508160FF02C0F6
:1003A000592B01C058235083E9012197F1F7669535
:1003B000415099F7772321F090818923808303C0EE
:1003C0008081982B90831FBF5C968D919C915D9747
:1003D0000197F1F721E030E0C901DF91CF911F9142
:1003E000089520915004309151042817390771F471
:1003F00080914F0420914E0490E0805C9F4F821BBF
:10040000910960E470E00E942B0D089580E090E077
:100410000895209150043091510428173907B9F4F8
:1004200090914E0480914F04981789F0E0914E040A
:10043000F0E0E25FFB4F808120914E0430E02F5FBF
:100440003F4F2F73332720934E0490E008958FEF92
:100450009FEF0895E0915004F0915104E817F907D7
:1004600069F4A389B4899C918589809589238C93AB
:10047000109251041092500481E0089580E0089594
:10048000CF93DF93EC0189EC91E00E941704CE0139
:100490000E941904EBE0F5E081E08483D183C083FE
:1004A00080916A0490916B04A0916C04B0916D04EA
:1004B00085839683A783B087DF91CF91089561E00C
:1004C00082E00E942B0461E083E00E942B0461E043
:1004D00084E00C942B040E945F0260E082E00E94A2
:1004E0002B048DED91E00C9493030E946B0210920B
:1004F0002D0681E080932E061092150510921405AA
:1005000080932F06109233061092320680933406A1
:10051000109226061092270610922806109229069D
:1005200010922B0610922A0680932C061092360603
:1005300008950E945F0260E083E00E942B048AEE2F
:1005400091E00C9493030E945F0260E084E00E94BB
:100550002B048AEF91E00C9493030E94C00F1F922A
:100560000F920FB60F9211242F933F934F935F93E7
:100570006F937F938F939F93AF93BF93EF93FF936B
:100580008EE694E00E94F000FF91EF91BF91AF9151
:100590009F918F917F916F915F914F913F912F919B
:1005A0000F900FBE0F901F9018951F920F920FB6CD
:1005B0000F9211242F938F939F93EF93FF93E091CA
:1005C0007E04F0917F048081E0918404F0918504A1
:1005D00082FD12C09081809187048F5F8F7320917C
:1005E0008804821751F0E0918704F0E0E259FB4F54
:1005F000958F8093870401C08081FF91EF919F9137
:100600008F912F910F900FBE0F901F9018951F92F2
:100610000F920FB60F9211242F933F934F935F9336
:100620006F937F938F939F93AF93BF93EF93FF93BA
:10063000E0915004F0915104309709F451C0968D27
:10064000A685B785858591FF04C09C91892329F4EF
:1006500047C09C91892309F043C0A389B4899C9128
:100660008589809589238C93868997890197F1F7ED
:10067000608D718DA685B785558538E020E0CB016A
:100680000197F1F7822F90E095958795282F4C914F
:10069000452309F02068315091F7868D81FD209522
:1006A00080914F0490E001968F73992730914E040A
:1006B000381749F0A0914F04B0E0A25FBB4F2C93D4
:1006C00080934F0403C0868D8160868F828D938DC9
:1006D0000197F1F7A389B4899C918589892B8C9323
:1006E000FF91EF91BF91AF919F918F917F916F910A
:1006F0005F914F913F912F910F900FBE0F901F90E0
:100700001895009769F0FC0101900020E9F73197F6
:10071000AF01481B590BBC018EE694E00C948D0090
:1007200080E090E00895CF93DF930E948103EC0175
:1007300080E392E00E9481038C0F9D1FDF91CF9197
:1007400008958F929F92AF92BF920F931F93CF9372
:10075000DF93CDB7DEB7A1970FB6F894DEBF0FBE1B
:10076000CDBF19A2423008F44AE08E010F5D1F4F41
:10077000842E912CA12CB12CA50194010E943F0D37
:10078000E62FB901CA0101501109EA3014F4E05D05
:1007900001C0E95CD801EC93232B242B252B61F7B6
:1007A000C8010E948103A1960FB6F894DEBF0FBE68
:1007B000CDBFDF91CF911F910F91BF90AF909F90D0
:1007C0008F900895E0916E04F0916F040190F08194
:1007D000E02D682F8EE694E00994CF92DF92EF929D
:1007E000FF92CF93DF9397FF19C06B017C018DE2DD
:1007F0000E94E203EC0166277727CB016C197D0983
:100800008E099F094AE00E94A1038C0F9D1FDF9172
:10081000CF91FF90EF90DF90CF9008954AE0DF9165
:10082000CF91FF90EF90DF90CF900C94A1030C94A8
:100830008103CF93DF93BC01990F880B990B0E9422
:10084000ED03EC0180E392E00E9481038C0F9D1F79
:10085000DF91CF91089590E0FC01EE58FF4F349165
:10086000FC01E255FF4F2491FC01E656FF4FE49155
:10087000EE2309F43BC0332339F1333091F038F4DF
:100880003130A9F0323001F584B58F7D12C0373098
:1008900091F03830A1F03430B9F4809180008F7D30
:1008A00003C0809180008F77809380000DC084B555
:1008B0008F7784BD09C08091B0008F7703C080918D
:1008C000B0008F7D8093B000F0E0EE0FFF1FEA577D
:1008D000FF4FA591B4918FB7F894EC91611103C0CB
:1008E00020952E2301C02E2B2C938FBF0895CF93DC
:1008F000DF9390E0FC01E255FF4F2491FC01E656A6
:10090000FF4F8491882361F190E0880F991FFC01CB
:10091000E859FF4FC591D491FC01EA57FF4FA591CB
:10092000B491611109C09FB7F89488812095822302
:100930008883EC912E230BC0623061F49FB7F8944A
:100940003881822F809583238883EC912E2B2C93E2
:100950009FBF06C08FB7F894E8812E2B28838FBFE6
:10096000DF91CF9108952FB7F89460915B06709155
:100970005C0680915D0690915E062FBF08951F92E0
:100980000F920FB60F9211242F933F938F939F9343
:10099000AF93BF9380915B0690915C06A0915D063A
:1009A000B0915E0630915A0623E0230F2D3720F4D4
:1009B0000196A11DB11D05C026E8230F0296A11DB9
:1009C000B11D20935A0680935B0690935C06A0931A
:1009D0005D06B0935E068091560690915706A091F1
:1009E0005806B09159060196A11DB11D8093560677
:1009F00090935706A0935806B0935906BF91AF91B4
:100A00009F918F913F912F910F900FBE0F901F904C
:100A10001895CF93DF93CDB7DEB72F970FB6F89425
:100A2000DEBF0FBECDBF789484B5826084BD84B52F
:100A3000816084BD85B5826085BD85B5816085BDD9
:100A400080916E00816080936E0010928100809191
:100A50008100826080938100809181008160809319
:100A60008100809180008160809380008091B1003E
:100A700084608093B1008091B00081608093B00069
:100A800080917A00846080937A0080917A008260FD
:100A900080937A0080917A00816080937A008091BF
:100AA0007A00806880937A001092C10010925304FB
:100AB000109252041092550410925404E6E5F4E0AA
:100AC000119224E0EE35F207D9F7E0917E04F0911F
:100AD0007F0482E08083E0917A04F0917B041082AD
:100AE000E0917C04F0917D048FEC80831092860469
:100AF000E0918204F091830486E08083E091800499
:100B0000F0918104808180618083E0918004F09184
:100B10008104808188608083E0918004F091810469
:100B2000808180688083E0918004F09181048081DD
:100B30008F7D808361E089E00E94770461E082E03C
:100B40000E94770461E083E00E94770461E084E022
:100B50000E94770461E085E00E94770461E086E00E
:100B60000E94770461E087E00E9477040E945F02A0
:100B70000091000111E0602F612785E00E942B04A5
:100B8000602F86E00E942B041093350661E087E019
:100B90000E942B0460E089E00E942B041092520610
:100BA000109251061092500610924F0610924E0667
:100BB00010924D068EE393E0909354068093530673
:100BC00090914306963108F057C02DE831E03093FC
:100BD0004E0620934D062CE333E0309350062093CD
:100BE0004F0624E632E030935206209351062091BE
:100BF0006800983050F031E09E3008F430E081E039
:100C000001C0880F3A95EAF701C084E0822B8093F7
:100C10006800983038F09E3040F0963148F020E07F
:100C200030E008C02DE630E005C02BE630E002C021
:100C30002CE630E030934B0620934A06983030F48F
:100C400081E001C0880F9A95EAF70EC0292F30E0A5
:100C50009E3018F42850310902C02E50310981E02D
:100C600001C0880F2A95EAF780934C0680915306BD
:100C7000909154060197F1F7809151069091520698
:100C8000892B21F1809150049091510436E08733F3
:100C90009307E1F0009711F00E942A028091550617
:100CA0008E7F8093550610924F0410924E0487E376
:100CB00096E09093510480935004E0914A06F0919D
:100CC0004B06908180914C06892B80830E94B3044F
:100CD00060936A0470936B0480936C0490936D042A
:100CE0000E946B0248EEC42E43E0D42EE12CF12C7E
:100CF000AE014F5F5F4F1A0180906A0490906B04C1
:100D0000A0906C04B0906D04809266049092670489
:100D1000A0926804B09269040E94B30460936A04CC
:100D200070936B0480936C0490936D04DC01CB0191
:100D300088199909AA09BB098093620490936304F6
:100D4000A0936404B09365042091140530911505B7
:100D500021303105A9F400911E0510911F05209145
:100D6000200530912105080F191F2A1F3B1F0093F2
:100D70001E0510931F05209320053093210528C0E0
:100D800023303105A9F4009122051091230520910B
:100D9000240530912505080F191F2A1F3B1F0093BA
:100DA000220510932305209324053093250510C0B8
:100DB00010921E0510921F05109220051092210519
:100DC00010922205109223051092240510922505F9
:100DD00020912D062223B1F00091260610912706BE
:100DE0002091280630912906B901A801481B590B0A
:100DF0006A0B7B0B409326065093270660932806C8
:100E000070932906809116059091170527E0289F79
:100E1000F001299FF00D1124EC5EFA4F12891A356A
:100E200031F464E070E0709315056093140520912F
:100E30001405309115052130310509F0D2C02091FB
:100E40001805309119052817390709F49FC089E062
:100E500092E00E94170460911E0570911F05809119
:100E6000200590912105A70196010E943F0DCA011E
:100E7000B9014AE00E94A1038DE292E00E941704AA
:100E80006091160570911705072E000C880B990BC1
:100E90000E94ED038DE292E00E941704812F0E94D0
:100EA000E20380E392E00E948103173409F448C012
:100EB00054F41234E9F11334F1F1113409F05EC045
:100EC00081E090E03AC0133509F448C034F512359A
:100ED00009F054C080912D0680932E0610922D06A5
:100EE0006091300670913106072E000C880B990B2B
:100EF0000E94C70E20E030E44CE157E40E94530FFB
:100F00000E948F0E60932606709327068093280612
:100F1000909329060E946B0231C01935E1F01A3511
:100F200069F583E392E00E9493030E94750226C054
:100F300082E090E002C083E090E00E9440021EC088
:100F400080912D0691E0892780932E0690932D069F
:100F50000E94A30213C00E94990210C06091000178
:100F600011E0062F01270093000185E00E942B0469
:100F7000602F86E00E942B041093350680911605A1
:100F80009091170590931905809318058091160587
:100F9000909117050196FC01EE0FFF1FEE0FFF1F4A
:100FA000EA55FA4F00911E0510911F05209120056A
:100FB00030912105408151816281738104171507A9
:100FC0002607370770F0909317058093160580E485
:100FD00092E00E94170480911605909117050E94D7
:100FE000190480910F05882381F180906A04909004
:100FF0006B04A0906C04B0906D04809110059091EA
:101000001105A0911205B0911305881A990AAA0A30
:10101000BB0A80910B0590910C05880F991F0197D1
:1010200040910D0550910E05849F9001859F300DD4
:10103000949F300D1124A90160E070E081E08416D6
:101040009506A606B70608F080E080930F05882372
:1010500009F180916A0490916B04A0916C04B091A5
:101060006D04009110051091110520911205309129
:101070001305BC01CD01601B710B820B930B2091FA
:101080000D0530910E0540E050E00E943F0D622FAB
:10109000617001C061E087E00E942B046091260628
:1010A00070912706809128069091290600913006BC
:1010B0001091310616161706180619068CF428E248
:1010C000209F5001219FB00C1124A70196010E947E
:1010D000610D2F5F3F4FA216B30624F4950102C0A5
:1010E00020E030E081E040912A0650912B06241741
:1010F000350709F480E080932C0630932B0620936B
:101100002A062115310549F0C901019768E270E00E
:101110000E942B0D6F5F7F4F02C060E070E00617EA
:1011200017070CF4B80181E02091320630913306A4
:101130002617370709F480E080933406709333064E
:10114000609332068823A9F1109234061A827F93A5
:101150006F93A6E5B2E0BF93AF933F922F920E94A8
:10116000C50F61E089E00E942B0461E487E396E00B
:101170000E949D01698187E396E00E949D0160E0E5
:1011800087E396E00E949D0160E089E00E942B04C5
:1011900089E592E00E94170489810E94E20380E7BA
:1011A00092E00E9493030F900F900F900F900F907A
:1011B0000F9080912C06882309F460C010922C06B1
:1011C0001C8280912B068F9380912A068F93A9E829
:1011D000B2E0BF93AF933F922F920E94C50F61E0A0
:1011E00089E00E942B0464E587E396E00E949D015C
:1011F000698187E396E00E949D016A8187E396E01A
:101200000E949D016B8187E396E00E949D0160E052
:1012100087E396E00E949D0160E089E00E942B0434
:101220008EE892E00E941704C1010E94170485EA2B
:1012300092E00E94170460911E0570911F05809135
:101240002005909121054AE00E94A1038DE292E0E1
:101250000E94170460912606709127068091280647
:10126000909129060E94ED0380E392E00E948103A1
:101270000F900F900F900F900F900F908091350668
:10128000882339F11092350661E089E00E942B0431
:1012900061E687E396E00E949D018091000188232A
:1012A00031F081EC92E00E94930361E305C08FED81
:1012B00092E00E94930362E387E396E00E949D011F
:1012C00060E087E396E00E949D0160E089E00E9473
:1012D0002B0480912E06882349F110922E0661E09E
:1012E00089E00E942B0463E587E396E00E949D015C
:1012F00080912D06882341F061E387E396E00E9408
:101300009D018DEF92E007C060E387E396E00E94C5
:101310009D0183E293E00E94930360E087E396E0FF
:101320000E949D0160E089E00E942B0480912F06BD
:10133000882379F110922F0661E089E00E942B0446
:1013400061E089E00E942B0462E587E396E00E9459
:101350009D018091140590911505019741F461E379
:1013600087E396E00E949D018DE493E007C060E36F
:1013700087E396E00E949D0188E793E00E94930333
:1013800060E087E396E00E949D0160E089E00E94B2
:101390002B040E94B30400915E0410915F0420911D
:1013A000600430916104DC01CB01801B910BA20B26
:1013B000B30B893C9105A105B10540F0109255048D
:1013C00010925404109253041092520487E396E052
:1013D0000E94F101892B09F443C087E396E00E9443
:1013E0000902182F8091540490915504019690930E
:1013F000550480935404019721F50E94B30460932F
:101400005E0470935F0480936004909361041123E1
:1014100049F020915404309155042830310509F0E9
:1014200032C211C08091540490915504019759F42F
:1014300010925504109254041092530410925204C6
:101440000FC01111E6CFE0915404F0915504EE5A0B
:10145000FB4F138282E090E09093530480935204F8
:101460008091520490915304029709F009C210929E
:1014700053041092520487EA93E00E94930386E596
:1014800094E00E94930380915604803509F4D9C1F9
:1014900054F4893409F496C18C3409F47AC1813446
:1014A00009F0E6C160C1833549F08A3509F483C18A
:1014B000823509F0DDC10E947502DAC18091140500
:1014C00090911505039779F481E090E090931505CC
:1014D000809314058091360680932D0680932E0606
:1014E00010923606C5C182EB93E00E949303F091FF
:1014F0005704F98789E594E00E9466129E838D83E4
:1015000080EC93E00E9417048D819E810E94190453
:101510002D813E81B901330F880B990B0E94C70EB4
:1015200020E030E040EF51E40E94B10D20E030E0D7
:1015300040E252E40E941D0E20E030E040E05FE314
:101540000E94B10D0E948F0E709331066093300699
:1015500021E020933406072E000C880B990B0E9483
:10156000C70E20E030E44CE157E40E94530F0E9484
:101570008F0E60932606709327068093280690931B
:10158000290610922D0685ED93E00E9417048091A4
:101590003006909131060E9419043985313319F0D3
:1015A00041E051E002C04AE651E05D874C8766EABF
:1015B00075E07F876E8796E2A92E95E0B92E7B872E
:1015C0006A87812C912C412C512C320118861F8264
:1015D000AA85BB854D925D926D927D92BB87AA874D
:1015E000EC85FD85E80DF91D80E090E084010C5E3E
:1015F0001A4F2191D801A80FB91F52962C9301962A
:1016000087309105B1F7F50180818734F9F41C82A8
:10161000FE81FF932D812F93A9E8B2E0BF93AF9392
:101620003F922F920E94C50F8981D80153968C93C7
:1016300053978A8154968C9354978B8155968C93AB
:101640000F900F900F900F900F900F90B985B333BC
:1016500031F4F5018081833511F425E42083D5012F
:101660001C914F8158855093170540931605C4016E
:10167000895D9A4F0E94661228EE33E0DC010E94D9
:10168000800D460E571E681E791E4F8158854F5F8C
:101690005F4F58874F8357E0A50EB11C67E0860E59
:1016A000911C1A3509F094CF81E090E090931505D4
:1016B0008093140510921705109216050E94B3042A
:1016C00060931A0570931B0580931C0590931D056C
:1016D00010921E0510921F051092200510922105F0
:1016E00010922205109223051092240510922505D0
:1016F00081E080932F0687EE93E00E94930304E13C
:1017000015E0812C912C5801F801E80DF91D828912
:10171000811101C080E20E94E2037FEF871A970ADD
:1017200087E08816910481F785EF93E00E94170403
:10173000AE85BF856D917D918D919D91BF87AE875F
:10174000A70196010E943F0DCA01B9010E94ED0355
:1017500083E094E00E949303095F1F4FF5018289A3
:101760008A3579F685C085E094E00E94930311E004
:1017700080915704813309F010E01093000161E07B
:10178000612785E00E942B04612F86E00E942B04D4
:101790006FC080915704823541F0893549F0873414
:1017A00009F066C00E94A30263C00E946B0260C081
:1017B0000E9499025DC087E594E00E9466120E9433
:1017C000400256C0809116059091170547E0489F4A
:1017D0009001499F300D1124F901EA5DFA4F4581CE
:1017E0004934B9F0E0911605F0911705EE0FFF1F8F
:1017F000EE0FFF1FEA55FA4F80819181A281B381DC
:1018000080931E0590931F05A0932005B09321059A
:101810002FC0F901EC5EFA4F42894A3519F340E0D6
:1018200050E00196495F5F4FFA01E20FF31FEC5E53
:10183000FA4F608D6335A9F39093170580931605D1
:10184000D1CF8091140590911505019789F483E01B
:1018500090E0909315058093140580912D06809358
:101860003606882329F010922D0681E080932E06FB
:101870001092550410925404109253041092520482
:101880000E947A0139CAF901EE5AFB4F138381E0B5
:1018900090E0E2CD8DEB91E090933806809337068F
:1018A00087E396E00C942A0210927104109270045F
:1018B00088EE93E0A0E0B0E080937204909373040C
:1018C000A0937404B09375042DEA31E030936F0453
:1018D00020936E0425EC30E030937B0420937A044F
:1018E00024EC30E030937D0420937C0420EC30E045
:1018F00030937F0420937E0421EC30E03093810408
:101900002093800422EC30E03093830420938204FF
:1019100026EC30E0309385042093840410928704F1
:10192000109288041092890410928A0410923A0648
:101930001092390680933B0690933C06A0933D0697
:10194000B0933E068DEB91E0909338068093370676
:1019500010924E0610924D061092500610924F06AD
:10196000109252061092510610925406109253068D
:10197000609155066E7F6D7F609355066695617028
:1019800081E068278BE00E942B0461E08BE00E94DD
:101990007704E9EBF0E0E491E0934706E5EAF0E054
:1019A000E491F0E0EE0FFF1FEA57FF4F859194910D
:1019B000909349068093480660E08AE00E9477048D
:1019C0008091550681FD04C061E08AE00E942B04ED
:1019D0008AE080934306E8EBF0E0E491E09344066C
:1019E000E4EAF0E0E491F0E0EE0FFF1FE057FF4F74
:1019F0008591949190934606809345061092150523
:101A00001092140510921705109216058FEF9FEF94
:101A1000909319058093180510922C0610922D06AC
:101A200010922E0610922F06109234061092350650
:101A30001092360680E293E090930E0580930D0598
:101A400010920F05109210051092110510921205B8
:101A500010921305089597FB072E16F4009407D0F3
:101A600077FD09D00E94870D07FC05D03EF49095C4
:101A700081959F4F0895709561957F4F0895A1E2DC
:101A80001A2EAA1BBB1BFD010DC0AA1FBB1FEE1FF8
:101A9000FF1FA217B307E407F50720F0A21BB30B43
:101AA000E40BF50B661F771F881F991F1A9469F7BF
:101AB00060957095809590959B01AC01BD01CF011B
:101AC0000895052E97FB1EF400940E94780D57FD93
:101AD00007D00E943F0D07FC03D04EF40C94780D04
:101AE00050954095309521953F4F4F4F5F4F08954A
:101AF00090958095709561957F4F8F4F9F4F08957A
:101B00000E94A10DB7FF0895821B930B0895AA1B95
:101B1000BB1B51E107C0AA1FBB1FA617B70710F0D8
:101B2000A61BB70B881F991F5A95A9F7809590950A
:101B3000BC01CD010895EE0FFF1F0590F491E02D3B
:101B40000994A29FB001B39FC001A39F700D811D96
:101B50001124911DB29F700D811D1124911D0895B6
:101B60005058BB27AA270E94C80D0C94190F0E9439
:101B70000B0F38F00E94120F20F039F49F3F19F438
:101B800026F40C94080F0EF4E095E7FB0C94020F7A
:101B9000E92F0E942A0F58F3BA17620773078407C8
:101BA000950720F079F4A6F50C944C0F0EF4E0950F
:101BB0000B2EBA2FA02D0B01B90190010C01CA0107
:101BC000A0011124FF27591B99F0593F50F4503EB2
:101BD00068F11A16F040A22F232F342F4427585FA4
:101BE000F3CF469537952795A795F0405395C9F7BC
:101BF0007EF41F16BA0B620B730B840BBAF0915074
:101C0000A1F0FF0FBB1F661F771F881FC2F70EC012
:101C1000BA0F621F731F841F48F4879577956795E5
:101C2000B795F7959E3F08F0B0CF9395880F08F0D1
:101C30009927EE0F9795879508950E94310E0C9481
:101C4000190F0E94120F58F00E940B0F40F029F458
:101C50005F3F29F00C94020F51110C944D0F0C941E
:101C6000080F0E942A0F68F39923B1F3552391F3CB
:101C7000951B550BBB27AA2762177307840738F0FB
:101C80009F5F5F4F220F331F441FAA1FA9F335D058
:101C90000E2E3AF0E0E832D091505040E695001C0C
:101CA000CAF72BD0FE2F29D0660F771F881FBB1FC6
:101CB000261737074807AB07B0E809F0BB0B802DA4
:101CC000BF01FF2793585F4F3AF09E3F510578F0D0
:101CD0000C94020F0C944D0F5F3FE4F3983ED4F345
:101CE000869577956795B795F7959F5FC9F7880FA4
:101CF000911D9695879597F90895E1E0660F771FF6
:101D0000881FBB1F621773078407BA0720F0621B86
:101D1000730B840BBA0BEE1F88F7E09508950E94B1
:101D2000960E6894B1110C944D0F08950E94320FD5
:101D300088F09F5798F0B92F9927B751B0F0E1F08C
:101D4000660F771F881F991F1AF0BA95C9F714C03C
:101D5000B13091F00E944C0FB1E008950C944C0FFB
:101D6000672F782F8827B85F39F0B93FCCF3869575
:101D700077956795B395D9F73EF4909580957095D2
:101D800061957F4F8F4F9F4F0895E89409C097FB4F
:101D90003EF490958095709561957F4F8F4F9F4F42
:101DA0009923A9F0F92F96E9BB279395F695879586
:101DB00077956795B795F111F8CFFAF4BB0F11F449
:101DC00060FF1BC06F5F7F4F8F4F9F4F16C08823F0
:101DD00011F096E911C0772321F09EE8872F762F26
:101DE00005C0662371F096E8862F70E060E02AF067
:101DF0009A95660F771F881FDAF7880F9695879553
:101E000097F9089597F99F6780E870E060E008957A
:101E10009FEF80EC089500240A9416161706180602
:101E20000906089500240A941216130614060506DE
:101E30000895092E0394000C11F4882352F0BB0F6F
:101E400040F4BF2B11F460FF04C06F5F7F4F8F4FD2
:101E50009F4F089557FD9058440F551F59F05F3F0D
:101E600071F04795880F97FB991F61F09F3F79F0BC
:101E700087950895121613061406551FF2CF46953E
:101E8000F1DF08C0161617061806991FF1CF8695C0
:101E90007105610508940895E894BB2766277727A4
:101EA000CB0197F908950E94660F0C94190F0E94B8
:101EB0000B0F38F00E94120F20F0952311F00C94B4
:101EC000020F0C94080F11240C944D0F0E942A0F3E
:101ED00070F3959FC1F3950F50E0551F629FF0017D
:101EE000729FBB27F00DB11D639FAA27F00DB11D96
:101EF000AA1F649F6627B00DA11D661F829F22271F
:101F0000B00DA11D621F739FB00DA11D621F839FA5
:101F1000A00D611D221F749F3327A00D611D231F7B
:101F2000849F600D211D822F762F6A2F11249F57C9
:101F300050409AF0F1F088234AF0EE0FFF1FBB1FCC
:101F4000661F771F881F91505040A9F79E3F51058B
:101F500080F00C94020F0C944D0F5F3FE4F3983E19
:101F6000D4F3869577956795B795F795E7959F5F35
:101F7000C1F7FE2B880F911D9695879597F90895C7
:101F800081E090E0F8940C94C312AEE0B0E0EBEC8A
:101F9000FFE00C949A120D891E8986E08C831A83C7
:101FA00009838FEF9FE79E838D83AE01475E5F4F6E
:101FB0006F89788DCE0101960E94E80F2F813885B8
:101FC000F801E20FF31F10822E96E4E00C94B61293
:101FD000ACE0B0E0EEEEFFE00C948C127C016B0103
:101FE0008A01FC0117821682838181FFBDC1CE0167
:101FF00001964C01F7019381F60193FD859193FFC2
:1020000081916F01882309F4ABC1853239F493FDC6
:10201000859193FF81916F01853229F4B70190E09A
:102020000E94D011E7CF512C312C20E02032A0F4B7
:102030008B3269F030F4803259F0833269F42061D8
:102040002CC08D3239F0803339F4216026C02260F3
:10205000246023C0286021C027FD27C030ED380F41
:102060003A3078F426FF06C0FAE05F9E300D112466
:10207000532E13C08AE0389E300D1124332E206277
:102080000CC08E3221F426FD6BC1206406C08C3654
:1020900011F4206802C0883641F4F60193FD859161
:1020A00093FF81916F018111C1CF982F9F7D95542E
:1020B000933028F40C5F1F4FFFE3F9830DC0833684
:1020C00031F0833771F0833509F05BC022C0F8012D
:1020D000808189830E5F1F4F44244394512C540107
:1020E00015C03801F2E06F0E711CF801A080B180BC
:1020F00026FF03C0652D70E002C06FEF7FEFC501C2
:102100002C870E94C5112C0183012C852F77222E4C
:1021100017C03801F2E06F0E711CF801A080B18089
:1021200026FF03C0652D70E002C06FEF7FEFC50191
:102130002C870E94BA112C012C852068222E830145
:1021400023FC1BC0832D90E048165906B0F4B7015C
:1021500080E290E00E94D0113A94F4CFF50127FC80
:10216000859127FE81915F01B70190E00E94D01117
:1021700031103A94F1E04F1A51084114510471F7AB
:10218000E5C0843611F0893639F5F80127FF07C01C
:1021900060817181828193810C5F1F4F08C06081D3
:1021A0007181072E000C880B990B0E5F1F4F2F7645
:1021B000722E97FF09C090958095709561957F4F1D
:1021C0008F4F9F4F2068722E2AE030E0A4010E94BA
:1021D0000812A82EA81844C0853729F42F7EB22EE5
:1021E0002AE030E025C0F22FF97FBF2E8F36C1F0F4
:1021F00018F4883579F0B4C0803719F0883721F0A9
:10220000AFC02F2F2061B22EB4FE0DC08B2D846085
:10221000B82E09C024FF0AC09F2F9660B92E06C0B1
:1022200028E030E005C020E130E002C020E132E0EB
:10223000F801B7FE07C060817181828193810C5FD4
:102240001F4F06C06081718180E090E00E5F1F4FDC
:10225000A4010E940812A82EA818FB2DFF777F2E3C
:1022600076FE0BC0372D3E7FA51450F474FE0AC0D5
:1022700072FC08C0372D3E7E05C0BA2C372D03C036
:10228000BA2C01C0B52C34FF0DC0FE01EA0DF11DC2
:102290008081803311F4397E09C032FF06C0B394C7
:1022A000B39404C0832F867809F0B39433FD13C030
:1022B00030FF06C05A2CB31418F4530C5B18B32C1F
:1022C000B31468F4B70180E290E03C870E94D0111B
:1022D000B3943C85F5CFB31410F43B1801C0312CF6
:1022E00034FF12C0B70180E390E03C870E94D01118
:1022F0003C8532FF17C031FD03C088E790E002C083
:1023000088E590E0B7010CC0832F867859F031FF43
:1023100002C08BE201C080E237FD8DE2B70190E0A0
:102320000E94D011A51438F4B70180E390E00E9418
:10233000D0115A94F7CFAA94F401EA0DF11D8081CF
:10234000B70190E00E94D011A110F5CF332009F41D
:1023500051CEB70180E290E00E94D0113A94F6CFBE
:10236000F7018681978102C08FEF9FEF2C96E2E103
:102370000C94A812FC010590615070400110D8F730
:10238000809590958E0F9F1F0895FC0161507040BD
:1023900001900110D8F7809590958E0F9F1F08959A
:1023A0000F931F93CF93DF93FB01238121FD03C084
:1023B0008FEF9FEF28C022FF16C0468157812481EE
:1023C00035814217530744F4A081B1819D012F5FED
:1023D0003F4F318320838C93268137812F5F3F4F7E
:1023E0003783268310C0EB01092F182F0084F18555
:1023F000E02D0995892BE1F68E819F8101969F83BF
:102400008E83812F902FDF91CF911F910F9108958F
:10241000FA01AA27283051F1203181F1E8946F9315
:102420006E7F6E5F7F4F8F4F9F4FAF4FB1E03ED0BB
:10243000B4E03CD0670F781F891F9A1FA11D680F59
:10244000791F8A1F911DA11D6A0F711D811D911D8C
:10245000A11D20D009F468943F912AE0269F112401
:102460003019305D3193DEF6CF010895462F477065
:10247000405D4193B3E00FD0C9F7F6CF462F4F70C0
:10248000405D4A3318F0495D31FD4052419302D01E
:10249000A9F7EACFB4E0A6959795879577956795C4
:1024A000BA95C9F700976105710508959B01AC01C4
:1024B0000A2E06945795479537952795BA95C9F7EB
:1024C000620F731F841F951FA01D0895FC018827AC
:1024D0009927E89421912032E9F3293010F02E3029
:1024E000C8F32B3241F02D3239F4689404C00E94B5
:1024F0008412820F911D219120532A30C0F31EF4C3
:10250000909581959F4F08957AE0979F902D879F92
:10251000802D910D112408952F923F924F925F923A
:102520006F927F928F929F92AF92BF92CF92DF92E3
:10253000EF92FF920F931F93CF93DF93CDB7DEB748
:10254000CA1BDB0B0FB6F894DEBF0FBECDBF0994DC
:102550002A88398848885F846E847D848C849B8433
:10256000AA84B984C884DF80EE80FD800C811B8141
:10257000AA81B981CE0FD11D0FB6F894DEBF0FBE70
:10258000CDBFED01089510E0C2E6D0E004C0FE0129
:102590000E949B0D2196C336D107C9F7F894FFCF4F
:1025A00001452020300020204220203000202052F1
:1025B000203130002020412020300020204754547A
:1025C0005400492059203330004953422020300024
:1025D00020205320203000202052203130002020A5
:1025E00041202030002020475454540049205920D5
:1025F0003330004953522020300020204320203027
:102600000020205A202030002020452020300020AB
:102610002042202030002020522031300020204154
:1026200020203000202047545454004920592033A2
:102630003000495352202030002020432020300019
:1026400020205A2020300020200000000011018DA1
:1026500000DA00B800CC005801000000009D018D98
:1026600000F101090284019C0153746172742073AA
:102670006F756E64207369676E616C2000526564CB
:10268000206C69676874206F6E0059656C6C6F7799
:10269000206C69676874206F6E00477265656E20F4
:1026A0006C69676874206F6E002A2A20446F20735B
:1026B000657175656E6365207265636F7264206114
:1026C000742074696D65202873293A200020200049
:1026D0000D0A00456E642073657175656E63650053
:1026E000537465702073657175656E6365207265DE
:1026F000636F726420002564002323232053656EDA
:1027000064206D6573736167652023232320410076
:1027100020286E756D626572206F66206172726F1F
:102720007773206C65667429002530336400232399
:10273000232053656E64206D657373616765202384
:102740002323205400202874696D6520636F756E03
:102750007420646F776E207365636F6E64732920D5
:10276000002323232053656E64206D6573736167B6
:102770006520232323206131202841422920002382
:1027800023232053656E64206D6573736167652034
:10279000232323206132202843442920002323239C
:1027A0002053656E64206D65737361676520232314
:1027B00023205331202869732073686F6F74696E0A
:1027C0006729002323232053656E64206D6573738E
:1027D0006167652023232320533020286973206EEE
:1027E0006F742073686F6F74696E672900232323E9
:1027F0002053656E64206D657373616765202323C4
:1028000023205231202873657175656E63652072CF
:10281000756E6E696E6729002323232053656E64ED
:10282000206D657373616765202323232052302058
:102830002873657175656E6365206E6F742072759F
:102840006E6E696E672900446F20636F6D6D616EF7
:102850006400737461727453657175656E636500AD
:10286000477265656E206475726174696F6E2028A9
:1028700073293A20004172726F777320746F20734E
:10288000686F6F743A2000546865207365717565D0
:102890006E63653A00202D20737461727473206139
:0E28A0007420007300736574414243440000CD
:00000001FF
