:100000000C9463000C948B000C948B000C940703ED
:100010000C9407030C9407030C948B000C948B0036
:100020000C948B000C948B000C948B000C948B0024
:100030000C948B000C948B000C948B000C948B0014
:100040000C94BF040C948B000C94D5020C94AF025A
:100050000C948B000C948B000C948B000C948B00F4
:100060000C948B000C948B000000000024002700EF
:100070002A0000000008000201000003040700003D
:1000800000000000000000000000250028002B00F8
:1000900000000000230026002900040404040404D6
:1000A0000404020202020202030303030303010227
:1000B00004081020408001020408102001020408F6
:1000C0001020880C7E0C11241FBECFEFD8E0DEBFBD
:1000D000CDBF14E0A0E0B1E0E8E0F6E202C0059098
:1000E0000D92AE30B107D9F726E0AEE0B4E001C022
:1000F0001D92A336B207E1F710E0C2E6D0E004C0DB
:100100002197FE010E94CF0DC136D107C9F70E9489
:1001100009050C94F7120C940000CF92DF92EF9235
:10012000FF920F931F93CF93DF936C017A018B01A2
:10013000C0E0D0E0CE15DF0589F0D8016D918D01CA
:10014000D601ED91FC910190F081E02DC601099559
:10015000892B11F47E0102C02196ECCFC701DF91FB
:10016000CF911F910F91FF90EF90DF90CF90089566
:10017000FC01918D828D981761F0828DDF01A80FAF
:10018000B11D5D968C91928D9F5F9F73928F90E0D1
:1001900008958FEF9FEF0895FC01918D828D981740
:1001A00031F0828DE80FF11D858D90E008958FEF7D
:1001B0009FEF0895FC01918D228D892F90E0805C46
:1001C0009F4F821B91098F739927089582E794E0CE
:1001D0000E94DA0021E0892B09F420E0822F0895A3
:1001E000FC01848DDF01A80FB11DA35ABF4F2C91D4
:1001F000848D90E001968F739927848FA689B789A3
:100200002C93A089B1898C9180648C93938D848D7B
:10021000981306C00288F389E02D80818F7D80834A
:100220000895EF92FF920F931F93CF93DF93EC010A
:1002300081E0888F9B8D8C8D981305C0E889F989A2
:10024000808185FD24C0F62E0B8D10E00F5F1F4FBF
:100250000F731127E02E8C8DE8120CC00FB607FC2F
:10026000FACFE889F989808185FFF5CFCE010E9418
:10027000F000F1CF8B8DFE01E80FF11DE35AFF4F27
:10028000F0820B8FEA89FB898081806207C0EE894A
:10029000FF896083E889F98980818064808381E0B7
:1002A00090E0DF91CF911F910F91FF90EF90089513
:1002B000CF93DF93EC01888D8823C9F0EA89FB890D
:1002C000808185FD05C0A889B9898C9186FD0FC004
:1002D0000FB607FCF5CF808185FFF2CFA889B989D9
:1002E0008C9185FFEDCFCE010E94F000E7CFDF912A
:1002F000CF91089580E090E0892B29F00E94E600DC
:1003000081110C9400000895209150043091510403
:100310002817390771F490914E0480914F04981773
:1003200041F0E0914E04F0E0E25FFB4F808190E00D
:1003300008958FEF9FEF089508951F93CF93DF9354
:10034000DC015C962D913C915D972115310539F4C6
:1003500081E090E013969C938E9312973DC0519646
:10036000ED91FC91529750969C915097892F8095D2
:100370001FB75E964C915E9741FB772770F941FD60
:100380006095F8944081772311F0492B01C04823F0
:100390004083E9012197F1F748E0508160FF02C0F6
:1003A000592B01C058235083E9012197F1F7669535
:1003B000415099F7772321F090818923808303C0EE
:1003C0008081982B90831FBF5C968D919C915D9747
:1003D0000197F1F721E030E0C901DF91CF911F9142
:1003E000089520915004309151042817390771F471
:1003F00080914F0420914E0490E0805C9F4F821BBF
:10040000910960E470E00E945F0D089580E090E043
:100410000895209150043091510428173907B9F4F8
:1004200090914E0480914F04981789F0E0914E040A
:10043000F0E0E25FFB4F808120914E0430E02F5FBF
:100440003F4F2F73332720934E0490E008958FEF92
:100450009FEF0895E0915004F0915104E817F907D7
:1004600069F4A389B4899C918589809589238C93AB
:10047000109251041092500481E0089580E0089594
:10048000CF93DF93EC0189EC91E00E941704CE0139
:100490000E941904EFE0F5E081E08483D183C083FA
:1004A00080916E0490916F04A0917004B0917104DA
:1004B00085839683A783B087DF91CF91089561E00C
:1004C00082E00E942B0461E083E00E942B0461E043
:1004D00084E00C942B040E945F0260E082E00E94A2
:1004E0002B048DED91E00C9493030E946B0210920B
:1004F000310681E08093320610921905109218059A
:100500008093330610923706109236068093380691
:1005100010922A0610922B0610922C0610922D068D
:1005200010922F0610922E068093300610923A06F3
:1005300008950E945F0260E083E00E942B048AEE2F
:1005400091E00C9493030E945F0260E084E00E94BB
:100550002B048AEF91E00C9493030E94F40F1F92F6
:100560000F920FB60F9211242F933F934F935F93E7
:100570006F937F938F939F93AF93BF93EF93FF936B
:1005800082E794E00E94F000FF91EF91BF91AF915C
:100590009F918F917F916F915F914F913F912F919B
:1005A0000F900FBE0F901F9018951F920F920FB6CD
:1005B0000F9211242F938F939F93EF93FF93E091CA
:1005C0008204F09183048081E0918804F091890491
:1005D00082FD12C0908180918B048F5F8F73209178
:1005E0008C04821751F0E0918B04F0E0EE58FB4F41
:1005F000958F80938B0401C08081FF91EF919F9133
:100600008F912F910F900FBE0F901F9018951F92F2
:100610000F920FB60F9211242F933F934F935F9336
:100620006F937F938F939F93AF93BF93EF93FF93BA
:10063000E0915004F0915104309709F451C0968D27
:10064000A685B785858591FF04C09C91892329F4EF
:1006500047C09C91892309F043C0A389B4899C9128
:100660008589809589238C93868997890197F1F7ED
:10067000608D718DA685B785558538E020E0CB016A
:100680000197F1F7822F90E095958795282F4C914F
:10069000452309F02068315091F7868D81FD209522
:1006A00080914F0490E001968F73992730914E040A
:1006B000381749F0A0914F04B0E0A25FBB4F2C93D4
:1006C00080934F0403C0868D8160868F828D938DC9
:1006D0000197F1F7A389B4899C918589892B8C9323
:1006E000FF91EF91BF91AF919F918F917F916F910A
:1006F0005F914F913F912F910F900FBE0F901F90E0
:100700001895009769F0FC0101900020E9F73197F6
:10071000AF01481B590BBC0182E794E00C948D009B
:1007200080E090E00895CF93DF930E948103EC0175
:1007300080E392E00E9481038C0F9D1FDF91CF9197
:1007400008958F929F92AF92BF920F931F93CF9372
:10075000DF93CDB7DEB7A1970FB6F894DEBF0FBE1B
:10076000CDBF19A2423008F44AE08E010F5D1F4F41
:10077000842E912CA12CB12CA50194010E94730D03
:10078000E62FB901CA0101501109EA3014F4E05D05
:1007900001C0E95CD801EC93232B242B252B61F7B6
:1007A000C8010E948103A1960FB6F894DEBF0FBE68
:1007B000CDBFDF91CF911F910F91BF90AF909F90D0
:1007C0008F900895E0917204F09173040190F0818C
:1007D000E02D682F82E794E00994CF92DF92EF92A8
:1007E000FF92CF93DF9397FF19C06B017C018DE2DD
:1007F0000E94E203EC0166277727CB016C197D0983
:100800008E099F094AE00E94A1038C0F9D1FDF9172
:10081000CF91FF90EF90DF90CF9008954AE0DF9165
:10082000CF91FF90EF90DF90CF900C94A1030C94A8
:100830008103CF93DF93BC01990F880B990B0E9422
:10084000ED03EC0180E392E00E9481038C0F9D1F79
:10085000DF91CF91089590E0FC01EE58FF4F349165
:10086000FC01E255FF4F2491FC01E656FF4FE49155
:10087000EE2309F43BC0332339F1333091F038F4DF
:100880003130A9F0323001F584B58F7D12C0373098
:1008900091F03830A1F03430B9F4809180008F7D30
:1008A00003C0809180008F77809380000DC084B555
:1008B0008F7784BD09C08091B0008F7703C080918D
:1008C000B0008F7D8093B000F0E0EE0FFF1FEA577D
:1008D000FF4FA591B4918FB7F894EC91611103C0CB
:1008E00020952E2301C02E2B2C938FBF0895CF93DC
:1008F000DF9390E0FC01E255FF4F2491FC01E656A6
:10090000FF4F8491882361F190E0880F991FFC01CB
:10091000E859FF4FC591D491FC01EA57FF4FA591CB
:10092000B491611109C09FB7F89488812095822302
:100930008883EC912E230BC0623061F49FB7F8944A
:100940003881822F809583238883EC912E2B2C93E2
:100950009FBF06C08FB7F894E8812E2B28838FBFE6
:10096000DF91CF9108952FB7F89460915F06709151
:10097000600680916106909162062FBF08951F92D4
:100980000F920FB60F9211242F933F938F939F9343
:10099000AF93BF9380915F0690916006A09161062E
:1009A000B091620630915E0623E0230F2D3720F4CC
:1009B0000196A11DB11D05C026E8230F0296A11DB9
:1009C000B11D20935E0680935F0690936006A0930E
:1009D0006106B093620680915A0690915B06A091E1
:1009E0005C06B0915D060196A11DB11D80935A066B
:1009F00090935B06A0935C06B0935D06BF91AF91A8
:100A00009F918F913F912F910F900FBE0F901F904C
:100A10001895CF93DF93CDB7DEB72F970FB6F89425
:100A2000DEBF0FBECDBF789484B5826084BD84B52F
:100A3000816084BD85B5826085BD85B5816085BDD9
:100A400080916E00816080936E0010928100809191
:100A50008100826080938100809181008160809319
:100A60008100809180008160809380008091B1003E
:100A700084608093B1008091B00081608093B00069
:100A800080917A00846080937A0080917A008260FD
:100A900080937A0080917A00816080937A008091BF
:100AA0007A00806880937A001092C10010925704F7
:100AB000109256041092590410925804EAE5F4E09A
:100AC000119224E0E236F207D9F7E0918204F09126
:100AD000830482E08083E0917E04F0917F041082A1
:100AE000E0918004F09181048FEC808310928A045D
:100AF000E0918604F091870486E08083E09184048D
:100B0000F0918504808180618083E0918404F0917C
:100B10008504808188608083E0918404F09185045D
:100B2000808180688083E0918404F09185048081D5
:100B30008F7D808361E089E00E94770461E082E03C
:100B40000E94770461E083E00E94770461E084E022
:100B50000E94770461E085E00E94770461E086E00E
:100B60000E94770461E087E00E9477040E945F02A0
:100B70000091000111E0602F612785E00E942B04A5
:100B8000602F86E00E942B041093390661E087E015
:100B90000E942B0460E089E00E942B04109256060C
:100BA0001092550610925406109253061092520657
:100BB000109251068EE393E0909358068093570667
:100BC00090914706963108F057C02DE831E03093F8
:100BD0005206209351062CE333E0309354062093C1
:100BE000530624E632E030935606209355062091B2
:100BF0006800983050F031E09E3008F430E081E039
:100C000001C0880F3A95EAF701C084E0822B8093F7
:100C10006800983038F09E3040F0963148F020E07F
:100C200030E008C02DE630E005C02BE630E002C021
:100C30002CE630E030934F0620934E06983030F487
:100C400081E001C0880F9A95EAF70EC0292F30E0A5
:100C50009E3018F42850310902C02E50310981E02D
:100C600001C0880F2A95EAF78093500680915706B5
:100C7000909158060197F1F780915506909156068C
:100C8000892B21F1809150049091510436E08B33EF
:100C90009307E1F0009711F00E942A028091590613
:100CA0008E7F8093590610924F0410924E048BE36E
:100CB00096E09093510480935004E0914E06F09199
:100CC0004F06908180915006892B80830E94B30447
:100CD00060936E0470936F0480937004909371041A
:100CE000609352047093530480935404909355047A
:100CF0000E946B0258EEC52E53E0D52EE12CF12C4C
:100D0000AE014F5F5F4F1A0180906E0490906F04A8
:100D1000A0907004B090710480926A0490926B0469
:100D2000A0926C04B0926D040E94B30460936E04B0
:100D300070936F048093700490937104DC01CB0175
:100D400088199909AA09BB098093660490936704DE
:100D5000A0936804B0936904209118053091190597
:100D600021303105A9F4009122051091230520912D
:100D7000240530912505080F191F2A1F3B1F0093DA
:100D8000220510932305209324053093250528C0C0
:100D900023303105A9F400912605109127052091F3
:100DA000280530912905080F191F2A1F3B1F0093A2
:100DB000260510932705209328053093290510C098
:100DC00010922205109223051092240510922505F9
:100DD00010922605109227051092280510922905D9
:100DE000209131062223B1F000912A0610912B06A2
:100DF00020912C0630912D0628013901481A590AF4
:100E00006A0A7B0A40922A0650922B0660922C06B0
:100E100070922D0680911A0590911B0527E0289F5E
:100E2000F001299FF00D1124E85EFA4F12891A355E
:100E300039F444E0642E712C709219056092180503
:100E400020911805309119052130310509F0D2C0E3
:100E500020911C0530911D052817390709F49FC002
:100E600089E092E00E9417046091220570912305A9
:100E70008091240590912505A70196010E94730D8C
:100E8000CA01B9014AE00E94A1038DE292E00E94EA
:100E9000170460911A0570911B05072E000C880B32
:100EA000990B0E94ED038DE292E00E941704812FBE
:100EB0000E94E20380E392E00E948103173409F468
:100EC00048C054F41234E9F11334F1F1113409F04B
:100ED0005EC081E090E03AC0133509F448C034F5B3
:100EE000123509F054C08091310680933206109279
:100EF00031066091340670913506072E000C880B80
:100F0000990B0E94FB0E20E030E44CE157E40E9474
:100F1000870F0E94C30E60932A0670932B0680935E
:100F20002C0690932D060E946B0231C01935E1F01A
:100F30001A3569F583E392E00E9493030E947502DB
:100F400026C082E090E002C083E090E00E94400270
:100F50001EC08091310691E08927809332069093DC
:100F600031060E94A30213C00E94990210C0609132
:100F7000000111E0062F01270093000185E00E9487
:100F80002B04602F86E00E942B0410933906809179
:100F90001A0590911B0590931D0580931C05809167
:100FA0001A0590911B050196FC01EE0FFF1FEE0F35
:100FB000FF1FE655FA4F009122051091230520915D
:100FC0002405309125054081518162817381041788
:100FD00015072607370770F090931B0580931A05B5
:100FE00080E492E00E94170480911A0590911B05FD
:100FF0000E94190480911305882381F180906E046A
:1010000090906F04A0907004B090710480911405CA
:1010100090911505A0911605B0911705881A990AA7
:10102000AA0ABB0A80910F0590911005880F991F9D
:1010300001974091110550911205849F9001859F61
:10104000300D949F300D1124A90160E070E081E023
:1010500084169506A606B70608F080E0809313056F
:10106000882309F180916E0490916F04A09170041F
:10107000B091710400911405109115052091160589
:1010800030911705BC01CD01601B710B820B930BD6
:10109000209111053091120540E050E00E94730D3F
:1010A000622F617001C061E087E00E942B046091B3
:1010B0002A0670912B0680912C0690912D060091A6
:1010C00034061091350616161706180619068CF404
:1010D00028E2209F5001219FB00C1124A701960106
:1010E0000E94950D2F5F3F4FA216B30624F4950181
:1010F00002C020E030E041E080912E0690912F0662
:101100002817390709F440E04093300630932F0642
:1011100020932E062115310549F0C901019768E297
:1011200070E00E945F0D6F5F7F4F02C060E070E073
:10113000061717070CF4B80181E0E0913606F0912C
:101140003706E617F70709F480E0809338067093B6
:1011500037066093360680916E0490916F04A091DB
:101160007004B09171048090520490905304A09048
:101170005404B09055042C013D01481859086A08E0
:101180007B0811E051ED451657E0550661047104E6
:1011900020F410E0411109C0A0C080935204909344
:1011A0005304A0935404B0935504109230061C824B
:1011B0003F932F93A6E5B2E0BF93AF933F922F9258
:1011C0000E94F90F61E089E00E942B0464E58BE343
:1011D00096E00E949D0169818BE396E00E949D014B
:1011E0006A818BE396E00E949D016B818BE396E020
:1011F0000E949D0160E08BE396E00E949D0160E00B
:1012000089E00E942B048BE592E00E941704C10143
:101210000E94170482E792E00E9417046091220561
:101220007091230580912405909125054AE00E9444
:10123000A1038DE292E00E94170460912A0670914A
:101240002B0680912C0690912D060E94ED0380E3E1
:1012500092E00E9481030F900F900F900F900F90DB
:101260000F901123D1F1109238061A82809137061F
:101270008F93809136068F93AEE8B2E0BF93AF9321
:101280003F922F920E94F90F61E089E00E942B04A7
:1012900061E48BE396E00E949D0169818BE396E017
:1012A0000E949D0160E08BE396E00E949D0160E05A
:1012B00089E00E942B0481E992E00E941704898151
:1012C0000E94E20388EA92E00E9493030F900F903D
:1012D0000F900F900F900F9004C0809138068111ED
:1012E000C2CF80913906882339F11092390661E026
:1012F00089E00E942B0461E68BE396E00E949D0149
:1013000080910001882331F081EC92E00E949303E8
:1013100061E305C08FED92E00E94930362E38BE3EB
:1013200096E00E949D0160E08BE396E00E949D01A3
:1013300060E089E00E942B04111109C080913206FF
:10134000811105C08091330681112CC056C01092C6
:10135000320661E089E00E942B0463E58BE396E0AE
:101360000E949D0180913106882341F061E38BE367
:1013700096E00E949D018DEF92E007C060E38BE351
:1013800096E00E949D0183E293E00E94930360E057
:101390008BE396E00E949D0160E089E00E942B04AF
:1013A000112381F21092330661E089E00E942B0440
:1013B00062E58BE396E00E949D0180911805909173
:1013C0001905019741F461E38BE396E00E949D01CA
:1013D0008DE493E007C060E38BE396E00E949D01FB
:1013E00088E793E00E94930360E08BE396E00E941D
:1013F0009D0160E089E00E942B040E94B3040091EB
:101400006204109163042091640430916504DC014E
:10141000CB01801B910BA20BB30B893C9105A1055D
:10142000B10540F0109259041092580410925704DC
:10143000109256048BE396E00E94F101892B09F487
:1014400043C08BE396E00E940902182F8091580454
:1014500090915904019690935904809358040197F0
:1014600021F50E94B3046093620470936304809337
:10147000640490936504112349F02091580430913D
:1014800059042830310509F032C211C08091580446
:1014900090915904019759F41092590410925804EC
:1014A00010925704109256040FC01111E6CFE0912C
:1014B0005804F0915904EA5AFB4F138282E090E0FD
:1014C000909357048093560480915604909157044A
:1014D000029709F009C2109257041092560487EA45
:1014E00093E00E9493038AE594E00E949303809125
:1014F0005A04803509F4D9C154F4893409F496C1E9
:101500008C3409F47AC1813409F0E6C160C18335B5
:1015100049F08A3509F483C1823509F0DDC10E94A2
:101520007502DAC18091180590911905039779F435
:1015300081E090E0909319058093180580913A0618
:10154000809331068093320610923A06C5C182EB31
:1015500093E00E94930340905B0449868DE594E0FC
:101560000E949A129E838D8380EC93E00E94170460
:101570008D819E810E9419046D807E80B301770C5D
:10158000880B990B0E94FB0E20E030E040EF51E405
:101590000E94E50D20E030E040E252E40E94510E4E
:1015A00020E030E040E05FE30E94E50D0E94C30EC2
:1015B000709335066093340621E020933806072E99
:1015C000000C880B990B0E94FB0E20E030E44CE1EC
:1015D00057E40E94870F0E94C30E60932A067093FF
:1015E0002B0680932C0690932D061092310685EDE4
:1015F00093E00E94170480913406909135060E9472
:1016000019042985213319F041E051E002C04AE66E
:1016100051E05D874C876AEA75E07F876E879AE2C2
:10162000A92E95E0B92E7B876A87812C912C412CBD
:10163000512C320118861F82AA85BB854D925D927E
:101640006D927D92BB87AA87EC85FD85E80DF91D1B
:1016500080E090E08401085E1A4F2191D801A80F24
:10166000B91F52962C93019687309105B1F7F50179
:1016700080818734F9F41C82FE81FF932D812F93A2
:10168000A6E5B2E0BF93AF933F922F920E94F90F6D
:101690008981D80153968C9353978A8154968C9361
:1016A00054978B8155968C930F900F900F900F90BD
:1016B0000F900F90B985B33331F4F50180818335F4
:1016C00011F425E42083D5011C914F815885509356
:1016D0001B0540931A05C401855D9A4F0E949A121A
:1016E00028EE33E0DC010E94B40D460E571E681E42
:1016F000791E4F8158854F5F5F4F58874F8357E062
:10170000A50EB11C67E0860E911C1A3509F094CF26
:1017100081E090E0909319058093180510921B05C5
:1017200010921A050E94B30460931E0570931F0562
:101730008093200590932105109222051092230595
:101740001092240510922505109226051092270567
:10175000109228051092290581E08093330687EEC8
:1017600093E00E94930308E115E0812C912C58012D
:10177000F801E80DF91D8289811101C080E20E9403
:10178000E2037FEF871A970A87E08816910481F7B2
:1017900085EF93E00E941704AE85BF856D917D9122
:1017A0008D919D91BF87AE87A70196010E94730D11
:1017B000CA01B9010E94ED0383E094E00E94930303
:1017C000095F1F4FF50182898A3579F685C085E06A
:1017D00094E00E94930311E080915B04813309F04F
:1017E00010E01093000161E0612785E00E942B0466
:1017F000612F86E00E942B046FC080915B048235CC
:1018000041F0893549F0873409F066C00E94A3028F
:1018100063C00E946B0260C00E9499025DC08BE5AC
:1018200094E00E949A120E94400256C080911A05CC
:1018300090911B0547E0489F9001499F300D11246E
:10184000F901E65DFA4F45814934B9F0E0911A0596
:10185000F0911B05EE0FFF1FEE0FFF1FE655FA4F2D
:1018600080819181A281B381809322059093230589
:10187000A0932405B09325052FC0F901E85EFA4F27
:1018800042894A3519F340E050E00196495F5F4FC5
:10189000FA01E20FF31FE85EFA4F608D6335A9F39A
:1018A00090931B0580931A05D1CF809118059091D4
:1018B0001905019789F483E090E0909319058093CE
:1018C00018058091310680933A06882329F01092FA
:1018D000310681E080933206109259041092580428
:1018E00010925704109256040E947A010DCAF90111
:1018F000EA5AFB4F138381E090E0E2CD8DEB91E05B
:1019000090933C0680933B068BE396E00C942A026E
:10191000109275041092740488EE93E0A0E0B0E099
:101920008093760490937704A0937804B09379041D
:101930002DEA31E0309373042093720425EC30E0FB
:1019400030937F0420937E0424EC30E030938104B4
:101950002093800420EC30E03093830420938204B1
:1019600021EC30E0309385042093840422EC30E0B5
:10197000309387042093860426EC30E0309389046A
:101980002093880410928B0410928C0410928D0482
:1019900010928E0410923E0610923D0680933F06F0
:1019A00090934006A0934106B09342068DEB91E0E0
:1019B00090933C0680933B0610925206109251067B
:1019C0001092540610925306109256061092550625
:1019D0001092580610925706609159066E7F6D7FDF
:1019E000609359066695617081E068278BE00E94DC
:1019F0002B0461E08BE00E947704E9EBF0E0E491D6
:101A0000E0934B06E5EAF0E0E491F0E0EE0FFF1F13
:101A1000EA57FF4F8591949190934D0680934C0621
:101A200060E08AE00E9477048091590681FD04C03D
:101A300061E08AE00E942B048AE080934706E8EB8D
:101A4000F0E0E491E0934806E4EAF0E0E491F0E0AD
:101A5000EE0FFF1FE057FF4F8591949190934A0638
:101A600080934906109219051092180510921B05D3
:101A700010921A058FEF9FEF90931D0580931C0520
:101A800010923006109231061092320610923306F0
:101A9000109238061092390610923A0680E293E0CE
:101AA000909312058093110510921305109214055E
:101AB000109215051092160510921705089597FBC0
:101AC000072E16F4009407D077FD09D00E94BB0DB5
:101AD00007FC05D03EF4909581959F4F0895709531
:101AE00061957F4F0895A1E21A2EAA1BBB1BFD0131
:101AF0000DC0AA1FBB1FEE1FFF1FA217B307E407ED
:101B0000F50720F0A21BB30BE40BF50B661F771F44
:101B1000881F991F1A9469F7609570958095909524
:101B20009B01AC01BD01CF010895052E97FB1EF46A
:101B300000940E94AC0D57FD07D00E94730D07FC66
:101B400003D04EF40C94AC0D5095409530952195F2
:101B50003F4F4F4F5F4F08959095809570956195D9
:101B60007F4F8F4F9F4F08950E94D50DB7FF089567
:101B7000821B930B0895AA1BBB1B51E107C0AA1F30
:101B8000BB1FA617B70710F0A61BB70B881F991F1E
:101B90005A95A9F780959095BC01CD010895EE0F57
:101BA000FF1F0590F491E02D0994A29FB001B39F0F
:101BB000C001A39F700D811D1124911DB29F700D56
:101BC000811D1124911D08955058BB27AA270E94FA
:101BD000FC0D0C944D0F0E943F0F38F00E94460FF1
:101BE00020F039F49F3F19F426F40C943C0F0EF4C6
:101BF000E095E7FB0C94360FE92F0E945E0F58F337
:101C0000BA17620773078407950720F079F4A6F5E1
:101C10000C94800F0EF4E0950B2EBA2FA02D0B0123
:101C2000B90190010C01CA01A0011124FF27591B21
:101C300099F0593F50F4503E68F11A16F040A22F27
:101C4000232F342F4427585FF3CF46953795279598
:101C5000A795F0405395C9F77EF41F16BA0B620B97
:101C6000730B840BBAF09150A1F0FF0FBB1F661FDE
:101C7000771F881FC2F70EC0BA0F621F731F841F21
:101C800048F4879577956795B795F7959E3F08F047
:101C9000B0CF9395880F08F09927EE0F9795879509
:101CA00008950E94650E0C944D0F0E94460F58F047
:101CB0000E943F0F40F029F45F3F29F00C94360F4B
:101CC00051110C94810F0C943C0F0E945E0F68F32D
:101CD0009923B1F3552391F3951B550BBB27AA27E5
:101CE00062177307840738F09F5F5F4F220F331F1F
:101CF000441FAA1FA9F335D00E2E3AF0E0E832D0E7
:101D000091505040E695001CCAF72BD0FE2F29D0E9
:101D1000660F771F881FBB1F261737074807AB07BB
:101D2000B0E809F0BB0B802DBF01FF2793585F4F30
:101D30003AF09E3F510578F00C94360F0C94810FC9
:101D40005F3FE4F3983ED4F3869577956795B79512
:101D5000F7959F5FC9F7880F911D9695879597F91D
:101D60000895E1E0660F771F881FBB1F6217730796
:101D70008407BA0720F0621B730B840BBA0BEE1FAB
:101D800088F7E09508950E94CA0E6894B1110C94EA
:101D9000810F08950E94660F88F09F5798F0B92F21
:101DA0009927B751B0F0E1F0660F771F881F991F90
:101DB0001AF0BA95C9F714C0B13091F00E94800FA3
:101DC000B1E008950C94800F672F782F8827B85FB3
:101DD00039F0B93FCCF3869577956795B395D9F7E8
:101DE0003EF490958095709561957F4F8F4F9F4FF2
:101DF0000895E89409C097FB3EF4909580957095FE
:101E000061957F4F8F4F9F4F9923A9F0F92F96E946
:101E1000BB279395F695879577956795B795F111BB
:101E2000F8CFFAF4BB0F11F460FF1BC06F5F7F4F58
:101E30008F4F9F4F16C0882311F096E911C077236A
:101E400021F09EE8872F762F05C0662371F096E873
:101E5000862F70E060E02AF09A95660F771F881F42
:101E6000DAF7880F9695879597F9089597F99F6700
:101E700080E870E060E008959FEF80EC0895002412
:101E80000A941616170618060906089500240A94DF
:101E900012161306140605060895092E0394000C65
:101EA00011F4882352F0BB0F40F4BF2B11F460FFF4
:101EB00004C06F5F7F4F8F4F9F4F089557FD90581D
:101EC000440F551F59F05F3F71F04795880F97FBFE
:101ED000991F61F09F3F79F08795089512161306B8
:101EE0001406551FF2CF4695F1DF08C016161706E7
:101EF0001806991FF1CF869571056105089408951C
:101F0000E894BB2766277727CB0197F908950E94AD
:101F10009A0F0C944D0F0E943F0F38F00E94460F0D
:101F200020F0952311F00C94360F0C943C0F1124E3
:101F30000C94810F0E945E0F70F3959FC1F3950F73
:101F400050E0551F629FF001729FBB27F00DB11D3D
:101F5000639FAA27F00DB11DAA1F649F6627B00DCD
:101F6000A11D661F829F2227B00DA11D621F739FB6
:101F7000B00DA11D621F839FA00D611D221F749FC4
:101F80003327A00D611D231F849F600D211D822F0B
:101F9000762F6A2F11249F5750409AF0F1F0882332
:101FA0004AF0EE0FFF1FBB1F661F771F881F91505F
:101FB0005040A9F79E3F510580F00C94360F0C94C9
:101FC000810F5F3FE4F3983ED4F38695779567954C
:101FD000B795F795E7959F5FC1F7FE2B880F911D89
:101FE0009695879597F9089581E090E0F8940C9480
:101FF000F712AEE0B0E0EFEFFFE00C94CE120D89E7
:102000001E8986E08C831A8309838FEF9FE79E8366
:102010008D83AE01475E5F4F6F89788DCE0101964B
:102020000E941C102F813885F801E20FF31F1082E7
:102030002E96E4E00C94EA12ACE0B0E0E2E2F0E1CB
:102040000C94C0127C016B018A01FC01178216827C
:10205000838181FFBDC1CE0101964C01F7019381BF
:10206000F60193FD859193FF81916F01882309F417
:10207000ABC1853239F493FD859193FF81916F0156
:10208000853229F4B70190E00E940412E7CF512C69
:10209000312C20E02032A0F48B3269F030F4803211
:1020A00059F0833269F420612CC08D3239F08033CD
:1020B00039F4216026C02260246023C0286021C03A
:1020C00027FD27C030ED380F3A3078F426FF06C0E0
:1020D000FAE05F9E300D1124532E13C08AE0389E23
:1020E000300D1124332E20620CC08E3221F426FDD7
:1020F0006BC1206406C08C3611F4206802C088369B
:1021000041F4F60193FD859193FF81916F01811157
:10211000C1CF982F9F7D9554933028F40C5F1F4FAB
:10212000FFE3F9830DC0833631F0833771F08335D7
:1021300009F05BC022C0F801808189830E5F1F4FC8
:1021400044244394512C540115C03801F2E06F0E21
:10215000711CF801A080B18026FF03C0652D70E0DE
:1021600002C06FEF7FEFC5012C870E94F9112C018F
:1021700083012C852F77222E17C03801F2E06F0ED5
:10218000711CF801A080B18026FF03C0652D70E0AE
:1021900002C06FEF7FEFC5012C870E94EE112C016A
:1021A0002C852068222E830123FC1BC0832D90E008
:1021B00048165906B0F4B70180E290E00E9404127C
:1021C0003A94F4CFF50127FC859127FE81915F01B8
:1021D000B70190E00E94041231103A94F1E04F1AD6
:1021E00051084114510471F7E5C0843611F0893665
:1021F00039F5F80127FF07C06081718182819381E1
:102200000C5F1F4F08C060817181072E000C880B86
:10221000990B0E5F1F4F2F76722E97FF09C0909576
:102220008095709561957F4F8F4F9F4F2068722EDC
:102230002AE030E0A4010E943C12A82EA81844C055
:10224000853729F42F7EB22E2AE030E025C0F22F08
:10225000F97FBF2E8F36C1F018F4883579F0B4C0FD
:10226000803719F0883721F0AFC02F2F2061B22EB0
:10227000B4FE0DC08B2D8460B82E09C024FF0AC0A7
:102280009F2F9660B92E06C028E030E005C020E1FF
:1022900030E002C020E132E0F801B7FE07C0608103
:1022A0007181828193810C5F1F4F06C060817181B3
:1022B00080E090E00E5F1F4FA4010E943C12A82E08
:1022C000A818FB2DFF777F2E76FE0BC0372D3E7FA3
:1022D000A51450F474FE0AC072FC08C0372D3E7E6F
:1022E00005C0BA2C372D03C0BA2C01C0B52C34FF61
:1022F0000DC0FE01EA0DF11D8081803311F4397E9D
:1023000009C032FF06C0B394B39404C0832F86780B
:1023100009F0B39433FD13C030FF06C05A2CB31438
:1023200018F4530C5B18B32CB31468F4B70180E2B3
:1023300090E03C870E940412B3943C85F5CFB3141F
:1023400010F43B1801C0312C34FF12C0B70180E3F8
:1023500090E03C870E9404123C8532FF17C031FD9B
:1023600003C088E790E002C088E590E0B7010CC0A8
:10237000832F867859F031FF02C08BE201C080E2E2
:1023800037FD8DE2B70190E00E940412A51438F4E5
:10239000B70180E390E00E9404125A94F7CFAA9408
:1023A000F401EA0DF11D8081B70190E00E94041252
:1023B000A110F5CF332009F451CEB70180E290E0AF
:1023C0000E9404123A94F6CFF7018681978102C0E9
:1023D0008FEF9FEF2C96E2E10C94DC12FC0105904C
:1023E000615070400110D8F7809590958E0F9F1F17
:1023F0000895FC016150704001900110D8F780955C
:1024000090958E0F9F1F08950F931F93CF93DF9387
:10241000FB01238121FD03C08FEF9FEF28C022FF26
:1024200016C046815781248135814217530744F4F1
:10243000A081B1819D012F5F3F4F318320838C9319
:10244000268137812F5F3F4F3783268310C0EB01F2
:10245000092F182F0084F185E02D0995892BE1F6CD
:102460008E819F8101969F838E83812F902FDF9194
:10247000CF911F910F910895FA01AA27283051F1A9
:10248000203181F1E8946F936E7F6E5F7F4F8F4FA5
:102490009F4FAF4FB1E03ED0B4E03CD0670F781F04
:1024A000891F9A1FA11D680F791F8A1F911DA11DE9
:1024B0006A0F711D811D911DA11D20D009F4689422
:1024C0003F912AE0269F11243019305D3193DEF6CA
:1024D000CF010895462F4770405D4193B3E00FD080
:1024E000C9F7F6CF462F4F70405D4A3318F0495D6B
:1024F00031FD4052419302D0A9F7EACFB4E0A6954E
:102500009795879577956795BA95C9F7009761056F
:10251000710508959B01AC010A2E069457954795C5
:1025200037952795BA95C9F7620F731F841F951FBA
:10253000A01D0895FC0188279927E8942191203255
:10254000E9F3293010F02E30C8F32B3241F02D3250
:1025500039F4689404C00E94B812820F911D219131
:1025600020532A30C0F31EF4909581959F4F089513
:102570007AE0979F902D879F802D910D11240895CB
:102580002F923F924F925F926F927F928F929F9283
:10259000AF92BF92CF92DF92EF92FF920F931F9371
:1025A000CF93DF93CDB7DEB7CA1BDB0B0FB6F89422
:1025B000DEBF0FBECDBF09942A88398848885F8462
:1025C0006E847D848C849B84AA84B984C884DF80D3
:1025D000EE80FD800C811B81AA81B981CE0FD11DB7
:1025E0000FB6F894DEBF0FBECDBFED01089510E029
:1025F000C2E6D0E004C0FE010E94CF0D2196C33692
:08260000D107C9F7F894FFCFE0
:102608000145202030002020422020300020205288
:102618002031300020204120203000202047545411
:1026280054004920592033300049534220203000BB
:10263800202053202030002020522031300020203C
:10264800412020300020204754545400492059206C
:1026580033300049535220203000202043202030BE
:102668000020205A20203000202045202030002043
:1026780020422020300020205220313000202041EC
:10268800202030002020475454540049205920333A
:1026980030004953522020300020204320203000B1
:1026A80020205A2020300020200000000011018D39
:1026B80000DA00B800CC005801000000009D018D30
:1026C80000F101090284019C015374617274207342
:1026D8006F756E64207369676E616C200052656463
:1026E800206C69676874206F6E0059656C6C6F7731
:1026F800206C69676874206F6E00477265656E208C
:102708006C69676874206F6E002A2A20446F2073F2
:10271800657175656E6365207265636F72642061AB
:10272800742074696D65202873293A2000202000E0
:102738000D0A00456E642073657175656E636500EA
:10274800537465702073657175656E636520726575
:10275800636F7264200025303364002323232053E1
:10276800656E64206D65737361676520232323207C
:102778005400202874696D6520636F756E74206439
:102788006F776E207365636F6E647329200025640C
:10279800002323232053656E64206D65737361677E
:1027A800652023232320410020286E756D62657201
:1027B800206F66206172726F7773206C656674296A
:1027C800002323232053656E64206D65737361674E
:1027D800652023232320613120284142292000231A
:1027E80023232053656E64206D65737361676520CC
:1027F8002323232061322028434429200023232334
:102808002053656E64206D657373616765202323AB
:1028180023205331202869732073686F6F74696EA1
:102828006729002323232053656E64206D65737325
:102838006167652023232320533020286973206E85
:102848006F742073686F6F74696E67290023232380
:102858002053656E64206D6573736167652023235B
:1028680023205231202873657175656E6365207267
:10287800756E6E696E6729002323232053656E6485
:10288800206D6573736167652023232320523020F0
:102898002873657175656E6365206E6F7420727537
:1028A8006E6E696E672900446F20636F6D6D616E8F
:1028B8006400737461727453657175656E63650045
:1028C800477265656E206475726174696F6E202841
:1028D80073293A20004172726F777320746F2073E6
:1028E800686F6F743A200054686520736571756568
:1028F8006E63653A00202D207374617274732061D1
:0E290800742000730073657441424344000064
:00000001FF
