:100000000C947D000C94A5000C94A5000C94210385
:100010000C9421030C9421030C94A5000C94A500CE
:100020000C94A5000C94A5000C94A5000C94A500BC
:100030000C94A5000C94A5000C94A5000C94A500AC
:100040000C94D9040C94A5000C94EF020C94C902F2
:100050000C94A5000C94A5000C94A5000C94A5008C
:100060000C94A5000C94A500A207A507AA072708D1
:1000700027082708AD072708270827082708270883
:1000800027082708270827082708BB07100827087C
:1000900027082708DE072708B80721080000000006
:1000A000240027002A0000000008000201000003CD
:1000B0000407000000000000000000000000250010
:1000C00028002B0000000000230026002900040463
:1000D00004040404040402020202020203030303F0
:1000E00003030102040810204080010204081020CC
:1000F0000102040810200B0D010D11241FBECFEFCB
:10010000D8E0DEBFCDBF14E0A0E0B1E0E6E1F7E269
:1001100002C005900D92A835B107D9F726E0A8E5F1
:10012000B4E001C01D92A53BB207E1F710E0CCE7B7
:10013000D0E004C02197FE010E943B0ECB37D107CF
:10014000C9F70E9423050C947E130C940000CF92F3
:10015000DF92EF92FF920F931F93CF93DF936C0187
:100160007A018B01C0E0D0E0CE15DF0589F0D8011F
:100170006D918D01D601ED91FC910190F081E02D02
:10018000C6010995892B11F47E0102C02196ECCF9E
:10019000C701DF91CF911F910F91FF90EF90DF90FA
:1001A000CF900895FC01918D828D981761F0828D1A
:1001B000DF01A80FB11D5D968C91928D9F5F9F739B
:1001C000928F90E008958FEF9FEF0895FC01918D3D
:1001D000828D981731F0828DE80FF11D858D90E0AA
:1001E00008958FEF9FEF0895FC01918D228D892F47
:1001F00090E0805C9F4F821B91098F73992708952F
:100200008CEB94E00E94F40021E0892B09F420E0BB
:10021000822F0895FC01848DDF01A80FB11DA35A20
:10022000BF4F2C91848D90E001968F739927848F16
:10023000A689B7892C93A089B1898C9180648C930D
:10024000938D848D981306C00288F389E02D8081F8
:100250008F7D80830895EF92FF920F931F93CF932A
:10026000DF93EC0181E0888F9B8D8C8D981305C006
:10027000E889F989808185FD24C0F62E0B8D10E078
:100280000F5F1F4F0F731127E02E8C8DE8120CC0EB
:100290000FB607FCFACFE889F989808185FFF5CF91
:1002A000CE010E940A01F1CF8B8DFE01E80FF11DF6
:1002B000E35AFF4FF0820B8FEA89FB8980818062CD
:1002C00007C0EE89FF896083E889F98980818064AD
:1002D000808381E090E0DF91CF911F910F91FF909B
:1002E000EF900895CF93DF93EC01888D8823C9F0B8
:1002F000EA89FB89808185FD05C0A889B9898C912F
:1003000086FD0FC00FB607FCF5CF808185FFF2CFC9
:10031000A889B9898C9185FFEDCFCE010E940A0191
:10032000E7CFDF91CF91089580E090E0892B29F00D
:100330000E94000181110C940000089520919A04FC
:1003400030919B042817390771F49091980480919B
:100350009904981741F0E0919804F0E0E85AFB4FB7
:10036000808190E008958FEF9FEF089508951F9387
:10037000CF93DF93DC015C962D913C915D97211525
:10038000310539F481E090E013969C938E93129797
:100390003DC05196ED91FC91529750969C9150978B
:1003A000892F80951FB75E964C915E9741FB77270A
:1003B00070F941FD6095F8944081772311F0492B45
:1003C00001C048234083E9012197F1F748E05081BB
:1003D00060FF02C0592B01C058235083E9012197C7
:1003E000F1F76695415099F7772321F090818923A1
:1003F000808303C08081982B90831FBF5C968D9172
:100400009C915D970197F1F721E030E0C901DF9100
:10041000CF911F91089520919A0430919B04281741
:10042000390771F4809199042091980490E0805CE0
:100430009F4F821B910960E470E00E94E60D0895D1
:1004400080E090E0089520919A0430919B04281751
:100450003907B9F49091980480919904981789F01C
:10046000E0919804F0E0E85AFB4F808120919804D5
:1004700030E02F5F3F4F2F7333272093980490E095
:1004800008958FEF9FEF0895E0919A04F0919B04F7
:10049000E817F90769F4A389B4899C918589809547
:1004A00089238C9310929B0410929A0481E0089502
:1004B00080E00895CF93DF93EC0189EC91E00E94F6
:1004C0003104CE010E943304E9E5F5E081E0848344
:1004D000D183C0838091B8049091B904A091BA04EB
:1004E000B091BB0485839683A783B087DF91CF91BA
:1004F000089561E082E00E94450461E083E00E948B
:10050000450461E084E00C9445040E94790260E0B7
:1005100082E00E9445048DED91E00C94AD030E94B1
:1005200085021092820681E0809383061092630513
:1005300010926205809384061092880610928706B6
:1005400080938906109274061092750610927606B2
:1005500010927706109279061092780680937A06A8
:1005600010928B0608950E94790260E083E00E9459
:1005700045048AEE91E00C94AD030E94790260E09C
:1005800084E00E9445048AEF91E00C94AD030E9440
:100590007B101F920F920FB60F9211242F933F934F
:1005A0004F935F936F937F938F939F93AF93BF937B
:1005B000EF93FF938CEB94E00E940A01FF91EF917F
:1005C000BF91AF919F918F917F916F915F914F916B
:1005D0003F912F910F900FBE0F901F9018951F9273
:1005E0000F920FB60F9211242F938F939F93EF9337
:1005F000FF93E091CC04F091CD048081E091D2048E
:10060000F091D30482FD12C090818091D5048F5F58
:100610008F732091D604821751F0E091D504F0E059
:10062000E454FB4F958F8093D50401C08081FF91E6
:10063000EF919F918F912F910F900FBE0F901F9070
:1006400018951F920F920FB60F9211242F933F937C
:100650004F935F936F937F938F939F93AF93BF93CA
:10066000EF93FF93E0919A04F0919B04309709F483
:1006700051C0968DA685B785858591FF04C09C9154
:10068000892329F447C09C91892309F043C0A38999
:10069000B4899C918589809589238C9386899789D3
:1006A0000197F1F7608D718DA685B785558538E086
:1006B00020E0CB010197F1F7822F90E09595879587
:1006C000282F4C91452309F02068315091F7868DF1
:1006D00081FD20958091990490E001968F73992770
:1006E00030919804381749F0A0919904B0E0A85AC5
:1006F000BB4F2C938093990403C0868D8160868FB5
:10070000828D938D0197F1F7A389B4899C91858996
:10071000892B8C93FF91EF91BF91AF919F918F9116
:100720007F916F915F914F913F912F910F900FBEED
:100730000F901F901895009769F0FC010190002020
:10074000E9F73197AF01481B590BBC018CEB94E0E2
:100750000C94A70080E090E00895CF93DF930E946F
:100760009B03EC0180E392E00E949B038C0F9D1F92
:10077000DF91CF9108958F929F92AF92BF920F9386
:100780001F93CF93DF93CDB7DEB7A1970FB6F89441
:10079000DEBF0FBECDBF19A2423008F44AE08E0181
:1007A0000F5D1F4F842E912CA12CB12CA50194011B
:1007B0000E94FA0DE62FB901CA0101501109EA3071
:1007C00014F4E05D01C0E95CD801EC93232B242BE9
:1007D000252B61F7C8010E949B03A1960FB6F894E0
:1007E000DEBF0FBECDBFDF91CF911F910F91BF90A4
:1007F000AF909F908F900895E091BC04F091BD045C
:100800000190F081E02D682F8CEB94E00994CF9259
:10081000DF92EF92FF92CF93DF9397FF19C06B01A6
:100820007C018DE20E94FC03EC0166277727CB0157
:100830006C197D098E099F094AE00E94BB038C0F49
:100840009D1FDF91CF91FF90EF90DF90CF900895A3
:100850004AE0DF91CF91FF90EF90DF90CF900C9422
:10086000BB030C949B03CF93DF93BC01990F880BC0
:10087000990B0E940704EC0180E392E00E949B0325
:100880008C0F9D1FDF91CF91089590E0FC01EA55F8
:10089000FF4F3491FC01EE51FF4F2491FC01E253D4
:1008A000FF4FE491EE2309F43BC0332339F1333099
:1008B00091F038F43130A9F0323001F584B58F7DF4
:1008C00012C0373091F03830A1F03430B9F4809153
:1008D00080008F7D03C0809180008F77809380009F
:1008E0000DC084B58F7784BD09C08091B0008F772B
:1008F00003C08091B0008F7D8093B000F0E0EE0FD8
:10090000FF1FE654FF4FA591B4918FB7F894EC9177
:10091000611103C020952E2301C02E2B2C938FBF75
:100920000895CF93DF9390E0FC01EE51FF4F2491A7
:10093000FC01E253FF4F8491882361F190E0880F1E
:10094000991FFC01E456FF4FC591D491FC01E65478
:10095000FF4FA591B491611109C09FB7F8948881A8
:10096000209582238883EC912E230BC0623061F4A2
:100970009FB7F8943881822F809583238883EC91E8
:100980002E2B2C939FBF06C08FB7F894E8812E2B97
:1009900028838FBFDF91CF9108952FB7F89460918E
:1009A000B1067091B2068091B3069091B4062FBF44
:1009B00008951F920F920FB60F9211242F933F9319
:1009C0008F939F93AF93BF938091B1069091B2069E
:1009D000A091B306B091B4063091B00623E0230F86
:1009E0002D3720F40196A11DB11D05C026E8230F67
:1009F0000296A11DB11D2093B0068093B10690937D
:100A0000B206A093B306B093B4068091AC06909161
:100A1000AD06A091AE06B091AF060196A11DB11D25
:100A20008093AC069093AD06A093AE06B093AF064C
:100A3000BF91AF919F918F913F912F910F900FBEDA
:100A40000F901F901895CF93DF93CDB7DEB72F97F8
:100A50000FB6F894DEBF0FBECDBF789484B5826028
:100A600084BD84B5816084BD85B5826085BD85B552
:100A7000816085BD80916E00816080936E001092D0
:100A8000810080918100826080938100809181004B
:100A900081608093810080918000816080938000DC
:100AA0008091B10084608093B1008091B00081603A
:100AB0008093B00080917A00846080937A00809166
:100AC0007A00826080937A0080917A0081608093BE
:100AD0007A0080917A00806880937A001092C10039
:100AE0001092A1041092A0041092A3041092A204E8
:100AF000E4EAF4E0119224E0EC3AF207D9F7E0914D
:100B0000CC04F091CD0482E08083E091C804F091A0
:100B1000C9041082E091CA04F091CB048FEC808369
:100B20001092D404E091D004F091D10486E0808347
:100B3000E091CE04F091CF04808180618083E091C8
:100B4000CE04F091CF04808188608083E091CE0450
:100B5000F091CF04808180688083E091CE04F09191
:100B6000CF0480818F7D808361E089E00E949104C1
:100B700061E082E00E94910461E083E00E949104C0
:100B800061E084E00E94910461E085E00E949104AC
:100B900061E086E00E94910461E087E00E94910498
:100BA0000E9479020091000111E0602F612785E029
:100BB0000E944504602F86E00E94450410938A0637
:100BC00061E087E00E94450460E089E00E944504FE
:100BD0001092A8061092A7061092A6061092A506DB
:100BE0001092A4061092A3068EE393E09093AA06B7
:100BF0008093A90690919906963108F057C02DE888
:100C000031E03093A4062093A3062CE333E0309325
:100C1000A6062093A50624E632E03093A80620938A
:100C2000A70620916800983050F031E09E3008F41B
:100C300030E081E001C0880F3A95EAF701C084E016
:100C4000822B80936800983038F09E3040F09631C7
:100C500048F020E030E008C02DE630E005C02BE68B
:100C600030E002C02CE630E03093A1062093A006CD
:100C7000983030F481E001C0880F9A95EAF70EC0F1
:100C8000292F30E09E3018F42850310902C02E5030
:100C9000310981E001C0880F2A95EAF78093A20606
:100CA0008091A9069091AA060197F1F78091A70675
:100CB0009091A806892B21F180919A0490919B0430
:100CC00036E08D389307E1F0009711F00E9444025E
:100CD0008091AB068E7F8093AB06109299041092A0
:100CE00098048DE896E090939B0480939A04E09199
:100CF000A006F091A10690818091A206892B8083A5
:100D00000E94CD046093B8047093B9048093BA0430
:100D10009093BB0460939C0470939D0480939E0405
:100D200090939F040E94850248EEC42E43E0D42E87
:100D3000E12CF12CAE014F5F5F4F1A018090B80497
:100D40009090B904A090BA04B090BB048092B4040F
:100D50009092B504A092B604B092B7040E94CD045C
:100D60006093B8047093B9048093BA049093BB0461
:100D7000DC01CB0188199909AA09BB098093B00449
:100D80009093B104A093B204B093B3042091620590
:100D90003091630521303105A9F400916C05109163
:100DA0006D0520916E0530916F05080F191F2A1FE0
:100DB0003B1F00936C0510936D0520936E053093D7
:100DC0006F0528C022303105A9F4009170051091FB
:100DD00071052091720530917305080F191F2A1FA4
:100DE0003B1F00937005109371052093720530939B
:100DF000730510C010926C0510926D0510926E056F
:100E000010926F0510927005109271051092720584
:100E100010927305209182062223A1F0009174069E
:100E2000109175062091760630917706081B190BF4
:100E30002A0B3B0B009374061093750620937606DD
:100E40003093770620918C062223B1F000917B0627
:100E500010917C0620917D0630917E06B901A80193
:100E6000481B590B6A0B7B0B40937B0650937C0607
:100E700060937D0670937E06809164059091650570
:100E800027E0289F8001299F100D1124F801EE59B9
:100E9000FA4FB2885AE5B51206C063E070E070936D
:100EA00063056093620520916205309163052130EE
:100EB000310509F005C120916605309167052817B5
:100EC000390709F4D2C089E092E00E9431046091B0
:100ED0006C0570916D0580916E0590916F05A7016D
:100EE00096010E94FA0DCA01B9014AE00E94BB03B3
:100EF0008DE292E00E943104609164057091650575
:100F0000072E000C880B990B0E9407048DE292E0DB
:100F10000E9431048B2D0E94FC0380E392E00E942A
:100F20009B038B2D0B2C000C990BAA0BBB0BFC010C
:100F3000E154F109EA31F10508F089C0EC5CFF4F9A
:100F40000C943B0E81E090E002C082E090E00E94B1
:100F50005A027DC083E090E0FACF8091820691E052
:100F6000892780938306909382060E94BD026FC0FA
:100F70000E94B3026CC08091820680938306109217
:100F800082066091850670918606072E000C880BFC
:100F9000990B0E94820F20E030E44CE157E40E945C
:100FA0000E100E944A0F609374067093750680932A
:100FB0007606909377060E94850249C0809182064A
:100FC0008093830610928206609185067091860652
:100FD000072E000C880B990B0E94820F20E030E452
:100FE0004CE157E40E940E100E944A0F6093740671
:100FF000709375068093760690937706C8018B5898
:101000009A4F0E942113092E000CAA0BBB0B809350
:101010007B0690937C06A0937D06B0937E0617C056
:101020006091000111E0062F01270093000185E087
:101030000E944504602F86E00E94450410938A06B2
:1010400006C083E392E00E94AD030E948F0281E01C
:1010500072E7B71280E080938C06809164059091CE
:10106000650590936705809366058091640590916E
:1010700065050196FC01EE0FFF1FEE0FFF1FEC5000
:10108000FA4F00916C0510916D0520916E0530911D
:101090006F0540815181628173810417150726070E
:1010A000370770F0909365058093640580E492E0C3
:1010B0000E94310480916405909165050E9433047B
:1010C00080915D05882381F18090B8049090B904E7
:1010D000A090BA04B090BB0480915E0590915F052A
:1010E000A0916005B0916105881A990AAA0ABB0A05
:1010F0008091590590915A05880F991F0197409149
:101100005B0550915C05849F9001859F300D949FF5
:10111000300D1124A90160E070E081E0841695068D
:10112000A606B70608F080E080935D05882309F1E4
:101130008091B8049091B904A091BA04B091BB0415
:1011400000915E0510915F05209160053091610569
:10115000BC01CD01601B710B820B930B20915B05D1
:1011600030915C0540E050E00E94FA0D622F617002
:1011700001C061E087E00E944504609174067091AF
:1011800075068091760690917706009185061091FC
:10119000860616161706180619068CF428E2209FF4
:1011A0005001219FB00C1124A70196010E941C0E32
:1011B0002F5F3F4FA216B30624F4950102C020E032
:1011C00030E041E080917806909179062817390740
:1011D00009F440E040937A0630937906209378062C
:1011E0002115310549F0C901019768E270E00E94BC
:1011F000E60D6F5F7F4F02C060E070E006171707D3
:101200000CF4B80181E020918706309188062617FA
:10121000370709F480E0809389067093880660930D
:1012200087068091B8049091B904A091BA04B09156
:10123000BB0400919C0410919D0420919E04309168
:101240009F04801B910BA20BB30B11E0813D9740D3
:10125000A105B10520F410E0411115C0B0C086E52C
:1012600092E00E9431048091B8049091B904A09159
:10127000BA04B091BB0480939C0490939D04A09306
:101280009E04B0939F0410927A061C828091790686
:101290008F93809178068F93A3E7B2E0BF93AF93CB
:1012A0003F922F920E94801061E089E00E944504E5
:1012B00064E58DE896E00E94B70169818DE896E0CB
:1012C0000E94B7016A818DE896E00E94B7016B81A8
:1012D0008DE896E00E94B70160E08DE896E00E94FC
:1012E000B70160E089E00E94450488E792E00E942F
:1012F0003104C1010E9431048FE892E00E94310460
:1013000060916C0570916D0580916E0590916F05EF
:101310004AE00E94BB038DE292E00E94310460919A
:1013200074067091750680917606909177060E94FA
:10133000070480E392E00E949B030F900F900F90B0
:101340000F900F900F901123D1F1109289061A82FD
:10135000809188068F93809187068F93ABEAB2E0E5
:10136000BF93AF933F922F920E94801061E089E07B
:101370000E94450461E48DE896E00E94B70169810E
:101380008DE896E00E94B70160E08DE896E00E944B
:10139000B70160E089E00E9445048EEA92E00E9475
:1013A000310489810E94FC0385EC92E00E94AD0328
:1013B0000F900F900F900F900F900F9004C080919E
:1013C00089068111C2CF80918A06882339F1109253
:1013D0008A0661E089E00E94450461E68DE896E0B6
:1013E0000E94B70180910001882331F08EED92E0D8
:1013F0000E94AD0361E305C08CEF92E00E94AD0353
:1014000062E38DE896E00E94B70160E08DE896E027
:101410000E94B70160E089E00E944504111109C0F3
:1014200080918306811105C08091840681112CC0B2
:1014300068C01092830661E089E00E94450463E57C
:101440008DE896E00E94B70180918206882341F0E2
:1014500061E38DE896E00E94B7018AE193E007C05E
:1014600060E38DE896E00E94B70180E493E00E947B
:10147000AD0360E08DE896E00E94B70160E089E08E
:101480000E944504112381F21092840661E089E0F4
:101490000E94450462E58DE896E00E94B7018091C4
:1014A0006205909163058330910511F0009751F426
:1014B0008AE693E00E94AD0360E38DE896E00E9427
:1014C000B70116C08130910541F461E38DE896E0E3
:1014D0000E94B7018CE993E009C0029749F460E5E6
:1014E0008DE896E00E94B70187EC93E00E94AD037F
:1014F00060E08DE896E00E94B70160E089E00E941C
:1015000045040E94CD040091AC041091AD042091DB
:10151000AE043091AF04DC01CB01801B910BA20B18
:10152000B30B893C9105A105B10540F01092A304CD
:101530001092A2041092A1041092A0048DE896E0EB
:101540000E940B02892B09F443C08DE896E00E94AB
:101550002302182F8091A2049091A30401969093E6
:10156000A3048093A204019721F50E94CD04609307
:10157000AC047093AD048093AE049093AF04112338
:1015800049F02091A2043091A3042830310509F0DC
:1015900031C211C08091A2049091A304019759F423
:1015A0001092A3041092A2041092A1041092A0041D
:1015B0000FC01111E6CFE091A204F091A304E05610
:1015C000FB4F138282E090E09093A1048093A004EB
:1015D0000091A0041091A1040230110509F007C286
:1015E0001092A1041092A00481EF93E00E94AD0339
:1015F00084EA94E00E94AD038091A404803509F44C
:10160000D9C154F4893409F496C18C3409F47AC1EF
:10161000813409F0E4C160C1833549F08A3509F4A9
:1016200083C1823509F0DBC10E948F02D8C180914D
:10163000620590916305029779F481E090E09093C0
:1016400063058093620580918B0680938206809368
:10165000830610928B06C3C18CEF93E00E94AD030A
:10166000F091A504FB8787EA94E00E9421139E83F2
:101670008D838AE094E00E9431048D819E810E94D6
:1016800033042D813E81B901330F880B990B0E94E1
:10169000820F20E030E040EF51E40E946C0E20E029
:1016A00030E040E252E40E94D80E20E030E040E01A
:1016B0005FE30E946C0E0E944A0F7093860660934F
:1016C000850621E020938906072E000C880B990BD4
:1016D0000E94820F20E030E44CE157E40E940E109B
:1016E0000E944A0F60937406709375068093760685
:1016F00090937706109282068FE194E00E94310465
:1017000080918506909186060E9433043B85313393
:1017100019F041E051E002C04AE651E05F874E8790
:1017200064EF75E07A87698794E7A92E95E0B92E72
:101730007D876C87812C912C412C512C320118868D
:101740001F82AC85BD854D925D926D927D92BD8765
:10175000AC87EE85FF85E80DF91D80E090E08401FF
:101760000E591A4F2191D801A80FB91F52962C93E8
:10177000019687309105B1F7F50180818734F9F43E
:101780001C82FE81FF932D812F93A3E7B2E0BF93CC
:10179000AF933F922F920E9480108981D801539677
:1017A0008C9353978A8154968C9354978B8155963A
:1017B0008C930F900F900F900F900F900F90BB8510
:1017C000B33331F4F5018081833511F425E42083AE
:1017D000D5011C914F815885509365054093640550
:1017E000C4018B589A4F0E94211328EE33E0DC018C
:1017F0000E94410E460E571E681E791E4F81588565
:101800004F5F5F4F58874F8357E0A50EB11C67E0CD
:10181000860E911C1A3509F094CF81E090E09093E8
:1018200063058093620510926505109264050E941D
:10183000CD04609368057093690580936A05909361
:101840006B0510926C0510926D0510926E0510924A
:101850006F0510927005109271051092720510922A
:10186000730581E08093840681E394E00E94AD03D8
:1018700002E615E0812C912C5801F801E80DF91DC4
:101880008289811101C080E20E94FC037FEF871AE8
:10189000970A87E08816910481F78FE394E00E940D
:1018A0003104A985BA856D917D918D919D91BA87FD
:1018B000A987A70196010E94FA0DCA01B9010E94E9
:1018C00007048DE494E00E94AD03095F1F4FF5010A
:1018D00082898A3579F683C08FE494E00E94AD0353
:1018E00011E08091A504813309F010E0109300010C
:1018F00061E0612785E00E944504612F86E00E9437
:1019000045046DC08091A504823541F0893549F0C8
:10191000873409F064C00E94BD0261C00E94850244
:101920005EC00E94B3025BC085EA94E00E9421136E
:101930000E945A0254C0809164059091650547E069
:10194000489F9001499F300D1124F901EC58FA4F3E
:1019500045814934B9F0E0916405F0916505EE0FD9
:10196000FF1FEE0FFF1FEC50FA4F80819181A28183
:10197000B38180936C0590936D05A0936E05B09331
:101980006F052DC0F901EE59FA4F42894A3519F316
:1019900040E050E00196495F5F4FFA01E20FF31F0C
:1019A000EE59FA4F608D6335A9F3909365058093E6
:1019B0006405D1CF8091620590916305019779F418
:1019C00010936305009362058091820680938B06D5
:1019D000882329F01092820681E08093830610927A
:1019E000A3041092A2041092A1041092A0040E94D9
:1019F0009401A4C9F901E056FB4F138381E090E004
:101A0000E3CD8DEB91E090938E0680938D068DE86B
:101A100096E00C9444021092BF041092BE0488EE2B
:101A200093E0A0E0B0E08093C0049093C104A09341
:101A3000C204B093C3042DEA31E03093BD04209377
:101A4000BC0425EC30E03093C9042093C80424EC96
:101A500030E03093CB042093CA0420EC30E0309384
:101A6000CD042093CC0421EC30E03093CF042093BC
:101A7000CE0422EC30E03093D1042093D00426EC45
:101A800030E03093D3042093D2041092D504109206
:101A9000D6041092D7041092D80410929006109297
:101AA0008F068093910690939206A0939306B0932D
:101AB00094068DEB91E090938E0680938D061092A4
:101AC000A4061092A3061092A6061092A5061092E4
:101AD000A8061092A7061092AA061092A906609175
:101AE000AB066E7F6D7F6093AB066695617081E09B
:101AF00068278BE00E94450461E08BE00E9491041E
:101B0000EDEEF0E0E491E0939D06E9EDF0E0E49184
:101B1000F0E0EE0FFF1FE654FF4F859194919093F4
:101B20009F0680939E0660E08AE00E949104809167
:101B3000AB0681FD04C061E08AE00E9445048AE0B2
:101B400080939906ECEEF0E0E491E0939A06E8EDDC
:101B5000F0E0E491F0E0EE0FFF1FEC53FF4F8591B2
:101B6000949190939C0680939B061092630510922B
:101B7000620510926505109264058FEF9FEF9093B8
:101B800067058093660510927A061092810610927E
:101B90008206109283061092840610928906109293
:101BA0008A0610928B0610928C0680E293E0909346
:101BB0005C0580935B0510925D0510925E051092A6
:101BC0005F051092600510926105089597FB072E3E
:101BD00016F4009407D077FD09D00E94480E07FC48
:101BE00005D03EF4909581959F4F0895709561952D
:101BF0007F4F0895A1E21A2EAA1BBB1BFD010DC049
:101C0000AA1FBB1FEE1FFF1FA217B307E407F507AC
:101C100020F0A21BB30BE40BF50B661F771F881F88
:101C2000991F1A9469F760957095809590959B011E
:101C3000AC01BD01CF010895052E97FB1EF4009461
:101C40000E94330E57FD07D00E94FA0D07FC03D007
:101C50004EF40C94330E50954095309521953F4F9E
:101C60004F4F5F4F089590958095709561957F4F88
:101C70008F4F9F4F0895EE0FFF1F0590F491E02DB9
:101C800009940E945C0EB7FF0895821B930B089580
:101C9000AA1BBB1B51E107C0AA1FBB1FA617B70792
:101CA00010F0A61BB70B881F991F5A95A9F78095AE
:101CB0009095BC01CD010895A29FB001B39FC001D2
:101CC000A39F700D811D1124911DB29F700D811D68
:101CD0001124911D08955058BB27AA270E94830EF6
:101CE0000C94D40F0E94C60F38F00E94CD0F20F044
:101CF00039F49F3F19F426F40C94C30F0EF4E095C9
:101D0000E7FB0C94BD0FE92F0E94E50F58F3BA17BB
:101D1000620773078407950720F079F4A6F50C9401
:101D200007100EF4E0950B2EBA2FA02D0B01B90170
:101D300090010C01CA01A0011124FF27591B99F041
:101D4000593F50F4503E68F11A16F040A22F232F4D
:101D5000342F4427585FF3CF469537952795A7959D
:101D6000F0405395C9F77EF41F16BA0B620B730B44
:101D7000840BBAF09150A1F0FF0FBB1F661F771FB5
:101D8000881FC2F70EC0BA0F621F731F841F48F46A
:101D9000879577956795B795F7959E3F08F0B0CFF3
:101DA0009395880F08F09927EE0F979587950895DA
:101DB0000E94EC0E0C94D40F0E94CD0F58F00E949C
:101DC000C60F40F029F45F3F29F00C94BD0F51116C
:101DD0000C9408100C94C30F0E94E50F68F399232C
:101DE000B1F3552391F3951B550BBB27AA27621717
:101DF0007307840738F09F5F5F4F220F331F441F24
:101E0000AA1FA9F335D00E2E3AF0E0E832D0915057
:101E10005040E695001CCAF72BD0FE2F29D0660F44
:101E2000771F881FBB1F261737074807AB07B0E887
:101E300009F0BB0B802DBF01FF2793585F4F3AF08D
:101E40009E3F510578F00C94BD0F0C9408105F3F35
:101E5000E4F3983ED4F3869577956795B795F79513
:101E60009F5FC9F7880F911D9695879597F90895FB
:101E7000E1E0660F771F881FBB1F62177307840797
:101E8000BA0720F0621B730B840BBA0BEE1F88F7A6
:101E9000E09508950E94510F6894B1110C940810B8
:101EA00008950E94ED0F88F09F5798F0B92F992759
:101EB000B751B0F0E1F0660F771F881F991F1AF035
:101EC000BA95C9F714C0B13091F00E940710B1E083
:101ED00008950C940710672F782F8827B85F39F082
:101EE000B93FCCF3869577956795B395D9F73EF4CE
:101EF00090958095709561957F4F8F4F9F4F089576
:101F0000E89409C097FB3EF4909580957095619593
:101F10007F4F8F4F9F4F9923A9F0F92F96E9BB2749
:101F20009395F695879577956795B795F111F8CFC5
:101F3000FAF4BB0F11F460FF1BC06F5F7F4F8F4F30
:101F40009F4F16C0882311F096E911C0772321F026
:101F50009EE8872F762F05C0662371F096E8862FBE
:101F600070E060E02AF09A95660F771F881FDAF715
:101F7000880F9695879597F9089597F99F6780E858
:101F800070E060E008959FEF80EC089500240A94CB
:101F90001616170618060906089500240A94121644
:101FA0001306140605060895092E0394000C11F477
:101FB000882352F0BB0F40F4BF2B11F460FF04C024
:101FC0006F5F7F4F8F4F9F4F089557FD9058440F7D
:101FD000551F59F05F3F71F04795880F97FB991F88
:101FE00061F09F3F79F08795089512161306140645
:101FF000551FF2CF4695F1DF08C0161617061806D2
:10200000991FF1CF86957105610508940895E894AC
:10201000BB2766277727CB0197F908950E942110E7
:102020000C94D40F0E94C60F38F00E94CD0F20F000
:10203000952311F00C94BD0F0C94C30F11240C9434
:1020400008100E94E50F70F3959FC1F3950F50E0C3
:10205000551F629FF001729FBB27F00DB11D639F5A
:10206000AA27F00DB11DAA1F649F6627B00DA11D00
:10207000661F829F2227B00DA11D621F739FB00DA6
:10208000A11D621F839FA00D611D221F749F332716
:10209000A00D611D231F849F600D211D822F762FAF
:1020A0006A2F11249F5750409AF0F1F088234AF08C
:1020B000EE0FFF1FBB1F661F771F881F91505040F8
:1020C000A9F79E3F510580F00C94BD0F0C940810A9
:1020D0005F3FE4F3983ED4F3869577956795B7957F
:1020E000F795E7959F5FC1F7FE2B880F911D969599
:1020F000879597F9089581E090E0F8940C947E1309
:10210000AEE0B0E0E6E8F0E10C9455130D891E89CD
:1021100086E08C831A8309838FEF9FE79E838D83EC
:10212000AE01475E5F4F6F89788DCE0101960E94A8
:10213000A3102F813885F801E20FF31F10822E962D
:10214000E4E00C947113ACE0B0E0E9EAF0E10C9447
:1021500047137C016B018A01FC011782168283817F
:1021600081FFBDC1CE0101964C01F7019381F601BB
:1021700093FD859193FF81916F01882309F4ABC191
:10218000853239F493FD859193FF81916F018532FA
:1021900029F4B70190E00E948B12E7CF512C312C2B
:1021A00020E02032A0F48B3269F030F4803259F014
:1021B000833269F420612CC08D3239F0803339F4D8
:1021C000216026C02260246023C0286021C027FD32
:1021D00027C030ED380F3A3078F426FF06C0FAE019
:1021E0005F9E300D1124532E13C08AE0389E300DAF
:1021F0001124332E20620CC08E3221F426FD6BC1D7
:10220000206406C08C3611F4206802C0883641F480
:10221000F60193FD859193FF81916F018111C1CFEB
:10222000982F9F7D9554933028F40C5F1F4FFFE348
:10223000F9830DC0833631F0833771F0833509F0AF
:102240005BC022C0F801808189830E5F1F4F442448
:102250004394512C540115C03801F2E06F0E711CEB
:10226000F801A080B18026FF03C0652D70E002C098
:102270006FEF7FEFC5012C870E9480122C01830134
:102280002C852F77222E17C03801F2E06F0E711CBB
:10229000F801A080B18026FF03C0652D70E002C068
:1022A0006FEF7FEFC5012C870E9475122C012C85E2
:1022B0002068222E830123FC1BC0832D90E048164A
:1022C0005906B0F4B70180E290E00E948B123A9474
:1022D000F4CFF50127FC859127FE81915F01B701BD
:1022E00090E00E948B1231103A94F1E04F1A51089D
:1022F0004114510471F7E5C0843611F0893639F57F
:10230000F80127FF07C060817181828193810C5F92
:102310001F4F08C060817181072E000C880B990B3C
:102320000E5F1F4F2F76722E97FF09C090958095F4
:10233000709561957F4F8F4F9F4F2068722E2AE0D6
:1023400030E0A4010E94C312A82EA81844C085370B
:1023500029F42F7EB22E2AE030E025C0F22FF97F3B
:10236000BF2E8F36C1F018F4883579F0B4C08037AD
:1023700019F0883721F0AFC02F2F2061B22EB4FEA4
:102380000DC08B2D8460B82E09C024FF0AC09F2F7A
:102390009660B92E06C028E030E005C020E130E0AC
:1023A00002C020E132E0F801B7FE07C06081718110
:1023B000828193810C5F1F4F06C06081718180E034
:1023C00090E00E5F1F4FA4010E94C312A82EA81810
:1023D000FB2DFF777F2E76FE0BC0372D3E7FA51499
:1023E00050F474FE0AC072FC08C0372D3E7E05C052
:1023F000BA2C372D03C0BA2C01C0B52C34FF0DC048
:10240000FE01EA0DF11D8081803311F4397E09C08F
:1024100032FF06C0B394B39404C0832F867809F0CA
:10242000B39433FD13C030FF06C05A2CB31418F414
:10243000530C5B18B32CB31468F4B70180E290E03E
:102440003C870E948B12B3943C85F5CFB31410F4F3
:102450003B1801C0312C34FF12C0B70180E390E07B
:102460003C870E948B123C8532FF17C031FD03C0B0
:1024700088E790E002C088E590E0B7010CC0832FA8
:10248000867859F031FF02C08BE201C080E237FD4F
:102490008DE2B70190E00E948B12A51438F4B701C9
:1024A00080E390E00E948B125A94F7CFAA94F40133
:1024B000EA0DF11D8081B70190E00E948B12A110FE
:1024C000F5CF332009F451CEB70180E290E00E94AD
:1024D0008B123A94F6CFF7018681978102C08FEF75
:1024E0009FEF2C96E2E10C946313FC010590615080
:1024F00070400110D8F7809590958E0F9F1F08951A
:10250000FC016150704001900110D8F780959095C2
:102510008E0F9F1F08950F931F93CF93DF93FB019F
:10252000238121FD03C08FEF9FEF28C022FF16C03B
:1025300046815781248135814217530744F4A08195
:10254000B1819D012F5F3F4F318320838C93268182
:1025500037812F5F3F4F3783268310C0EB01092F50
:10256000182F0084F185E02D0995892BE1F68E81E5
:102570009F8101969F838E83812F902FDF91CF9132
:102580001F910F910895FA01AA27283051F12031A7
:1025900081F1E8946F936E7F6E5F7F4F8F4F9F4FF7
:1025A000AF4FB1E03ED0B4E03CD0670F781F891F39
:1025B0009A1FA11D680F791F8A1F911DA11D6A0F07
:1025C000711D811D911DA11D20D009F468943F91BA
:1025D0002AE0269F11243019305D3193DEF6CF01B9
:1025E0000895462F4770405D4193B3E00FD0C9F77F
:1025F000F6CF462F4F70405D4A3318F0495D31FDEC
:102600004052419302D0A9F7EACFB4E0A69597953E
:10261000879577956795BA95C9F700976105710514
:1026200008959B01AC010A2E06945795479537955E
:102630002795BA95C9F7620F731F841F951FA01DB8
:102640000895FC0188279927E89421912032E9F325
:10265000293010F02E30C8F32B3241F02D3239F4EE
:10266000689404C00E943F13820F911D2191205352
:102670002A30C0F31EF4909581959F4F08957AE01B
:10268000979F902D879F802D910D112408952F9253
:102690003F924F925F926F927F928F929F92AF92F2
:1026A000BF92CF92DF92EF92FF920F931F93CF933F
:1026B000DF93CDB7DEB7CA1BDB0B0FB6F894DEBFD6
:1026C0000FBECDBF09942A88398848885F846E84FC
:1026D0007D848C849B84AA84B984C884DF80EE8046
:1026E000FD800C811B81AA81B981CE0FD11D0FB64F
:1026F000F894DEBF0FBECDBFED01089510E0CCE72A
:10270000D0E004C0FE010E943B0E2196CD37D107D8
:06271000C9F7F894FFCFA9
:102716000145202030002020422020300020205774
:102726002031300020204120203000202047545402
:1027360054004920592033300049534220203000AC
:102746002020532020300020205720313000202028
:10275600412020300020204754545400492059205D
:1027660033300049535220203000202043202030AF
:102776000020205A20203000202045202030002034
:1027860020422020300020205720313000202041D8
:10279600202030002020475454540049205920332B
:1027A60030004953522020300020204320203000A2
:1027B60020205A202030002020000000002B01A7F6
:1027C60000F400D200E600720100000000B701A785
:1027D600000B0223029E01B60153746172742073CA
:1027E6006F756E64207369676E616C200052656454
:1027F600206C69676874206F6E0059656C6C6F7722
:10280600206C69676874206F6E00477265656E207C
:102816006C69676874206F6E002A2A20446F2073E3
:10282600657175656E6365207265636F726420619C
:10283600742074696D65202873293A2000202000D1
:102846000D0A00456E642073657175656E636500DB
:10285600537465702073657175656E636520726566
:10286600636F726420002020202020202050657293
:10287600696F646963207374617475732070756C15
:1028860073650025303364002323232053656E646B
:10289600206D657373616765202323232054002010
:1028A6002874696D6520636F756E7420646F776E2A
:1028B600207365636F6E64732920002564002323EB
:1028C600232053656E64206D6573736167652023ED
:1028D600232320410020286E756D626572206F6685
:1028E600206172726F7773206C65667429002323EA
:1028F600232053656E64206D6573736167652023BD
:10290600232320613120284142292000232323202C
:1029160053656E64206D6573736167652023232399
:102926002061322028434429200023232320536595
:102936006E64206D657373616765202323232053BE
:1029460031202869732073686F6F74696E67290078
:102956002323232053656E64206D65737361676559
:102966002023232320533020286973206E6F742080
:1029760073686F6F74696E6729002323232053657C
:102986006E64206D6573736167652023232320526F
:1029960030202873657175656E6365206973206ED6
:1029A6006F742072756E6E696E672900232323206B
:1029B60053656E64206D65737361676520232323F9
:1029C600205231202873657175656E6365207275B6
:1029D6006E6E696E6729002323232053656E64207B
:1029E6006D65737361676520232323205250202869
:1029F60073657175656E63652070617573656429AD
:102A060000446F20636F6D6D616E64007374617254
:102A16007453657175656E636500477265656E20F2
:102A26006475726174696F6E202873293A200041BB
:102A360072726F777320746F2073686F6F743A20A9
:102A4600005468652073657175656E63653A00208C
:102A56002D20737461727473206174200073007387
:082A6600657441424344000085
:00000001FF
