:100000000C9463000C948B000C948B000C940703ED
:100010000C9407030C9407030C948B000C948B0036
:100020000C948B000C948B000C948B000C948B0024
:100030000C948B000C948B000C948B000C948B0014
:100040000C94BF040C948B000C94D5020C94AF025A
:100050000C948B000C948B000C948B000C948B00F4
:100060000C948B000C948B000000000024002700EF
:100070002A0000000008000201000003040700003D
:1000800000000000000000000000250028002B00F8
:1000900000000000230026002900040404040404D6
:1000A0000404020202020202030303030303010227
:1000B00004081020408001020408102001020408F6
:1000C0001020A40C9A0C11241FBECFEFD8E0DEBF85
:1000D000CDBF14E0A0E0B1E0E0E4F6E202C005909C
:1000E0000D92A835B107D9F726E0A8E5B4E001C024
:1000F0001D92AD3AB207E1F710E0C2E6D0E004C0CD
:100100002197FE010E94EB0DC136D107C9F70E946D
:1001100009050C9413130C940000CF92DF92EF9218
:10012000FF920F931F93CF93DF936C017A018B01A2
:10013000C0E0D0E0CE15DF0589F0D8016D918D01CA
:10014000D601ED91FC910190F081E02DC601099559
:10015000892B11F47E0102C02196ECCFC701DF91FB
:10016000CF911F910F91FF90EF90DF90CF90089566
:10017000FC01918D828D981761F0828DDF01A80FAF
:10018000B11D5D968C91928D9F5F9F73928F90E0D1
:1001900008958FEF9FEF0895FC01918D828D981740
:1001A00031F0828DE80FF11D858D90E008958FEF7D
:1001B0009FEF0895FC01918D228D892F90E0805C46
:1001C0009F4F821B91098F73992708958CEB94E0C0
:1001D0000E94DA0021E0892B09F420E0822F0895A3
:1001E000FC01848DDF01A80FB11DA35ABF4F2C91D4
:1001F000848D90E001968F739927848FA689B789A3
:100200002C93A089B1898C9180648C93938D848D7B
:10021000981306C00288F389E02D80818F7D80834A
:100220000895EF92FF920F931F93CF93DF93EC010A
:1002300081E0888F9B8D8C8D981305C0E889F989A2
:10024000808185FD24C0F62E0B8D10E00F5F1F4FBF
:100250000F731127E02E8C8DE8120CC00FB607FC2F
:10026000FACFE889F989808185FFF5CFCE010E9418
:10027000F000F1CF8B8DFE01E80FF11DE35AFF4F27
:10028000F0820B8FEA89FB898081806207C0EE894A
:10029000FF896083E889F98980818064808381E0B7
:1002A00090E0DF91CF911F910F91FF90EF90089513
:1002B000CF93DF93EC01888D8823C9F0EA89FB890D
:1002C000808185FD05C0A889B9898C9186FD0FC004
:1002D0000FB607FCF5CF808185FFF2CFA889B989D9
:1002E0008C9185FFEDCFCE010E94F000E7CFDF912A
:1002F000CF91089580E090E0892B29F00E94E600DC
:1003000081110C940000089520919A0430919B046F
:100310002817390771F490919804809199049817DF
:1003200041F0E0919804F0E0E85AFB4F808190E0C2
:1003300008958FEF9FEF089508951F93CF93DF9354
:10034000DC015C962D913C915D972115310539F4C6
:1003500081E090E013969C938E9312973DC0519646
:10036000ED91FC91529750969C915097892F8095D2
:100370001FB75E964C915E9741FB772770F941FD60
:100380006095F8944081772311F0492B01C04823F0
:100390004083E9012197F1F748E0508160FF02C0F6
:1003A000592B01C058235083E9012197F1F7669535
:1003B000415099F7772321F090818923808303C0EE
:1003C0008081982B90831FBF5C968D919C915D9747
:1003D0000197F1F721E030E0C901DF91CF911F9142
:1003E000089520919A0430919B042817390771F4DD
:1003F000809199042091980490E0805C9F4F821B2B
:10040000910960E470E00E947B0D089580E090E027
:10041000089520919A0430919B0428173907B9F464
:100420009091980480919904981789F0E09198042C
:10043000F0E0E85AFB4F80812091980430E02F5F74
:100440003F4F2F7333272093980490E008958FEF48
:100450009FEF0895E0919A04F0919B04E817F90743
:1004600069F4A389B4899C918589809589238C93AB
:1004700010929B0410929A0481E0089580E0089500
:10048000CF93DF93EC0189EC91E00E941704CE0139
:100490000E941904E9E5F5E081E08483D183C083FB
:1004A0008091B8049091B904A091BA04B091BB04B2
:1004B00085839683A783B087DF91CF91089561E00C
:1004C00082E00E942B0461E083E00E942B0461E043
:1004D00084E00C942B040E945F0260E082E00E94A2
:1004E0002B048DED91E00C9493030E946B0210920B
:1004F0007B0681E080937C06109263051092620572
:1005000080937D0610928106109280068093820669
:100510001092740610927506109276061092770665
:10052000109279061092780680937A0610928406CB
:1005300008950E945F0260E083E00E942B048AEE2F
:1005400091E00C9493030E945F0260E084E00E94BB
:100550002B048AEF91E00C9493030E9410101F92D9
:100560000F920FB60F9211242F933F934F935F93E7
:100570006F937F938F939F93AF93BF93EF93FF936B
:100580008CEB94E00E94F000FF91EF91BF91AF914E
:100590009F918F917F916F915F914F913F912F919B
:1005A0000F900FBE0F901F9018951F920F920FB6CD
:1005B0000F9211242F938F939F93EF93FF93E091CA
:1005C000CC04F091CD048081E091D204F091D30469
:1005D00082FD12C090818091D5048F5F8F7320912E
:1005E000D604821751F0E091D504F0E0E454FB4FBB
:1005F000958F8093D50401C08081FF91EF919F91E9
:100600008F912F910F900FBE0F901F9018951F92F2
:100610000F920FB60F9211242F933F934F935F9336
:100620006F937F938F939F93AF93BF93EF93FF93BA
:10063000E0919A04F0919B04309709F451C0968D93
:10064000A685B785858591FF04C09C91892329F4EF
:1006500047C09C91892309F043C0A389B4899C9128
:100660008589809589238C93868997890197F1F7ED
:10067000608D718DA685B785558538E020E0CB016A
:100680000197F1F7822F90E095958795282F4C914F
:10069000452309F02068315091F7868D81FD209522
:1006A0008091990490E001968F7399273091980476
:1006B000381749F0A0919904B0E0A85ABB4F2C9389
:1006C0008093990403C0868D8160868F828D938D7F
:1006D0000197F1F7A389B4899C918589892B8C9323
:1006E000FF91EF91BF91AF919F918F917F916F910A
:1006F0005F914F913F912F910F900FBE0F901F90E0
:100700001895009769F0FC0101900020E9F73197F6
:10071000AF01481B590BBC018CEB94E00C948D008D
:1007200080E090E00895CF93DF930E948103EC0175
:1007300080E392E00E9481038C0F9D1FDF91CF9197
:1007400008958F929F92AF92BF920F931F93CF9372
:10075000DF93CDB7DEB7A1970FB6F894DEBF0FBE1B
:10076000CDBF19A2423008F44AE08E010F5D1F4F41
:10077000842E912CA12CB12CA50194010E948F0DE7
:10078000E62FB901CA0101501109EA3014F4E05D05
:1007900001C0E95CD801EC93232B242B252B61F7B6
:1007A000C8010E948103A1960FB6F894DEBF0FBE68
:1007B000CDBFDF91CF911F910F91BF90AF909F90D0
:1007C0008F900895E091BC04F091BD040190F081F8
:1007D000E02D682F8CEB94E00994CF92DF92EF929A
:1007E000FF92CF93DF9397FF19C06B017C018DE2DD
:1007F0000E94E203EC0166277727CB016C197D0983
:100800008E099F094AE00E94A1038C0F9D1FDF9172
:10081000CF91FF90EF90DF90CF9008954AE0DF9165
:10082000CF91FF90EF90DF90CF900C94A1030C94A8
:100830008103CF93DF93BC01990F880B990B0E9422
:10084000ED03EC0180E392E00E9481038C0F9D1F79
:10085000DF91CF91089590E0FC01EE58FF4F349165
:10086000FC01E255FF4F2491FC01E656FF4FE49155
:10087000EE2309F43BC0332339F1333091F038F4DF
:100880003130A9F0323001F584B58F7D12C0373098
:1008900091F03830A1F03430B9F4809180008F7D30
:1008A00003C0809180008F77809380000DC084B555
:1008B0008F7784BD09C08091B0008F7703C080918D
:1008C000B0008F7D8093B000F0E0EE0FFF1FEA577D
:1008D000FF4FA591B4918FB7F894EC91611103C0CB
:1008E00020952E2301C02E2B2C938FBF0895CF93DC
:1008F000DF9390E0FC01E255FF4F2491FC01E656A6
:10090000FF4F8491882361F190E0880F991FFC01CB
:10091000E859FF4FC591D491FC01EA57FF4FA591CB
:10092000B491611109C09FB7F89488812095822302
:100930008883EC912E230BC0623061F49FB7F8944A
:100940003881822F809583238883EC912E2B2C93E2
:100950009FBF06C08FB7F894E8812E2B28838FBFE6
:10096000DF91CF9108952FB7F8946091A906709107
:10097000AA068091AB069091AC062FBF08951F92F6
:100980000F920FB60F9211242F933F938F939F9343
:10099000AF93BF938091A9069091AA06A091AB0650
:1009A000B091AC063091A80623E0230F2D3720F438
:1009B0000196A11DB11D05C026E8230F0296A11DB9
:1009C000B11D2093A8068093A9069093AA06A09330
:1009D000AB06B093AC068091A4069091A506A091B9
:1009E000A606B091A7060196A11DB11D8093A4068D
:1009F0009093A506A093A606B093A706BF91AF91CA
:100A00009F918F913F912F910F900FBE0F901F904C
:100A10001895CF93DF93CDB7DEB72F970FB6F89425
:100A2000DEBF0FBECDBF789484B5826084BD84B52F
:100A3000816084BD85B5826085BD85B5816085BDD9
:100A400080916E00816080936E0010928100809191
:100A50008100826080938100809181008160809319
:100A60008100809180008160809380008091B1003E
:100A700084608093B1008091B00081608093B00069
:100A800080917A00846080937A0080917A008260FD
:100A900080937A0080917A00816080937A008091BF
:100AA0007A00806880937A001092C1001092A104AD
:100AB0001092A0041092A3041092A204E4EAF4E0BD
:100AC000119224E0EC3AF207D9F7E091CC04F091CE
:100AD000CD0482E08083E091C804F091C9041082C3
:100AE000E091CA04F091CB048FEC80831092D4047F
:100AF000E091D004F091D10486E08083E091CE04AF
:100B0000F091CF04808180618083E091CE04F091E8
:100B1000CF04808188608083E091CE04F091CF047F
:100B2000808180688083E091CE04F091CF04808141
:100B30008F7D808361E089E00E94770461E082E03C
:100B40000E94770461E083E00E94770461E084E022
:100B50000E94770461E085E00E94770461E086E00E
:100B60000E94770461E087E00E9477040E945F02A0
:100B70000091000111E0602F612785E00E942B04A5
:100B8000602F86E00E942B041093830661E087E0CB
:100B90000E942B0460E089E00E942B041092A006C2
:100BA00010929F0610929E0610929D0610929C062F
:100BB00010929B068EE393E09093A2068093A10689
:100BC00090919106963108F057C02DE831E03093AE
:100BD0009C0620939B062CE333E030939E062093E3
:100BE0009D0624E632E03093A00620939F062091D4
:100BF0006800983050F031E09E3008F430E081E039
:100C000001C0880F3A95EAF701C084E0822B8093F7
:100C10006800983038F09E3040F0963148F020E07F
:100C200030E008C02DE630E005C02BE630E002C021
:100C30002CE630E03093990620939806983030F4F3
:100C400081E001C0880F9A95EAF70EC0292F30E0A5
:100C50009E3018F42850310902C02E50310981E02D
:100C600001C0880F2A95EAF780939A068091A10621
:100C70009091A2060197F1F780919F069091A006AE
:100C8000892B21F180919A0490919B0436E085385C
:100C90009307E1F0009711F00E942A028091A306C9
:100CA0008E7F8093A306109299041092980485E891
:100CB00096E090939B0480939A04E0919806F091BB
:100CC0009906908180919A06892B80830E94B304B3
:100CD0006093B8047093B9048093BA049093BB04F2
:100CE00060939C0470939D0480939E0490939F0452
:100CF0000E946B0248EEC42E43E0D42EE12CF12C6E
:100D0000AE014F5F5F4F1A018090B8049090B90414
:100D1000A090BA04B090BB048092B4049092B50441
:100D2000A092B604B092B7040E94B3046093B804D2
:100D30007093B9048093BA049093BB04DC01CB0197
:100D400088199909AA09BB098093B0049093B1044A
:100D5000A093B204B093B30420916205309163056F
:100D600021303105A9F400916C0510916D05209199
:100D70006E0530916F05080F191F2A1F3B1F009346
:100D80006C0510936D0520936E0530936F0528C098
:100D900022303105A9F40091700510917105209160
:100DA000720530917305080F191F2A1F3B1F00930E
:100DB000700510937105209372053093730510C070
:100DC00010926C0510926D0510926E0510926F05D1
:100DD00010927005109271051092720510927305B1
:100DE00020917B062223B1F00091740610917506C4
:100DF0002091760630917706B901A801481B590B5E
:100E00006A0B7B0B409374065093750660937606CD
:100E100070937706809164059091650527E0289F7F
:100E2000F001299FF00D1124EE59FA4F12891A355D
:100E300031F463E070E07093630560936205209184
:100E40006205309163052130310509F0D2C020914F
:100E50006605309167052817390709F49FC089E0B6
:100E600092E00E94170460916C0570916D0580916D
:100E70006E0590916F05A70196010E948F0DCA0122
:100E8000B9014AE00E94A1038DE292E00E9417049A
:100E90006091640570916505072E000C880B990B15
:100EA0000E94ED038DE292E00E941704812F0E94C0
:100EB000E20380E392E00E948103173409F448C002
:100EC00054F41234E9F11334F1F1113409F05EC035
:100ED00081E090E03AC0133509F448C034F512358A
:100EE00009F054C080917B0680937C0610927B06AB
:100EF00060917E0670917F06072E000C880B990B7F
:100F00000E94170F20E030E44CE157E40E94A30F49
:100F10000E94DF0E609374067093750680937606C8
:100F2000909377060E946B0231C01935E1F01A35B3
:100F300069F583E392E00E9493030E94750226C044
:100F400082E090E002C083E090E00E9440021EC078
:100F500080917B0691E0892780937C0690937B06A5
:100F60000E94A30213C00E94990210C06091000168
:100F700011E0062F01270093000185E00E942B0459
:100F8000602F86E00E942B041093830680916405F5
:100F9000909165059093670580936605809164053F
:100FA000909165050196FC01EE0FFF1FEE0FFF1FEC
:100FB000EC50FA4F00916C0510916D0520916E0573
:100FC00030916F054081518162817381041715074B
:100FD0002607370770F0909365058093640580E4D9
:100FE00092E00E94170480916405909165050E942B
:100FF000190480915D05882381F18090B804909058
:10100000B904A090BA04B090BB0480915E059091A1
:101010005F05A0916005B0916105881A990AAA0A36
:10102000BB0A8091590590915A05880F991F019725
:1010300040915B0550915C05849F9001859F300D28
:10104000949F300D1124A90160E070E081E08416C6
:101050009506A606B70608F080E080935D05882314
:1010600009F18091B8049091B904A091BA04B091AB
:10107000BB0400915E0510915F05209160053091E1
:101080006105BC01CD01601B710B820B930B20919C
:101090005B0530915C0540E050E00E948F0D622FAF
:1010A000617001C061E087E00E942B0460917406CA
:1010B00070917506809176069091770600917E0674
:1010C00010917F0616161706180619068CF428E2EA
:1010D000209F5001219FB00C1124A70196010E946E
:1010E000B10D2F5F3F4FA216B30624F4950102C045
:1010F00020E030E041E08091780690917906281751
:10110000390709F440E040937A063093790620933A
:1011100078062115310549F0C901019768E270E0B0
:101120000E947B0D6F5F7F4F02C060E070E006178A
:1011300017070CF4B80181E02091800630918106F8
:101140002617370709F480E08093820670938106A2
:10115000609380068091B8049091B904A091BA047C
:10116000B091BB0400919C0410919D0420919E04B9
:1011700030919F04801B910BA20BB30B11E0813DBA
:101180009740A105B10520F410E0411115C0B0C091
:1011900086E592E00E9417048091B8049091B9040A
:1011A000A091BA04B091BB0480939C0490939D04D9
:1011B000A0939E04B0939F0410927A061C828091A3
:1011C00079068F93809178068F93A3E7B2E0BF935F
:1011D000AF933F922F920E94151061E089E00E9428
:1011E0002B0464E585E896E00E949D01698185E80D
:1011F00096E00E949D016A8185E896E00E949D012B
:101200006B8185E896E00E949D0160E085E896E0AC
:101210000E949D0160E089E00E942B0488E792E033
:101220000E941704C1010E9417048FE892E00E94F7
:10123000170460916C0570916D0580916E05909119
:101240006F054AE00E94A1038DE292E00E9417041C
:10125000609174067091750680917606909177067C
:101260000E94ED0380E392E00E9481030F900F90B3
:101270000F900F900F900F901123D1F110928206D2
:101280001A82809181068F93809180068F93ABEABA
:10129000B2E0BF93AF933F922F920E94151061E08E
:1012A00089E00E942B0461E485E896E00E949D019C
:1012B000698185E896E00E949D0160E085E896E0FE
:1012C0000E949D0160E089E00E942B048EEA92E07A
:1012D0000E94170489810E94E20385EC92E00E943B
:1012E00093030F900F900F900F900F900F9004C0EA
:1012F000809182068111C2CF80918306882339F1C3
:101300001092830661E089E00E942B0461E685E883
:1013100096E00E949D0180910001882331F08EEDBE
:1013200092E00E94930361E305C08CEF92E00E947B
:10133000930362E385E896E00E949D0160E085E802
:1013400096E00E949D0160E089E00E942B0411114B
:1013500009C080917C06811105C080917D068111B4
:101360002CC068C010927C0661E089E00E942B04CA
:1013700063E585E896E00E949D0180917B068823C5
:1013800041F061E385E896E00E949D018AE193E0E7
:1013900007C060E385E896E00E949D0180E493E049
:1013A0000E94930360E085E896E00E949D0160E062
:1013B00089E00E942B04112381F210927D0661E0E6
:1013C00089E00E942B0462E585E896E00E949D0179
:1013D00080916205909163058330910511F000972B
:1013E00051F48AE693E00E94930360E385E896E077
:1013F0000E949D0116C08130910541F461E385E8AA
:1014000096E00E949D018CE993E009C0029749F49F
:1014100060E585E896E00E949D0187EC93E00E94DC
:10142000930360E085E896E00E949D0160E089E01A
:101430000E942B040E94B3040091AC041091AD04EF
:101440002091AE043091AF04DC01CB01801B910BE5
:10145000A20BB30B893C9105A105B10540F0109298
:10146000A3041092A2041092A1041092A00485E893
:1014700096E00E94F101892B09F443C085E896E0CB
:101480000E940902182F8091A2049091A304019652
:101490009093A3048093A204019721F50E94B304C2
:1014A0006093AC047093AD048093AE049093AF044A
:1014B000112349F02091A2043091A3042830310572
:1014C00009F031C211C08091A2049091A304019748
:1014D00059F41092A3041092A2041092A104109245
:1014E000A0040FC01111E6CFE091A204F091A30473
:1014F000E056FB4F138282E090E09093A10480932A
:10150000A0040091A0041091A1040230110509F07B
:1015100007C21092A1041092A00481EF93E00E94F0
:10152000930384EA94E00E9493038091A40480359D
:1015300009F4D9C154F4893409F496C18C3409F4FE
:101540007AC1813409F0E4C160C1833549F08A353C
:1015500009F483C1823509F0DBC10E947502D8C14C
:101560008091620590916305029779F481E090E0A3
:1015700090936305809362058091840680937B0637
:1015800080937C0610928406C3C18CEF93E00E9486
:101590009303F091A504FB8787EA94E00E94B612BA
:1015A0009E838D838AE094E00E9417048D819E8142
:1015B0000E9419042D813E81B901330F880B990BCC
:1015C0000E94170F20E030E040EF51E40E94010E2E
:1015D00020E030E040E252E40E946D0E20E030E076
:1015E00040E05FE30E94010E0E94DF0E70937F06D1
:1015F00060937E0621E020938206072E000C880B64
:10160000990B0E94170F20E030E44CE157E40E9450
:10161000A30F0E94DF0E609374067093750680938B
:1016200076069093770610927B068FE194E00E94F5
:10163000170480917E0690917F060E9419043B85D5
:10164000313319F041E051E002C04AE651E05F87D2
:101650004E8764EF75E07A87698794E7A92E95E055
:10166000B92E7D876C87812C912C412C512C320115
:1016700018861F82AC85BD854D925D926D927D92DC
:10168000BD87AC87EE85FF85E80DF91D80E090E011
:1016900084010E591A4F2191D801A80FB91F5296F3
:1016A0002C93019687309105B1F7F501808187343D
:1016B000F9F41C82FE81FF932D812F93A3E7B2E002
:1016C000BF93AF933F922F920E9415108981D8014A
:1016D00053968C9353978A8154968C9354978B810D
:1016E00055968C930F900F900F900F900F900F9036
:1016F000BB85B33331F4F5018081833511F425E4E2
:101700002083D5011C914F815885509365054093E6
:101710006405C4018B589A4F0E94B61228EE33E03C
:10172000DC010E94D00D460E571E681E791E4F81A7
:1017300058854F5F5F4F58874F8357E0A50EB11C08
:1017400067E0860E911C1A3509F094CF81E090E095
:10175000909363058093620510926505109264056D
:101760000E94B304609368057093690580936A05CD
:1017700090936B0510926C0510926D0510926E059A
:1017800010926F05109270051092710510927205FB
:101790001092730581E080937D0681E394E00E94BE
:1017A000930302E615E0812C912C5801F801E80D15
:1017B000F91D8289811101C080E20E94E2037FEF5E
:1017C000871A970A87E08816910481F78FE394E0DF
:1017D0000E941704A985BA856D917D918D919D9187
:1017E000BA87A987A70196010E948F0DCA01B90186
:1017F0000E94ED038DE494E00E949303095F1F4F64
:10180000F50182898A3579F683C08FE494E00E94DD
:10181000930311E08091A504813309F010E0109347
:10182000000161E0612785E00E942B04612F86E0C2
:101830000E942B046DC08091A504823541F089354A
:1018400049F0873409F064C00E94A30261C00E947D
:101850006B025EC00E9499025BC085EA94E00E9420
:10186000B6120E94400254C08091640590916505B3
:1018700047E0489F9001499F300D1124F901EC5831
:10188000FA4F45814934B9F0E0916405F09165055E
:10189000EE0FFF1FEE0FFF1FEC50FA4F808191817A
:1018A000A281B38180936C0590936D05A0936E0522
:1018B000B0936F052DC0F901EE59FA4F42894A35B0
:1018C00019F340E050E00196495F5F4FFA01E20FE3
:1018D000F31FEE59FA4F608D6335A9F390936505B8
:1018E00080936405D1CF8091620590916305019743
:1018F00079F4109363050093620580917B068093D1
:101900008406882329F010927B0681E080937C0670
:101910001092A3041092A2041092A1041092A004A9
:101920000E947A01F1C9F901E056FB4F138381E06F
:1019300090E0E3CD8DEB91E0909386068093850651
:1019400085E896E00C942A021092BF041092BE041F
:1019500088EE93E0A0E0B0E08093C0049093C104CF
:10196000A093C204B093C3042DEA31E03093BD04C8
:101970002093BC0425EC30E03093C9042093C804C4
:1019800024EC30E03093CB042093CA0420EC30E008
:101990003093CD042093CC0421EC30E03093CF047D
:1019A0002093CE0422EC30E03093D1042093D00475
:1019B00026EC30E03093D3042093D2041092D50467
:1019C0001092D6041092D7041092D8041092880670
:1019D000109287068093890690938A06A0938B06BF
:1019E000B0938C068DEB91E09093860680938506EC
:1019F00010929C0610929B0610929E0610929D06D5
:101A00001092A00610929F061092A2061092A106B4
:101A10006091A3066E7F6D7F6093A30666956170EB
:101A200081E068278BE00E942B0461E08BE00E943C
:101A30007704E9EBF0E0E491E0939506E5EAF0E065
:101A4000E491F0E0EE0FFF1FEA57FF4F859194916C
:101A5000909397068093960660E08AE00E94770450
:101A60008091A30681FD04C061E08AE00E942B04FE
:101A70008AE080939106E8EBF0E0E491E09392062F
:101A8000E4EAF0E0E491F0E0EE0FFF1FE057FF4FD3
:101A90008591949190939406809393061092630598
:101AA0001092620510926505109264058FEF9FEF0A
:101AB000909367058093660510927A0610927B06D4
:101AC00010927C0610927D06109282061092830678
:101AD0001092840680E293E090935C0580935B050E
:101AE00010925D0510925E0510925F0510926005E0
:101AF00010926105089597FB072E16F4009407D005
:101B000077FD09D00E94D70D07FC05D03EF49095D3
:101B100081959F4F0895709561957F4F0895A1E23B
:101B20001A2EAA1BBB1BFD010DC0AA1FBB1FEE1F57
:101B3000FF1FA217B307E407F50720F0A21BB30BA2
:101B4000E40BF50B661F771F881F991F1A9469F71E
:101B500060957095809590959B01AC01BD01CF017A
:101B60000895052E97FB1EF400940E94C80D57FDA2
:101B700007D00E948F0D07FC03D04EF40C94C80DC3
:101B800050954095309521953F4F4F4F5F4F0895A9
:101B900090958095709561957F4F8F4F9F4F0895D9
:101BA0000E94F10DB7FF0895821B930B0895AA1BA5
:101BB000BB1B51E107C0AA1FBB1FA617B70710F038
:101BC000A61BB70B881F991F5A95A9F7809590956A
:101BD000BC01CD010895EE0FFF1F0590F491E02D9B
:101BE0000994A29FB001B39FC001A39F700D811DF6
:101BF0001124911DB29F700D811D1124911D089516
:101C00005058BB27AA270E94180E0C94690F0E94F7
:101C10005B0F38F00E94620F20F039F49F3F19F4F7
:101C200026F40C94580F0EF4E095E7FB0C94520F39
:101C3000E92F0E947A0F58F3BA17620773078407D7
:101C4000950720F079F4A6F50C949C0F0EF4E0951E
:101C50000B2EBA2FA02D0B01B90190010C01CA0166
:101C6000A0011124FF27591B99F0593F50F4503E11
:101C700068F11A16F040A22F232F342F4427585F03
:101C8000F3CF469537952795A795F0405395C9F71B
:101C90007EF41F16BA0B620B730B840BBAF09150D3
:101CA000A1F0FF0FBB1F661F771F881FC2F70EC072
:101CB000BA0F621F731F841F48F487957795679545
:101CC000B795F7959E3F08F0B0CF9395880F08F031
:101CD0009927EE0F9795879508950E94810E0C9491
:101CE000690F0E94620F58F00E945B0F40F029F4C8
:101CF0005F3F29F00C94520F51110C949D0F0C94DE
:101D0000580F0E947A0F68F39923B1F3552391F38A
:101D1000951B550BBB27AA2762177307840738F05A
:101D20009F5F5F4F220F331F441FAA1FA9F335D0B7
:101D30000E2E3AF0E0E832D091505040E695001C6B
:101D4000CAF72BD0FE2F29D0660F771F881FBB1F25
:101D5000261737074807AB07B0E809F0BB0B802D03
:101D6000BF01FF2793585F4F3AF09E3F510578F02F
:101D70000C94520F0C949D0F5F3FE4F3983ED4F304
:101D8000869577956795B795F7959F5FC9F7880F03
:101D9000911D9695879597F90895E1E0660F771F55
:101DA000881FBB1F621773078407BA0720F0621BE6
:101DB000730B840BBA0BEE1F88F7E09508950E9411
:101DC000E60E6894B1110C949D0F08950E94820F45
:101DD00088F09F5798F0B92F9927B751B0F0E1F0EC
:101DE000660F771F881F991F1AF0BA95C9F714C09C
:101DF000B13091F00E949C0FB1E008950C949C0FBB
:101E0000672F782F8827B85F39F0B93FCCF38695D4
:101E100077956795B395D9F73EF490958095709531
:101E200061957F4F8F4F9F4F0895E89409C097FBAE
:101E30003EF490958095709561957F4F8F4F9F4FA1
:101E40009923A9F0F92F96E9BB279395F6958795E5
:101E500077956795B795F111F8CFFAF4BB0F11F4A8
:101E600060FF1BC06F5F7F4F8F4F9F4F16C088234F
:101E700011F096E911C0772321F09EE8872F762F85
:101E800005C0662371F096E8862F70E060E02AF0C6
:101E90009A95660F771F881FDAF7880F96958795B2
:101EA00097F9089597F99F6780E870E060E00895DA
:101EB0009FEF80EC089500240A9416161706180662
:101EC0000906089500240A9412161306140605063E
:101ED0000895092E0394000C11F4882352F0BB0FCF
:101EE00040F4BF2B11F460FF04C06F5F7F4F8F4F32
:101EF0009F4F089557FD9058440F551F59F05F3F6D
:101F000071F04795880F97FB991F61F09F3F79F01B
:101F100087950895121613061406551FF2CF46959D
:101F2000F1DF08C0161617061806991FF1CF86951F
:101F30007105610508940895E894BB276627772703
:101F4000CB0197F908950E94B60F0C94690F0E9477
:101F50005B0F38F00E94620F20F0952311F00C9473
:101F6000520F0C94580F11240C949D0F0E947A0F5D
:101F700070F3959FC1F3950F50E0551F629FF001DC
:101F8000729FBB27F00DB11D639FAA27F00DB11DF5
:101F9000AA1F649F6627B00DA11D661F829F22277E
:101FA000B00DA11D621F739FB00DA11D621F839F05
:101FB000A00D611D221F749F3327A00D611D231FDB
:101FC000849F600D211D822F762F6A2F11249F5729
:101FD00050409AF0F1F088234AF0EE0FFF1FBB1F2C
:101FE000661F771F881F91505040A9F79E3F5105EB
:101FF00080F00C94520F0C949D0F5F3FE4F3983ED9
:10200000D4F3869577956795B795F795E7959F5F94
:10201000C1F7FE2B880F911D9695879597F9089526
:1020200081E090E0F8940C941313AEE0B0E0EBE1A3
:10203000F0E10C94EA120D891E8986E08C831A83E4
:1020400009838FEF9FE79E838D83AE01475E5F4FCD
:102050006F89788DCE0101960E9438102F813885C6
:10206000F801E20FF31F10822E96E4E00C940613A1
:10207000ACE0B0E0EEE3F0E10C94DC127C016B012B
:102080008A01FC0117821682838181FFBDC1CE01C6
:1020900001964C01F7019381F60193FD859193FF21
:1020A00081916F01882309F4ABC1853239F493FD26
:1020B000859193FF81916F01853229F4B70190E0FA
:1020C0000E942012E7CF512C312C20E02032A0F4C6
:1020D0008B3269F030F4803259F0833269F4206138
:1020E0002CC08D3239F0803339F4216026C0226053
:1020F000246023C0286021C027FD27C030ED380FA1
:102100003A3078F426FF06C0FAE05F9E300D1124C5
:10211000532E13C08AE0389E300D1124332E2062D6
:102120000CC08E3221F426FD6BC1206406C08C36B3
:1021300011F4206802C0883641F4F60193FD8591C0
:1021400093FF81916F018111C1CF982F9F7D95548D
:10215000933028F40C5F1F4FFFE3F9830DC08336E3
:1021600031F0833771F0833509F05BC022C0F8018C
:10217000808189830E5F1F4F44244394512C540166
:1021800015C03801F2E06F0E711CF801A080B1801B
:1021900026FF03C0652D70E002C06FEF7FEFC50121
:1021A0002C870E9415122C0183012C852F77222E5B
:1021B00017C03801F2E06F0E711CF801A080B180E9
:1021C00026FF03C0652D70E002C06FEF7FEFC501F1
:1021D0002C870E940A122C012C852068222E830154
:1021E00023FC1BC0832D90E048165906B0F4B701BC
:1021F00080E290E00E9420123A94F4CFF50127FC8F
:10220000859127FE81915F01B70190E00E94201225
:1022100031103A94F1E04F1A51084114510471F70A
:10222000E5C0843611F0893639F5F80127FF07C07B
:1022300060817181828193810C5F1F4F08C0608132
:102240007181072E000C880B990B0E5F1F4F2F76A4
:10225000722E97FF09C090958095709561957F4F7C
:102260008F4F9F4F2068722E2AE030E0A4010E9419
:102270005812A82EA81844C0853729F42F7EB22EF4
:102280002AE030E025C0F22FF97FBF2E8F36C1F053
:1022900018F4883579F0B4C0803719F0883721F008
:1022A000AFC02F2F2061B22EB4FE0DC08B2D8460E5
:1022B000B82E09C024FF0AC09F2F9660B92E06C011
:1022C00028E030E005C020E130E002C020E132E04B
:1022D000F801B7FE07C060817181828193810C5F34
:1022E0001F4F06C06081718180E090E00E5F1F4F3C
:1022F000A4010E945812A82EA818FB2DFF777F2E4C
:1023000076FE0BC0372D3E7FA51450F474FE0AC034
:1023100072FC08C0372D3E7E05C0BA2C372D03C095
:10232000BA2C01C0B52C34FF0DC0FE01EA0DF11D21
:102330008081803311F4397E09C032FF06C0B39426
:10234000B39404C0832F867809F0B39433FD13C08F
:1023500030FF06C05A2CB31418F4530C5B18B32C7E
:10236000B31468F4B70180E290E03C870E94201229
:10237000B3943C85F5CFB31410F43B1801C0312C55
:1023800034FF12C0B70180E390E03C870E94201226
:102390003C8532FF17C031FD03C088E790E002C0E2
:1023A00088E590E0B7010CC0832F867859F031FFA3
:1023B00002C08BE201C080E237FD8DE2B70190E000
:1023C0000E942012A51438F4B70180E390E00E9427
:1023D00020125A94F7CFAA94F401EA0DF11D8081DE
:1023E000B70190E00E942012A110F5CF332009F42C
:1023F00051CEB70180E290E00E9420123A94F6CFCD
:10240000F7018681978102C08FEF9FEF2C96E2E162
:102410000C94F812FC010590615070400110D8F73F
:10242000809590958E0F9F1F0895FC01615070401C
:1024300001900110D8F7809590958E0F9F1F0895F9
:102440000F931F93CF93DF93FB01238121FD03C0E3
:102450008FEF9FEF28C022FF16C04681578124814D
:1024600035814217530744F4A081B1819D012F5F4C
:102470003F4F318320838C93268137812F5F3F4FDD
:102480003783268310C0EB01092F182F0084F185B4
:10249000E02D0995892BE1F68E819F8101969F831E
:1024A0008E83812F902FDF91CF911F910F910895EF
:1024B000FA01AA27283051F1203181F1E8946F9375
:1024C0006E7F6E5F7F4F8F4F9F4FAF4FB1E03ED01B
:1024D000B4E03CD0670F781F891F9A1FA11D680FB9
:1024E000791F8A1F911DA11D6A0F711D811D911DEC
:1024F000A11D20D009F468943F912AE0269F112461
:102500003019305D3193DEF6CF010895462F4770C4
:10251000405D4193B3E00FD0C9F7F6CF462F4F701F
:10252000405D4A3318F0495D31FD4052419302D07D
:10253000A9F7EACFB4E0A695979587957795679523
:10254000BA95C9F700976105710508959B01AC0123
:102550000A2E06945795479537952795BA95C9F74A
:10256000620F731F841F951FA01D0895FC0188270B
:102570009927E89421912032E9F3293010F02E3088
:10258000C8F32B3241F02D3239F4689404C00E9414
:10259000D412820F911D219120532A30C0F31EF4D2
:1025A000909581959F4F08957AE0979F902D879FF2
:1025B000802D910D112408952F923F924F925F929A
:1025C0006F927F928F929F92AF92BF92CF92DF9243
:1025D000EF92FF920F931F93CF93DF93CDB7DEB7A8
:1025E000CA1BDB0B0FB6F894DEBF0FBECDBF09943C
:1025F0002A88398848885F846E847D848C849B8493
:10260000AA84B984C884DF80EE80FD800C811B81A0
:10261000AA81B981CE0FD11D0FB6F894DEBF0FBECF
:10262000CDBFED01089510E0C2E6D0E004C0FE0188
:102630000E94EB0D2196C336D107C9F7F894FFCF5E
:102640000145202030002020422020300020205250
:1026500020313000202041202030002020475454D9
:102660005400492059203330004953422020300083
:102670002020532020300020205220313000202004
:102680004120203000202047545454004920592034
:102690003330004953522020300020204320203086
:1026A0000020205A2020300020204520203000200B
:1026B00020422020300020205220313000202041B4
:1026C0002020300020204754545400492059203302
:1026D0003000495352202030002020432020300079
:1026E00020205A2020300020200000000011018D01
:1026F00000DA00B800CC005801000000009D018DF8
:1027000000F101090284019C015374617274207309
:102710006F756E64207369676E616C20005265642A
:10272000206C69676874206F6E0059656C6C6F77F8
:10273000206C69676874206F6E00477265656E2053
:102740006C69676874206F6E002A2A20446F2073BA
:10275000657175656E6365207265636F7264206173
:10276000742074696D65202873293A2000202000A8
:102770000D0A00456E642073657175656E636500B2
:10278000537465702073657175656E63652072653D
:10279000636F72642000202020202020205065726A
:1027A000696F646963207374617475732070756CEC
:1027B00073650025303364002323232053656E6442
:1027C000206D6573736167652023232320540020E7
:1027D0002874696D6520636F756E7420646F776E01
:1027E000207365636F6E64732920002564002323C2
:1027F000232053656E64206D6573736167652023C4
:10280000232320410020286E756D626572206F665B
:10281000206172726F7773206C65667429002323C0
:10282000232053656E64206D657373616765202393
:102830002323206131202841422920002323232003
:1028400053656E64206D6573736167652023232370
:10285000206132202843442920002323232053656C
:102860006E64206D65737361676520232323205395
:1028700031202869732073686F6F74696E6729004F
:102880002323232053656E64206D65737361676530
:102890002023232320533020286973206E6F742057
:1028A00073686F6F74696E67290023232320536553
:1028B0006E64206D65737361676520232323205246
:1028C00030202873657175656E6365206973206EAD
:1028D0006F742072756E6E696E6729002323232042
:1028E00053656E64206D65737361676520232323D0
:1028F000205231202873657175656E63652072758D
:102900006E6E696E6729002323232053656E642051
:102910006D6573736167652023232320525020283F
:1029200073657175656E6365207061757365642983
:1029300000446F20636F6D6D616E6400737461722B
:102940007453657175656E636500477265656E20C9
:102950006475726174696F6E202873293A20004192
:1029600072726F777320746F2073686F6F743A2080
:10297000005468652073657175656E63653A002063
:102980002D2073746172747320617420007300735E
:0829900065744142434400005C
:00000001FF
