:100000000C947D000C94A5000C94A5000C94310375
:100010000C9431030C9431030C94A5000C94A500AE
:100020000C94A5000C94A5000C94A5000C94A500BC
:100030000C94A5000C94A5000C94A5000C94A500AC
:100040000C94E9040C94A5000C94FF020C94D902C2
:100050000C94A5000C94A5000C94A5000C94A5008C
:100060000C94A5000C94A500BC07BF07C207470865
:1000700047084708C7074708470847084708470889
:1000800047084708470847084708D7073008470880
:1000900047084708FA074708D4074108000000004E
:1000A000240027002A0000000008000201000003CD
:1000B0000407000000000000000000000000250010
:1000C00028002B0000000000230026002900040463
:1000D00004040404040402020202020203030303F0
:1000E00003030102040810204080010204081020CC
:1000F0000102040810206C0D620D11241FBECFEF09
:10010000D8E0DEBFCDBF13E0A0E0B1E0E8EDF7E25C
:1001100002C005900D92AA3DB107D9F726E0AAEDDD
:10012000B3E001C01D92A733B207E1F710E0CCE7BE
:10013000D0E004C02197FE010E949C0ECB37D1076E
:10014000C9F70E9433050C94DF130C940000CF9282
:10015000DF92EF92FF920F931F93CF93DF936C0187
:100160007A018B01C0E0D0E0CE15DF0589F0D8011F
:100170006D918D01D601ED91FC910190F081E02D02
:10018000C6010995892B11F47E0102C02196ECCF9E
:10019000C701DF91CF911F910F91FF90EF90DF90FA
:1001A000CF900895FC01918D828D981761F0828D1A
:1001B000DF01A80FB11D5D968C91928D9F5F9F739B
:1001C000928F90E008958FEF9FEF0895FC01918D3D
:1001D000828D981731F0828DE80FF11D858D90E0AA
:1001E00008958FEF9FEF0895FC01918D228D892F47
:1001F00090E0805C9F4F821B91098F73992708952F
:100200008EE394E00E94F40021E0892B09F420E0C1
:10021000822F0895FC01848DDF01A80FB11DA35A20
:10022000BF4F2C91848D90E001968F739927848F16
:10023000A689B7892C93A089B1898C9180648C930D
:10024000938D848D981306C00288F389E02D8081F8
:100250008F7D80830895EF92FF920F931F93CF932A
:10026000DF93EC0181E0888F9B8D8C8D981305C006
:10027000E889F989808185FD24C0F62E0B8D10E078
:100280000F5F1F4F0F731127E02E8C8DE8120CC0EB
:100290000FB607FCFACFE889F989808185FFF5CF91
:1002A000CE010E940A01F1CF8B8DFE01E80FF11DF6
:1002B000E35AFF4FF0820B8FEA89FB8980818062CD
:1002C00007C0EE89FF896083E889F98980818064AD
:1002D000808381E090E0DF91CF911F910F91FF909B
:1002E000EF900895CF93DF93EC01888D8823C9F0B8
:1002F000EA89FB89808185FD05C0A889B9898C912F
:1003000086FD0FC00FB607FCF5CF808185FFF2CFC9
:10031000A889B9898C9185FFEDCFCE010E940A0191
:10032000E7CFDF91CF91089580E090E0892B29F00D
:100330000E94000181110C940000089520911C047A
:1003400030911D042817390771F490911A04809197
:100350001B04981741F0E0911A04F0E0E652FC4FBC
:10036000808190E008958FEF9FEF089508951F9387
:10037000CF93DF93DC015C962D913C915D97211525
:10038000310539F481E090E013969C938E93129797
:100390003DC05196ED91FC91529750969C9150978B
:1003A000892F80951FB75E964C915E9741FB77270A
:1003B00070F941FD6095F8944081772311F0492B45
:1003C00001C048234083E9012197F1F748E05081BB
:1003D00060FF02C0592B01C058235083E9012197C7
:1003E000F1F76695415099F7772321F090818923A1
:1003F000808303C08081982B90831FBF5C968D9172
:100400009C915D970197F1F721E030E0C901DF9100
:10041000CF911F91089520911C0430911D0428173D
:10042000390771F480911B0420911A0490E0805CDC
:100430009F4F821B910960E470E00E94470E08956F
:1004400080E090E0089520911C0430911D0428174D
:100450003907B9F490911A0480911B04981789F018
:10046000E0911A04F0E0E652FC4F808120911A04DA
:1004700030E02F5F3F4F2F73332720931A0490E013
:1004800008958FEF9FEF0895E0911C04F0911D04F3
:10049000E817F90769F4A389B4899C918589809547
:1004A00089238C9310921D0410921C0481E00895FE
:1004B00080E00895CF93DF93EC0189EC91E00E94F6
:1004C0004104CE010E944304EBEDF4E081E084831B
:1004D000D183C08380913A0490913B04A0913C0465
:1004E000B0913D0485839683A783B087DF91CF9138
:1004F000089561E082E00E94550461E083E00E947B
:10050000550461E084E00C9455040E94790260E097
:1005100082E00E9455048DED91E00C94BD030E9491
:1005200085021092040681E0809305061092E5048E
:100530001092E4048093060610920A0610920906AF
:1005400080930B061092F6051092F7051092F805AD
:100550001092F9051092FB051092FA058093FC05A4
:100560001092FD051092FE051092FF0510920006F4
:1005700010920206109201068093030610920E0656
:1005800010920D0608950E94790260E083E00E94B7
:1005900055048AEE91E00C94BD030E94790260E05C
:1005A00084E00E9455048AEF91E00C94BD030E9400
:1005B000DC101F920F920FB60F9211242F933F93CE
:1005C0004F935F936F937F938F939F93AF93BF935B
:1005D000EF93FF938EE394E00E940A01FF91EF9165
:1005E000BF91AF919F918F917F916F915F914F914B
:1005F0003F912F910F900FBE0F901F9018951F9253
:100600000F920FB60F9211242F938F939F93EF9316
:10061000FF93E0914E04F0914F048081E0915404E7
:10062000F091550482FD12C09081809157048F5F34
:100630008F7320915804821751F0E0915704F0E035
:10064000E25CFB4F958F8093570401C08081FF913E
:10065000EF919F918F912F910F900FBE0F901F9050
:1006600018951F920F920FB60F9211242F933F935C
:100670004F935F936F937F938F939F93AF93BF93AA
:10068000EF93FF93E0911C04F0911D04309709F45F
:1006900051C0968DA685B785858591FF04C09C9134
:1006A000892329F447C09C91892309F043C0A38979
:1006B000B4899C918589809589238C9386899789B3
:1006C0000197F1F7608D718DA685B785558538E066
:1006D00020E0CB010197F1F7822F90E09595879567
:1006E000282F4C91452309F02068315091F7868DD1
:1006F00081FD209580911B0490E001968F739927CE
:1007000030911A04381749F0A0911B04B0E0A652AA
:10071000BC4F2C9380931B0403C0868D8160868F11
:10072000828D938D0197F1F7A389B4899C91858976
:10073000892B8C93FF91EF91BF91AF919F918F91F6
:100740007F916F915F914F913F912F910F900FBECD
:100750000F901F901895009769F0FC010190002000
:10076000E9F73197AF01481B590BBC018EE394E0C8
:100770000C94A70080E090E00895CF93DF930E944F
:10078000AB03EC0180E392E00E94AB038C0F9D1F52
:10079000DF91CF9108958F929F92AF92BF920F9366
:1007A0001F93CF93DF93CDB7DEB7A1970FB6F89421
:1007B000DEBF0FBECDBF19A2423008F44AE08E0161
:1007C0000F5D1F4F842E912CA12CB12CA5019401FB
:1007D0000E945B0EE62FB901CA0101501109EA30EF
:1007E00014F4E05D01C0E95CD801EC93232B242BC9
:1007F000252B61F7C8010E94AB03A1960FB6F894B0
:10080000DEBF0FBECDBFDF91CF911F910F91BF9083
:10081000AF909F908F900895E0913E04F0913F0437
:100820000190F081E02D682F8EE394E00994CF923F
:10083000DF92EF92FF92CF93DF9397FF19C06B0186
:100840007C018DE20E940C04EC0166277727CB0126
:100850006C197D098E099F094AE00E94CB038C0F19
:100860009D1FDF91CF91FF90EF90DF90CF90089583
:100870004AE0DF91CF91FF90EF90DF90CF900C9402
:10088000CB030C94AB03CF93DF93BC01990F880B80
:10089000990B0E941704EC0180E392E00E94AB03E5
:1008A0008C0F9D1FDF91CF91089590E0FC01EA55D8
:1008B000FF4F3491FC01EE51FF4F2491FC01E253B4
:1008C000FF4FE491EE2309F43BC0332339F1333079
:1008D00091F038F43130A9F0323001F584B58F7DD4
:1008E00012C0373091F03830A1F03430B9F4809133
:1008F00080008F7D03C0809180008F77809380007F
:100900000DC084B58F7784BD09C08091B0008F770A
:1009100003C08091B0008F7D8093B000F0E0EE0FB7
:10092000FF1FE654FF4FA591B4918FB7F894EC9157
:10093000611103C020952E2301C02E2B2C938FBF55
:100940000895CF93DF9390E0FC01EE51FF4F249187
:10095000FC01E253FF4F8491882361F190E0880FFE
:10096000991FFC01E456FF4FC591D491FC01E65458
:10097000FF4FA591B491611109C09FB7F894888188
:10098000209582238883EC912E230BC0623061F482
:100990009FB7F8943881822F809583238883EC91C8
:1009A0002E2B2C939FBF06C08FB7F894E8812E2B77
:1009B00028838FBFDF91CF9108952FB7F89460916E
:1009C00033067091340680913506909136062FBF1C
:1009D00008951F920F920FB60F9211242F933F93F9
:1009E0008F939F93AF93BF9380913306909134067A
:1009F000A0913506B09136063091320623E0230FE0
:100A00002D3720F40196A11DB11D05C026E8230F46
:100A10000296A11DB11D2093320680933306909358
:100A20003406A0933506B093360680912E06909139
:100A30002F06A0913006B09131060196A11DB11D7F
:100A400080932E0690932F06A0933006B093310624
:100A5000BF91AF919F918F913F912F910F900FBEBA
:100A60000F901F901895CF93DF93CDB7DEB72F97D8
:100A70000FB6F894DEBF0FBECDBF789484B5826008
:100A800084BD84B5816084BD85B5826085BD85B532
:100A9000816085BD80916E00816080936E001092B0
:100AA000810080918100826080938100809181002B
:100AB00081608093810080918000816080938000BC
:100AC0008091B10084608093B1008091B00081601A
:100AD0008093B00080917A00846080937A00809146
:100AE0007A00826080937A0080917A00816080939E
:100AF0007A0080917A00806880937A001092C10019
:100B000010922304109222041092250410922404BF
:100B1000E6E2F4E0119224E0EE32F207D9F7E09138
:100B20004E04F0914F0482E08083E0914A04F091FA
:100B30004B041082E0914C04F0914D048FEC8083C3
:100B400010925604E0915204F091530486E08083A1
:100B5000E0915004F0915104808180618083E091A4
:100B60005004F0915104808188608083E0915004AA
:100B7000F0915104808180688083E0915004F0916D
:100B8000510480818F7D808361E089E00E94A1040F
:100B900061E082E00E94A10461E083E00E94A10480
:100BA00061E084E00E94A10461E085E00E94A1046C
:100BB00061E086E00E94A10461E087E00E94A10458
:100BC0000E9479020091000111E0602F612785E009
:100BD0000E945504602F86E00E94550410930C0675
:100BE00061E087E00E94550460E089E00E945504BE
:100BF00010922A06109229061092280610922706B3
:100C000010922606109225068EE393E090932C0610
:100C100080932B0690911B06963108F057C02DE863
:100C200031E030932606209325062CE333E0309301
:100C300028062093270624E632E030932A062093E4
:100C4000290620916800983050F031E09E3008F479
:100C500030E081E001C0880F3A95EAF701C084E0F6
:100C6000822B80936800983038F09E3040F09631A7
:100C700048F020E030E008C02DE630E005C02BE66B
:100C800030E002C02CE630E03093230620932206A9
:100C9000983030F481E001C0880F9A95EAF70EC0D1
:100CA000292F30E09E3018F42850310902C02E5010
:100CB000310981E001C0880F2A95EAF78093240664
:100CC00080912B0690912C060197F1F780912906CF
:100CD00090912A06892B21F180911C0490911D048A
:100CE00036E08F309307E1F0009711F00E94440244
:100CF00080912D068E7F80932D0610921B041092FA
:100D00001A048FE096E090931D0480931C04E091F8
:100D10002206F0912306908180912406892B8083FE
:100D20000E94DD0460933A0470933B0480933C047A
:100D300090933D0460931E0470931F0480932004DD
:100D4000909321040E94850268EEC62E63E0D62EA1
:100D5000E12CF12CAE014F5F5F4F3A0180903A04D5
:100D600090903B04A0903C04B0903D0480923604E7
:100D700090923704A0923804B09239040E94DD04A6
:100D800060933A0470933B0480933C0490933D0439
:100D9000DC01CB0188199909AA09BB0980933204A7
:100DA00090933304A0933404B09335042091E40469
:100DB0003091E50421303105A9F40091EE04109141
:100DC000EF042091F0043091F104080F191F2A1F3D
:100DD0003B1F0093EE041093EF042093F004309334
:100DE000F10428C022303105A9F40091F2041091D9
:100DF000F3042091F4043091F504080F191F2A1F01
:100E00003B1F0093F2041093F3042093F4043093F7
:100E1000F50410C01092EE041092EF041092F0044A
:100E20001092F1041092F2041092F3041092F40460
:100E30001092F504209104062223A1F00091F605FA
:100E40001091F7052091F8053091F905081B190B51
:100E50002A0B3B0B0093F6051093F7052093F8053A
:100E60003093F90520910E062223B9F00091FD057B
:100E70001091FE052091FF0530910006180129010F
:100E8000281A390A4A0A5B0A2092FD053092FE05AB
:100E90004092FF055092000608C01092FD05109286
:100EA000FE051092FF05109200068091E6049091D5
:100EB000E70427E0289F8001299F100D1124F801E5
:100EC000EC51FB4FB2885AE5352EB31007C043E012
:100ED000442E512C5092E5044092E4042091E40405
:100EE0003091E5042130310509F004C12091E80476
:100EF0003091E9042817390709F4D1C089E092E05C
:100F00000E9441046091EE047091EF048091F0041E
:100F10009091F104A70196010E945B0ECA01B901EC
:100F20004AE00E94CB038DE292E00E94410460916E
:100F3000E6047091E704072E000C880B990B0E94C1
:100F400017048DE292E00E9441048B2D0E940C0454
:100F500080E392E00E94AB038B2DBB0C990BAA0B94
:100F6000BB0BFC01E154F109EA31F10508F08FC037
:100F7000EC5CFF4F0C949C0E81E090E005C082E099
:100F800090E002C083E090E00E945A0280C080910D
:100F9000040691E089278093050690930406109239
:100FA0000E060E94CD0273C00E94C30270C08091E1
:100FB000040680930506109204066091070670915E
:100FC0000806072E000C880B990B0E94E30F20E007
:100FD00030E44CE157E40E946F100E94AB0F609325
:100FE000F6057093F7058093F8059093F9050E9434
:100FF00085024DC080910406809305061092040678
:101000006091070670910806072E000C880B990B5B
:101010000E94E30F20E030E44CE157E40E946F109F
:101020000E94AB0F6093F6057093F7058093F80567
:101030009093F905C80189509B4F0E94821328EEB6
:1010400033E0DC010E94A20E6093FD057093FE0563
:101050008093FF059093000681E080930E0617C0F1
:101060006091000111E0062F01270093000185E047
:101070000E945504602F86E00E94550410930C06D0
:1010800006C083E392E00E94BD030E948F0280911C
:10109000E6049091E7049093E9048093E80480913A
:1010A000E6049091E7040196FC01EE0FFF1FEE0F9E
:1010B000FF1FEA58FA4F4091EE045091EF046091FF
:1010C000F0047091F1040081118122813381401775
:1010D00051076207730770F09093E7048093E6046A
:1010E00080E492E00E9441048091E6049091E7043C
:1010F0000E9443048091DF04882381F180903A04A8
:1011000090903B04A0903C04B0903D048091E0049A
:101110009091E104A091E204B091E304881A990A45
:10112000AA0ABB0A8091DB049091DC04880F991F06
:1011300001974091DD045091DE04849F9001859FCA
:10114000300D949F300D1124A90160E070E081E022
:1011500084169506A606B70608F080E08093DF04A3
:10116000882309F180913A0490913B04A0913C04BA
:10117000B0913D040091E0041091E1042091E2045B
:101180003091E304BC01CD01601B710B820B930B0A
:101190002091DD043091DE0440E050E00E945B0EBF
:1011A000622F617001C061E087E00E945504609188
:1011B000F6057091F7058091F8059091F905A090DA
:1011C0000706B0900806161617061806190694F4B6
:1011D00028E22A9D40012B9D900C1124A701960125
:1011E0000E947D0E89010F5F1F4F8016910624F427
:1011F000840102C000E010E081E02091FA05309106
:10120000FB050217130709F480E08093FC05109397
:10121000FB050093FA056091FD057091FE05809134
:10122000FF0590910006161617061806190664F4B5
:10123000A70196010E947D0E2F5F3F4F2B30310595
:101240002CF02AE030E002C020E030E041E0809164
:101250000106909102062817390709F440E04093EF
:10126000030630930206209301060115110549F08B
:10127000C801019768E270E00E94470E6F5F7F4FE0
:1012800002C060E070E0A616B7060CF4B50181E07C
:10129000E0910906F0910A06E617F70709F480E0E5
:1012A00080930B0670930A066093090680913A04B6
:1012B00090913B04A0913C04B0913D0480901E04A9
:1012C00090901F04A0902004B09021041C012D01D7
:1012D000281839084A085B0811E059EE251653E032
:1012E00035064104510420F410E0411109C08BC0BF
:1012F00080931E0490931F04A0932004B0932104B4
:10130000109203061B823F932F93A6E5B2E0BF9392
:10131000AF937F926F920E94E11061E089E00E949A
:10132000550467E58FE096E00E94B70169818FE080
:1013300096E00E94B7016A818FE096E00E94B701B3
:1013400060E08FE096E00E94B70160E089E00E94D3
:1013500055048BE592E00E944104C3010E944104C0
:1013600082E692E00E94BD030F900F900F900F90C5
:101370000F900F90112309F446C01092FC051C82B7
:101380008091FB058F938091FA058F93A6E8B2E0D8
:10139000BF93AF937F926F920E94E11061E089E06A
:1013A0000E94550464E58FE096E00E94B7016981D0
:1013B0008FE096E00E94B7016A818FE096E00E947C
:1013C000B7016B818FE096E00E94B70160E08FE08B
:1013D00096E00E94B70160E089E00E9455048BE826
:1013E00092E00E944104C3010E94410482E992E01C
:1013F0000E94BD030F900F900F900F900F900F90D1
:10140000112329F008C08091FC058111B6CF80918D
:101410000B068823C9F110920B061A8280910A06E6
:101420008F93809109068F93AEEAB2E0BF93AF939A
:101430007F926F920E94E11061E089E00E94550462
:1014400061E48FE096E00E94B70169818FE096E049
:101450000E94B70160E08FE096E00E94B70160E073
:1014600089E00E94550481EB92E00E944104898149
:101470000E940C0488EB92E00E94BD030F900F9035
:101480000F900F900F900F9080910C06882339F1E8
:1014900010920C0661E089E00E94550461E68FE03D
:1014A00096E00E94B70180910001882331F081ED20
:1014B00092E00E94BD0361E305C08FED92E00E94BF
:1014C000BD0362E38FE096E00E94B70160E08FE029
:1014D00096E00E94B70160E089E00E945504111176
:1014E00009C080910506811105C080910606811111
:1014F0002CC068C01092050661E089E00E94550486
:1015000063E58FE096E00E94B7018091040688238E
:1015100041F061E38FE096E00E94B7018DEE92E02A
:1015200007C060E38FE096E00E94B70183E093E09C
:101530000E94BD0360E08FE096E00E94B70160E08A
:1015400089E00E945504112381F21092060661E0A1
:1015500089E00E94550462E58FE096E00E94B701A1
:101560008091E4049091E5048330910511F0009797
:1015700051F48DE193E00E94BD0360E38FE096E0BB
:101580000E94B70116C08130910541F461E38FE0FC
:1015900096E00E94B7018FE393E009C0029749F4F7
:1015A00060E58FE096E00E94B7018AE593E00E9433
:1015B000BD0360E08FE096E00E94B70160E089E043
:1015C0000E9455040E94DD0400912E0410912F0406
:1015D0002091300430913104DC01CB01801B910B50
:1015E000A20BB30B81399140A105B10540F01092D7
:1015F00025041092240410922304109222048FE0F8
:1016000096E00E940B02892B09F443C08FE096E01C
:101610000E942302182F80912404909125040196A2
:101620009093250480932404019721F50E94DD0402
:1016300060932E0470932F048093300490933104B0
:10164000112349F0209124043091250428303105DC
:1016500009F031C211C080912404909125040197B2
:1016600059F410922504109224041092230410922D
:1016700022040FC01111E6CFE0912404F09125045B
:10168000EE5DFB4F138282E090E090932304809301
:10169000220400912204109123040230110509F064
:1016A00007C2109223041092220484E793E00E9460
:1016B000BD0386E294E00E94BD038091260480353C
:1016C00009F4D9C154F4893409F496C18C3409F46D
:1016D0007AC1813409F0E4C160C1833549F08A35AB
:1016E00009F483C1823509F0DBC10E948F02D8C1A1
:1016F0008091E4049091E504029779F481E090E010
:101700009093E5048093E40480910D068093040691
:101710008093050610920D06C3C18FE793E00E94E7
:10172000BD0320902704298689E294E00E94821359
:101730009E838D838DE893E00E9441048D819E817C
:101740000E9443044D805E80B201550C880B990BBA
:101750000E94E30F20E030E040EF51E40E94CD0E04
:1017600020E030E040E252E40E94390F20E030E017
:1017700040E05FE30E94CD0E0E94AB0F709308061D
:101780006093070621E020930B06072E000C880BC0
:10179000990B0E94E30F20E030E44CE157E40E94F3
:1017A0006F100E94AB0F6093F6057093F70580935E
:1017B000F8059093F9051092040682EA93E00E94DE
:1017C000410480910706909108060E9443042985F0
:1017D000213319F041E051E002C04AE651E05D8753
:1017E0004C8766E775E07F876E8796EF492E94E019
:1017F000592E7B876A87212C312C812C912C540106
:1018000018861F82AA85BB858D929D92AD92BD924E
:10181000BB87AA87EC85FD85E20DF31D80E090E093
:1018200081010C511B4F2191D801A80FB91F52966D
:101830002C93019687309105B1F7F20180818734AE
:10184000F9F41C82FE81FF932D812F93A6E8B2E06C
:10185000BF93AF937F926F920E94E1108981D8016C
:1018600053968C9353978A8154968C9354978B817B
:1018700055968C930F900F900F900F900F900F90A4
:10188000B985B33331F4F2018081833511F425E455
:101890002083D2011C914F8158855093E7044093D7
:1018A000E604C10189509B4F0E94821328EE33E069
:1018B000DC010E94A20E860E971EA81EB91E4F8143
:1018C00058854F5F5F4F58874F8357E0450E511C37
:1018D00067E0260E311C1A3509F094CF81E090E0C4
:1018E0009093E5048093E4041092E7041092E604D8
:1018F0000E94DD046093EA047093EB048093EC048F
:101900009093ED041092EE041092EF041092F00404
:101910001092F1041092F2041092F3041092F40465
:101920001092F50481E08093060684EB93E00E9418
:10193000BD0304EE14E0812C912C5801F801E80D50
:10194000F91D8289811101C080E20E940C047FEFA1
:10195000871A970A87E08816910481F782EC93E052
:101960000E944104AE85BF856D917D918D919D91C1
:10197000BF87AE87A70196010E945B0ECA01B9011D
:101980000E94170480ED93E00E94BD03095F1F4F82
:10199000F50182898A3579F683C082ED93E00E9451
:1019A000BD0311E080912704813309F010E010930A
:1019B000000161E0612785E00E945504612F86E007
:1019C0000E9455046DC080912704823541F089350D
:1019D00049F0873409F064C00E94CD0261C00E94C2
:1019E00085025EC00E94C3025BC087E294E00E9451
:1019F00082130E945A0254C08091E6049091E70439
:101A000047E0489F9001499F300D1124F901EA50A9
:101A1000FB4F45814934B9F0E091E604F091E704C9
:101A2000EE0FFF1FEE0FFF1FEA58FA4F80819181E2
:101A3000A281B3818093EE049093EF04A093F0040D
:101A4000B093F1042DC0F901EC51FB4F42894A35A6
:101A500019F340E050E00196495F5F4FFA01E20F51
:101A6000F31FEC51FB4F608D6335A9F39093E704AE
:101A70008093E604D1CF8091E4049091E50401972E
:101A800079F41093E5040093E404809104068093B4
:101A90000D06882329F01092040681E08093050644
:101AA0001092250410922404109223041092220410
:101AB0000E94940153C9F901EE5DFB4F138381E04D
:101AC00090E0E3CD8DEB91E09093100680930F06AC
:101AD0008FE096E00C94440210924104109240046E
:101AE00088EE93E0A0E0B0E080934204909343043A
:101AF000A0934404B09345042DEA31E030933F04B1
:101B000020933E0425EC30E030934B0420934A04AC
:101B100024EC30E030934D0420934C0420EC30E072
:101B200030934F0420934E0421EC30E03093510465
:101B30002093500422EC30E030935304209352045D
:101B400026EC30E03093550420935404109257044F
:101B5000109258041092590410925A0410921206CE
:101B6000109211068093130690931406A093150605
:101B7000B09316068DEB91E09093100680930F06BC
:101B8000109226061092250610922806109227061B
:101B900010922A061092290610922C0610922B06FB
:101BA00060912D066E7F6D7F60932D066695617046
:101BB00081E068278BE00E94550461E08BE00E9481
:101BC000A104EDEEF0E0E491E0931F06E9EDF0E012
:101BD000E491F0E0EE0FFF1FE654FF4F85919491E2
:101BE000909321068093200660E08AE00E94A10481
:101BF00080912D0681FD04C061E08AE00E945504B9
:101C00008AE080931B06ECEEF0E0E491E0931C0682
:101C1000E8EDF0E0E491F0E0EE0FFF1FEC53FF4F32
:101C20008591949190931E0680931D061092E50471
:101C30001092E4041092E7041092E6048FEF9FEFF5
:101C40009093E9048093E8041092FC051092030637
:101C500010920406109205061092060610920B06CA
:101C600010920C0610920D0610920E0680E293E080
:101C70009093DE048093DD041092DF041092E00460
:101C80001092E1041092E2041092E304089597FB8D
:101C9000072E16F4009407D077FD09D00E94A90EF4
:101CA00007FC05D03EF4909581959F4F089570955F
:101CB00061957F4F0895A1E21A2EAA1BBB1BFD015F
:101CC0000DC0AA1FBB1FEE1FFF1FA217B307E4071B
:101CD000F50720F0A21BB30BE40BF50B661F771F73
:101CE000881F991F1A9469F7609570958095909553
:101CF0009B01AC01BD01CF010895052E97FB1EF499
:101D000000940E94940E57FD07D00E945B0E07FCC2
:101D100003D04EF40C94940E509540953095219537
:101D20003F4F4F4F5F4F0895909580957095619507
:101D30007F4F8F4F9F4F0895EE0FFF1F0590F49137
:101D4000E02D09940E94BD0EB7FF0895821B930BEE
:101D50000895AA1BBB1B51E107C0AA1FBB1FA617F2
:101D6000B70710F0A61BB70B881F991F5A95A9F744
:101D700080959095BC01CD010895A29FB001B39FBD
:101D8000C001A39F700D811D1124911DB29F700D84
:101D9000811D1124911D08955058BB27AA270E9428
:101DA000E40E0C9435100E94271038F00E942E107B
:101DB00020F039F49F3F19F426F40C9424100EF40B
:101DC000E095E7FB0C941E10E92F0E94461058F393
:101DD000BA17620773078407950720F079F4A6F510
:101DE0000C9468100EF4E0950B2EBA2FA02D0B0169
:101DF000B90190010C01CA01A0011124FF27591B50
:101E000099F0593F50F4503E68F11A16F040A22F55
:101E1000232F342F4427585FF3CF469537952795C6
:101E2000A795F0405395C9F77EF41F16BA0B620BC5
:101E3000730B840BBAF09150A1F0FF0FBB1F661F0C
:101E4000771F881FC2F70EC0BA0F621F731F841F4F
:101E500048F4879577956795B795F7959E3F08F075
:101E6000B0CF9395880F08F09927EE0F9795879537
:101E700008950E944D0F0C9435100E942E1058F0BA
:101E80000E94271040F029F45F3F29F00C941E10A7
:101E900051110C9469100C9424100E94461068F3A0
:101EA0009923B1F3552391F3951B550BBB27AA2713
:101EB00062177307840738F09F5F5F4F220F331F4D
:101EC000441FAA1FA9F335D00E2E3AF0E0E832D015
:101ED00091505040E695001CCAF72BD0FE2F29D018
:101EE000660F771F881FBB1F261737074807AB07EA
:101EF000B0E809F0BB0B802DBF01FF2793585F4F5F
:101F00003AF09E3F510578F00C941E100C94691025
:101F10005F3FE4F3983ED4F3869577956795B79540
:101F2000F7959F5FC9F7880F911D9695879597F94B
:101F30000895E1E0660F771F881FBB1F62177307C4
:101F40008407BA0720F0621B730B840BBA0BEE1FD9
:101F500088F7E09508950E94B20F6894B1110C942F
:101F6000691008950E944E1088F09F5798F0B92F7D
:101F70009927B751B0F0E1F0660F771F881F991FBE
:101F80001AF0BA95C9F714C0B13091F00E946810E8
:101F9000B1E008950C946810672F782F8827B85FF8
:101FA00039F0B93FCCF3869577956795B395D9F716
:101FB0003EF490958095709561957F4F8F4F9F4F20
:101FC0000895E89409C097FB3EF49095809570952C
:101FD00061957F4F8F4F9F4F9923A9F0F92F96E975
:101FE000BB279395F695879577956795B795F111EA
:101FF000F8CFFAF4BB0F11F460FF1BC06F5F7F4F87
:102000008F4F9F4F16C0882311F096E911C0772398
:1020100021F09EE8872F762F05C0662371F096E8A1
:10202000862F70E060E02AF09A95660F771F881F70
:10203000DAF7880F9695879597F9089597F99F672E
:1020400080E870E060E008959FEF80EC0895002440
:102050000A941616170618060906089500240A940D
:1020600012161306140605060895092E0394000C93
:1020700011F4882352F0BB0F40F4BF2B11F460FF22
:1020800004C06F5F7F4F8F4F9F4F089557FD90584B
:10209000440F551F59F05F3F71F04795880F97FB2C
:1020A000991F61F09F3F79F08795089512161306E6
:1020B0001406551FF2CF4695F1DF08C01616170615
:1020C0001806991FF1CF869571056105089408954A
:1020D000E894BB2766277727CB0197F908950E94DC
:1020E00082100C9435100E94271038F00E942E1098
:1020F00020F0952311F00C941E100C942410112440
:102100000C9469100E94461070F3959FC1F3950FCF
:1021100050E0551F629FF001729FBB27F00DB11D6B
:10212000639FAA27F00DB11DAA1F649F6627B00DFB
:10213000A11D661F829F2227B00DA11D621F739FE4
:10214000B00DA11D621F839FA00D611D221F749FF2
:102150003327A00D611D231F849F600D211D822F39
:10216000762F6A2F11249F5750409AF0F1F0882360
:102170004AF0EE0FFF1FBB1F661F771F881F91508D
:102180005040A9F79E3F510580F00C941E100C940E
:1021900069105F3FE4F3983ED4F386957795679591
:1021A000B795F795E7959F5FC1F7FE2B880F911DB7
:1021B0009695879597F9089581E090E0F8940C94AE
:1021C000DF13AEE0B0E0E7EEF0E10C94B6130D895A
:1021D0001E8986E08C831A8309838FEF9FE79E8395
:1021E0008D83AE01475E5F4F6F89788DCE0101967A
:1021F0000E9404112F813885F801E20FF31F10822D
:102200002E96E4E00C94D213ACE0B0E0EAE0F1E109
:102210000C94A8137C016B018A01FC0117821682C1
:10222000838181FFBDC1CE0101964C01F7019381ED
:10223000F60193FD859193FF81916F01882309F445
:10224000ABC1853239F493FD859193FF81916F0184
:10225000853229F4B70190E00E94EC12E7CF512CAF
:10226000312C20E02032A0F48B3269F030F480323F
:1022700059F0833269F420612CC08D3239F08033FB
:1022800039F4216026C02260246023C0286021C068
:1022900027FD27C030ED380F3A3078F426FF06C00E
:1022A000FAE05F9E300D1124532E13C08AE0389E51
:1022B000300D1124332E20620CC08E3221F426FD05
:1022C0006BC1206406C08C3611F4206802C08836C9
:1022D00041F4F60193FD859193FF81916F01811186
:1022E000C1CF982F9F7D9554933028F40C5F1F4FDA
:1022F000FFE3F9830DC0833631F0833771F0833506
:1023000009F05BC022C0F801808189830E5F1F4FF6
:1023100044244394512C540115C03801F2E06F0E4F
:10232000711CF801A080B18026FF03C0652D70E00C
:1023300002C06FEF7FEFC5012C870E94E1122C01D4
:1023400083012C852F77222E17C03801F2E06F0E03
:10235000711CF801A080B18026FF03C0652D70E0DC
:1023600002C06FEF7FEFC5012C870E94D6122C01AF
:102370002C852068222E830123FC1BC0832D90E036
:1023800048165906B0F4B70180E290E00E94EC12C2
:102390003A94F4CFF50127FC859127FE81915F01E6
:1023A000B70190E00E94EC1231103A94F1E04F1A1C
:1023B00051084114510471F7E5C0843611F0893693
:1023C00039F5F80127FF07C060817181828193810F
:1023D0000C5F1F4F08C060817181072E000C880BB5
:1023E000990B0E5F1F4F2F76722E97FF09C09095A5
:1023F0008095709561957F4F8F4F9F4F2068722E0B
:102400002AE030E0A4010E942413A82EA81844C09A
:10241000853729F42F7EB22E2AE030E025C0F22F36
:10242000F97FBF2E8F36C1F018F4883579F0B4C02B
:10243000803719F0883721F0AFC02F2F2061B22EDE
:10244000B4FE0DC08B2D8460B82E09C024FF0AC0D5
:102450009F2F9660B92E06C028E030E005C020E12D
:1024600030E002C020E132E0F801B7FE07C0608131
:102470007181828193810C5F1F4F06C060817181E1
:1024800080E090E00E5F1F4FA4010E942413A82E4D
:10249000A818FB2DFF777F2E76FE0BC0372D3E7FD1
:1024A000A51450F474FE0AC072FC08C0372D3E7E9D
:1024B00005C0BA2C372D03C0BA2C01C0B52C34FF8F
:1024C0000DC0FE01EA0DF11D8081803311F4397ECB
:1024D00009C032FF06C0B394B39404C0832F86783A
:1024E00009F0B39433FD13C030FF06C05A2CB31467
:1024F00018F4530C5B18B32CB31468F4B70180E2E2
:1025000090E03C870E94EC12B3943C85F5CFB31465
:1025100010F43B1801C0312C34FF12C0B70180E326
:1025200090E03C870E94EC123C8532FF17C031FDE1
:1025300003C088E790E002C088E590E0B7010CC0D6
:10254000832F867859F031FF02C08BE201C080E210
:1025500037FD8DE2B70190E00E94EC12A51438F42B
:10256000B70180E390E00E94EC125A94F7CFAA944E
:10257000F401EA0DF11D8081B70190E00E94EC1298
:10258000A110F5CF332009F451CEB70180E290E0DD
:102590000E94EC123A94F6CFF7018681978102C02F
:1025A0008FEF9FEF2C96E2E10C94C413FC01059091
:1025B000615070400110D8F7809590958E0F9F1F45
:1025C0000895FC016150704001900110D8F780958A
:1025D00090958E0F9F1F08950F931F93CF93DF93B6
:1025E000FB01238121FD03C08FEF9FEF28C022FF55
:1025F00016C046815781248135814217530744F420
:10260000A081B1819D012F5F3F4F318320838C9347
:10261000268137812F5F3F4F3783268310C0EB0120
:10262000092F182F0084F185E02D0995892BE1F6FB
:102630008E819F8101969F838E83812F902FDF91C2
:10264000CF911F910F910895FA01AA27283051F1D7
:10265000203181F1E8946F936E7F6E5F7F4F8F4FD3
:102660009F4FAF4FB1E03ED0B4E03CD0670F781F32
:10267000891F9A1FA11D680F791F8A1F911DA11D17
:102680006A0F711D811D911DA11D20D009F4689450
:102690003F912AE0269F11243019305D3193DEF6F8
:1026A000CF010895462F4770405D4193B3E00FD0AE
:1026B000C9F7F6CF462F4F70405D4A3318F0495D99
:1026C00031FD4052419302D0A9F7EACFB4E0A6957C
:1026D0009795879577956795BA95C9F7009761059E
:1026E000710508959B01AC010A2E069457954795F4
:1026F00037952795BA95C9F7620F731F841F951FE9
:10270000A01D0895FC0188279927E8942191203283
:10271000E9F3293010F02E30C8F32B3241F02D327E
:1027200039F4689404C00E94A013820F911D219176
:1027300020532A30C0F31EF4909581959F4F089541
:102740007AE0979F902D879F802D910D11240895F9
:102750002F923F924F925F926F927F928F929F92B1
:10276000AF92BF92CF92DF92EF92FF920F931F939F
:10277000CF93DF93CDB7DEB7CA1BDB0B0FB6F89450
:10278000DEBF0FBECDBF09942A88398848885F8490
:102790006E847D848C849B84AA84B984C884DF8001
:1027A000EE80FD800C811B81AA81B981CE0FD11DE5
:1027B0000FB6F894DEBF0FBECDBFED01089510E057
:1027C000CCE7D0E004C0FE010E949C0E2196CD37DC
:0827D000D107C9F7F894FFCF0F
:1027D80001452020300020204220203000202057B2
:1027E8002031300020204120203000202047545440
:1027F80054004920592033300049534220203000EA
:102808002020532020300020205720313000202065
:10281800412020300020204754545400492059209A
:1028280033300049535220203000202043202030EC
:102838000020205A20203000202045202030002071
:102848002042202030002020572031300020204115
:102858002020300020204754545400492059203368
:1028680030004953522020300020204320203000DF
:1028780020205A202030002020000000002B01A733
:1028880000F400D200E600720100000000B701A7C2
:10289800000B0223029E01B6015374617274207307
:1028A8006F756E64207369676E616C200052656491
:1028B800206C69676874206F6E0059656C6C6F775F
:1028C800206C69676874206F6E00477265656E20BA
:1028D8006C69676874206F6E002A2A20446F207321
:1028E800657175656E6365207265636F72642061DA
:1028F800742074696D65202873293A20002020000F
:102908000D0A00456E642073657175656E63650018
:10291800537465702073657175656E6365207265A3
:10292800636F72642000253032640053656E642042
:102938005700202877616974696E672074696D652E
:1029480020636F756E7420646F776E207365636F94
:102958006E6473292000253033640053656E64204B
:102968005400202874696D6520636F756E74206447
:102978006F776E207365636F6E647329200025641A
:102988000053656E6420410020286E756D62657283
:10299800206F66206172726F7773206C6566742988
:1029A8000053656E6420613120284142292000537C
:1029B800656E642061322028434429200053656EE7
:1029C80064205331202869732073686F6F74696EAF
:1029D80067290053656E6420533020286973206E80
:1029E8006F742073686F6F74696E67290053656E22
:1029F80064205230202873657175656E636520699F
:102A080073206E6F742072756E6E696E672900533D
:102A1800656E64205231202873657175656E636533
:102A28002072756E6E696E67290053656E64205258
:102A380050202873657175656E63652070617573C4
:102A480065642900446F20636F6D6D616E64007367
:102A58007461727453657175656E6365004772655C
:102A6800656E206475726174696F6E202873293AE7
:102A780020004172726F777320746F2073686F6FD4
:102A8800743A20005468652073657175656E6365D6
:102A98003A00202D207374617274732061742000D1
:0A2AA800730073657441424344005B
:00000001FF
