:100000000C947D000C94A5000C94A5000C942F0377
:100010000C942F030C942F030C94A5000C94A500B2
:100020000C94A5000C94A5000C94A5000C94A500BC
:100030000C94A5000C94A5000C94A5000C94A500AC
:100040000C94E7040C94A5000C94FD020C94D702C8
:100050000C94A5000C94A5000C94A5000C94A5008C
:100060000C94A5000C94A500B207B507BA07370891
:1000700037083708BD073708370837083708370803
:1000800037083708370837083708CB0720083708FC
:1000900037083708EE073708C807310800000000A6
:1000A000240027002A0000000008000201000003CD
:1000B0000407000000000000000000000000250010
:1000C00028002B0000000000230026002900040463
:1000D00004040404040402020202020203030303F0
:1000E00003030102040810204080010204081020CC
:1000F000010204081020F30CE90C11241FBECFEFFD
:10010000D8E0DEBFCDBF13E0A0E0B1E0E6EEF6E25E
:1001100002C005900D92AA3AB107D9F726E0AAEAE3
:10012000B3E001C01D92A730B207E1F710E0CCE7C1
:10013000D0E004C02197FE010E94230ECB37D107E7
:10014000C9F70E9431050C9466130C940000CF92FD
:10015000DF92EF92FF920F931F93CF93DF936C0187
:100160007A018B01C0E0D0E0CE15DF0589F0D8011F
:100170006D918D01D601ED91FC910190F081E02D02
:10018000C6010995892B11F47E0102C02196ECCF9E
:10019000C701DF91CF911F910F91FF90EF90DF90FA
:1001A000CF900895FC01918D828D981761F0828D1A
:1001B000DF01A80FB11D5D968C91928D9F5F9F739B
:1001C000928F90E008958FEF9FEF0895FC01918D3D
:1001D000828D981731F0828DE80FF11D858D90E0AA
:1001E00008958FEF9FEF0895FC01918D228D892F47
:1001F00090E0805C9F4F821B91098F73992708952F
:100200008EE094E00E94F40021E0892B09F420E0C4
:10021000822F0895FC01848DDF01A80FB11DA35A20
:10022000BF4F2C91848D90E001968F739927848F16
:10023000A689B7892C93A089B1898C9180648C930D
:10024000938D848D981306C00288F389E02D8081F8
:100250008F7D80830895EF92FF920F931F93CF932A
:10026000DF93EC0181E0888F9B8D8C8D981305C006
:10027000E889F989808185FD24C0F62E0B8D10E078
:100280000F5F1F4F0F731127E02E8C8DE8120CC0EB
:100290000FB607FCFACFE889F989808185FFF5CF91
:1002A000CE010E940A01F1CF8B8DFE01E80FF11DF6
:1002B000E35AFF4FF0820B8FEA89FB8980818062CD
:1002C00007C0EE89FF896083E889F98980818064AD
:1002D000808381E090E0DF91CF911F910F91FF909B
:1002E000EF900895CF93DF93EC01888D8823C9F0B8
:1002F000EA89FB89808185FD05C0A889B9898C912F
:1003000086FD0FC00FB607FCF5CF808185FFF2CFC9
:10031000A889B9898C9185FFEDCFCE010E940A0191
:10032000E7CFDF91CF91089580E090E0892B29F00D
:100330000E94000181110C94000008952091EC03AB
:100340003091ED032817390771F49091EA038091F9
:10035000EB03981741F0E091EA03F0E0E655FC4F1B
:10036000808190E008958FEF9FEF089508951F9387
:10037000CF93DF93DC015C962D913C915D97211525
:10038000310539F481E090E013969C938E93129797
:100390003DC05196ED91FC91529750969C9150978B
:1003A000892F80951FB75E964C915E9741FB77270A
:1003B00070F941FD6095F8944081772311F0492B45
:1003C00001C048234083E9012197F1F748E05081BB
:1003D00060FF02C0592B01C058235083E9012197C7
:1003E000F1F76695415099F7772321F090818923A1
:1003F000808303C08081982B90831FBF5C968D9172
:100400009C915D970197F1F721E030E0C901DF9100
:10041000CF911F9108952091EC033091ED0328179F
:10042000390771F48091EB032091EA0390E0805C3E
:100430009F4F821B910960E470E00E94CE0D0895E9
:1004400080E090E008952091EC033091ED032817AF
:100450003907B9F49091EA038091EB03981789F07A
:10046000E091EA03F0E0E655FC4F80812091EA0339
:1004700030E02F5F3F4F2F7333272093EA0390E044
:1004800008958FEF9FEF0895E091EC03F091ED0355
:10049000E817F90769F4A389B4899C918589809547
:1004A00089238C931092ED031092EC0381E0089560
:1004B00080E00895CF93DF93EC0189EC91E00E94F6
:1004C0003F04CE010E944104EBEAF4E081E0848322
:1004D000D183C08380910A0490910B04A0910C04F5
:1004E000B0910D0485839683A783B087DF91CF9168
:1004F000089561E082E00E94530461E083E00E947D
:10050000530461E084E00C9453040E94790260E09B
:1005100082E00E9453048DED91E00C94BB030E9495
:1005200085021092D40581E08093D5051092B50420
:100530001092B4048093D6051092DA051092D90572
:100540008093DB051092C6051092C7051092C8056E
:100550001092C9051092CB051092CA058093CC0564
:100560001092CD051092CE051092CF051092D005B5
:100570001092D2051092D1058093D3051092DD051B
:1005800008950E94790260E083E00E9453048AEE9D
:1005900091E00C94BB030E94790260E084E00E9429
:1005A00053048AEF91E00C94BB030E9463101F92E6
:1005B0000F920FB60F9211242F933F934F935F9397
:1005C0006F937F938F939F93AF93BF93EF93FF931B
:1005D0008EE094E00E940A01FF91EF91BF91AF91EC
:1005E0009F918F917F916F915F914F913F912F914B
:1005F0000F900FBE0F901F9018951F920F920FB67D
:100600000F9211242F938F939F93EF93FF93E09179
:100610001E04F0911F048081E0912404F0912504D0
:1006200082FD12C09081809127048F5F8F7320918B
:100630002804821751F0E0912704F0E0E25FFB4FBD
:10064000958F8093270401C08081FF91EF919F9146
:100650008F912F910F900FBE0F901F9018951F92A2
:100660000F920FB60F9211242F933F934F935F93E6
:100670006F937F938F939F93AF93BF93EF93FF936A
:10068000E091EC03F091ED03309709F451C0968DA1
:10069000A685B785858591FF04C09C91892329F49F
:1006A00047C09C91892309F043C0A389B4899C91D8
:1006B0008589809589238C93868997890197F1F79D
:1006C000608D718DA685B785558538E020E0CB011A
:1006D0000197F1F7822F90E095958795282F4C91FF
:1006E000452309F02068315091F7868D81FD2095D2
:1006F0008091EB0390E001968F7399273091EA0384
:10070000381749F0A091EB03B0E0A655BC4F2C93ED
:100710008093EB0303C0868D8160868F828D938DDD
:100720000197F1F7A389B4899C918589892B8C93D2
:10073000FF91EF91BF91AF919F918F917F916F91B9
:100740005F914F913F912F910F900FBE0F901F908F
:100750001895009769F0FC0101900020E9F73197A6
:10076000AF01481B590BBC018EE094E00C94A7002C
:1007700080E090E00895CF93DF930E94A903EC01FD
:1007800080E392E00E94A9038C0F9D1FDF91CF911F
:1007900008958F929F92AF92BF920F931F93CF9322
:1007A000DF93CDB7DEB7A1970FB6F894DEBF0FBECB
:1007B000CDBF19A2423008F44AE08E010F5D1F4FF1
:1007C000842E912CA12CB12CA50194010E94E20D44
:1007D000E62FB901CA0101501109EA3014F4E05DB5
:1007E00001C0E95CD801EC93232B242B252B61F766
:1007F000C8010E94A903A1960FB6F894DEBF0FBEF0
:10080000CDBFDF91CF911F910F91BF90AF909F907F
:100810008F900895E0910E04F0910F040190F08103
:10082000E02D682F8EE094E00994CF92DF92EF9252
:10083000FF92CF93DF9397FF19C06B017C018DE28C
:100840000E940A04EC0166277727CB016C197D0909
:100850008E099F094AE00E94C9038C0F9D1FDF91FA
:10086000CF91FF90EF90DF90CF9008954AE0DF9115
:10087000CF91FF90EF90DF90CF900C94C9030C9430
:10088000A903CF93DF93BC01990F880B990B0E94AA
:100890001504EC0180E392E00E94A9038C0F9D1FD8
:1008A000DF91CF91089590E0FC01EA55FF4F34911C
:1008B000FC01EE51FF4F2491FC01E253FF4FE49104
:1008C000EE2309F43BC0332339F1333091F038F48F
:1008D0003130A9F0323001F584B58F7D12C0373048
:1008E00091F03830A1F03430B9F4809180008F7DE0
:1008F00003C0809180008F77809380000DC084B505
:100900008F7784BD09C08091B0008F7703C080913C
:10091000B0008F7D8093B000F0E0EE0FFF1FE65433
:10092000FF4FA591B4918FB7F894EC91611103C07A
:1009300020952E2301C02E2B2C938FBF0895CF938B
:10094000DF9390E0FC01EE51FF4F2491FC01E25354
:10095000FF4F8491882361F190E0880F991FFC017B
:10096000E456FF4FC591D491FC01E654FF4FA59189
:10097000B491611109C09FB7F894888120958223B2
:100980008883EC912E230BC0623061F49FB7F894FA
:100990003881822F809583238883EC912E2B2C9392
:1009A0009FBF06C08FB7F894E8812E2B28838FBF96
:1009B000DF91CF9108952FB7F8946091030670915D
:1009C000040680910506909106062FBF08951F9298
:1009D0000F920FB60F9211242F933F938F939F93F3
:1009E000AF93BF938091030690910406A0910506F2
:1009F000B09106063091020623E0230F2D3720F434
:100A00000196A11DB11D05C026E8230F0296A11D68
:100A1000B11D209302068093030690930406A093D1
:100A20000506B09306068091FE059091FF05A09102
:100A30000006B09101060196A11DB11D8093FE052F
:100A40009093FF05A0930006B0930106BF91AF916C
:100A50009F918F913F912F910F900FBE0F901F90FC
:100A60001895CF93DF93CDB7DEB72F970FB6F894D5
:100A7000DEBF0FBECDBF789484B5826084BD84B5DF
:100A8000816084BD85B5826085BD85B5816085BD89
:100A900080916E00816080936E0010928100809141
:100AA00081008260809381008091810081608093C9
:100AB0008100809180008160809380008091B100EE
:100AC00084608093B1008091B00081608093B00019
:100AD00080917A00846080937A0080917A008260AD
:100AE00080937A0080917A00816080937A0080916F
:100AF0007A00806880937A001092C1001092F3030C
:100B00001092F2031092F5031092F403E6EFF3E073
:100B1000119223E0EE3FF207D9F7E0911E04F09125
:100B20001F0482E08083E0911A04F0911B0410827C
:100B3000E0911C04F0911D048FEC80831092260438
:100B4000E0912204F091230486E08083E091200468
:100B5000F0912104808180618083E0912004F091F4
:100B60002104808188608083E0912004F091210439
:100B7000808180688083E0912004F091210480814D
:100B80008F7D808361E089E00E949F0461E082E0C4
:100B90000E949F0461E083E00E949F0461E084E082
:100BA0000E949F0461E085E00E949F0461E086E06E
:100BB0000E949F0461E087E00E949F040E947902E6
:100BC0000091000111E0602F612785E00E9453042D
:100BD000602F86E00E9453041093DC0561E087E0FB
:100BE0000E94530460E089E00E9453041092FA05C9
:100BF0001092F9051092F8051092F7051092F6057B
:100C00001092F5058EE393E09093FC058093FB052D
:100C10009091EB05963108F057C02DE831E0309304
:100C2000F6052093F5052CE333E03093F805209387
:100C3000F70524E632E03093FA052093F905209178
:100C40006800983050F031E09E3008F430E081E0E8
:100C500001C0880F3A95EAF701C084E0822B8093A7
:100C60006800983038F09E3040F0963148F020E02F
:100C700030E008C02DE630E005C02BE630E002C0D1
:100C80002CE630E03093F3052093F205983030F4F1
:100C900081E001C0880F9A95EAF70EC0292F30E055
:100CA0009E3018F42850310902C02E50310981E0DD
:100CB00001C0880F2A95EAF78093F4058091FB051F
:100CC0009091FC050197F1F78091F9059091FA0553
:100CD000892B21F18091EC039091ED0335E08F3D5C
:100CE0009307E1F0009711F00E9444028091FD0506
:100CF0008E7F8093FD051092EB031092EA038FED37
:100D000095E09093ED038093EC03E091F205F09170
:100D1000F30590818091F405892B80830E94DB0488
:100D200060930A0470930B0480930C0490930D0459
:100D30006093EE037093EF038093F0039093F103BD
:100D40000E94850278EEC72E73E0D72EE12CF12C9D
:100D5000AE014F5F5F4F1A0180900A0490900B0420
:100D6000A0900C04B0900D048092060490920704A9
:100D7000A0920804B09209040E94DB0460930A0464
:100D800070930B0480930C0490930D04DC01CB0151
:100D900088199909AA09BB09809302049093030456
:100DA000A0930404B09305042091B4043091B504D9
:100DB00021303105A9F40091BE041091BF042091A7
:100DC000C0043091C104080F191F2A1F3B1F009354
:100DD000BE041093BF042093C0043093C10428C004
:100DE00022303105A9F40091C2041091C30420916E
:100DF000C4043091C504080F191F2A1F3B1F00931C
:100E0000C2041093C3042093C4043093C50410C0DB
:100E10001092BE041092BF041092C0041092C1043C
:100E20001092C2041092C3041092C4041092C5041C
:100E30002091D4052223A1F00091C6051091C70589
:100E40002091C8053091C905081B190B2A0B3B0BD3
:100E50000093C6051093C7052093C8053093C905B4
:100E60002091DE052223B1F00091CD051091CE0531
:100E70002091CF053091D00528013901481A590A2F
:100E80006A0A7B0A4092CD055092CE056092CF054A
:100E90007092D0058091B6049091B70427E0289F06
:100EA0008001299F100D1124F801EC54FB4FB288EA
:100EB0006AE5562EB51007C053E0652E712C70926E
:100EC000B5046092B4042091B4043091B50421308B
:100ED000310509F006C12091B8043091B9042817F2
:100EE000390709F4D3C089E092E00E943F04609181
:100EF000BE047091BF048091C0049091C104A70109
:100F000096010E94E20DCA01B9014AE00E94C9039C
:100F10008DE292E00E943F046091B6047091B704A4
:100F2000072E000C880B990B0E9415048DE292E0AD
:100F30000E943F048B2D0E940A0480E392E00E94ED
:100F4000A9038B2D0B2C000C990BAA0BBB0BFC01DE
:100F5000E154F109EA31F10508F089C0EC5CFF4F7A
:100F60000C94230E81E090E002C082E090E00E94A9
:100F70005A027DC083E090E0FACF8091D40591E0E1
:100F800089278093D5059093D4050E94CB026FC02A
:100F90000E94C1026CC08091D4058093D505109247
:100FA000D4056091D7057091D805072E000C880BE9
:100FB000990B0E946A0F20E030E44CE157E40E9454
:100FC000F60F0E94320F6093C6057093C705809399
:100FD000C8059093C9050E94850249C08091D40537
:100FE0008093D5051092D4056091D7057091D805EE
:100FF000072E000C880B990B0E946A0F20E030E44A
:101000004CE157E40E94F60F0E94320F6093C60530
:101010007093C7058093C8059093C905C80189538B
:101020009B4F0E940913092E000CAA0BBB0B809347
:10103000CD059093CE05A093CF05B093D00517C0F2
:101040006091000111E0062F01270093000185E067
:101050000E945304602F86E00E9453041093DC0525
:1010600006C083E392E00E94BB030E948F0281E0EE
:1010700042E7742EB71080E08093DE058091B604BD
:101080009091B7049093B9048093B8048091B6040A
:101090009091B7040196FC01EE0FFF1FEE0FFF1FAA
:1010A000EA5BFA4F0091BE041091BF042091C00486
:1010B0003091C10440815181628173810417150709
:1010C0002607370770F09093B7048093B60480E446
:1010D00092E00E943F048091B6049091B7040E9470
:1010E00041048091AF04882381F180900A0490909C
:1010F0000B04A0900C04B0900D048091B00490916A
:10110000B104A091B204B091B304881A990AAA0A52
:10111000BB0A8091AB049091AC04880F991F019792
:101120004091AD045091AE04849F9001859F300D95
:10113000949F300D1124A90160E070E081E08416D5
:101140009506A606B70608F080E08093AF048823D2
:1011500009F180910A0490910B04A0910C04B091C4
:101160000D040091B0041091B1042091B2043091AB
:10117000B304BC01CD01601B710B820B930B20915A
:10118000AD043091AE0440E050E00E94E20D622FC9
:10119000617001C061E087E00E9453046091C60560
:1011A0007091C7058091C8059091C9050091D70538
:1011B0001091D80516161706180619068CF428E2A1
:1011C000209F5001219FB00C1124A70196010E947D
:1011D000040E2F5F3F4FA216B30624F4950102C000
:1011E00020E030E041E08091CA059091CB052817BE
:1011F000390709F440E04093CC053093CB052093A8
:10120000CA052115310549F0C901019768E270E06E
:101210000E94CE0D6F5F7F4F02C060E070E0061746
:1012200017070CF4B80181E0E091D905F091DA05D7
:10123000E617F70709F480E08093DB057093DA0581
:101240006093D90580910A0490910B04A0910C043D
:10125000B0910D048090EE039090EF03A090F00306
:10126000B090F1032C013D01481859086A087B0829
:1012700011E059EE451653E055066104710420F45F
:1012800010E0411109C083C08093EE039093EF03F7
:10129000A093F003B093F1031092CC051C823F930E
:1012A0002F93A6E5B2E0BF93AF933F922F920E9497
:1012B000681061E089E00E94530464E58FED95E0D9
:1012C0000E94B70169818FED95E00E94B7016A81A4
:1012D0008FED95E00E94B7016B818FED95E00E9444
:1012E000B70160E08FED95E00E94B70160E089E012
:1012F0000E9453048BE592E00E943F04C1010E94CA
:101300003F0482E692E00E943F040F900F900F90FE
:101310000F900F900F901123D1F11092DB051A82DC
:101320008091DA058F938091D9058F93AEE7B2E073
:10133000BF93AF933F922F920E94681061E089E0C3
:101340000E94530461E48FED95E00E94B70169812A
:101350008FED95E00E94B70160E08FED95E00E946F
:10136000B70160E089E00E94530481E892E00E94A6
:101370003F0489810E940A0488E892E00E94BB032E
:101380000F900F900F900F900F900F9004C08091CE
:10139000DB058111C2CF8091DC05882339F11092E1
:1013A000DC0561E089E00E94530461E68FED95E081
:1013B0000E94B70180910001882331F081EA92E018
:1013C0000E94BB0361E305C08FEA92E00E94BB0369
:1013D00062E38FED95E00E94B70160E08FED95E04C
:1013E0000E94B70160E089E00E945304111109C016
:1013F0008091D505811105C08091D60581112CC041
:1014000068C01092D50561E089E00E94530463E54D
:101410008FED95E00E94B7018091D405882341F0BB
:1014200061E38FED95E00E94B7018DEB92E007C07C
:1014300060E38FED95E00E94B70183ED92E00E949A
:10144000BB0360E08FED95E00E94B70160E089E0AA
:101450000E945304112381F21092D60561E089E0C5
:101460000E94530462E58FED95E00E94B7018091E0
:10147000B4049091B5048330910511F0009751F4B4
:101480008DEE92E00E94BB0360E38FED95E00E9439
:10149000B70116C08130910541F461E38FED95E00D
:1014A0000E94B7018FE093E009C0029749F460E51C
:1014B0008FED95E00E94B7018AE293E00E94BB03A2
:1014C00060E08FED95E00E94B70160E089E00E9446
:1014D00053040E94DB040091FE031091FF0320914E
:1014E000000430910104DC01CB01801B910BA20BA5
:1014F000B30B893C9105A105B10540F01092F503AD
:101500001092F4031092F3031092F2038FED95E022
:101510000E940B02892B09F443C08FED95E00E94D5
:101520002302182F8091F4039091F5030196909374
:10153000F5038093F403019721F50E94DB04609387
:10154000FE037093FF038093000490930104112322
:1015500049F02091F4033091F5032830310509F06A
:1015600031C211C08091F4039091F503019759F4B1
:101570001092F5031092F4031092F3031092F20309
:101580000FC01111E6CFE091F403F091F503EE5096
:10159000FC4F138282E090E09093F3038093F20378
:1015A0000091F2031091F3030230110509F007C214
:1015B0001092F3031092F20384E493E00E94BB03C1
:1015C00086EF93E00E94BB038091F603803509F417
:1015D000D9C154F4893409F496C18C3409F47AC120
:1015E000813409F0E4C160C1833549F08A3509F4DA
:1015F00083C1823509F0DBC10E948F02D8C180917E
:10160000B4049091B504029779F481E090E090934E
:10161000B5048093B4048091DD058093D405809354
:10162000D5051092DD05C3C18FE493E00E94BB0392
:101630004090F703498689EF93E00E9409139E8347
:101640008D838DE593E00E943F048D819E810E94F1
:1016500041046D807E80B301770C880B990B0E944A
:101660006A0F20E030E040EF51E40E94540E20E089
:1016700030E040E252E40E94C00E20E030E040E062
:101680005FE30E94540E0E94320F7093D80560935E
:10169000D70521E02093DB05072E000C880B990B62
:1016A0000E946A0F20E030E44CE157E40E94F60FFC
:1016B0000E94320F6093C6057093C7058093C805DA
:1016C0009093C9051092D40582E793E00E943F04ED
:1016D0008091D7059091D8050E9441042985213336
:1016E00019F041E051E002C04AE651E05D874C87C5
:1016F00066E475E07F876E8796ECA92E94E0B92E9C
:101700007B876A87812C912C412C512C32011886C1
:101710001F82AA85BB854D925D926D927D92BB879B
:10172000AA87EC85FD85E80DF91D80E090E0840135
:101730000C541B4F2191D801A80FB91F52962C931E
:10174000019687309105B1F7F50180818734F9F46E
:101750001C82FE81FF932D812F93A6E5B2E0BF93FB
:10176000AF933F922F920E9468108981D8015396BF
:101770008C9353978A8154968C9354978B8155966A
:101780008C930F900F900F900F900F900F90B98542
:10179000B33331F4F5018081833511F425E42083DE
:1017A000D5011C914F8158855093B7044093B604DE
:1017B000C40189539B4F0E94091328EE33E0DC01DA
:1017C0000E94290E460E571E681E791E4F815885AD
:1017D0004F5F5F4F58874F8357E0A50EB11C67E0FE
:1017E000860E911C1A3509F094CF81E090E0909319
:1017F000B5048093B4041092B7041092B6040E940A
:10180000DB046093BA047093BB048093BC04909390
:10181000BD041092BE041092BF041092C004109236
:10182000C1041092C2041092C3041092C404109216
:10183000C50481E08093D60584E893E00E94BB0351
:1018400004EB14E0812C912C5801F801E80DF91DEE
:101850008289811101C080E20E940A047FEF871A09
:10186000970A87E08816910481F782E993E00E9445
:101870003F04AE85BF856D917D918D919D91BF8710
:10188000AE87A70196010E94E20DCA01B9010E942C
:10189000150480EA93E00E94BB03095F1F4FF50126
:1018A00082898A3579F683C082EA93E00E94BB037D
:1018B00011E08091F703813309F010E010930001EB
:1018C00061E0612785E00E945304612F86E00E9459
:1018D00053046DC08091F703823541F0893549F09A
:1018E000873409F064C00E94CB0261C00E94850267
:1018F0005EC00E94C1025BC087EF93E00E940913A3
:101900000E945A0254C08091B6049091B70447E0F7
:10191000489F9001499F300D1124F901EA53FB4F74
:1019200045814934B9F0E091B604F091B704EE0F67
:10193000FF1FEE0FFF1FEA5BFA4F80819181A281AA
:10194000B3818093BE049093BF04A093C004B0936E
:10195000C1042DC0F901EC54FB4F42894A3519F3FB
:1019600040E050E00196495F5F4FFA01E20FF31F3C
:10197000EC54FB4F608D6335A9F39093B7048093CB
:10198000B604D1CF8091B4049091B504019779F455
:101990001093B5040093B4048091D4058093DD05C1
:1019A000882329F01092D40581E08093D505109208
:1019B000F5031092F4031092F3031092F2030E94C5
:1019C0009401CAC9F901EE50FC4F138381E090E005
:1019D000E3CD8DEB91E09093E0058093DF058FEDF3
:1019E00095E00C944402109211041092100488EEB9
:1019F00093E0A0E0B0E08093120490931304A093CE
:101A00001404B09315042DEA31E030930F042093B1
:101A10000E0425EC30E030931B0420931A0424ECD0
:101A200030E030931D0420931C0420EC30E0309310
:101A30001F0420931E0421EC30E0309321042093F6
:101A4000200422EC30E0309323042093220426EC7F
:101A500030E0309325042093240410922704109240
:101A600028041092290410922A041092E205109280
:101A7000E1058093E3059093E405A093E505B09319
:101A8000E6058DEB91E09093E0058093DF051092E1
:101A9000F6051092F5051092F8051092F7051092D0
:101AA000FA051092F9051092FC051092FB05609161
:101AB000FD056E7F6D7F6093FD056695617081E029
:101AC00068278BE00E94530461E08BE00E949F0432
:101AD000EDEEF0E0E491E093EF05E9EDF0E0E49164
:101AE000F0E0EE0FFF1FE654FF4F85919491909325
:101AF000F1058093F00560E08AE00E949F048091E8
:101B0000FD0581FD04C061E08AE00E9453048AE083
:101B10008093EB05ECEEF0E0E491E093EC05E8ED6A
:101B2000F0E0E491F0E0EE0FFF1FEC53FF4F8591E2
:101B300094919093EE058093ED051092B504109268
:101B4000B4041092B7041092B6048FEF9FEF9093F5
:101B5000B9048093B8041092CC051092D30510926A
:101B6000D4051092D5051092D6051092DB0510927F
:101B7000DC051092DD051092DE0580E293E0909383
:101B8000AE048093AD041092AF041092B004109292
:101B9000B1041092B2041092B304089597FB072E7B
:101BA00016F4009407D077FD09D00E94300E07FC90
:101BB00005D03EF4909581959F4F0895709561955D
:101BC0007F4F0895A1E21A2EAA1BBB1BFD010DC079
:101BD000AA1FBB1FEE1FFF1FA217B307E407F507DD
:101BE00020F0A21BB30BE40BF50B661F771F881FB9
:101BF000991F1A9469F760957095809590959B014F
:101C0000AC01BD01CF010895052E97FB1EF4009491
:101C10000E941B0E57FD07D00E94E20D07FC03D067
:101C20004EF40C941B0E50954095309521953F4FE6
:101C30004F4F5F4F089590958095709561957F4FB8
:101C40008F4F9F4F0895EE0FFF1F0590F491E02DE9
:101C500009940E94440EB7FF0895821B930B0895C8
:101C6000AA1BBB1B51E107C0AA1FBB1FA617B707C2
:101C700010F0A61BB70B881F991F5A95A9F78095DE
:101C80009095BC01CD010895A29FB001B39FC00102
:101C9000A39F700D811D1124911DB29F700D811D98
:101CA0001124911D08955058BB27AA270E946B0E3E
:101CB0000C94BC0F0E94AE0F38F00E94B50F20F0BC
:101CC00039F49F3F19F426F40C94AB0F0EF4E09511
:101CD000E7FB0C94A50FE92F0E94CD0F58F3BA171C
:101CE000620773078407950720F079F4A6F50C9432
:101CF000EF0F0EF4E0950B2EBA2FA02D0B01B901BA
:101D000090010C01CA01A0011124FF27591B99F071
:101D1000593F50F4503E68F11A16F040A22F232F7D
:101D2000342F4427585FF3CF469537952795A795CD
:101D3000F0405395C9F77EF41F16BA0B620B730B74
:101D4000840BBAF09150A1F0FF0FBB1F661F771FE5
:101D5000881FC2F70EC0BA0F621F731F841F48F49A
:101D6000879577956795B795F7959E3F08F0B0CF23
:101D70009395880F08F09927EE0F9795879508950A
:101D80000E94D40E0C94BC0F0E94B50F58F00E9414
:101D9000AE0F40F029F45F3F29F00C94A50F5111CC
:101DA0000C94F00F0C94AB0F0E94CD0F68F39923A5
:101DB000B1F3552391F3951B550BBB27AA27621747
:101DC0007307840738F09F5F5F4F220F331F441F54
:101DD000AA1FA9F335D00E2E3AF0E0E832D0915088
:101DE0005040E695001CCAF72BD0FE2F29D0660F75
:101DF000771F881FBB1F261737074807AB07B0E8B8
:101E000009F0BB0B802DBF01FF2793585F4F3AF0BD
:101E10009E3F510578F00C94A50F0C94F00F5F3F96
:101E2000E4F3983ED4F3869577956795B795F79543
:101E30009F5FC9F7880F911D9695879597F908952B
:101E4000E1E0660F771F881FBB1F621773078407C7
:101E5000BA0720F0621B730B840BBA0BEE1F88F7D6
:101E6000E09508950E94390F6894B1110C94F00F19
:101E700008950E94D50F88F09F5798F0B92F9927A1
:101E8000B751B0F0E1F0660F771F881F991F1AF065
:101E9000BA95C9F714C0B13091F00E94EF0FB1E0CC
:101EA00008950C94EF0F672F782F8827B85F39F0CB
:101EB000B93FCCF3869577956795B395D9F73EF4FE
:101EC00090958095709561957F4F8F4F9F4F0895A6
:101ED000E89409C097FB3EF49095809570956195C4
:101EE0007F4F8F4F9F4F9923A9F0F92F96E9BB277A
:101EF0009395F695879577956795B795F111F8CFF6
:101F0000FAF4BB0F11F460FF1BC06F5F7F4F8F4F60
:101F10009F4F16C0882311F096E911C0772321F056
:101F20009EE8872F762F05C0662371F096E8862FEE
:101F300070E060E02AF09A95660F771F881FDAF745
:101F4000880F9695879597F9089597F99F6780E888
:101F500070E060E008959FEF80EC089500240A94FB
:101F60001616170618060906089500240A94121674
:101F70001306140605060895092E0394000C11F4A7
:101F8000882352F0BB0F40F4BF2B11F460FF04C054
:101F90006F5F7F4F8F4F9F4F089557FD9058440FAD
:101FA000551F59F05F3F71F04795880F97FB991FB8
:101FB00061F09F3F79F08795089512161306140675
:101FC000551FF2CF4695F1DF08C016161706180602
:101FD000991FF1CF86957105610508940895E894DD
:101FE000BB2766277727CB0197F908950E94091030
:101FF0000C94BC0F0E94AE0F38F00E94B50F20F079
:10200000952311F00C94A50F0C94AB0F11240C9494
:10201000F00F0E94CD0F70F3959FC1F3950F50E024
:10202000551F629FF001729FBB27F00DB11D639F8A
:10203000AA27F00DB11DAA1F649F6627B00DA11D30
:10204000661F829F2227B00DA11D621F739FB00DD6
:10205000A11D621F839FA00D611D221F749F332746
:10206000A00D611D231F849F600D211D822F762FDF
:102070006A2F11249F5750409AF0F1F088234AF0BC
:10208000EE0FFF1FBB1F661F771F881F9150504028
:10209000A9F79E3F510580F00C94A50F0C94F00F0A
:1020A0005F3FE4F3983ED4F3869577956795B795AF
:1020B000F795E7959F5FC1F7FE2B880F911D9695C9
:1020C000879597F9089581E090E0F8940C94661351
:1020D000AEE0B0E0EEE6F0E10C943D130D891E8910
:1020E00086E08C831A8309838FEF9FE79E838D831D
:1020F000AE01475E5F4F6F89788DCE0101960E94D9
:102100008B102F813885F801E20FF31F10822E9675
:10211000E4E00C945913ACE0B0E0E1E9F0E10C9498
:102120002F137C016B018A01FC01178216828381C7
:1021300081FFBDC1CE0101964C01F7019381F601EB
:1021400093FD859193FF81916F01882309F4ABC1C1
:10215000853239F493FD859193FF81916F0185322A
:1021600029F4B70190E00E947312E7CF512C312C73
:1021700020E02032A0F48B3269F030F4803259F044
:10218000833269F420612CC08D3239F0803339F408
:10219000216026C02260246023C0286021C027FD62
:1021A00027C030ED380F3A3078F426FF06C0FAE049
:1021B0005F9E300D1124532E13C08AE0389E300DDF
:1021C0001124332E20620CC08E3221F426FD6BC107
:1021D000206406C08C3611F4206802C0883641F4B1
:1021E000F60193FD859193FF81916F018111C1CF1C
:1021F000982F9F7D9554933028F40C5F1F4FFFE379
:10220000F9830DC0833631F0833771F0833509F0DF
:102210005BC022C0F801808189830E5F1F4F442478
:102220004394512C540115C03801F2E06F0E711C1B
:10223000F801A080B18026FF03C0652D70E002C0C8
:102240006FEF7FEFC5012C870E9468122C0183017C
:102250002C852F77222E17C03801F2E06F0E711CEB
:10226000F801A080B18026FF03C0652D70E002C098
:102270006FEF7FEFC5012C870E945D122C012C852A
:102280002068222E830123FC1BC0832D90E048167A
:102290005906B0F4B70180E290E00E9473123A94BC
:1022A000F4CFF50127FC859127FE81915F01B701ED
:1022B00090E00E94731231103A94F1E04F1A5108E5
:1022C0004114510471F7E5C0843611F0893639F5AF
:1022D000F80127FF07C060817181828193810C5FC3
:1022E0001F4F08C060817181072E000C880B990B6D
:1022F0000E5F1F4F2F76722E97FF09C09095809525
:10230000709561957F4F8F4F9F4F2068722E2AE006
:1023100030E0A4010E94AB12A82EA81844C0853753
:1023200029F42F7EB22E2AE030E025C0F22FF97F6B
:10233000BF2E8F36C1F018F4883579F0B4C08037DD
:1023400019F0883721F0AFC02F2F2061B22EB4FED4
:102350000DC08B2D8460B82E09C024FF0AC09F2FAA
:102360009660B92E06C028E030E005C020E130E0DC
:1023700002C020E132E0F801B7FE07C06081718140
:10238000828193810C5F1F4F06C06081718180E064
:1023900090E00E5F1F4FA4010E94AB12A82EA81858
:1023A000FB2DFF777F2E76FE0BC0372D3E7FA514C9
:1023B00050F474FE0AC072FC08C0372D3E7E05C082
:1023C000BA2C372D03C0BA2C01C0B52C34FF0DC078
:1023D000FE01EA0DF11D8081803311F4397E09C0C0
:1023E00032FF06C0B394B39404C0832F867809F0FB
:1023F000B39433FD13C030FF06C05A2CB31418F445
:10240000530C5B18B32CB31468F4B70180E290E06E
:102410003C870E947312B3943C85F5CFB31410F43B
:102420003B1801C0312C34FF12C0B70180E390E0AB
:102430003C870E9473123C8532FF17C031FD03C0F8
:1024400088E790E002C088E590E0B7010CC0832FD8
:10245000867859F031FF02C08BE201C080E237FD7F
:102460008DE2B70190E00E947312A51438F4B70111
:1024700080E390E00E9473125A94F7CFAA94F4017B
:10248000EA0DF11D8081B70190E00E947312A11046
:10249000F5CF332009F451CEB70180E290E00E94DD
:1024A00073123A94F6CFF7018681978102C08FEFBD
:1024B0009FEF2C96E2E10C944B13FC0105906150C8
:1024C00070400110D8F7809590958E0F9F1F08954A
:1024D000FC016150704001900110D8F780959095F3
:1024E0008E0F9F1F08950F931F93CF93DF93FB01D0
:1024F000238121FD03C08FEF9FEF28C022FF16C06C
:1025000046815781248135814217530744F4A081C5
:10251000B1819D012F5F3F4F318320838C932681B2
:1025200037812F5F3F4F3783268310C0EB01092F80
:10253000182F0084F185E02D0995892BE1F68E8115
:102540009F8101969F838E83812F902FDF91CF9162
:102550001F910F910895FA01AA27283051F12031D7
:1025600081F1E8946F936E7F6E5F7F4F8F4F9F4F27
:10257000AF4FB1E03ED0B4E03CD0670F781F891F69
:102580009A1FA11D680F791F8A1F911DA11D6A0F37
:10259000711D811D911DA11D20D009F468943F91EA
:1025A0002AE0269F11243019305D3193DEF6CF01E9
:1025B0000895462F4770405D4193B3E00FD0C9F7AF
:1025C000F6CF462F4F70405D4A3318F0495D31FD1C
:1025D0004052419302D0A9F7EACFB4E0A69597956F
:1025E000879577956795BA95C9F700976105710545
:1025F00008959B01AC010A2E06945795479537958F
:102600002795BA95C9F7620F731F841F951FA01DE8
:102610000895FC0188279927E89421912032E9F355
:10262000293010F02E30C8F32B3241F02D3239F41E
:10263000689404C00E942713820F911D219120539A
:102640002A30C0F31EF4909581959F4F08957AE04B
:10265000979F902D879F802D910D112408952F9283
:102660003F924F925F926F927F928F929F92AF9222
:10267000BF92CF92DF92EF92FF920F931F93CF936F
:10268000DF93CDB7DEB7CA1BDB0B0FB6F894DEBF06
:102690000FBECDBF09942A88398848885F846E842C
:1026A0007D848C849B84AA84B984C884DF80EE8076
:1026B000FD800C811B81AA81B981CE0FD11D0FB67F
:1026C000F894DEBF0FBECDBFED01089510E0CCE75A
:1026D000D0E004C0FE010E94230E2196CD37D10721
:0626E000C9F7F894FFCFDA
:1026E60001452020300020204220203000202057A5
:1026F6002031300020204120203000202047545433
:1027060054004920592033300049534220203000DC
:102716002020532020300020205720313000202058
:10272600412020300020204754545400492059208D
:1027360033300049535220203000202043202030DF
:102746000020205A20203000202045202030002064
:102756002042202030002020572031300020204108
:10276600202030002020475454540049205920335B
:1027760030004953522020300020204320203000D2
:1027860020205A202030002020000000002B01A726
:1027960000F400D200E600720100000000B701A7B5
:1027A600000B0223029E01B60153746172742073FA
:1027B6006F756E64207369676E616C200052656484
:1027C600206C69676874206F6E0059656C6C6F7752
:1027D600206C69676874206F6E00477265656E20AD
:1027E6006C69676874206F6E002A2A20446F207314
:1027F600657175656E6365207265636F72642061CD
:10280600742074696D65202873293A200020200001
:102816000D0A00456E642073657175656E6365000B
:10282600537465702073657175656E636520726596
:10283600636F72642000253033640053656E642034
:102846005400202874696D6520636F756E7420646A
:102856006F776E207365636F6E647329200025643D
:102866000053656E6420410020286E756D626572A6
:10287600206F66206172726F7773206C65667429AB
:102886000053656E6420613120284142292000539F
:10289600656E642061322028434429200053656E0A
:1028A60064205331202869732073686F6F74696ED2
:1028B60067290053656E6420533020286973206EA3
:1028C6006F742073686F6F74696E67290053656E45
:1028D60064205230202873657175656E63652069C2
:1028E60073206E6F742072756E6E696E6729005361
:1028F600656E64205231202873657175656E636557
:102906002072756E6E696E67290053656E6420527B
:1029160050202873657175656E63652070617573E7
:1029260065642900446F20636F6D6D616E6400738A
:102936007461727453657175656E6365004772657F
:10294600656E206475726174696F6E202873293A0A
:1029560020004172726F777320746F2073686F6FF7
:10296600743A20005468652073657175656E6365F9
:102976003A00202D207374617274732061742000F4
:0A298600730073657441424344007E
:00000001FF
