:1000000015C1000041C100003FC100003DC100001A
:100010003BC1000039C1000037C1000035C10000FC
:1000200033C1000049C4000047C4000045C40000BB
:100030002BC1000029C1000027C1000025C100001C
:1000400023C1000021C100001FC100001DC100002C
:100050001BC1000019C1000017C1000084C30000CB
:1000600013C10000F3C30000C8C300000DC10000AD
:100070000BC1000009C1000007C1000005C100005C
:1000800003C1000001C10000FFC00000FDC000006E
:10009000FBC00000F9C00000F7C00000F5C0000080
:1000A000F3C00000F1C00000EFC00000EDC0000090
:1000B000EBC00000E9C00000E7C00000E5C00000A0
:1000C000E3C00000E1C00000DFC00000DDC00000B0
:1000D000DBC00000D9C00000D7C00000D5C00000C0
:1000E000D3C0000073017601650169016D01AD01A6
:1000F0007A017E01840188018C01920196019A01A6
:10010000AD01A001A401A80100000A0B02090C0D19
:100110000E080703040100000000000000000000BA
:1001200000000000000000000000000000000000CF
:10013000000000001211100000000000000000008C
:1001400000000000000000000000000000000000AF
:100150002200250028002B002E003100340002016F
:100160000000050108010B01000021002400270008
:100170002A002D00300033000101000004010701B6
:100180000A01000020002300260029002C002F0077
:100190003200000100000301060109010505050503
:1001A000070508080808020202020A0A08080404EF
:1001B000040401010101010101010303030303031D
:1001C0000303040707070C0C0C0C0C0C0C0C0202AC
:1001D000020206060606060606060B0B0B0B0B0BA9
:1001E0000B0B010210202008081020401020408036
:1001F00002010201080402010102040810204080EB
:100200008040201008040201800402018040201078
:1002100008040201080402010102040810204080C1
:100220000102040810204080DA04520711241FBE86
:10023000CFEFD1E2DEBFCDBF00E00CBF12E0A0E007
:10024000B2E0EEE3FFE000E00BBF02C007900D92CA
:10025000A234B107D9F723E0A2E4B2E001C01D92B5
:10026000AB34B207E1F711E0C5E1D1E000E005C031
:1002700021970109802FFE0131D6C431D10780E0DA
:100280000807B1F777D44AC6BBCE362F90E0FC0101
:10029000E85FFE4F4491FC01EE51FE4F2491FC01BA
:1002A000E456FE4F9491992309F46AC0442309F45B
:1002B00054C050E0FA013197E231F10508F04DC029
:1002C0008827EE58FF4F8F4F09C6809180008F77A7
:1002D00007C0809180008F7D03C080918000877F60
:1002E000809380003AC084B58F7702C084B58F7D3B
:1002F00084BD33C08091B0008F7703C08091B0007F
:100300008F7D8093B00029C0809190008F7707C0C7
:10031000809190008F7D03C080919000877F8093B3
:1003200090001BC08091A0008F7707C08091A00033
:100330008F7D03C08091A000877F8093A0000DC0B7
:10034000809120018F7707C0809120018F7D03C0AD
:1003500080912001877F80932001E92FF0E0EE0F4C
:10036000FF1FE25BFE4FA591B4918FB7F894EC911B
:10037000311103C020952E2301C02E2B2C938FBF4B
:100380000895CF92DF92EF92FF920F931F93CF9336
:10039000DF936C017A018B01C0E0D0E0CE15DF0560
:1003A00089F0D8016D918D01D601ED91FC910190FC
:1003B000F081E02DC6011995892B11F47E0102C050
:1003C0002196ECCFC701DF91CF911F910F91FF9044
:1003D000EF90DF90CF900895FC01918D828D98175A
:1003E00061F0828DDF01A80FB11D5D968C91928D19
:1003F0009F5F9F73928F90E008958FEF9FEF089516
:10040000FC01918D828D981731F0828DE80FF11DDE
:10041000858D90E008958FEF9FEF0895FC01918DF9
:10042000228D892F90E0805C9F4F821B91098F73F2
:10043000992708958FE892E0F1DF21E0892B09F4F4
:1004400020E0822F0895FC01848DDF01A80FB11DEB
:10045000A35ABF4F2C91848D90E001968F739927FA
:10046000848FA689B7892C93A089B1898C918064E7
:100470008C93938D848D981306C00288F389E02DA8
:1004800080818F7D80830895EF92FF920F931F9359
:10049000CF93DF93EC0181E0888F9B8D8C8D981337
:1004A00005C0E889F989808185FD23C0F62E0B8D72
:1004B00010E00F5F1F4F0F731127E02E8C8DE81295
:1004C0000BC00FB607FCFACFE889F989808185FF58
:1004D000F5CFCE01B8DFF2CF8B8DFE01E80FF11D15
:1004E000E35AFF4FF0820B8FEA89FB89808180629B
:1004F00007C0EE89FF896083E889F989808180647B
:10050000808381E090E0DF91CF911F910F91FF9068
:10051000EF900895CF93DF93EC01888D8823C1F08D
:10052000EA89FB89808185FD05C0A889B9898C91FC
:1005300086FD0EC00FB607FCF5CF808185FFF2CF98
:10054000A889B9898C9185FFEDCFCE017CDFE8CFFA
:10055000DF91CF91089580E090E0892B19F06ADF58
:10056000811125C080E090E0892B41F080E090E08F
:10057000892B21F00E94000081111CC080E090E0D6
:10058000892B41F080E090E0892B21F00E9400004F
:10059000811113C080E090E0892BA1F080E090E011
:1005A000892B81F00E94000081110AC008950E94E9
:1005B0000000D8CF0E940000E1CF0E940000EACFE7
:1005C0000C94000008952091840230918502281730
:1005D000390771F49091820280918302981741F05B
:1005E000E0918202F0E0EE5BFD4F808190E00895A3
:1005F0008FEF9FEF089508951F93CF93DF93DC0152
:100600005C962D913C915D972115310539F481E07F
:1006100090E013969C938E9312973DC05196ED9166
:10062000FC91529750969C915097892F80951FB7B7
:100630005E964C915E9741FB772770F941FD60957E
:10064000F8944081772311F0492B01C0482340835F
:10065000E9012197F1F748E0508160FF02C0592B72
:1006600001C058235083E9012197F1F76695415065
:1006700099F7772321F090818923808303C08081BB
:10068000982B90831FBF5C968D919C915D970197ED
:10069000F1F721E030E0C901DF91CF911F9108957A
:1006A00020918402309185022817390761F48091E6
:1006B00083022091820290E0805C9F4F821B91090F
:1006C00060E470E0F8C380E090E008952091840237
:1006D0003091850228173907B9F4909182028091F0
:1006E0008302981789F0E0918202F0E0EE5BFD4F03
:1006F00080812091820230E02F5F3F4F2F7333279C
:100700002093820290E008958FEF9FEF0895E0918B
:100710008402F0918502E817F90769F4A389B48986
:100720009C918589809589238C93109285021092E3
:10073000840281E0089580E00895ECD3611571058D
:1007400079F0FB0101900020E9F73197AF01461BDA
:10075000570BDC01ED91FC910280F381E02D19949F
:1007600080E090E008951F920F920FB60F9211242F
:100770002F933F938F939F93AF93BF9380918B025F
:1007800090918C02A0918D02B0918E0230918A02DC
:1007900023E0230F2D3720F40196A11DB11D05C0C4
:1007A00026E8230F0296A11DB11D20938A02809393
:1007B0008B0290938C02A0938D02B0938E02809155
:1007C000860290918702A0918802B09189020196D9
:1007D000A11DB11D8093860290938702A093880289
:1007E000B0938902BF91AF919F918F913F912F91CB
:1007F0000F900FBE0F901F9018951F920F920FB67B
:100800000F9211240BB60F922F933F934F935F9348
:100810006F937F938F939F93AF93BF93EF93FF93C8
:100820008FE892E010DEFF91EF91BF91AF919F9121
:100830008F917F916F915F914F913F912F910F9089
:100840000BBE0F900FBE0F901F9018951F920F9226
:100850000FB60F9211240BB60F922F938F939F9385
:10086000EF93FF93E0919F02F091A0028081E091CD
:10087000A502F091A60282FD12C090818091A8028B
:100880008F5F8F732091A902821751F0E091A80227
:10089000F0E0E157FD4F958F8093A80201C0808161
:1008A000FF91EF919F918F912F910F900BBE0F9021
:1008B0000FBE0F901F9018951F920F920FB60F92B8
:1008C00011240BB60F922F933F934F935F936F9327
:1008D0007F938F939F93AF93BF93EF93FF93E09199
:1008E0008402F0918502309709F451C0968DA68557
:1008F000B785858591FF04C09C91892329F447C061
:100900009C91892309F043C0A389B4899C9185896E
:10091000809589238C93868997890197F1F7608D5B
:10092000718DA685B785558538E020E0CB0101970C
:10093000F1F7822F90E095958795282F4C914523CC
:1009400009F02068315091F7868D81FD20958091C6
:10095000830290E001968F739927309182023817B5
:1009600049F0A0918302B0E0AE5BBD4F2C93809321
:10097000830203C0868D8160868F828D938D01975F
:10098000F1F7A389B4899C918589892B8C93FF9178
:10099000EF91BF91AF919F918F917F916F915F91F7
:1009A0004F913F912F910F900BBE0F900FBE0F9064
:1009B0001F901895CF93DF9310929202109291029C
:1009C00088EE93E0A0E0B0E08093930290939402CD
:1009D000A0939502B093960224E032E03093900207
:1009E00020938F0225EC30E030939C0220939B02F1
:1009F00024EC30E030939E0220939D0220EC30E006
:100A00003093A00220939F0221EC30E03093A202A9
:100A10002093A10222EC30E03093A4022093A302A1
:100A200026EC30E03093A6022093A5021092A80293
:100A30001092A9021092AA021092AB0210922F03F8
:100A400010922E038093300390933103A0933203CE
:100A5000B093330384E192E090932D0380932C03B1
:100A600010924303109242031092450310924403E4
:100A700010924703109246031092490310924803C4
:100A800060914A036E7F6D7F60934A036695617043
:100A900081E068278BE0F9DBEDEEF1E02491E7EAF5
:100AA000F1E08491882399F090E0880F991FFC0170
:100AB000E859FE4FA591B491FC01E25BFE4F859190
:100AC00094918FB7F894EC91E22BEC938FBFEDEEFD
:100AD000F1E0E491E0933C03E7EAF1E0E491F0E037
:100AE000EE0FFF1FE25BFE4F8591949190933E03C2
:100AF00080933D03ECEEF1E02491E6EAF1E084918D
:100B00008823C1F090E0880F991FFC01E859FE4F3F
:100B1000C591D491FC01E25BFE4FA591B4919FB7C2
:100B2000F8948881E22FE0958E2388838C91E823C6
:100B3000EC939FBF80914A0381FD03C061E08AE08E
:100B4000A4DB8AE080933803ECEEF1E0E491E093DB
:100B50003903E6EAF1E0E491F0E0EE0FFF1FEE5713
:100B6000FE4F8591949190933B0380933A03DF91DC
:100B7000CF910895789484B5826084BD84B58160F6
:100B800084BD85B5826085BD85B5816085BD809158
:100B90006E00816080936E001092810080918100D0
:100BA00082608093810080918100816080938100C8
:100BB000809180008160809380008091B10084608A
:100BC0008093B1008091B00081608093B0008091EB
:100BD0009100826080939100809191008160809368
:100BE0009100809190008160809390008091A1009D
:100BF00082608093A1008091A10081608093A10018
:100C00008091A00081608093A0008091210182608A
:100C10008093210180912101816080932101809145
:100C2000200181608093200180917A00846080930C
:100C30007A0080917A00826080937A0080917A00B5
:100C4000816080937A0080917A00806880937A0036
:100C50001092C100E0919F02F091A00282E0808397
:100C6000E0919F02F091A0021082E0919B02F0912E
:100C70009C021082E0919D02F0919E0280E18083AF
:100C80001092A702E091A302F091A40286E0808373
:100C9000E091A102F091A202808180618083E091C5
:100CA000A102F091A202808188608083E091A1027C
:100CB000F091A202808180688083E091A102F0918E
:100CC000A20280818F7D808360E272E08FE892E0F3
:100CD00035DD60E372E08FE892E030DD109247038B
:100CE000109246031092450310924403109243035E
:100CF000109242038EE393E090934903809348035C
:100D00008091380396EF980F943048F02EEC280F1E
:100D1000243028F022EC280F283008F06EC02DE88F
:100D200031E030934303209342032CE333E03093CC
:100D300045032093440324E632E030934703209395
:100D40004603943060F02EEC280F243040F022EC63
:100D5000280F283008F49EC0A0E0B0E09DC0A8E6AF
:100D6000B0E0E8E6F0E02081943018F08E5388304F
:100D700010F081E001C084E0822B8C9380913803D5
:100D800096EF980F943058F02EEC280F243038F05E
:100D900022EC280F283030F020E030E005C02BE6B0
:100DA00030E002C02DE630E03093400320933F0353
:100DB000943010F49AEF0BC0823381F0833381F0CA
:100DC000843381F092EC980F983070F492EC980F85
:100DD00081E001C0880F9A95EAF707C088E005C056
:100DE00084E003C082E001C081E0809341038091F0
:100DF0004803909149030197F1F780914603909140
:100E00004703892B19F1809184029091850223E098
:100E10008C329207D9F0009709F079DC80914A036F
:100E20008E7F80934A0310928302109282028CE29A
:100E300093E09093850280938402E0913F03F091C8
:100E40004003908180914103892B808363E372E0AA
:100E50008CE293E073DC60E372E08CE293E06EDCA2
:100E60008CE293E01DDC892B39F08CE293E02EDCE0
:100E7000682F8FE892E008DB8FE892E0CFDA892BC9
:100E800039F08FE892E0A8DA682F8CE293E0B4DBC7
:100E900062DBE6CFA8E6B0E0283008F462CFE0E0FD
:100EA000F0E061CF84E192E090932D0380932C03D6
:100EB0008CE293E02CCC97FB072E16F4009406D01E
:100EC00077FD08D013D007FC05D03EF490958195AE
:100ED0009F4F0895709561957F4F0895EE0FFF1F06
:100EE000881F8BBF0790F691E02D1994AA1BBB1B9E
:100EF00051E107C0AA1FBB1FA617B70710F0A61B1A
:100F0000B70B881F991F5A95A9F780959095BC013A
:100F1000CD01089581E090E0F89400C011E0C5E1B2
:100F2000D1E000E005C0802FFE01D8DF2196011D31
:0E0F3000C631D10780E00807B1F7F894FFCF73
:100F3E00000000004402C1010E02EC0100028A0210
:100F4E0000000000FC02C10150036603E302FB0235
:100F5E00476F6F646E69676874206D6F6F6E2100E6
:100F6E000D0A0048656C6C6F2C20776F726C643FB5
:020F7E00000071
:00000001FF
