:100000001EC100004CC100004AC1000048C10000F0
:1000100046C1000044C1000042C1000040C10000D0
:100020003EC1000067C5000065C5000063C5000053
:1000300036C1000034C1000032C1000030C10000F0
:100040002EC100002CC100002AC1000028C1000000
:1000500026C1000024C1000022C10000A2C400008B
:100060001EC1000011C50000E6C4000018C1000058
:1000700016C1000014C1000012C1000010C1000030
:100080000EC100000CC100000AC1000008C1000040
:1000900006C1000004C1000002C1000000C1000050
:1000A000FEC00000FCC00000FAC00000F8C0000064
:1000B000F6C00000F4C00000F2C00000F0C0000074
:1000C000EEC00000ECC00000EAC00000E8C0000084
:1000D000E6C00000E4C00000E2C00000E0C0000094
:1000E000DEC000006B016E015D0161016701A501C9
:1000F000720176017C01800184018A018E019201E6
:10010000A50198019C01A001E009F109F809FF0986
:10011000060A0D0A140A610A730A0000210024006D
:1001200027002A002D0030003300010100000401E7
:1001300007010A0100000A0B02090C0D0E08070353
:1001400004010000000000000000000000000000AA
:10015000000000000000000000000000000000009F
:10016000121110000000000000000000000000005C
:100170000000000000000000000000002200250038
:1001800028002B002E003100340002010000050180
:1001900008010B01000020002300260029002C008C
:1001A0002F003200000100000301060109010505CE
:1001B0000505070508080808020202020A0A0808DD
:1001C000040404040101010101010101030303030B
:1001D00003030303040707070C0C0C0C0C0C0C0C9A
:1001E0000202020206060606060606060B0B0B0BAB
:1001F0000B0B0B0B010210202008081020401020D0
:1002000040800201020108040201010204081020DA
:1002100040808040201008040201800402018040D8
:100220002010080402010804020101020408102041
:1002300040800102040810204080F8056A0B112458
:100240001FBECFEFD1E2DEBFCDBF00E00CBF12E09A
:10025000A0E0B2E0EEE8FDE100E00BBF02C00790D5
:100260000D92A83CB107D9F725E0A8ECB2E001C097
:100270001D92AC3AB207E1F711E0CEE1D1E000E027
:1002800006C021970109802FFE010E94A80BCD31E5
:10029000D10780E00807A9F752D50C94B60EB0CE6E
:1002A00090E0FC013197E231F10508F04EC088275B
:1002B000EE58FF4F8F4F0C94A80B809180008F77E2
:1002C00003C0809180008F7D80938000089580918D
:1002D0008000877FF9CF84B58F7702C084B58F7D8A
:1002E00084BD08958091B0008F7703C08091B000E5
:1002F0008F7D8093B0000895809190008F7707C024
:10030000809190008F7D03C080919000877F8093C3
:10031000900008958091A0008F7707C08091A00081
:100320008F7D03C08091A000877F8093A0000895F7
:10033000809120018F7707C0809120018F7D03C0BD
:1003400080912001877F809320010895CF93DF93D0
:10035000282F30E0F901EC5CFE4F8491F901EC505C
:10036000FE4FD491F901E255FE4FC491CC2389F0A0
:10037000811196DFEC2FF0E0EE0FFF1FEC56FE4FE1
:10038000A591B491EC91ED2381E090E021F480E01F
:1003900002C080E090E0DF91CF9108951F93CF934A
:1003A000DF93282F30E0F901EC5CFE4F8491F901D6
:1003B000EC50FE4FD491F901E255FE4FC491CC238D
:1003C000C1F0162F81116CDFEC2FF0E0EE0FFF1F54
:1003D000E658FE4FA591B4918FB7F894111105C05E
:1003E0009C91ED2FE095E92302C0EC91ED2BEC936D
:1003F0008FBFDF91CF911F910895CF93DF9390E04E
:10040000FC01EC50FE4F2491FC01E255FE4F84911B
:10041000882361F190E0880F991FFC01E65EFE4F92
:10042000C591D491FC01E658FE4FA591B49161119C
:1004300009C09FB7F8948881209582238883EC9126
:100440002E230BC0623061F49FB7F8943881822F5D
:10045000809583238883EC912E2B2C939FBF06C01D
:100460008FB7F894E8812E2B28838FBFDF91CF912F
:100470000895CF92DF92EF92FF920F931F93CF9345
:10048000DF936C017A018B01C0E0D0E0CE15DF056F
:1004900089F0D8016D918D01D601ED91FC9101900B
:1004A000F081E02DC6011995892B11F47E0102C05F
:1004B0002196ECCFC701DF91CF911F910F91FF9053
:1004C000EF90DF90CF900895FC01918D828D981769
:1004D00061F0828DDF01A80FB11D5D968C91928D28
:1004E0009F5F9F73928F90E008958FEF9FEF089525
:1004F000FC01918D828D981731F0828DE80FF11DEE
:10050000858D90E008958FEF9FEF0895FC01918D08
:10051000228D892F90E0805C9F4F821B91098F7301
:100520009927089580EF94E0F1DF21E0892B09F409
:1005300020E0822F0895FC01848DDF01A80FB11DFA
:10054000A35ABF4F2C91848D90E001968F73992709
:10055000848FA689B7892C93A089B1898C918064F6
:100560008C93938D848D981306C00288F389E02DB7
:1005700080818F7D80830895EF92FF920F931F9368
:10058000CF93DF93EC0181E0888F9B8D8C8D981346
:1005900005C0E889F989808185FD23C0F62E0B8D81
:1005A00010E00F5F1F4F0F731127E02E8C8DE812A4
:1005B0000BC00FB607FCFACFE889F989808185FF67
:1005C000F5CFCE01B8DFF2CF8B8DFE01E80FF11D24
:1005D000E35AFF4FF0820B8FEA89FB8980818062AA
:1005E00007C0EE89FF896083E889F989808180648A
:1005F000808381E090E0DF91CF911F910F91FF9078
:10060000EF900895CF93DF93EC01888D8823C1F09C
:10061000EA89FB89808185FD05C0A889B9898C910B
:1006200086FD0EC00FB607FCF5CF808185FFF2CFA7
:10063000A889B9898C9185FFEDCFCE017CDFE8CF09
:10064000DF91CF91089580E090E0892B19F06ADF67
:10065000811125C080E090E0892B41F080E090E09E
:10066000892B21F00E94000081111CC080E090E0E5
:10067000892B41F080E090E0892B21F00E9400005E
:10068000811113C080E090E0892BA1F080E090E020
:10069000892B81F00E94000081110AC008950E94F8
:1006A0000000D8CF0E940000E1CF0E940000EACFF6
:1006B0000C940000089520910A0330910B03281731
:1006C000390771F49091080380910903981741F05C
:1006D000E0910803F0E0E853FD4F808190E0089539
:1006E0008FEF9FEF089508951F93CF93DF93DC0161
:1006F0005C962D913C915D972115310539F481E08F
:1007000090E013969C938E9312973DC05196ED9175
:10071000FC91529750969C915097892F80951FB7C6
:100720005E964C915E9741FB772770F941FD60958D
:10073000F8944081772311F0492B01C0482340836E
:10074000E9012197F1F748E0508160FF02C0592B81
:1007500001C058235083E9012197F1F76695415074
:1007600099F7772321F090818923808303C08081CA
:10077000982B90831FBF5C968D919C915D970197FC
:10078000F1F721E030E0C901DF91CF911F91089589
:1007900020910A0330910B032817390761F48091E7
:1007A00009032091080390E0805C9F4F821B910910
:1007B00060E470E098C780E090E0089520910A031B
:1007C00030910B0328173907B9F4909108038091F1
:1007D0000903981789F0E0910803F0E0E853FD4F12
:1007E00080812091080330E02F5F3F4F2F73332724
:1007F0002093080390E008958FEF9FEF0895E09114
:100800000A03F0910B03E817F90769F4A389B48987
:100810009C918589809589238C9310920B0310926B
:100820000A0381E0089580E0089580918B04882375
:1008300021F086E18BDD019719F086E090E002C09F
:1008400083E090E0909301028093000208959CD78A
:100850006115710579F0FB0101900020E9F73197EE
:10086000AF01461B570BDC01ED91FC910280F38137
:10087000E02D199480E090E008958F929F92AF92BE
:10088000BF92CF92DF92EF92FF920F931F93CF937D
:10089000DF93CDB7DEB7A1970FB6F894DEBF0FBEDA
:1008A000CDBF6C01990FEE08FF08F7FE31C0E09153
:1008B000F004F091F1040190F081E02D6DE280EF01
:1008C00094E019958C0122273327A9012C193D09A1
:1008D0004E095F0919A2CE0181967C019AE0892E0A
:1008E000912CA12CB12CCA01B901A50194010ED7FC
:1008F000605DF70162937F012115310541055105C6
:1009000091F7BF0180EF94E0A3DF080F191F1EC00D
:10091000A701960119A28E010F5D1F4F8AE0C82E14
:10092000D12CE12CF12CCA01B901A7019601EED618
:10093000605DF80162938F01211531054105510574
:1009400091F7BF0180EF94E083DF8C016AE272E0EF
:1009500080EF94E07DDF800F911FA1960FB6F89491
:10096000DEBF0FBECDBFDF91CF911F910F91FF90E2
:10097000EF90DF90CF90BF90AF909F908F900895B1
:10098000CF93DF93BC0180EF94E062DFEC016AE279
:1009900072E080EF94E05CDF8C0F9D1FDF91CF91C0
:1009A00008951F920F920FB60F9211242F933F9329
:1009B0008F939F93AF93BF938091EC049091ED043C
:1009C000A091EE04B091EF043091EB0423E0230FEB
:1009D0002D3720F40196A11DB11D05C026E8230F77
:1009E0000296A11DB11D2093EB048093EC0490931B
:1009F000ED04A093EE04B093EF048091E70490918E
:100A0000E804A091E904B091EA040196A11DB11D8A
:100A10008093E7049093E804A093E904B093EA0478
:100A2000BF91AF919F918F913F912F910F900FBEEA
:100A30000F901F9018951F920F920FB60F921124CE
:100A40000BB60F922F933F934F935F936F937F93C8
:100A50008F939F93AF93BF93EF93FF9380EF94E0B7
:100A60006ADDFF91EF91BF91AF919F918F917F913F
:100A70006F915F914F913F912F910F900BBE0F900F
:100A80000FBE0F901F9018951F920F920FB60F92E6
:100A900011240BB60F922F938F939F93EF93FF9395
:100AA000E0910005F09101058081E0910605F0914B
:100AB000070582FD12C09081809109058F5F8F73B9
:100AC00020910A05821751F0E0910905F0E0E0510C
:100AD000FB4F958F8093090501C08081FF91EF91B5
:100AE0009F918F912F910F900BBE0F900FBE0F9083
:100AF0001F9018951F920F920FB60F9211240BB6EC
:100B00000F922F933F934F935F936F937F938F93A6
:100B10009F93AF93BF93EF93FF93E0910A03F091FC
:100B20000B03309709F451C0968DA685B78585854E
:100B300091FF04C09C91892329F447C09C9189238B
:100B400009F043C0A389B4899C9185898095892344
:100B50008C93868997890197F1F7608D718DA685B1
:100B6000B785558538E020E0CB010197F1F7822F5A
:100B700090E095958795282F4C91452309F02068A2
:100B8000315091F7868D81FD20958091090390E089
:100B900001968F73992730910803381749F0A09177
:100BA0000903B0E0A853BD4F2C938093090303C001
:100BB000868D8160868F828D938D0197F1F7A38951
:100BC000B4899C918589892B8C93FF91EF91BF917A
:100BD000AF919F918F917F916F915F914F913F91D5
:100BE0002F910F900BBE0F900FBE0F901F90189576
:100BF0001092F3041092F20488EE93E0A0E0B0E0CB
:100C00008093F4049093F504A093F604B093F70452
:100C10002EE032E03093F1042093F00425EC30E034
:100C20003093FD042093FC0424EC30E03093FF0467
:100C30002093FE0420EC30E0309301052093000562
:100C400021EC30E0309303052093020522EC30E0E4
:100C5000309305052093040526EC30E0309307051A
:100C6000209306051092090510920A0510920B05B3
:100C700010920C051092900510928F0580939105AB
:100C800090939205A0939305B09394058EE192E022
:100C900090938E0580938D051092A4051092A30564
:100CA0001092A6051092A5051092A8051092A7050E
:100CB0001092AA051092A9056091AB056E7F6D7F19
:100CC0006093AB056695617081E068278BE066DB19
:100CD00061E08BE092DBEFEFF1E0E491E0939D05C2
:100CE000E9EBF1E0E491F0E0EE0FFF1FE658FE4F74
:100CF0008591949190939F0580939E0560E08AE092
:100D00007CDB8091AB0581FD03C061E08AE046DBBE
:100D10008AE080939905EEEFF1E0E491E0939A0583
:100D2000E8EBF1E0E491F0E0EE0FFF1FEC56FE4F30
:100D30008591949190939C0580939B050895CF9302
:100D4000DF93CDB7DEB72D970FB6F894DEBF0FBE99
:100D5000CDBF789484B5826084BD84B5816084BD44
:100D600085B5826085BD85B5816085BD80916E0049
:100D7000816080936E00109281008091810082607A
:100D800080938100809181008160809381008091B7
:100D900080008160809380008091B10084608093A6
:100DA000B1008091B00081608093B000809191008B
:100DB0008260809391008091910081608093910086
:100DC000809190008160809390008091A10082606A
:100DD0008093A1008091A10081608093A100809107
:100DE000A00081608093A0008091210182608093A7
:100DF0002101809121018160809321018091200156
:100E000081608093200180917A00846080937A00D1
:100E100080917A00826080937A0080917A0081606C
:100E200080937A0080917A00806880937A00109293
:100E3000C10010920C031092D4041092D3041092AB
:100E4000D6041092D504E7EDF4E0119224E0EF3DD2
:100E5000F207D9F7E0910005F091010582E0808367
:100E6000E091FC04F091FD041082E091FE04F09109
:100E7000FF048FEC808310920805E0910405F09147
:100E8000050586E08083E0910205F09103058081ED
:100E900080618083E0910205F09103058081886084
:100EA0008083E0910205F091030580818068808352
:100EB000E0910205F091030580818F7D808310927F
:100EC000CA041092C9041092CC041092CB04109260
:100ED000CE041092CD041092D0041092CF04109240
:100EE000D2041092D1040EE110E0FF24F39460E0EC
:100EF000802F83DAF801EB58FB4FF0820F5F1F4F12
:100F000008321105A1F706E110E0FF24F394F8017F
:100F1000EB58FB4FF08260E0802F6FDA0F5F1F4FBE
:100F20000B311105A1F761E089E067DA60E089E043
:100F300035DA1092A8051092A7051092A605109216
:100F4000A5051092A4051092A3058EE393E090935B
:100F5000AA058093A9058091990596EF980F943082
:100F600048F02EEC280F243028F022EC280F2830EF
:100F700008F06EC02DE831E03093A4052093A3055E
:100F80002CE333E03093A6052093A50524E632E058
:100F90003093A8052093A705943060F02EEC280F1D
:100FA000243040F022EC280F283008F48BC3A0E056
:100FB000B0E08AC3A8E6B0E0E8E6F0E02081943033
:100FC00018F08E53883010F081E001C084E0822B4D
:100FD0008C938091990596EF980F943058F02EECF1
:100FE000280F243038F022EC280F283030F020E091
:100FF00030E005C02BE630E002C02DE630E0309353
:10100000A1052093A005943010F49AEF0BC0823311
:1010100081F0833381F0843381F092EC980F983023
:1010200070F492EC980F81E001C0880F9A95EAF76E
:1010300007C088E005C084E003C082E001C081E011
:101040008093A2058091A9059091AA050197F1F7D7
:101050008091A7059091A805892B19F180910A0329
:1010600090910B0345E08D389407D9F0009709F073
:10107000C6DB8091AB058E7F8093AB051092090390
:10108000109208038DE895E090930B0380930A0378
:10109000E091A005F091A10590818091A205892B96
:1010A000808375E6472E512C612C712CCE01089659
:1010B0009D878C87E6E02E2E312C8091E304909161
:1010C000E404A091E504B091E6040196A11DB11DD0
:1010D0008093E3049093E404A093E504B093E604C2
:1010E0002FB7F8948091EC049091ED04A091EE0458
:1010F000B091EF042FBF4091DF045091E004609164
:10110000E1047091E204841B950BA60BB70B893C9C
:101110009105A105B10540F01092D6041092D504B6
:101120001092D4041092D3048DE895E031DB892B22
:1011300009F43DC08DE895E041DB2091D504309164
:10114000D6042F5F3F4F3093D6042093D50421302F
:10115000310599F49FB7F8944091EC045091ED0457
:101160006091EE047091EF049FBF4093DF045093B1
:10117000E0046093E1047093E2042091D50430917F
:10118000D604882351F02830310539F0F901ED52A9
:10119000FB4F838381E090E006C0F901ED52FB4FE5
:1011A000138282E090E09093D4048093D3048091E2
:1011B000D3049091D404029709F071C08DE292E0BB
:1011C000DFDB87ED94E0DCDB8091D704833551F1E0
:1011D0002CF4813451F0823571F159C0843509F411
:1011E0004EC0813609F43EC052C080910602882369
:1011F00009F44DC08091D80489831A82CE010196EA
:1012000090D5181619064CF086E1A0D8019719F070
:1012100086E090E002C083E090E09093010280932A
:10122000000235C081E09091D804913309F080E04C
:10123000809307022CC08091D80491E0813309F09B
:1012400090E090930602992331F010920C038033C2
:10125000F1F4EBDA1CC08033D1F480910C038111DE
:1012600016C0F7CF81E090E02091D804213311F42B
:1012700080E090E0909303028093020208C088ED22
:1012800094E04FD59093090280930802F6DA109209
:10129000D6041092D5041092D4041092D30435E8E9
:1012A000E32E33E0F32E4BE6A42E44E0B42E55E2B9
:1012B000C52E54E0D52E0EE110E09924939463E3FB
:1012C000862EF801EB58FB4F8081882329F0802F70
:1012D0003DD821E0019709F020E0D5018C918111E2
:1012E00024C1222369F0F60180819181A281B3811A
:1012F0000196A11DB11D80839183A283B38306C093
:10130000D6011D921D921D921C921397F6018081A9
:101310009181A281B38184369105A105B10509F0BF
:1013200029C14082518262827382F7011082118248
:1013300012821382D5019C9268E372E080EF94E000
:1013400087DAC8019ADA61E472E080EF94E080DA2B
:10135000C80193DAF8017F97E930F10528F488276E
:10136000EC57FF4F8F4FF4C161E089E017D88091AF
:10137000020290910302892B91F4E1E0F0E0F093F6
:101380000302E09302026AE672E08DE895E060DA1B
:1013900060E08DE895E0A8D98CE592E00FC010924E
:1013A0000302109202026BE772E08DE895E050DADA
:1013B00060E08DE895E098D98DE692E0E1DA8EC0A4
:1013C000809106028111D6C090920C038091000298
:1013D000909101028230910514F001979CC025DAAA
:1013E000C9C061E089E00E94CE016EE772E06FC083
:1013F00061E089E00E94CE0160E872E068C061E0CF
:1014000089E00E94CE0167E872E061C061E089E096
:101410000E94CE016EE872E05AC061E089E00E944D
:10142000CE0163E972E053C0F3E5F98380910402D1
:1014300090910502009711F481E303C0019719F41C
:1014400082E38A8301C08A8220E22B831B8620915B
:1014500000023091010248E2429FC001439F900D7B
:1014600011244E979F938F93A6E9B2E0BF93AF9359
:10147000FD85FF932C852F938BD188858C8389855F
:101480008D838A858E831F826BE972E080EF94E002
:10149000DFD9CE01019674DA61E089E00E94CE01C5
:1014A000BE016F5F7F4F8DE895E0D2D960E089E0A3
:1014B0000E94CE010F900F900F900F900F900F9001
:1014C00059C061E089E00E94CE0163EB72E08DE8D3
:1014D00095E0BED960E08DE895E006D960E089E04E
:1014E0000E94CE0147C061E089E00E94CE0165EB19
:1014F00072E08DE895E0ACD960E08DE895E0F4D835
:1015000060E089E00E94CE0186E10E94A601019779
:1015100039F483E090E090930102809300022AC0A6
:10152000309201022092000225C021110DC0F70166
:1015300080819181A281B3810196A11DB11D80831B
:101540009183A283B38306C0D7011D921D921D9281
:101550001C921397F70180819181A281B381843617
:101560009105A105B10531F44082518262827382F6
:10157000F50110820F5F1F4FF4E0EF0EF11C2FEF0B
:10158000A21AB20A44E0C40ED11C0832110509F0B7
:1015900098CE09EC14E086E1A82EB12CEE24E39459
:1015A000F12C22E0C22ED12CD8018D909C90F50117
:1015B000EB58FB4F2081222339F08A2D0E94A6018F
:1015C00021E0019709F020E0822F90E0F80181935B
:1015D00091938F012223A9F1892899F567EB72E095
:1015E00080EF94E035D9C50148D9F8E1AF16B104D0
:1015F000D1F02CF447E1A416B10481F008C089E1D0
:10160000A816B104A9F09AE1A916B104B1F0A3E0BB
:10161000B0E0B0930102A093000213C03092010227
:10162000209200020EC0109205021092040209C01E
:10163000F0920502E092040204C0D0920502C0922A
:101640000402BFEFAB1ABB0AEBE1AE16B10409F01E
:10165000ABCF00E010E0809100029091010261E0C8
:10166000081719070CF060E0019708171907F1F443
:10167000809107028823D1F02FB7F8946091EC0491
:101680007091ED048091EE049091EF042FBF24EF50
:1016900031E040E050E03AD0DA01C9018170992789
:1016A000AA27BB27F1E08F27682F617083E0800FA6
:1016B0000E94CE010F5F1F4F0630110561F60E9498
:1016C0002303FBCCA8E6B0E0283008F475CCE0E0BA
:1016D000F0E074CC8EE192E090938E0580938D05BE
:1016E0008DE895E08CC897FB072E16F4009406D081
:1016F00077FD08D035D007FC05D03EF49095819554
:101700009F4F0895709561957F4F0895A1E21A2E1D
:10171000AA1BBB1BFD010DC0AA1FBB1FEE1FFF1F95
:10172000A217B307E407F50720F0A21BB30BE40BE5
:10173000F50B661F771F881F991F1A9469F760952C
:101740007095809590959B01AC01BD01CF010895E6
:10175000EE0FFF1F881F8BBF0790F691E02D1994A5
:10176000AA1BBB1B51E107C0AA1FBB1FA617B707C7
:1017700010F0A61BB70B881F991F5A95A9F78095E3
:101780009095BC01CD01089581E090E0F894EEC2FF
:101790000F931F93CF93DF93CDB7DEB72E970FB67E
:1017A000F894DEBF0FBECDBF0E891F8986E08C8303
:1017B0001A8309838FEF9FE79E838D83AE01465E78
:1017C0005F4F688D798DCE01019611D02F813885BC
:1017D000F801E20FF31F10822E960FB6F894DEBFC9
:1017E0000FBECDBFDF91CF911F910F9108952F9222
:1017F0003F924F925F926F927F928F929F92AF92A1
:10180000BF92CF92DF92EF92FF920F931F93CF93ED
:10181000DF93CDB7DEB72C970FB6F894DEBF0FBEBF
:10182000CDBF7C016B018A01FC0117821682838186
:1018300081FFB0C1CE0101964C01F7019381F60101
:1018400093FD859193FF81916F01882309F49EC1D7
:10185000853239F493FD859193FF81916F01853233
:1018600021F4B70190E0C7D1E8CF512C312C20E012
:101870002032A0F48B3269F030F4803259F0833298
:1018800069F420612CC08D3239F0803339F4216045
:1018900026C02260246023C0286021C027FD27C005
:1018A00030ED380F3A3078F426FF06C0FAE05F9E3C
:1018B000300D1124532E13C08AE0389E300D1124B0
:1018C000332E20620CC08E3221F426FD5FC12064CD
:1018D00006C08C3611F4206802C0883641F4F60147
:1018E00093FD859193FF81916F018111C1CF982F55
:1018F0009F7D9554933028F40C5F1F4FFFE3F983CD
:101900000DC0833631F0833771F0833509F057C04D
:1019100021C0F801808189830E5F1F4F44244394C6
:10192000512C540114C03801F2E06F0E711CF80103
:10193000A080B18026FF03C0652D70E002C06FEF6C
:101940007FEFC5012C874CD12C0183012C852F778B
:10195000222E16C03801F2E06F0E711CF801A08033
:10196000B18026FF03C0652D70E002C06FEF7FEFEE
:10197000C5012C872AD12C012C852068222E8301B9
:1019800023FC19C0832D90E048165906A0F4B70136
:1019900080E290E030D13A94F5CFF50127FC8591B3
:1019A00027FE81915F01B70190E025D131103A9473
:1019B000F1E04F1A51084114510479F7DEC0843622
:1019C00011F0893631F5F80127FF07C06081718178
:1019D000828193810C5F1F4F08C060817181072E47
:1019E000000C880B990B0E5F1F4F2F76722E97FFFE
:1019F00009C090958095709561957F4F8F4F9F4F4F
:101A00002068722E2AE030E0A4012DD1A82EA8185B
:101A100043C0853729F42F7EB22E2AE030E025C05E
:101A2000F22FF97FBF2E8F36C1F018F4883579F088
:101A3000ADC0803719F0883721F0A8C02F2F206162
:101A4000B22EB4FE0DC08B2D8460B82E09C024FFC9
:101A50000AC09F2F9660B92E06C028E030E005C06E
:101A600020E130E002C020E132E0F801B7FE07C01B
:101A700060817181828193810C5F1F4F06C06081FC
:101A8000718180E090E00E5F1F4FA401ECD0A82E82
:101A9000A818FB2DFF777F2E76FE0BC0372D3E7FDB
:101AA000A51450F474FE0AC072FC08C0372D3E7EA7
:101AB00005C0BA2C372D03C0BA2C01C0B52C34FF99
:101AC0000DC0FE01EA0DF11D8081803311F4397ED5
:101AD00009C032FF06C0B394B39404C0832F867844
:101AE00009F0B39433FD12C030FF06C05A2CB31472
:101AF00018F4530C5B18B32CB31460F4B70180E2F4
:101B000090E03C8778D0B3943C85F6CFB31410F4C2
:101B10003B1801C0312C34FF11C0B70180E390E0C5
:101B20003C8769D03C8532FF16C031FD03C088E791
:101B300090E002C088E590E0B7010CC0832F867862
:101B400051F031FF02C08BE201C080E237FD8DE22F
:101B5000B70190E050D0A51430F4B70180E390E0D5
:101B60004AD05A94F8CFAA94F401EA0DF11D80816D
:101B7000B70190E040D0A110F6CF332009F45DCE3C
:101B8000B70180E290E037D03A94F7CFF701868131
:101B9000978102C08FEF9FEF2C960FB6F894DEBFAF
:101BA0000FBECDBFDF91CF911F910F91FF90EF90AE
:101BB000DF90CF90BF90AF909F908F907F906F906D
:101BC0005F904F903F902F900895FC0105906150D9
:101BD00070400110D8F7809590958E0F9F1F089543
:101BE000FC016150704001900110D8F780959095EC
:101BF0008E0F9F1F08950F931F93CF93DF93FB01C9
:101C0000238121FD03C08FEF9FEF28C022FF16C064
:101C100046815781248135814217530744F4A081BE
:101C2000B1819D012F5F3F4F318320838C932681AB
:101C300037812F5F3F4F3783268310C0EB01092F79
:101C4000182F0084F185E02D1995892BE1F68E81FE
:101C50009F8101969F838E83812F902FDF91CF915B
:101C60001F910F910895FA01AA27283051F12031D0
:101C700081F1E8946F936E7F6E5F7F4F8F4F9F4F20
:101C8000AF4FB1E03ED0B4E03CD0670F781F891F62
:101C90009A1FA11D680F791F8A1F911DA11D6A0F30
:101CA000711D811D911DA11D20D009F468943F91E3
:101CB0002AE0269F11243019305D3193DEF6CF01E2
:101CC0000895462F4770405D4193B3E00FD0C9F7A8
:101CD000F6CF462F4F70405D4A3318F0495D31FD15
:101CE0004052419302D0A9F7EACFB4E0A695979568
:101CF000879577956795BA95C9F70097610571053E
:101D000008959B01AC010A2E069457954795379587
:101D10002795BA95C9F7620F731F841F951FA01DE1
:101D20000895FC0188279927E89421912032E9F34E
:101D3000293010F02E30C8F32B3239F02D3231F427
:101D4000689403C00BD0820F911D219120532A303B
:101D5000C8F31EF4909581959F4F08957AE0979F60
:101D6000902D879F802D910D1124089511E0CEE1D3
:101D7000D1E000E005C0802FFE01EADC2196011DC4
:0E1D8000CF31D10780E00807B1F7F894FFCF0C
:101D8E000300000000000000000000000000BC0284
:101D9E003902860264027802020300000000740316
:101DAE003902C803DE035B0373030D0A00446F2080
:101DBE00636F6D6D616E6400427574746F6E3A2060
:101DCE0000506572666F726D20616374696F6E206C
:101DDE00666F7220627574746F6E200053656E6448
:101DEE007320636F6D6D616E642041320053656EBA
:101DFE00647320636F6D6D616E642041310052001B
:101E0E004C475245454E004C59454C4C4F004C5298
:101E1E004544005A3100253033640053656E64200A
:101E2E0073657175656E636520636F6D6D616E644C
:101E3E003A20005000490055706461746520737437
:081E4E00617475733A20000075
:00000001FF
