:100000000C9463000C948B000C948B000C940703ED
:100010000C9407030C9407030C948B000C948B0036
:100020000C948B000C948B000C948B000C948B0024
:100030000C948B000C948B000C948B000C948B0014
:100040000C94BF040C948B000C94D5020C94AF025A
:100050000C948B000C948B000C948B000C948B00F4
:100060000C948B000C948B000000000024002700EF
:100070002A0000000008000201000003040700003D
:1000800000000000000000000000250028002B00F8
:1000900000000000230026002900040404040404D6
:1000A0000404020202020202030303030303010227
:1000B00004081020408001020408102001020408F6
:1000C0001020450C3B0C11241FBECFEFD8E0DEBF43
:1000D000CDBF14E0A0E0B1E0E2EBF5E202C0059094
:1000E0000D92AE30B107D9F726E0AEE0B4E001C022
:1000F0001D92AF35B207E1F710E0C2E6D0E004C0D0
:100100002197FE010E94A40DC136D107C9F70E94B4
:1001100009050C94CC120C940000CF92DF92EF9260
:10012000FF920F931F93CF93DF936C017A018B01A2
:10013000C0E0D0E0CE15DF0589F0D8016D918D01CA
:10014000D601ED91FC910190F081E02DC601099559
:10015000892B11F47E0102C02196ECCFC701DF91FB
:10016000CF911F910F91FF90EF90DF90CF90089566
:10017000FC01918D828D981761F0828DDF01A80FAF
:10018000B11D5D968C91928D9F5F9F73928F90E0D1
:1001900008958FEF9FEF0895FC01918D828D981740
:1001A00031F0828DE80FF11D858D90E008958FEF7D
:1001B0009FEF0895FC01918D228D892F90E0805C46
:1001C0009F4F821B91098F73992708958EE594E0C4
:1001D0000E94DA0021E0892B09F420E0822F0895A3
:1001E000FC01848DDF01A80FB11DA35ABF4F2C91D4
:1001F000848D90E001968F739927848FA689B789A3
:100200002C93A089B1898C9180648C93938D848D7B
:10021000981306C00288F389E02D80818F7D80834A
:100220000895EF92FF920F931F93CF93DF93EC010A
:1002300081E0888F9B8D8C8D981305C0E889F989A2
:10024000808185FD24C0F62E0B8D10E00F5F1F4FBF
:100250000F731127E02E8C8DE8120CC00FB607FC2F
:10026000FACFE889F989808185FFF5CFCE010E9418
:10027000F000F1CF8B8DFE01E80FF11DE35AFF4F27
:10028000F0820B8FEA89FB898081806207C0EE894A
:10029000FF896083E889F98980818064808381E0B7
:1002A00090E0DF91CF911F910F91FF90EF90089513
:1002B000CF93DF93EC01888D8823C9F0EA89FB890D
:1002C000808185FD05C0A889B9898C9186FD0FC004
:1002D0000FB607FCF5CF808185FFF2CFA889B989D9
:1002E0008C9185FFEDCFCE010E94F000E7CFDF912A
:1002F000CF91089580E090E0892B29F00E94E600DC
:1003000081110C9400000895209150043091510403
:100310002817390771F490914E0480914F04981773
:1003200041F0E0914E04F0E0E25FFB4F808190E00D
:1003300008958FEF9FEF089508951F93CF93DF9354
:10034000DC015C962D913C915D972115310539F4C6
:1003500081E090E013969C938E9312973DC0519646
:10036000ED91FC91529750969C915097892F8095D2
:100370001FB75E964C915E9741FB772770F941FD60
:100380006095F8944081772311F0492B01C04823F0
:100390004083E9012197F1F748E0508160FF02C0F6
:1003A000592B01C058235083E9012197F1F7669535
:1003B000415099F7772321F090818923808303C0EE
:1003C0008081982B90831FBF5C968D919C915D9747
:1003D0000197F1F721E030E0C901DF91CF911F9142
:1003E000089520915004309151042817390771F471
:1003F00080914F0420914E0490E0805C9F4F821BBF
:10040000910960E470E00E94340D089580E090E06E
:100410000895209150043091510428173907B9F4F8
:1004200090914E0480914F04981789F0E0914E040A
:10043000F0E0E25FFB4F808120914E0430E02F5FBF
:100440003F4F2F73332720934E0490E008958FEF92
:100450009FEF0895E0915004F0915104E817F907D7
:1004600069F4A389B4899C918589809589238C93AB
:10047000109251041092500481E0089580E0089594
:10048000CF93DF93EC0189EC91E00E941704CE0139
:100490000E941904EBEFF4E081E08483D183C083F0
:1004A00080915A0490915B04A0915C04B0915D042A
:1004B00085839683A783B087DF91CF91089561E00C
:1004C00082E00E942B0461E083E00E942B0461E043
:1004D00084E00C942B040E945F0260E082E00E94A2
:1004E0002B048DED91E00C9493030E946B0210920B
:1004F0001D0681E080931E061092050510920405EA
:1005000080931F06109223061092220680932406E1
:1005100010921606109217061092180610921906DD
:1005200010921B0610921A0680931C061092260643
:1005300008950E945F0260E083E00E942B048AEE2F
:1005400091E00C9493030E945F0260E084E00E94BB
:100550002B048AEF91E00C9493030E94C90F1F9221
:100560000F920FB60F9211242F933F934F935F93E7
:100570006F937F938F939F93AF93BF93EF93FF936B
:100580008EE594E00E94F000FF91EF91BF91AF9152
:100590009F918F917F916F915F914F913F912F919B
:1005A0000F900FBE0F901F9018951F920F920FB6CD
:1005B0000F9211242F938F939F93EF93FF93E091CA
:1005C0006E04F0916F048081E0917404F0917504E1
:1005D00082FD12C09081809177048F5F8F7320918C
:1005E0007804821751F0E0917704F0E0E25AFB4F73
:1005F000958F8093770401C08081FF91EF919F9147
:100600008F912F910F900FBE0F901F9018951F92F2
:100610000F920FB60F9211242F933F934F935F9336
:100620006F937F938F939F93AF93BF93EF93FF93BA
:10063000E0915004F0915104309709F451C0968D27
:10064000A685B785858591FF04C09C91892329F4EF
:1006500047C09C91892309F043C0A389B4899C9128
:100660008589809589238C93868997890197F1F7ED
:10067000608D718DA685B785558538E020E0CB016A
:100680000197F1F7822F90E095958795282F4C914F
:10069000452309F02068315091F7868D81FD209522
:1006A00080914F0490E001968F73992730914E040A
:1006B000381749F0A0914F04B0E0A25FBB4F2C93D4
:1006C00080934F0403C0868D8160868F828D938DC9
:1006D0000197F1F7A389B4899C918589892B8C9323
:1006E000FF91EF91BF91AF919F918F917F916F910A
:1006F0005F914F913F912F910F900FBE0F901F90E0
:100700001895009769F0FC0101900020E9F73197F6
:10071000AF01481B590BBC018EE594E00C948D0091
:1007200080E090E00895CF93DF930E948103EC0175
:1007300080E392E00E9481038C0F9D1FDF91CF9197
:1007400008958F929F92AF92BF920F931F93CF9372
:10075000DF93CDB7DEB7A1970FB6F894DEBF0FBE1B
:10076000CDBF19A2423008F44AE08E010F5D1F4F41
:10077000842E912CA12CB12CA50194010E94480D2E
:10078000E62FB901CA0101501109EA3014F4E05D05
:1007900001C0E95CD801EC93232B242B252B61F7B6
:1007A000C8010E948103A1960FB6F894DEBF0FBE68
:1007B000CDBFDF91CF911F910F91BF90AF909F90D0
:1007C0008F900895E0915E04F0915F040190F081B4
:1007D000E02D682F8EE594E00994CF92DF92EF929E
:1007E000FF92CF93DF9397FF19C06B017C018DE2DD
:1007F0000E94E203EC0166277727CB016C197D0983
:100800008E099F094AE00E94A1038C0F9D1FDF9172
:10081000CF91FF90EF90DF90CF9008954AE0DF9165
:10082000CF91FF90EF90DF90CF900C94A1030C94A8
:100830008103CF93DF93BC01990F880B990B0E9422
:10084000ED03EC0180E392E00E9481038C0F9D1F79
:10085000DF91CF91089590E0FC01EE58FF4F349165
:10086000FC01E255FF4F2491FC01E656FF4FE49155
:10087000EE2309F43BC0332339F1333091F038F4DF
:100880003130A9F0323001F584B58F7D12C0373098
:1008900091F03830A1F03430B9F4809180008F7D30
:1008A00003C0809180008F77809380000DC084B555
:1008B0008F7784BD09C08091B0008F7703C080918D
:1008C000B0008F7D8093B000F0E0EE0FFF1FEA577D
:1008D000FF4FA591B4918FB7F894EC91611103C0CB
:1008E00020952E2301C02E2B2C938FBF0895CF93DC
:1008F000DF9390E0FC01E255FF4F2491FC01E656A6
:10090000FF4F8491882361F190E0880F991FFC01CB
:10091000E859FF4FC591D491FC01EA57FF4FA591CB
:10092000B491611109C09FB7F89488812095822302
:100930008883EC912E230BC0623061F49FB7F8944A
:100940003881822F809583238883EC912E2B2C93E2
:100950009FBF06C08FB7F894E8812E2B28838FBFE6
:10096000DF91CF9108952FB7F89460915B06709155
:100970005C0680915D0690915E062FBF08951F92E0
:100980000F920FB60F9211242F933F938F939F9343
:10099000AF93BF9380915B0690915C06A0915D063A
:1009A000B0915E0630915A0623E0230F2D3720F4D4
:1009B0000196A11DB11D05C026E8230F0296A11DB9
:1009C000B11D20935A0680935B0690935C06A0931A
:1009D0005D06B0935E068091560690915706A091F1
:1009E0005806B09159060196A11DB11D8093560677
:1009F00090935706A0935806B0935906BF91AF91B4
:100A00009F918F913F912F910F900FBE0F901F904C
:100A10001895CF93DF93CDB7DEB72F970FB6F89425
:100A2000DEBF0FBECDBF789484B5826084BD84B52F
:100A3000816084BD85B5826085BD85B5816085BDD9
:100A400080916E00816080936E0010928100809191
:100A50008100826080938100809181008160809319
:100A60008100809180008160809380008091B1003E
:100A700084608093B1008091B00081608093B00069
:100A800080917A00846080937A0080917A008260FD
:100A900080937A0080917A00816080937A008091BF
:100AA0007A00806880937A001092C100E0916E0411
:100AB000F0916F0482E08083E0916A04F0916B040E
:100AC0001082E0916C04F0916D048FEC80831092A1
:100AD0007604E0917204F091730486E08083E091E3
:100AE0007004F0917104808180618083E0917004D2
:100AF000F0917104808188608083E0917004F091AE
:100B00007104808180688083E0917004F0917104A9
:100B100080818F7D808361E089E00E94770461E0BD
:100B200082E00E94770461E083E00E94770461E044
:100B300084E00E94770461E085E00E94770461E030
:100B400086E00E94770461E087E00E9477040E94BB
:100B50005F020091000111E0602F612785E00E9493
:100B60002B04602F86E00E942B041093250661E081
:100B700087E00E942B0460E089E00E942B04109221
:100B80005206109251061092500610924F06109283
:100B90004E0610924D068EE393E090935406809398
:100BA000530690914306963108F057C02DE831E086
:100BB00030934E0620934D062CE333E030935006DD
:100BC00020934F0624E632E03093520620935106DC
:100BD00020916800983050F031E09E3008F430E009
:100BE00081E001C0880F3A95EAF701C084E0822BCA
:100BF00080936800983038F09E3040F0963148F08D
:100C000020E030E008C02DE630E005C02BE630E003
:100C100002C02CE630E030934B0620934A06983011
:100C200030F481E001C0880F9A95EAF70EC0292FB1
:100C300030E09E3018F42850310902C02E5031099E
:100C400081E001C0880F2A95EAF780934C068091D5
:100C50005306909154060197F1F7809151069091B7
:100C60005206892B21F1809150049091510426E085
:100C700087339207E1F0009711F00E942A028091D9
:100C800055068E7F8093550610924F0410924E04A5
:100C900087E396E09093510480935004E0914A06D4
:100CA000F0914B06908180914C06892B80830E94A5
:100CB000B30460935A0470935B0480935C04909334
:100CC0005D040E946B0248EEC42E43E0D42EE12C5A
:100CD000F12CAE014F5F5F4F1A0180905A04909043
:100CE0005B04A0905C04B0905D04809256049092E6
:100CF0005704A0925804B09259040E94B304609320
:100D00005A0470935B0480935C0490935D04DC014F
:100D1000CB0188199909AA09BB09809352049093C1
:100D20005304A0935404B0935504209104053091CA
:100D3000050521303105A9F400910E0510910F052C
:100D40002091100530911105080F191F2A1F3B1F14
:100D500000930E0510930F05209310053093110595
:100D600028C023303105A9F4009112051091130514
:100D70002091140530911505080F191F2A1F3B1FDC
:100D80000093120510931305209314053093150555
:100D900010C010920E0510920F05109210051092BF
:100DA000110510921205109213051092140510925D
:100DB000150520911D062223B1F000911606109111
:100DC00017062091180630911906B901A801481B91
:100DD000590B6A0B7B0B40931606509317066093D2
:100DE000180670931906809106059091070527E073
:100DF000289FF001299FF00D1124EC5FFA4F128912
:100E00001A3531F464E070E07093050560930405D1
:100E100020910405309105052130310509F0D2C03B
:100E200020910805309109052817390709F49FC05A
:100E300089E092E00E94170460910E0570910F0501
:100E40008091100590911105A70196010E94480D0F
:100E5000CA01B9014AE00E94A1038DE292E00E941A
:100E600017046091060570910705072E000C880B8A
:100E7000990B0E94ED038DE292E00E941704812FEE
:100E80000E94E20380E392E00E948103173409F498
:100E900048C054F41234E9F11334F1F1113409F07B
:100EA0005EC081E090E03AC0133509F448C034F5E3
:100EB000123509F054C080911D0680931E061092D1
:100EC0001D066091200670912106072E000C880BEC
:100ED000990B0E94D00E20E030E44CE157E40E94D0
:100EE0005C0F0E94980E609316067093170680930D
:100EF0001806909319060E946B0231C01935E1F073
:100F00001A3569F583E392E00E9493030E9475020B
:100F100026C082E090E002C083E090E00E944002A0
:100F20001EC080911D0691E0892780931E06909334
:100F30001D060E94A30213C00E94990210C0609176
:100F4000000111E0062F01270093000185E00E94B7
:100F50002B04602F86E00E942B04109325068091BD
:100F600006059091070590930905809308058091E7
:100F70000605909107050196FC01EE0FFF1FEE0F8D
:100F8000FF1FEA56FA4F00910E0510910F052091B0
:100F900010053091110540815181628173810417E0
:100FA00015072607370770F090930705809306050D
:100FB00080E492E00E941704809106059091070555
:100FC0000E9419048091FF04882381F180905A04C3
:100FD00090905B04A0905C04B0905D04809100054B
:100FE00090910105A0910205B0910305881A990A14
:100FF000AA0ABB0A8091FB049091FC04880F991FF8
:1010000001974091FD045091FE04849F9001859FBB
:10101000300D949F300D1124A90160E070E081E053
:1010200084169506A606B70608F080E08093FF04B4
:10103000882309F180915A0490915B04A0915C048B
:10104000B0915D0400910005109101052091020509
:1010500030910305BC01CD01601B710B820B930B1A
:101060002091FD043091FE0440E050E00E94480DC4
:10107000622F617001C061E087E00E942B046091E3
:101080001606709117068091180690911906009126
:1010900020061091210616161706180619068CF45C
:1010A00028E2209F5001219FB00C1124A701960136
:1010B0000E946A0D2F5F3F4FA216B30624F49501DC
:1010C00002C020E030E081E040911A0650911B06FA
:1010D0002417350709F480E080931C0630931B0623
:1010E00020931A062115310549F0C901019768E2DC
:1010F00070E00E94340D6F5F7F4F02C060E070E0CF
:10110000061717070CF4B80181E0209122063091F0
:1011100023062617370709F480E08093240670938E
:101120002306609322068823A9F1109224061A82CE
:101130007F936F93A6E5B2E0BF93AF933F922F9258
:101140000E94CE0F61E089E00E942B0461E487E3F6
:1011500096E00E949D01698187E396E00E949D01CF
:1011600060E087E396E00E949D0160E089E00E94D4
:101170002B0489E592E00E94170489810E94E20312
:1011800080E792E00E9493030F900F900F900F90D2
:101190000F900F9080911C06882309F460C0109274
:1011A0001C061C8280911B068F9380911A068F93D8
:1011B000A9E8B2E0BF93AF933F922F920E94CE0F67
:1011C00061E089E00E942B0464E587E396E00E94D9
:1011D0009D01698187E396E00E949D016A8187E312
:1011E00096E00E949D016B8187E396E00E949D013D
:1011F00060E087E396E00E949D0160E089E00E9444
:101200002B048EE892E00E941704C1010E9417048B
:1012100085EA92E00E94170460910E0570910F0517
:1012200080911005909111054AE00E94A1038DE282
:1012300092E00E9417046091160670911706809143
:101240001806909119060E94ED0380E392E00E9437
:1012500081030F900F900F900F900F900F9080913F
:101260002506882339F11092250661E089E00E9465
:101270002B0461E687E396E00E949D0180910001C6
:10128000882331F081EC92E00E94930361E305C072
:101290008FED92E00E94930362E387E396E00E9461
:1012A0009D0160E087E396E00E949D0160E089E097
:1012B0000E942B0480911E06882349F110921E067D
:1012C00061E089E00E942B0463E587E396E00E94D9
:1012D0009D0180911D06882341F061E387E396E03C
:1012E0000E949D018DEF92E007C060E387E396E0E6
:1012F0000E949D0183E293E00E94930360E087E3F4
:1013000096E00E949D0160E089E00E942B0480919C
:101310001F06882379F110921F0661E089E00E9480
:101320002B0461E089E00E942B0462E587E396E0EC
:101330000E949D018091040590910505019741F45B
:1013400061E387E396E00E949D018DE493E007C08E
:1013500060E387E396E00E949D0188E793E00E94A6
:10136000930360E087E396E00E949D0160E089E0DE
:101370000E942B040E94B30400913306109134069E
:101380002091350630913606DC01CB01801B910B94
:10139000A20BB30B893C9105A105B10540F0109259
:1013A0002A0610922906109228061092270687E333
:1013B00096E00E94F101892B09F443C087E396E08F
:1013C0000E940902182F8091290690912A06019601
:1013D00090932A0680932906019721F50E94B30471
:1013E00060933306709334068093350690933606E7
:1013F000112349F02091290630912A062830310521
:1014000009F032C211C08091290690912A060197F5
:1014100059F410922A06109229061092280610926A
:1014200027060FC01111E6CFE0912906F0912A0698
:10143000E95DF94F138282E090E090932806809353
:1014400027068091270690912806029709F009C285
:10145000109228061092270687EA93E00E949303D1
:101460008BE296E00E94930380912B06803509F46D
:10147000D9C154F4893409F496C18C3409F47AC181
:10148000813409F0E6C160C1833549F08A3509F439
:1014900083C1823509F0DDC10E947502DAC18091F5
:1014A000040590910505039779F481E090E090930D
:1014B0000505809304058091260680931D06809380
:1014C0001E0610922606C5C182EB93E00E9493038C
:1014D000F0912C06F9878EE296E00E946F129E83AF
:1014E0008D8380EC93E00E9417048D819E810E9481
:1014F00019042D813E81B901330F880B990B0E948D
:10150000D00E20E030E040EF51E40E94BA0D20E020
:1015100030E040E252E40E94260E20E030E040E05D
:101520005FE30E94BA0D0E94980E709321066093AB
:10153000200621E020932406072E000C880B990B2F
:101540000E94D00E20E030E44CE157E40E945C0F92
:101550000E94980E609316067093170680931806E3
:101560009093190610921D0685ED93E00E941704D2
:1015700080912006909121060E941904398531330B
:1015800019F041E051E002C04AE651E05D874C8726
:1015900066E975E07F876E8796E1A92E95E0B92E02
:1015A0007B876A87812C912C412C512C3201188623
:1015B0001F82AA85BB854D925D926D927D92BB87FD
:1015C000AA87EC85FD85E80DF91D80E090E0840197
:1015D0000C5F1A4F2191D801A80FB91F52962C9376
:1015E000019687309105B1F7F50180818734F9F4D0
:1015F0001C82FE81FF932D812F93A9E8B2E0BF9357
:10160000AF933F922F920E94CE0F8981D8015396BB
:101610008C9353978A8154968C9354978B815596CB
:101620008C930F900F900F900F900F900F90B985A3
:10163000B33331F4F5018081833511F425E420833F
:10164000D5011C914F81588550930705409306059D
:10165000C401895E9A4F0E946F1228EE33E0DC01CC
:101660000E94890D460E571E681E791E4F815885AF
:101670004F5F5F4F58874F8357E0A50EB11C67E05F
:10168000860E911C1A3509F094CF81E090E090937A
:1016900005058093040510920705109206050E9427
:1016A000B30460930A0570930B0580930C05909327
:1016B0000D0510920E0510920F0510921005109254
:1016C0001105109212051092130510921405109234
:1016D000150581E080931F0687EE93E00E94930337
:1016E00004E015E0812C912C5801F801E80DF91D5A
:1016F0008289811101C080E20E94E2037FEF871A94
:10170000970A87E08816910481F785EF93E00E949D
:101710001704AE85BF856D917D918D919D91BF8799
:10172000AE87A70196010E94480DCA01B9010E9427
:10173000ED0383E094E00E949303095F1F4FF501DE
:1017400082898A3579F685C085E094E00E9493030A
:1017500011E080912C06813309F010E01093000114
:1017600061E0612785E00E942B04612F86E00E94E2
:101770002B046FC080912C06823541F0893549F0E9
:10178000873409F066C00E94A30263C00E946B0206
:1017900060C00E9499025DC08CE296E00E946F12C8
:1017A0000E94400256C0809106059091070547E0CF
:1017B000489F9001499F300D1124F901EA5EFA4FCC
:1017C00045814934B9F0E0910605F0910705EE0F27
:1017D000FF1FEE0FFF1FEA56FA4F80819181A28111
:1017E000B38180930E0590930F05A0931005B093DD
:1017F00011052FC0F901EC5FFA4F42894A3519F300
:1018000040E050E00196495F5F4FFA01E20FF31F9D
:10181000EC5FFA4F608D6335A9F3909307058093D1
:101820000605D1CF8091040590910505019789F4B3
:1018300083E090E0909305058093040580911D0658
:1018400080932606882329F010921D0681E080935C
:101850001E0610922A06109229061092280610924F
:1018600027060E947A0139CAF901E95DF94F13830D
:1018700081E090E0E2CD8DEB91E09093380680938B
:10188000370687E396E00C942A02109261041092C6
:10189000600488EE93E0A0E0B0E08093620490934F
:1018A0006304A0936404B09365042DEA31E030939F
:1018B0005F0420935E0425EC30E030936B042093AA
:1018C0006A0424EC30E030936D0420936C0420EC27
:1018D00030E030936F0420936E0421EC30E03093BD
:1018E00071042093700422EC30E030937304209351
:1018F000720426EC30E03093750420937404109247
:101900007704109278041092790410927A0410925D
:101910003A061092390680933B0690933C06A093BA
:101920003D06B0933E068DEB91E090933806809390
:10193000370610924E0610924D06109250061092E5
:101940004F061092520610925106109254061092B1
:101950005306609155066E7F6D7F609355066695C0
:10196000617081E068278BE00E942B0461E08BE0CE
:101970000E947704E9EBF0E0E491E0934706E5EAA2
:10198000F0E0E491F0E0EE0FFF1FEA57FF4F859182
:101990009491909349068093480660E08AE00E9403
:1019A00077048091550681FD04C061E08AE00E94C1
:1019B0002B048AE080934306E8EBF0E0E491E093A7
:1019C0004406E4EAF0E0E491F0E0EE0FFF1FE05798
:1019D000FF4F85919491909346068093450610920F
:1019E00028061092270610922A06109229061092B5
:1019F0002B0610922C0610922D0610922E06109295
:101A00002F06109230061092310610923206109274
:101A100005051092040510920705109206058FEF38
:101A20009FEF909309058093080510921C06109271
:101A30001D0610921E0610921F0610922406109288
:101A400025061092260680E293E09093FE04809390
:101A5000FD041092FF0410920005109201051092EF
:101A6000020510920305089597FB072E16F40094C3
:101A700007D077FD09D00E94900D07FC05D03EF4F9
:101A8000909581959F4F0895709561957F4F08952A
:101A9000A1E21A2EAA1BBB1BFD010DC0AA1FBB1F72
:101AA000EE1FFF1FA217B307E407F50720F0A21BE4
:101AB000B30BE40BF50B661F771F881F991F1A9451
:101AC00069F760957095809590959B01AC01BD017B
:101AD000CF010895052E97FB1EF400940E94810DFE
:101AE00057FD07D00E94480D07FC03D04EF40C941C
:101AF000810D50954095309521953F4F4F4F5F4F49
:101B0000089590958095709561957F4F8F4F9F4F69
:101B100008950E94AA0DB7FF0895821B930B0895A4
:101B2000AA1BBB1B51E107C0AA1FBB1FA617B70703
:101B300010F0A61BB70B881F991F5A95A9F780951F
:101B40009095BC01CD010895EE0FFF1F0590F49113
:101B5000E02D0994A29FB001B39FC001A39F700D17
:101B6000811D1124911DB29F700D811D1124911DA5
:101B700008955058BB27AA270E94D10D0C94220F1C
:101B80000E94140F38F00E941B0F20F039F49F3F81
:101B900019F426F40C94110F0EF4E095E7FB0C9465
:101BA0000B0FE92F0E94330F58F3BA176207730720
:101BB0008407950720F079F4A6F50C94550F0EF4E0
:101BC000E0950B2EBA2FA02D0B01B90190010C014D
:101BD000CA01A0011124FF27591B99F0593F50F465
:101BE000503E68F11A16F040A22F232F342F4427BD
:101BF000585FF3CF469537952795A795F0405395B5
:101C0000C9F77EF41F16BA0B620B730B840BBAF084
:101C10009150A1F0FF0FBB1F661F771F881FC2F7EF
:101C20000EC0BA0F621F731F841F48F48795779503
:101C30006795B795F7959E3F08F0B0CF9395880FBD
:101C400008F09927EE0F9795879508950E943A0E10
:101C50000C94220F0E941B0F58F00E94140F40F0AA
:101C600029F45F3F29F00C940B0F51110C94560F7F
:101C70000C94110F0E94330F68F39923B1F355238D
:101C800091F3951B550BBB27AA276217730784078F
:101C900038F09F5F5F4F220F331F441FAA1FA9F325
:101CA00035D00E2E3AF0E0E832D091505040E69513
:101CB000001CCAF72BD0FE2F29D0660F771F881F74
:101CC000BB1F261737074807AB07B0E809F0BB0B67
:101CD000802DBF01FF2793585F4F3AF09E3F51057B
:101CE00078F00C940B0F0C94560F5F3FE4F3983E82
:101CF000D4F3869577956795B795F7959F5FC9F764
:101D0000880F911D9695879597F90895E1E0660FE4
:101D1000771F881FBB1F621773078407BA0720F05D
:101D2000621B730B840BBA0BEE1F88F7E0950895C6
:101D30000E949F0E6894B1110C94560F08950E9452
:101D40003B0F88F09F5798F0B92F9927B751B0F003
:101D5000E1F0660F771F881F991F1AF0BA95C9F72F
:101D600014C0B13091F00E94550FB1E008950C9469
:101D7000550F672F782F8827B85F39F0B93FCCF31C
:101D8000869577956795B395D9F73EF490958095AC
:101D9000709561957F4F8F4F9F4F0895E89409C0CC
:101DA00097FB3EF490958095709561957F4F8F4F8E
:101DB0009F4F9923A9F0F92F96E9BB279395F695A4
:101DC000879577956795B795F111F8CFFAF4BB0F22
:101DD00011F460FF1BC06F5F7F4F8F4F9F4F16C086
:101DE000882311F096E911C0772321F09EE8872F10
:101DF000762F05C0662371F096E8862F70E060E0CC
:101E00002AF09A95660F771F881FDAF7880F969544
:101E1000879597F9089597F99F6780E870E060E0EB
:101E200008959FEF80EC089500240A941616170673
:101E300018060906089500240A94121613061406BB
:101E400005060895092E0394000C11F4882352F01E
:101E5000BB0F40F4BF2B11F460FF04C06F5F7F4FD6
:101E60008F4F9F4F089557FD9058440F551F59F0BD
:101E70005F3F71F04795880F97FB991F61F09F3F77
:101E800079F087950895121613061406551FF2CFA0
:101E90004695F1DF08C0161617061806991FF1CFF0
:101EA00086957105610508940895E894BB27662717
:101EB0007727CB0197F908950E946F0F0C94220F9A
:101EC0000E94140F38F00E941B0F20F0952311F090
:101ED0000C940B0F0C94110F11240C94560F0E94AC
:101EE000330F70F3959FC1F3950F50E0551F629F1C
:101EF000F001729FBB27F00DB11D639FAA27F00D63
:101F0000B11DAA1F649F6627B00DA11D661F829F89
:101F10002227B00DA11D621F739FB00DA11D621F6E
:101F2000839FA00D611D221F749F3327A00D611D8B
:101F3000231F849F600D211D822F762F6A2F11246D
:101F40009F5750409AF0F1F088234AF0EE0FFF1FA0
:101F5000BB1F661F771F881F91505040A9F79E3FF7
:101F6000510580F00C940B0F0C94560F5F3FE4F377
:101F7000983ED4F3869577956795B795F795E7954D
:101F80009F5FC1F7FE2B880F911D9695879597F956
:101F9000089581E090E0F8940C94CC12AEE0B0E0AB
:101FA000E4EDFFE00C94A3120D891E8986E08C837A
:101FB0001A8309838FEF9FE79E838D83AE01475E6F
:101FC0005F4F6F89788DCE0101960E94F10F2F81AE
:101FD0003885F801E20FF31F10822E96E4E00C948E
:101FE000BF12ACE0B0E0E7EFFFE00C9495127C018B
:101FF0006B018A01FC0117821682838181FFBDC1BA
:10200000CE0101964C01F7019381F60193FD859174
:1020100093FF81916F01882309F4ABC1853239F4B4
:1020200093FD859193FF81916F01853229F4B7016A
:1020300090E00E94D911E7CF512C312C20E02032C2
:10204000A0F48B3269F030F4803259F0833269F4B5
:1020500020612CC08D3239F0803339F4216026C0E4
:102060002260246023C0286021C027FD27C030EDF6
:10207000380F3A3078F426FF06C0FAE05F9E300D44
:102080001124532E13C08AE0389E300D1124332EB4
:1020900020620CC08E3221F426FD6BC1206406C084
:1020A0008C3611F4206802C0883641F4F60193FDA5
:1020B000859193FF81916F018111C1CF982F9F7DF1
:1020C0009554933028F40C5F1F4FFFE3F9830DC044
:1020D000833631F0833771F0833509F05BC022C05D
:1020E000F801808189830E5F1F4F44244394512C53
:1020F000540115C03801F2E06F0E711CF801A08088
:10210000B18026FF03C0652D70E002C06FEF7FEF46
:10211000C5012C870E94CE112C0183012C852F77BD
:10212000222E17C03801F2E06F0E711CF801A0805A
:10213000B18026FF03C0652D70E002C06FEF7FEF16
:10214000C5012C870E94C3112C012C852068222EEA
:10215000830123FC1BC0832D90E048165906B0F480
:10216000B70180E290E00E94D9113A94F4CFF501D2
:1021700027FC859127FE81915F01B70190E00E94C5
:10218000D91131103A94F1E04F1A51084114510419
:1021900071F7E5C0843611F0893639F5F80127FF6B
:1021A00007C060817181828193810C5F1F4F08C0DD
:1021B00060817181072E000C880B990B0E5F1F4FF9
:1021C0002F76722E97FF09C0909580957095619536
:1021D0007F4F8F4F9F4F2068722E2AE030E0A4017E
:1021E0000E941112A82EA81844C0853729F42F7E0A
:1021F000B22E2AE030E025C0F22FF97FBF2E8F36B5
:10220000C1F018F4883579F0B4C0803719F08837F8
:1022100021F0AFC02F2F2061B22EB4FE0DC08B2D48
:102220008460B82E09C024FF0AC09F2F9660B92E83
:1022300006C028E030E005C020E130E002C020E127
:1022400032E0F801B7FE07C060817181828193811D
:102250000C5F1F4F06C06081718180E090E00E5FCF
:102260001F4FA4010E941112A82EA818FB2DFF7762
:102270007F2E76FE0BC0372D3E7FA51450F474FEE2
:102280000AC072FC08C0372D3E7E05C0BA2C372D1F
:1022900003C0BA2C01C0B52C34FF0DC0FE01EA0DFD
:1022A000F11D8081803311F4397E09C032FF06C0F0
:1022B000B394B39404C0832F867809F0B39433FDAC
:1022C00013C030FF06C05A2CB31418F4530C5B181B
:1022D000B32CB31468F4B70180E290E03C870E940D
:1022E000D911B3943C85F5CFB31410F43B1801C059
:1022F000312C34FF12C0B70180E390E03C870E948C
:10230000D9113C8532FF17C031FD03C088E790E04A
:1023100002C088E590E0B7010CC0832F867859F0A1
:1023200031FF02C08BE201C080E237FD8DE2B701D0
:1023300090E00E94D911A51438F4B70180E390E031
:102340000E94D9115A94F7CFAA94F401EA0DF11D15
:102350008081B70190E00E94D911A110F5CF332000
:1023600009F451CEB70180E290E00E94D9113A946D
:10237000F6CFF7018681978102C08FEF9FEF2C96F1
:10238000E2E10C94B112FC01059061507040011023
:10239000D8F7809590958E0F9F1F0895FC0161508E
:1023A000704001900110D8F7809590958E0F9F1F77
:1023B00008950F931F93CF93DF93FB01238121FD9A
:1023C00003C08FEF9FEF28C022FF16C046815781C0
:1023D000248135814217530744F4A081B1819D01C6
:1023E0002F5F3F4F318320838C93268137812F5F6E
:1023F0003F4F3783268310C0EB01092F182F00842D
:10240000F185E02D0995892BE1F68E819F8101965A
:102410009F838E83812F902FDF91CF911F910F91FA
:102420000895FA01AA27283051F1203181F1E8946A
:102430006F936E7F6E5F7F4F8F4F9F4FAF4FB1E0B7
:102440003ED0B4E03CD0670F781F891F9A1FA11DB2
:10245000680F791F8A1F911DA11D6A0F711D811DB3
:10246000911DA11D20D009F468943F912AE0269F78
:1024700011243019305D3193DEF6CF010895462FD7
:102480004770405D4193B3E00FD0C9F7F6CF462FB8
:102490004F70405D4A3318F0495D31FD4052419321
:1024A00002D0A9F7EACFB4E0A695979587957795DE
:1024B0006795BA95C9F700976105710508959B0165
:1024C000AC010A2E06945795479537952795BA95EE
:1024D000C9F7620F731F841F951FA01D0895FC018B
:1024E00088279927E89421912032E9F3293010F0C8
:1024F0002E30C8F32B3241F02D3239F4689404C0E9
:102500000E948D12820F911D219120532A30C0F319
:102510001EF4909581959F4F08957AE0979F902D96
:10252000879F802D910D112408952F923F924F92F5
:102530005F926F927F928F929F92AF92BF92CF9253
:10254000DF92EF92FF920F931F93CF93DF93CDB75C
:10255000DEB7CA1BDB0B0FB6F894DEBF0FBECDBFD4
:1025600009942A88398848885F846E847D848C84A5
:102570009B84AA84B984C884DF80EE80FD800C81AE
:102580001B81AA81B981CE0FD11D0FB6F894DEBF91
:102590000FBECDBFED01089510E0C2E6D0E004C04B
:1025A000FE010E94A40D2196C336D107C9F7F89405
:0225B000FFCF5B
:1025B20001452020300020204220203000202052DF
:1025C2002031300020204120203000202047545468
:1025D2005400492059203330004953422020300012
:1025E2002020532020300020205220313000202093
:1025F20041202030002020475454540049205920C3
:102602003330004953522020300020204320203014
:102612000020205A20203000202045202030002099
:102622002042202030002020522031300020204142
:102632002020300020204754545400492059203390
:102642003000495352202030002020432020300007
:1026520020205A2020300020200000000011018D8F
:1026620000DA00B800CC005801000000009D018D86
:1026720000F101090284019C015374617274207398
:102682006F756E64207369676E616C2000526564B9
:10269200206C69676874206F6E0059656C6C6F7787
:1026A200206C69676874206F6E00477265656E20E2
:1026B2006C69676874206F6E002A2A20446F207349
:1026C200657175656E6365207265636F7264206102
:1026D200742074696D65202873293A200020200037
:1026E2000D0A00456E642073657175656E63650041
:1026F200537465702073657175656E6365207265CC
:10270200636F726420002564002323232053656EC7
:1027120064206D6573736167652023232320410064
:1027220020286E756D626572206F66206172726F0D
:102732007773206C65667429002530336400232387
:10274200232053656E64206D657373616765202372
:102752002323205400202874696D6520636F756EF1
:102762007420646F776E207365636F6E64732920C3
:10277200002323232053656E64206D6573736167A4
:102782006520232323206131202841422920002370
:1027920023232053656E64206D6573736167652022
:1027A200232323206132202843442920002323238A
:1027B2002053656E64206D65737361676520232302
:1027C20023205331202869732073686F6F74696EF8
:1027D2006729002323232053656E64206D6573737C
:1027E2006167652023232320533020286973206EDC
:1027F2006F742073686F6F74696E672900232323D7
:102802002053656E64206D657373616765202323B1
:1028120023205231202873657175656E63652072BD
:10282200756E6E696E6729002323232053656E64DB
:10283200206D657373616765202323232052302046
:102842002873657175656E6365206E6F742072758D
:102852006E6E696E672900446F20636F6D6D616EE5
:102862006400737461727453657175656E6365009B
:10287200477265656E206475726174696F6E202897
:1028820073293A20004172726F777320746F20733C
:10289200686F6F743A2000546865207365717565BE
:1028A2006E63653A00202D20737461727473206127
:0E28B2007420007300736574414243440000BB
:00000001FF
